:10040000EFC000001DC100001BC100000C946A2B4E
:1004100017C1000015C1000013C1000011C1000088
:100420000FC100000DC100000BC1000009C1000098
:1004300007C1000005C1000003C1000001C10000A8
:10044000FFC00000FDC00000FBC00000F9C00000BC
:10045000F7C00000F5C00000F3C00000F1C00000CC
:10046000EFC00000EDC00000EBC00000E9C00000DC
:10047000E7C00000E5C000000C94722B0C94E72A42
:100480000C94E12A0C94ED2ADBC00000D9C00000D6
:1004900000407A10F35A00A0724E18090010A5D43B
:1004A000E80000E87648170000E40B54020000CA98
:1004B0009A3B000000E1F5050000809698000000DE
:1004C00040420F000000A08601000000102700003D
:1004D0000000E803000000006400000000000A00C3
:1004E000000000000100000000002C76D888DC67C6
:1004F0004F0823DFC1DFAE59E1B1B796E5E3E4531E
:10050000C63AE651997696E8E6C28426EB898C9B3A
:1005100062ED407C6FFCEFBC9C9F40F2BAA56FA5DA
:10052000F490055A2AF75C936B6CF9676DC11BFC5C
:10053000E0E40D47FEF520E6B500D0ED902E030077
:10054000943577050080841E080000204E0A0000C4
:1005500000C80C333333330F986E12831141EF8D83
:100560002114893BE65516CFFEE6DB18D1844B38C3
:100570001BF77C1D901DA4BBE424203284725E22F4
:100580008100C9F124ECA1E53D2700000000000036
:1005900000000000000074657374340074657374A7
:1005A000330074657374320074657374310055AA36
:1005B000C33CA805A2059C059605950594059305E1
:1005C0009205910590058F058E058D058C058B058F
:1005D0008A0500080AFFFFFF1012FF1800180D2CF3
:1005E00011241FBECFEFCDBFDFE7DEBF80E18093D8
:1005F000011088ED90E984BF9093011016E6A0E009
:10060000B0E6E8EBFFE602C005900D92A237B10715
:10061000D9F72CE6A2E7B6E601C01D92AC37B207C7
:10062000E1F712E0C0EFD2E004C02197FE010E9482
:100630007737CF3ED107C9F70E94E12D0C94DA3706
:10064000DFCECF932091A8663091A9668091A466F1
:100650009091A566A091A666B091A766AC01BD0178
:100660004170552766277727B695A7959795879563
:10067000F901E071F470E115F44091F5452B462B3A
:10068000472B41F040EA842747E394274EE6A4270E
:100690004FE8B4278093A4669093A566A093A666BE
:1006A000B093A766F901EE0FFF1F20FF26C04BE5B0
:1006B000E42745E7F427E093A866F093A966E7707E
:1006C000FF27E730F10508F056C0E759FC4F0C94BE
:1006D00077377F038C0392039903A003AC03B40321
:1006E000452B462B472BB1F2CBED8C27CEE89C2730
:1006F000C0E6AC27C2E8BC27CDCFE160DCCF80915B
:10070000A4668095982F907E8091A66686958695A2
:100710008695892BCF9108958091A5669091A766C3
:100720008927F8CF8091A46680959091A5669B5EFD
:10073000F7CF8091A5669091A666890F805CEACF7D
:100740008091A46690E1899F900111248091A76611
:1007500082958F70822BDECF8091A66699E58927DE
:100760009091A766890FD6CF8091A46680959091CD
:10077000A6669F57D5CF8091A5668C5F9091A7669E
:10078000891BC8CF2F923F924F925F926F927F92B8
:100790008F929F92AF92BF92CF92DF92EF92FF9291
:1007A0000F931F93CF93DF93CDB7DEB76297CDBF83
:1007B000DEBFDB0149875A874090A4665090A5664A
:1007C0006090A6667090A7664B865C866D867E8676
:1007D0002090A8663090A966C12CD12C760190E0BB
:1007E00014968D909D90AD90BC901797F601E37094
:1007F000FF27EE0FFF1FEE0FFF1F69847A84E60DBF
:10080000F71D40815181628173812A013B014C0CAB
:100810005D1C6E1C7F1C9501840144E0000F111FBC
:10082000221F331F4A95D1F7B501A401E5E0769563
:10083000679557954795EA95D1F7042715272627F9
:100840003727080D191D2A1D3B1DB301A2014027A2
:100850005127622773270D911D912D913C9113977C
:10086000400F511F621F731F4D935D936D937C93D7
:10087000139707E4C01A06E8D00A08ECE00A01E67C
:10088000F00A2A013B01F5E0769467945794479467
:10089000FA95D1F74D825E826F8278869701860144
:1008A000EBE03695279517950795EA95D1F7F8016E
:1008B000E370FF27EE0FFF1FEE0FFF1F69847A849E
:1008C000E60DF71D00811181228133812801390154
:1008D0004C0C5D1C6E1C7F1C4F86588A698A7A8A74
:1008E0008A019B01E4E0000F111F221F331FEA95CC
:1008F000D1F74D805E806F807884042515252625EC
:100900003725040F151F261F371F280139010F85B2
:10091000188929893A890425152526253725080DA2
:10092000191D2A1D3B1D14960D931D932D933C9369
:100930001797923079F40427152726273727B9010E
:10094000A80140644B875C876D877E872D803E8041
:10095000689425F89F5F891343CF6B857C858D85CF
:100960009E856093A4667093A5668093A666909317
:10097000A7662092A8663092A9666296CDBFDEBFB8
:10098000DF91CF911F910F91FF90EF90DF90CF906B
:10099000BF90AF909F908F907F906F905F904F909F
:1009A0003F902F90089546E551E66CE67CE68DE099
:1009B000E9DE46E551E664E77CE681E1E3CE80E1ED
:1009C0008A95F1F7E0E6F4E088E0828380E28A9598
:1009D000F1F780E1828388E18A95F1F70895EFDFEE
:1009E000E0E6F4E080E1818380E28A95F1F788E037
:1009F000818380E18A95F1F7089580E18A95F1F786
:100A0000E0E6F4E098E0928380E28A95F1F7808551
:100A100091838295817008951F93CF93DF93D82F90
:100A2000C8E010E1D7FF11C010936204DD0FE5DFCD
:100A3000C150C1F7C0E1C0936204DFDFC09361041D
:100A40000000DF91CF911F91089510936104EECFC4
:100A50001F93CF93DF93182F80E1809362040000EF
:100A6000D8E0C0E0CC0FC9DFC82BD150D9F780E166
:100A7000112369F0809362040000BFDF80E180935E
:100A8000610400008C2FDF91CF911F910895809316
:100A90006104F2CFEF92FF920F931F93CF93DF93F6
:100AA0008C017B014CE65CE6BC0186E06BDEE80174
:100AB0002896CE01801B910B8E159F0538F4C1DD61
:100AC0009991FE01319789278083F3CFDF91CF91F0
:100AD0001F910F91FF90EF900895CF92DF92FF92B8
:100AE0000F931F93CF93DF93EC01F62E142F77DF34
:100AF00084E492DF082F81110EC01123B1F0812F01
:100B00008BDF2097A1F4812F87DFFF2021F08DE07C
:100B100083DF8AE081DF53DF802FDF91CF911F9148
:100B20000F91FF90DF90CF900895209771F36E01A1
:100B30008FEFC80ED11C8991882321F06DDFCC1670
:100B4000DD06C9F7112309F3DECF40E061E0C5CF30
:100B5000CF93C82F90E024E0959587952A95E1F7EB
:100B60008A3048F4805D58DF8C2F8F708A3028F4EB
:100B7000805DCF9151CF895CF6CF895CFACF0F931E
:100B80001F93CF93DF93182F092FD62F28DF84E4EC
:100B900043DFC82F81110AC0802FDADF812FD8DF11
:100BA000DD2321F08DE038DF8AE036DF08DF8C2F8F
:100BB000DF91CF911F910F91089560E0E0CF40E069
:100BC00060E08BCFCF930BDF84E426DFC82F811149
:100BD00004C08DE021DF8AE01FDFF1DE8C2FCF9192
:100BE00008958091226B8F5F8A3028F48EE791E61A
:100BF000ACDF8EEE089585E991E6E1DF82E29BE6C7
:100C0000A4DF80E008958091426B8F5F8A3028F4E2
:100C100081EA91E69ADF8EEE089588EB91E6CFDFC8
:100C200082E49BE692DF80E008954F925F926F929C
:100C30007F928F929F92AF92BF92CF92DF92EF926C
:100C4000FF920F931F93CF93DF938FB7F894C090C9
:100C50009D66D0909E66E0909F66F090A0668FBFE4
:100C6000860180E1882E8EE0982EA12CB12C9CE389
:100C7000492E512C612C712C2091826A3091836A0B
:100C8000C091846AD0E080916C6A90916D6A02177D
:100C9000130709F47BC02F5F3F4FE0E6FAE670E0F0
:100CA00060E06C177D0774F441915191141615069C
:100CB00034F4DF011297415051094D935C936F5FFB
:100CC0007F4FEFCF0196883E43E0940700F32093D7
:100CD000826A3093836A8091726A9091736AA0915C
:100CE000746AB091756A0196A11DB11D8093726AF4
:100CF0009093736AA093746AB093756A80916E6AD8
:100D000090916F6AA091706AB091716A0196A11D6D
:100D1000B11D8038E1E59E07E1E0AE07B10568F559
:100D200080936E6A90936F6AA093706AB093716AB1
:100D300010926C6A10926D6AC091856AD091866A31
:100D4000209709F499CF60916E6A70916F6A8091D3
:100D5000706A9091716AA50194010E94F835A3010F
:100D600092010E94F8358091876A821709F484CF36
:100D70002093876AFE0109957FCF10926E6A1092C8
:100D80006F6A1092706A1092716AD2CFC092826AB2
:100D9000D092836A80936C6A90936D6ADF91CF9151
:100DA0001F910F91FF90EF90DF90CF90BF90AF9089
:100DB0009F908F907F906F905F904F900895AF922B
:100DC000BF92CF92DF92EF92FF920F931F93CF9338
:100DD000DF936C017B018B01040F151FEB015E019A
:100DE000AE18BF08C017D10759F06991D601ED912F
:100DF000FC910190F081E02DC6010995892B79F7CE
:100E0000C501DF91CF911F910F91FF90EF90DF907F
:100E1000CF90BF90AF900895FC0151894289252F52
:100E200030E0842F90E0821B930B541710F0CF9684
:100E3000089501970895FC0197858089981761F0BE
:100E4000A089AE0FBF2FB11D53968C9190899F5FE3
:100E50009F73908B90E008958FEF9FEF0895FC01B2
:100E600097858089981731F08089E80FF11D838973
:100E700090E008958FEF9FEF0895FC0197852089FA
:100E8000892F90E0805C9F4F821B91098F73992777
:100E90000895FC010FB607FE04C08091110188235C
:100EA000A9F0A085B18514968C91149785FF0EC08A
:100EB00091898289981307C015968C9115978F7D1B
:100EC00015968C930895E8940C94FA2A08950F933C
:100ED0001F93CF93DF93EC018E8581608E87998974
:100EE0008A8998130BC0E885F985848185FF06C03F
:100EF0008E8581FD0DC080E4848312C0062F198980
:100F00001F5F1F738A89811315C0CE01C2DFFACF1C
:100F100085818F77806490E49483E885F985858363
:100F2000E885F985628381E090E0DF91CF911F91A0
:100F30000F910895E989EC0FFD2FF11DED5AFF4F38
:100F40000083198B8E85E885F98581FF09C085812D
:100F50008F77806690E49483E885F9858583E3CF75
:100F600085818062FBCF682F8AEA96E6B0CFCF9367
:100F7000DF93EC018E85882359F0E885F98585811A
:100F800085FD03C0848186FD03C0CE0182DFF5CFDD
:100F9000DF91CF9108958AEA96E6E9DFAAEAB6E6FC
:100FA0001896ED91FC91199786811682858115829C
:100FB00080E4848350968C9150971F968C931F9752
:100FC0001E961C920895CF93DF938091B86680FDA2
:100FD000E2DF6FB7F894E091B266F091B3661682E3
:100FE00033E0378388E893E180879187148680E82F
:100FF000858380EC86832091B7667091B666809178
:10100000B4669091B566FC01239FE00DF11D11249B
:1010100045915491271708F03EC05C3190F4252F7C
:1010200030E0F901E65CFE49A081AF3F51F0225E5D
:101030003E49E901E881D0E2ED9FF0011124FC5F17
:10104000A18321E0250F2C3130F530E0F901E65C79
:10105000FE49C081CF3FF9F0F901E25EFE49A0816F
:10106000E0E2AE9FD0011124BC5F2E5F3E49F90142
:10107000D081F0E0E0E0D83030F49D01205F3F4FB8
:10108000F901ED0FF11D3FB7F8941296CC93208132
:10109000286020833FBFFC0123E0729FE00DF11D1B
:1010A00011243296E4918091E205E095E823E42B47
:1010B000E093E2056FBFDF91CF910895CF938AEA65
:1010C00096E6DBDE892B09F094C08091DE678330E1
:1010D00008F0BAC0909140672091D9673091DA67E3
:1010E000F901EE56FF4F408132968081941708F047
:1010F0005EC080FF33C0492F50E081FF1FC08D7F4D
:101100008083E091D967F091DA67E40FF51F808161
:101110008B3109F050C09F5F90934067C9E06C2FFE
:101120008AEA96E6D4DEE091DE6781E08E0F809356
:10113000DE67F0E0E552F849C08333C09F5F9093CB
:101140004067240F351FD901CC9191E0CB3109F0D4
:1011500090E0808190FB81F98083E1CF6091DF672F
:101160008AEA96E6B4DE8091DF67E091DE6791E07F
:101170009E0F9093DE67F0E0E552F8498083E0919E
:10118000D967F091DA67EC56FF4F80818D7F8083BD
:10119000E091D967F091DA67EC56FF4F808181606A
:1011A0008083809141678F5F809341678ECF81FFFD
:1011B00004C08D7F8083C8E0B2CF692F641B770B9A
:1011C00089F06130710599F08E7F8083E091D96755
:1011D000F091DA67EC56FF4F80818F7B808381E04E
:1011E000CF910895CBE19F5F9093406798CFC7E080
:1011F000FACF1092C76B8AEA96E61DDE9091DE6701
:10120000992321F12091DB67821320C08091DC6754
:101210008093DB678091DD678093DC678FEF890FB8
:101220008093DE67E091D967F091DA67EE56FF4F61
:10123000209140679081291708F441CF81113FCF59
:101240008AEA96E694DECBCF80E0CACF82EEC8CFA2
:10125000079A20E533EC93E0179A44E1F9013197BE
:10126000F1F74150D9F7482F179AF9013197F1F763
:10127000179A59E0F9013197F1F75150D9F74150D8
:1012800099F7915049F7E7CF9FB7F894E0912A0B6F
:10129000F0912B0B8091260B20919D6630919E66DC
:1012A00040919F665091A0669FBF80FF08C0CF010C
:1012B0008827892B21F42F5F3F4F4F4F5F4F0F013E
:1012C000169407941694079416940794169407940A
:1012D000F00116940794E00DF11D16940794102C5C
:1012E000169401181694010C169401181694010C0A
:1012F0001694011816941694010C1124E019F109A2
:10130000A8EEB3E00E94B7356E0F7F1F811D911DBF
:101310000895CF92DF92EF92FF92CF93DF936B010C
:101320007C01B2DFEB01B0DF6C1B7D0B683E7340CC
:10133000D0F381E0C81AD108E108F108C851DC4FA8
:10134000C114D104E104F10471F7DF91CF91FF9052
:10135000EF90DF90CF900895CF92DF92FF920F939E
:101360001F93CF93DF93EC01D62EC72E8A01809175
:10137000106B882361F02CE3F22E64E670E080E0CD
:1013800090E0C7DFFA94F110F8CF1092106B8EEE58
:10139000F82E0115110511F122DB88EA3DDBF82E4C
:1013A000811125C08C2D38DB8D2D36DB18DB89EAC9
:1013B00033DB6E0101501109C6018C1B9D0B801798
:1013C000910730F480E044DBF60181936F01F4CFA4
:1013D000C00FD11F81E03CDB8883F1DA8F2DDF91D4
:1013E000CF911F910F91FF90DF90CF9008959EEEC7
:1013F000F92EF3CF5F926F927F928F929F92AF926E
:10140000BF92CF92DF92EF92FF920F931F93CF93F1
:10141000DF93CDB7DEB7C054D109CDBFDEBF7C01AD
:10142000C12C38E0D32E0FEF1FEFA12C44E0B42ED7
:10143000CE0101963C0190E4E916F104C0F45E2C63
:10144000E11017C0C801C05CDF4FCDBFDEBFDF9128
:10145000CF911F910F91FF90EF90DF90CF90BF90B1
:10146000AF909F908F907F906F905F90089520E451
:10147000522E852C912CA401B501C3016DDFE81813
:10148000F908A80CB91CF3018191182788E098018C
:10149000000F111F37FF04C091E2092790E11927BF
:1014A0008150A9F78E2F8619851570F381E0C81A2F
:1014B000D10809F0C0CFC6CFCF92DF92EF92FF9252
:1014C0000F931F93CF936C01162F072FE42E80915B
:1014D000106B882351F0CCE364E670E080E090E08C
:1014E00018DFC150C9F71092106BEE2001F177DAC6
:1014F00088EA92DAC82F811119C0802F8DDA812FE6
:101500008BDA8601F12CC8018C199D098E159F0577
:1015100080F4C114D10439F48FEF7EDA811106C052
:101520000F5F1F4FF0CFF8018081F7CF48DACEEE82
:1015300004C045DA86E08093106B8C2FCF911F9109
:101540000F91FF90EF90DF90CF900895009751F0AA
:10155000FC01EC56FF4F80818F7B8F7D80838AEA70
:1015600096E605CD08958AEA96E687DC892B31F068
:101570001092C76B8AEA96E65EDCF5CF0895FC010F
:10158000A081B1818C918D3021F038F48950823066
:10159000A8F51196A083B183F3CF8032D1F38F32B7
:1015A00009F0089511968C9111978A3219F08F32B3
:1015B000C1F008951196A083B183A081B181CD01BE
:1015C00001968083918311968C9111978823B1F0B5
:1015D0008A3299F712968C9112978F3271F713967F
:1015E000D9CFA081B181CD010196808391831196DD
:1015F0008C91882319F08A30A1F7C2CF08951F93E8
:10160000CF93DF93EC01162FBADFE881F981808157
:10161000181308C03196E883F98381E0DF91CF91F8
:101620001F91089580E0FACF0F931F93CF93DF931C
:10163000EC010C811D810296A2DFEA81FB81808191
:10164000873211F0823261F53196EA83FB83EA81B9
:10165000FB819081992309F445C09F012F5F3F4F83
:101660002A833B838917F1F19C3579F49181A7ECAA
:10167000B1E62C91222321F0921310C011969C9177
:10168000992381F13296EA83FB83EC81FD819F01EE
:101690002F5F3F4F2C833D839083D9CF1296E9CFA4
:1016A00080336CF18A3324F08F35A4F08B37A4F4A7
:1016B0002A813B812F5F3F4F2A833B83EC81FD8151
:1016C0009F012F5F3F4F2C833D838083EA81FB8105
:1016D0008081E6CF81349CF08B3554F393ED980FE5
:1016E000923030F3EC81FD81CF0101968C839D8394
:1016F0001082C801DF91CF911F910F9108958B3215
:1017000069F7D6CF8091846681110BC010928066F4
:1017100010928166109282661092836681E08093B7
:10172000846680E896E608958091786681110BC002
:1017300010927466109275661092766610927766B3
:1017400081E08093786684E796E60895DB01109740
:1017500049F0ED91FC9111970190F081E02DBC01D1
:10176000CD01099490E080E00895382FFC018FEFBF
:101770009FEF2E2F231B261788F42191AC015227AF
:1017800028E0CA01880F991F57FF04C041E284274F
:1017900040E194272150AC01A1F7EBCF0895CF93FE
:1017A000DF93009709F1DC01AE56BF4FEC91EF38A3
:1017B000D8F4EC01C057DF4F28813981EC01CE0FFE
:1017C000D11D388332E03E0F3C93EF5FE80FF92FD5
:1017D000F11D2083FC01EC56FF4F808180648083E3
:1017E00080E0DF91CF9108958EEEFBCF0F931F9392
:1017F000CF93DF93DC01AE56BF4FEC91E03928F573
:10180000EC01CC56DF4F288126FD1FC0249728818C
:101810003981362748E08901220F331F17FF04C0A2
:1018200051E2252750E135274150A9F72883398314
:1018300021E02E0F2C93E80FF92FF11D608380E03B
:10184000DF91CF911F910F9108958EEEF9CFCF9236
:10185000DF92EF92FF920F931F93CF93DF9300D00D
:1018600000D0CDB7DEB76C018091726A9091736A37
:10187000A091746AB091756A89839A83AB83BC83A3
:101880008E010B5F1F4FCE0101967C01F801629122
:101890008F01C601ABDF0E151F05C1F72496CDBF22
:1018A000DEBFDF91CF911F910F91FF90EF90DF90FE
:1018B000CF900895CF92DF92FF920F931F93CF9313
:1018C000DF93FC01EC56FF4F208126FD15C0EC0193
:1018D000F62E8B016C0182E9C80ED11C802F8F1966
:1018E000F80161918F01662341F0F60190819039F2
:1018F00020F4CE017BDFF2CF80E0DF91CF911F910A
:101900000F91FF90DF90CF900895FC0126813781E1
:101910002F5F3F4F2E7F26833783620F731F848193
:1019200095818617970738F082819381820F931FE4
:1019300066837783089590E080E00895CF93DF93E6
:10194000D82F4DD884E468D8C82F811102C08D2FBC
:10195000FFD835D88C2FDF91CF910895CF93DF93A7
:10196000D82F3DD884E458D8C82F811102C08D2FBC
:1019700053D825D88C2FDF91CF9108958091826B19
:101980008F5F8A3050F48091226BD8DF8DE2E6DFE2
:1019900082ED91E6DAD88EEE089581EE91E60FD9C8
:1019A00082E89BE6D2D880E00895CF93CEE08DE325
:1019B000D5DFC150E1F7CF9105C91F93CF93DF93D6
:1019C000182FEB0180919A6886FD0BC08B7F809366
:1019D0009A688FEF9FEF8093966890939768109224
:1019E00098680E945C3020E031E040E050E00E94C6
:1019F0009B35607F612B86E098E6F8DE60911A6B7C
:101A000086E098E6F3DE6091196B86E098E6EEDEFC
:101A10006D2F86E098E6EADE6C2F86E098E6E6DE3B
:101A200060919F687091A0686E3F7105F0F46F5FE0
:101A30007F4F60939F687093A06886E098E6D6DE3B
:101A40000E945C3020E031E040E050E00E949B3595
:101A500086E098E6CBDE61E086E098E6C7DE86E0C9
:101A600098E6DF91CF911F91F2CE61E070E0E1CF77
:101A7000BF92CF92DF92EF92FF920F931F93CF937B
:101A8000DF93CDB7DEB76097CDBFDEBF182F092F2C
:101A9000C62E0E94EF0484E40E940C05D82E81110A
:101AA00027C00F931F9380E592E69F938F93CE01FB
:101AB00001967C019F938F930E94BA37B82E0F90A6
:101AC0000F900F900F900F900F908701802F8E191D
:101AD0008B1530F4F80181918F010E940C05F6CF2F
:101AE000CC2031F08DE00E940C058AE00E940C05AC
:101AF0000E94DF048D2D6096CDBFDEBFDF91CF91B8
:101B00001F910F91FF90EF90DF90CF90BF900895BD
:101B100060E0AECFCF93DF938FEE91E650D842E2F4
:101B200060E087EF91E60E946D0587E092E647D876
:101B300081E090E0EDDF8EE211DF61E090E080E097
:101B400097DF81E192E63BD842E260E089E192E6EC
:101B50000E946D0587E596E632D890E080E0D8DFF8
:101B60008EE2FCDE80E190E0D3DF89E292E627D8C6
:101B7000C1E1DBE68B859C8520D88EE2EFDE61E05B
:101B80008D859E85DF91CF910C94BF050F931F9398
:101B9000CF93DF93CDB7DEB7A097CDBFDEBF209147
:101BA000176B3091186B37FD12C08091156B9091B7
:101BB000166B97FD0CC04091156B5091166B6091A0
:101BC000176B7091186B452B462B472B61F486E3FE
:101BD00092E60E94A505A096CDBFDEBFDF91CF9112
:101BE0001F910F9108958E010F5F1F4F2115310531
:101BF00091F49F938F9387E492E69F938F931F9323
:101C00000F930E94BA370F900F900F900F900F9084
:101C10000F90C801DECF9F938F933F932F9383E55F
:101C200092E69F938F931F930F930E94BA37CDBF75
:101C3000DEBFEFCF0F931F93CF93DF93CDB7DEB708
:101C4000A097CDBFDEBFE1E1FBE681858F93808564
:101C50008F9384E692E69F938F938E010F5F1F4FC1
:101C60001F930F930E94BA37C8010E94A5050F90D9
:101C70000F900F900F900F900F90A096CDBFDEBFEA
:101C8000DF91CF911F910F9108951F93CF93DF9311
:101C9000CDB7DEB76097CDBFDEBF60916E6A709141
:101CA0006F6A8091706A9091716A20E13EE040E035
:101CB00050E00E94F835122F2CE330E040E050E075
:101CC0000E94F8353F932F931F921F9382E792E66D
:101CD0009F938F93CE0101969F938F930E94BA3763
:101CE000CDBFDEBF6096CDBFDEBFDF91CF911F912C
:101CF00008950F931F93CF93DF93853008F0A2C010
:101D0000EB0190E0FC01E556F74920812F7023306C
:101D100009F468C058F4213061F1223009F444C05C
:101D200080E38883198281E090E057C0243009F471
:101D30006BC02530A9F7880F991F880F991FFC01E8
:101D4000E955F74983818F9382818F9381818F93A6
:101D500080818F9385E892E69F938F93DF936F93B3
:101D60000E94BA372DB73EB7285F3F4F2DBF3EBF09
:101D700034C0880F991F880F991FFC01E955F74956
:101D800060817181828193818E0122E044E00E9412
:101D9000F62FFE0190E080E021912223F1F00196E0
:101DA00080329105C9F7BCCF880F991F880F991F02
:101DB000FC01E955F74981818F9380818F9380E5FC
:101DC00092E69F938F93DF936F930E94BA370F90A1
:101DD0000F900F900F900F900F90DF91CF911F9168
:101DE0000F910895880F991F880F991FFC01E955DD
:101DF000F74981818F9380818F938EE792E69F933D
:101E00008F93DF936F93E1CF880F991F880F991FEE
:101E1000FC01E955F74983818F9382818F938181FA
:101E20008F9380818F9381E892E69F938F93DF93C6
:101E30006F930E94BA372DB73EB7285F3F4F2DBF33
:101E40003EBFCBCF90E080E0C8CF0F931F93CF93DE
:101E5000DF93482F50E0DA01A65CBE498C918F3F9A
:101E600009F4A3C08A01025E1E49E801E881D0E2BC
:101E7000ED9FF0011124FC5F611132C086839081D7
:101E800089239A012E5F3E49811111C0E901988191
:101E9000309741F1983030F57096E90FF11D9FB7FA
:101EA000F8948081611121C0877F80839FBFF901F1
:101EB00080818F3F09F479C0E80128818630B8F429
:101EC0008091E7058770281312C0EC91E53008F087
:101ED000EE0F8091010AE095E823E093010A65C0C6
:101EE0008583CDCFF0E0E0E0DACF8860DECF4A51E5
:101EF0005F49FA01808186FF42C09091E9059770A1
:101F0000482F50E04F7B94171506C9F5EC9180914E
:101F1000920B9E2FE03110F49295907F892309F463
:101F200044C0D0E22D9F900111243C5FE83008F0BE
:101F300052C0205F3F4FE20FF32FF11D4FB7F894CF
:101F40009091800B9E7F9093800B90918E0B90FFD1
:101F5000FCCF2091920B90E08095909530E0822309
:101F6000932328ED24BF8093920B8091800B816096
:101F70008093800B80818F7780834FBF16C085FF51
:101F800012C090E1899FF0011124F75F9181977051
:101F9000973059F4EC91853268F4803298F48031AE
:101FA00009F494CF02C08111F5CFDF91CF911F9139
:101FB0000F910895803409F4AACF8038B1F71092B8
:101FC000A006F3CFC0E18C9FF0011124F75F81815F
:101FD0008F7E8183EACFF0E0E0E0B0CF8093C56BE5
:101FE0009093C66B61E089E130CFFC010190002045
:101FF000E9F73197AF01481B590BBC018AEA96E615
:102000000C94DF0689E892E6F0CFCF93CEE08DE323
:102010000E94B307C150D9F7CF91F4CF8F929F920E
:10202000AF92BF920F931F93CF93DF93CDB7DEB7DD
:10203000A197CDBFDEBF19A2423008F44AE08E015D
:102040000F5D1F4F842E912CB12CA12CA501940162
:102050000E94F835E62FB901CA01EA30D4F4E05DF8
:10206000D801EE938D01232B242B252B79F790E0BB
:1020700080E0109711F0CD01B8DFA196CDBFDEBF93
:10208000DF91CF911F910F91BF90AF909F908F9054
:102090000895E95CE5CFCF92DF92EF92FF92CF9364
:1020A000DF936C01990FEE08FF08F7FE16C08DE272
:1020B0000E94B307EC0166277727CB016C197D09D5
:1020C0008E099F094AE0AADF8C0F9D1FDF91CF91F7
:1020D000FF90EF90DF90CF9008954AE0C701B601DE
:1020E000DF91CF91FF90EF90DF90CF9097CFCF937C
:1020F000DF93D0E0C0E0009711F077DFEC0182DFE2
:102100008C0F9D1FDF91CF910895009709F06DCF3F
:1021100090E080E00895CF93DF93CDB7DEB70E94C3
:10212000150610925F6AAFE5BAE6EC91A4E8BAE64C
:102130008C91E81750F5F0E0EE0FFF1FEA58F549D3
:1021400080819181892B99F08EEB99E60E94B130C4
:10215000EFE5FAE6208130E0220F331FF901009706
:1021600071F4EA58F5490190F081E02D09950E943B
:102170001506AFE5BAE68C918F5F8C93D4CFE05A09
:10218000F549019780839183F2CFEFE5FAE610825B
:10219000DF91CF910895CF93DF93CDB7DEB7E09174
:1021A0005F6AF0E0EE0FFF1FE05AF54980819181F0
:1021B000892BF9F48EEB99E60E94B13020915F6A89
:1021C00030E0009771F42F5F3F4F47E1429FC0011D
:1021D000439F900D112461E070E0825496490E9463
:1021E000D130220F331FF901E05AF549019780835E
:1021F0009183EFE5FAE680818F5F80839091846A16
:10220000981708F410820E941506DF91CF91089567
:10221000CF93DF93CDB7DEB760E081E116DEEFE567
:10222000FAE6208130E02F5F3F4FF7E1F29FC001D7
:10223000F39F900D1124825496490E94B130892B4E
:1022400031F465E670E08EEB99E60E94D13061E0F2
:1022500081E1FBDDEFE5FAE6208130E02F5F3F4FC3
:10226000F7E1F29FC001F39F900D1124825496492B
:102270000E94B130892B81F665E873E0E4CF0F93BB
:102280001F93CF93DF938B01FC01C281D3812097F1
:1022900059F06A817B810115110519F061157105ED
:1022A00049F46017710759F4CE01DF91CF911F9166
:1022B0000F910895C8010E947D37892BA9F30990D9
:1022C000D881C02DE4CFCF93DF93D9DFFC01892BD8
:1022D00009F464C0848195818330910588F5019764
:1022E00008F45CC00680F781E02D309709F456C0F1
:1022F0008081843709F456C08B3209F442C08D3294
:1023000009F040C03196D1E060E070E0CB01C191AE
:1023100020ED2C0F2A30C0F5AAE0B0E09B01AC0103
:102320000E94B7352C2FCC0F330B20533109032ECD
:10233000000C440B550B620F731F841F951FE7CFD2
:102340008530910548F0059771F066817781808529
:1023500091850E94323604C066817781808591859F
:10236000DF91CF91089586819781A085B1859C01E9
:10237000AD0166277727CB01621B730B840B950B8E
:10238000EFCF3196D0E0C0CFDD2351F3909580950B
:10239000709561957F4F8F4F9F4FE2CF60E070E067
:1023A000CB01DECF61E070E080E090E0D9CFAF926A
:1023B000BF92CF92DF92EF92FF920F931F93CF9332
:1023C000DF93CDB7DEB72697CDBFDEBF7C01DC0142
:1023D00016968C91811103C095D98C017EC08150D5
:1023E000F7018683C080D180B60184E090E0AED949
:1023F0008C01009709F480C0DC01CD92DC9211972A
:1024000012961D921C9213976701B2E0CB0ED11C5D
:102410006BE7C601F4D88823F9F26DE7C601EFD85F
:10242000811157C0C70100D95C01892BA9F26AE369
:10243000C601E5D8882381F219821A82BE016F5F36
:102440007F4FC7015CD0882309F4C6CFB501C8010E
:1024500016DF009751F5F801608171818AE090E004
:1024600075D9009741F0DC011D921C9211971496CA
:102470001D921C921597D8011296ED91FC91309700
:1024800029F4F8018283938308C0F9012081318106
:1024900021153105D1F780839183009709F49CCFF2
:1024A000DC011296AD92BC92139726E0FE013196A4
:1024B000DC01149601900D922A95E1F76DE7C601B3
:1024C0009ED8811106C06CE2C60199D88111AACFAD
:1024D00083CFF70186818F5F8683C8012696CDBFA3
:1024E000DEBFDF91CF911F910F91FF90EF90DF90B2
:1024F000CF90BF90AF90089505D98C0185CF8F9272
:102500009F92AF92BF92CF92DF92EF92FF920F9382
:102510001F93CF93DF93CDB7DEB72697CDBFDEBF36
:102520007C016B015C0182E0A80EB11CC50127D8BB
:10253000D7011296ED91FC91139780818B35D9F0DC
:102540008B3709F4A8C011E0873219F0823209F004
:1025500010E0C70169D8009709F47FC021E030E09E
:10256000112309F4A1C022E030E0F6012083318379
:102570008283938373C0F7018681811103C0D4D80D
:102580008C0166C0815016968C9316978D909C9006
:10259000B40184E090E0DAD88C01009709F48DC092
:1025A000FC0180829182128213826BE5C50127D8DB
:1025B000882329F36DE5C50122D8811142C0198213
:1025C0001A82BE016F5F7F4FC70199DF8823B9F27E
:1025D000D8016D917C9188E090E0B8D8DC01892B1E
:1025E00039F01D921C92119712961D921C9213970E
:1025F000F801228133812115310521F4A283B383AF
:1026000008C09C01F901808191810097D1F7A083D6
:10261000B183109709F4B3CF86E0FE01319612968C
:1026200001900D928A95E1F76DE5C5010E94FF0AC0
:10263000811107C06CE2C5010E94FF0A8111BFCF62
:102640009ECFD70116968C9116978F5F16968C9316
:10265000F80180819181892B91F410E0812F2696D9
:10266000CDBFDEBFDF91CF911F910F91FF90EF9013
:10267000DF90CF90BF90AF909F908F90089586E0AD
:1026800090E0D6018D939C93119712960D931C9315
:10269000139711E0E3CFC7018ADEFC01208131816D
:1026A000232BD9F227E030E0D6012D933C931197EC
:1026B00012968D939C931397ECCF36D88C0175CFDF
:1026C000CF93DF93EB01E82FF0E0EE0FFF1FEE5406
:1026D000FA4F659174916115710521F480E0DF91E5
:1026E000CF910895CE010E94F130FE0101900020AB
:1026F000E9F73197EC1BFD0BCF010197CF9770F7EE
:102700008E2FEDCFFF920F931F93CF93DF93CDB713
:10271000DEB7C058D109CDBFDEBF8CE892E60E947B
:10272000A50510E000E0F12CBE016F5F7F4F802F08
:10273000C7DF882389F0802F01D984E992E60E94BF
:10274000DF05CE0101960E94A505F801E556F7497F
:10275000808180628083F3940F5F1F4F04301105E6
:1027600019F78F2DC058DF4FCDBFDEBFDF91CF915E
:102770001F910F91FF9008951F93CF93DF93CDB7D3
:10278000DEB7C054D109CDBFDEBF90919A689F7D5E
:1027900090939A688430A8F5282F30E0F901E55627
:1027A000F749908195FF2DC0182F220F331FF90193
:1027B000EA51F849608171818AE0FFD8BE016F5FFC
:1027C0007F4F812F7DDFBE016F5F7F4F86E098E6F0
:1027D00071D886E098E60E94CF0B9091C36B8091F0
:1027E0009A68877F97FF88608B7F806280939A6862
:1027F00080E0C05CDF4FCDBFDEBFDF91CF911F9186
:1028000008958EEEF6CFCF93DF93CDB7DEB7C856DF
:10281000D140CDBFDEBF20915F6A30E02F5F3F4FD8
:1028200047E1429FC001439F900D11248254964975
:102830000E94B1306BE070E0892B11F40C94EF1C16
:1028400001E011E00C0F1D1F005F1F4FCD5ADE4F3E
:1028500008831983C355D14020915F6A30E02F5F10
:102860003F4F47E1429FC001439F900D1124825486
:1028700096490E94B130892B11F40C94ED1C9E01F5
:102880002F5C3E4FC95BDE4F28833983C754D1404C
:10289000AE01475C5E4FC75BDE4F48835983C95426
:1028A000D140CE01805C9E4FC55BDE4F888399830B
:1028B000CB54D140C95BDE4F9881C754D140C15A37
:1028C000DE4F9883CF55D140C85BDE4FA881C854F6
:1028D000D140C05ADE4FA883C056D140C75BDE4FFF
:1028E000B881C954D140CF59DE4FB883C156D140C9
:1028F000C65BDE4FE881CA54D140CE59DE4FE88333
:10290000C256D140C55BDE4FF881CB54D140CD5982
:10291000DE4FF883C356D140C45BDE4FC880CC5431
:10292000D140CC59DE4FC882C456D14036ED232E5B
:1029300037E6332E4DE3442E47E6542E8AEA96E6D8
:102940000E943D07892B11F40C94F621A7ECBBE6FD
:102950001C928AEA96E60E941B079C0197FDEECF27
:10296000F101908196FD5BC0A4EDB7E6EC91E039F2
:1029700008F055C0822F91FFA3C19D7FD1019C9388
:10298000273009F451C040F44EEF420F443018F1A3
:10299000F20180818F5F38C0283009F484C129306A
:1029A000B9F790FFF5CF81E08E0FA4EDB7E68C93D9
:1029B000AE2FB0E0A35CB8499BE115969C9380399B
:1029C00071F1EE5FA4EDB7E6EC93E82FF0E0E35C85
:1029D000F849958324C090FF04C0F20190819F5F65
:1029E0009083D1019C9191609C93E4EDF7E6108275
:1029F000823061F0843051F09B7F9C9324502230D0
:102A000050F0F1018081877F808309C0D1018C91D2
:102A100084608C93F3CFD1018C9188608C93109259
:102A20009B6610929C668ACF90FFB2CF9E7F9C934C
:102A300093FF58C1CE2ED12CCB5ADE4FC882D982FB
:102A4000C555D140D20119964D915D916D917C9102
:102A50001C9715968D919D910D90BC91A02DC090C5
:102A6000A466D090A566E090A666F090A766C15BCC
:102A7000DE4FC882D982EA82FB82CF54D140609077
:102A8000A8667090A96616E5E12E1AEDF12E0CE409
:102A900015EBCB59DE4FE882F9820A831B83C556BA
:102AA000D140C35BDE4F1882CD54D140CB59DE4FAD
:102AB000C880D980EA80FB80C556D140FBE0F694FF
:102AC000E794D794C794FA95D1F7F601E370FF27FE
:102AD000EE0FFF1FEE0FFF1FE459F349C080D180B6
:102AE000E280F380CB59DE4F088119812A813B8136
:102AF000C556D1400C0D1D1D2E1D3F1D4C015D0105
:102B0000E4E0880C991CAA1CBB1CEA95D1F76C0167
:102B10007D01F5E0F694E794D794C794FA95D1F740
:102B20008C249D24AE24BF24880E991EAA1EBB1E91
:102B300080269126A226B326481959096A097B09DD
:102B4000CB59DE4F088119812A813B81C556D1407E
:102B5000095B194727433E49CB59DE4F0883198348
:102B60002A833B83C556D140F801E370FF27EE0F5F
:102B7000FF1FEE0FFF1FE459F349C080D180E280B0
:102B8000F3800C0D1D1D2E1D3F1D4A015B01E4E06D
:102B9000880C991CAA1CBB1CEA95D1F76A017B0121
:102BA000F5E0F694E794D794C794FA95D1F78C247E
:102BB0009D24AE24BF24840E951EA61EB71E80261B
:102BC0009126A226B32688199909AA09BB09C35BD5
:102BD000DE4F0881CD54D1400230E9F46A017B0117
:102BE000C826D926EA26FB26970186010064C15B28
:102BF000DE4F088319832A833B83CF54D1406C0175
:102C00007D01E5E0F694E794D794C794EA95D1F76F
:102C10003601689465F8C35BDE4F1881CD54D1400E
:102C20001F5FC35BDE4F1883CD54D140163009F0CF
:102C30003DCFC15BDE4FC880D980EA80FB80CF5496
:102C4000D140C092A466D092A566E092A666F092AA
:102C5000A7666092A8667092A966F20141875287C2
:102C60006387748785839683A783B0870DE317E610
:102C700038E0E32EF12CCB5ADE4FC880D980C55501
:102C8000D140EC14FD0470F50E942103D8011D967B
:102C90009C911D9789271D968C93BFEFEB1AFB0A19
:102CA0000F5F1F4FE8CF90FF73CE81E08E0FA4ED32
:102CB000B7E68C93F0E0E35CF8498BE18583AFCE17
:102CC0002B3121F49260D1019C93A9CE90FF60CE6C
:102CD00081E08E0FA4EDB7E68C93F0E0E35CF84959
:102CE00025839DCEEEE3F7E6F080F3FE89C0D101A7
:102CF0008C9180648C9382E497E680939B6690939A
:102D00009C66F4FC39C0EEE3F7E680818061808345
:102D10002FB7F89480919D6690919E66A0919F66D2
:102D2000B091A0662FBFE1E1FBE6808391839C0117
:102D30002D60306F4281538142175307E8F4CF5C16
:102D4000DE4F9883C153D140CE5CDE4F8883C2539F
:102D5000D14042E060E370E0C15ADE4F8881CF5538
:102D6000D140C05ADE4F9881C056D1400E945C0AC3
:102D700082EA92E60E94A505E0909B66F0909C6630
:102D8000B7016C567F4FDB019C9192FFD2C6E114D4
:102D9000F10409F06BC0F701EC56FF4F80818F7B87
:102DA00080831092996610929A661092D7678091EC
:102DB000996690919A66892B09F4B5C6EFE5FAE613
:102DC000208130E02F5F3F4FF7E1F29FC001F39F7A
:102DD000900D1124825496490E94B1300091996659
:102DE00010919A66F801ED56FF4F892B09F0BAC58C
:102DF00060810AE0609FB00111246F5F7F4FEFC5D3
:102E0000E2EEF7E61082118280EF91EF8093E467A3
:102E10009093E567A4EDB7E66C91623008F16250DB
:102E20006C93E62FF0E0E35CF849058110E0102F89
:102E300000278681080F111DE2EEF7E6008311835B
:102E40008FEF9FEF662321F082E497E60E94B50B97
:102E50008093E4679093E5670817190709F447CF53
:102E6000E4EDF7E61082D1011C92D9CDE2E6FCE652
:102E7000808186FD90CF97012E563F4FD9012C912E
:102E80002C3008F488CF92FB82F98083F7015081BF
:102E9000533009F0B6C08091CC6B9091CD6B892BEB
:102EA00009F0AFC0DB018C9183FD04C09091C26B2F
:102EB00092FF71CF9091C36B92FD04C088718830EE
:102EC00009F469CFF70184808381823009F480C0DE
:102ED000833009F48CC0813009F084C0912CB12C6E
:102EE000A12C81149104A104B10439F00E945C303A
:102EF000A50194010E949B354B018092616CD70122
:102F0000AC56BF4F9C91E2E6FCE6808192FB82F9D1
:102F100080839C9193FB83F980839C9192FB9927FA
:102F200090F986FD0BC090FB82F980838FEF9FEFB5
:102F300080935E6C90935F6C1092606C43E060E0F5
:102F4000C7010E94D32B01E11BE6D80119966C91B1
:102F50008EEC9BE60E94F60BF80160858EEC9BE6FA
:102F60000E94F60B46E065E0C7010E94D32B0E9449
:102F70005C3020E031E040E050E00E949B358EEC78
:102F80009BE60E94F60B60E08EEC9BE60E94F60B3F
:102F90008EEC9BE60E94270C8EEC9BE60E94CF0BEA
:102FA000F701EC56FF4F80818F7B80838EEC9BE690
:102FB0008093996690939A668091626C83FFF5CEB8
:102FC0006091606C70E08EEC9BE60E944A05EDCE4D
:102FD0008091196B90911A6B8827907F8115904F83
:102FE00009F47CCF8092616C1092606CD9CF809193
:102FF000196B90911A6B8827907F8115904F91F3F0
:103000006DCFA1E1BBE6F701938119968C911997D9
:103010009813C1CE948118968C919813BCCE909140
:10302000C36B92FD08C0D701AC56BF4F8C9188711D
:10303000883009F4B0CE97012C563F4FD9014C91FE
:10304000A2E6BCE68C9142FB82F98C93F9014081A7
:1030500043FB83F98C93208122FB222720F986FDF4
:103060000BC020FB82F98C932FEF3FEF20935E6C17
:1030700030935F6C1092606C1092616CEFEFE50F13
:10308000EB3008F04FC4F0E0E85BF74E0C94773774
:1030900053189418921C3A195419D9197C1A901A79
:1030A0003E1B161C321CF701EC56FF4F808183FD3E
:1030B00004C08091C26B80FF3DC460E0C7010E94E4
:1030C000F32B62E08EEC9BE60E94F60B61E08EEC47
:1030D0009BE60E94F60B61E08EEC9BE60E94F60BED
:1030E00060E08EEC9BE60E94F60B61E08EEC9BE6C6
:1030F0000E94F60B60E08EEC9BE60E94F60B60E00F
:103100008EEC9BE60E94F60B60E18EEC9BE60E9443
:10311000F60B61E08EEC9BE60E94F60B65E08EEC10
:103120009BE60E94F60B32C1F701EC56FF4F8081FF
:1031300083FD04C08091C26B81FFFCC361E0C701C5
:103140000E94F32B6FEA72E68E010F5F1F4FC801DA
:103150000E948637B8018EEC9BE60E945A0C1982B9
:10316000B6EEAB2EB7E6BB2ED12CC12C80E5882E57
:1031700082E6982E90E8792EF601E556F74980818F
:1031800085FD38C0FFEFCF1ADF0A22E0A20EB11C86
:1031900034E0C316D10481F766EB72E68E010F5F4F
:1031A0001F4F6801C8010E948637B8018EEC9BE66C
:1031B0000E945A0C198210E000E0BC2CAD2C902E1D
:1031C0006801F801E556F749808185FF46C084FF14
:1031D00044C08981811130C0F601E556F7498081EC
:1031E0008F7081F56DE28EEC9BE60E94F60B8DE20E
:1031F000898333C084FFC6CF8981811117C0D5016F
:1032000011968C9111978F938C918F939F928F929F
:103210001F927F921F930F930E948D37CDBFDEBF09
:10322000B8018EEC9BE60E945A0CACCF6CE28EEC9F
:103230009BE60E94F60BE3CF6CE28EEC9BE60E94CD
:10324000F60BCACF6B2D7A2D892D0E94790E6B2D2E
:103250007A2D8EEC9BE60E945A0C0F5F1F4F0430B4
:10326000110509F0ACCF6DE58EEC9BE60E94F60BE4
:103270006DE755CFF701EC56FF4F808183FD04C009
:103280008091C26B83FF56C3D70117968C91B4E629
:103290008B9FC00111248093CC6B9093CD6B60E029
:1032A000C7010E94F32B72C0F7013C96D7011C9610
:1032B0004D915C911D975427452754271C969C914E
:1032C0001C971D966C912091196B30911A6B2115EA
:1032D000304F28F44A3F07E0500709F02BC3809194
:1032E000686C882331F0D701AC56BF4F8C9183FFB7
:1032F00021C3D701AE56BF4F8C911EEE8D30B0F07A
:103300004A3F17E0510709F049C04093196B5093A9
:103310001A6B8FEF9FEF8093C26B9093C36B42E069
:1033200068E470E0CF010E945C0A10E043E060E0D6
:10333000C7010E94D32BE1E1CE2EEBE6DE2ED601B3
:1033400019966C918EEC9BE60E94F60BF601608557
:103350008EEC9BE60E94F60B46E065E0C7010E94FA
:10336000D32B0E945C3020E031E040E050E00E942E
:103370009B358EEC9BE60E94F60B612F8EEC9BE654
:103380000E94F60B8EEC9BE60E94270C8EEC9BE6CF
:103390000E94CF0B882309F403CEFDCC292F30E007
:1033A000322F2227260F311D2093196B30931A6B71
:1033B000B6CFF701EC56FF4F808183FD04C08091AA
:1033C000C26B84FFB7C2D7011C964C911C971D9607
:1033D0006C911D97862F90E0982F88271E966C91F0
:1033E0001E97680F792F711D1F968C91442309F445
:1033F00081C0823008F07EC06115B4E07B0754F0D4
:10340000C70140960E945C0A182F84E68093C86B1F
:10341000612F46CF6031710509F06CC0483009F06A
:1034200069C0F7018089853509F0E8C081898A3A49
:1034300009F0E4C08289833C09F0E0C083898C33C1
:1034400009F0DCC0C488D12CDC2CCC248589C80EC2
:10345000D11C0689802F90E0982F88270789080FB4
:10346000192F111DC6010E94FA095C018FEB92E62B
:103470000E94DF05C6010E94DD0588EC92E60E94ED
:10348000DF05C8010E94DD0583E293E60E94DF05A7
:1034900061E0C5010E94BF050A151B05B9F448E0AB
:1034A00060E170E0C70140960E945C0A182F81110C
:1034B00008C081ED92E60E94A5058FE08093C46B61
:1034C000A7CF8BEE92E60E94A505A2CF8BE093E6F4
:1034D0000E94DF05C5010E94DD0588EC92E60E948E
:1034E000DF05C8010E94DD0583E093E60E94A50583
:1034F00019EE8ECF1EEE8CCFF701EC56FF4F808178
:1035000083FD04C08091C26B83FF14C2D70117965C
:103510008C91B4E68B9FC00111240E94EE0FBFCEA8
:10352000F7018781282F217090E09595879581304C
:10353000910509F45AC08230910509F44DC061EE3D
:10354000892B09F0ADCE60E071E082E2A82E8BE617
:10355000B82E9EE1D92EF701EC56FF4F808188707E
:10356000222309F44FC0811104C08091C26B86FFF1
:10357000E1C1D7011C964C911C97F50180818823ED
:10358000D9F11D968C911D978D32D1F5F701EE562C
:10359000FF4F80818E30A1F51D961C921D971E96BF
:1035A0001C9241E0F701EE56FF4F80818D3030F1E3
:1035B000F701E40FF11D15866701BDE0CB0ED11CAC
:1035C0004F5FC6010E945C0A182F811121CFB601FE
:1035D000C5010E9486371CCF60E871E032E8A32E57
:1035E0003BE6B32E1EE3D12EB6CF60E471E002E4D9
:1035F000A02E0BE6B02EF6CFD416A0F611EE08CF13
:1036000018EE06CF811104C08091C26B85FF92C174
:103610008E010F531F4F40E450E0C8010E94AC09D7
:10362000882EF801ED0DF11D1182F80101900020A6
:10363000E9F731976F01C01AD10A9C2C682FC70196
:103640000E94F32B8110A2CE6C2D8EEC9BE60E9483
:10365000F60BCC2061F0D02EF80161918F018EEC39
:103660009BE60E94F60B802F8D198915A8F3BE01E9
:103670006F537F4FC5010E94863788CEF701EC5605
:10368000FF4F80818870D70117962C9120FFC3C00F
:10369000329720812A3008F4BEC0811104C0809185
:1036A000686C8111C4C78FEFCF5EDE4F8883C15134
:1036B000D140CE5EDE4F8883C251D140CD5EDE4F19
:1036C0008883C351D140CC5EDE4F8883C451D14042
:1036D000CB5EDE4F8883C551D140CA5EDE4F888302
:1036E000C651D140C95EDE4F8883C751D140C85E04
:1036F000DE4F8883C851D140F70194858585C92E56
:10370000D12CDC2CCC24C80ED11C4091C26B509122
:10371000C36BC416D50609F452C7CB5EDE4F98833F
:10372000C551D140CA5EDE4F8883C651D1409095C5
:10373000C95EDE4F9883C751D1408095C85EDE4F89
:103740008883C851D14011E0253108F03BC744E0DF
:1037500064E770E0CE018F5F9E4F0E945C0A182FD5
:103760008BE393E60E94DF05111177C7C092C26B0D
:10377000D092C36B8CE594E60E94A50510E05CC76F
:103780008CE293E60E94DF0549C742E160E670E003
:10379000CE018F5F9E4F0E945C0A182F89E493E64A
:1037A0000E94DF05111159C7FE01EF5FFE4FACE625
:1037B000BCE681918D93CD5ADE4FC880D980C35528
:1037C000D140CE16DF06A9F70E94D304D3CF48E13B
:1037D00060E670E0CE018F5F9E4F0E945C0A182F5A
:1037E00084E593E60E94DF05111137C7C092C26BD2
:1037F000D092C36BFE01EF5FFE4FACE6BCE6819159
:103800008D93CD5ADE4F08811981C355D1400E17D3
:103810001F07A9F7D9CF811102C091FF8BC061E0CA
:103820008091686C811109C760E007C7F701EC5609
:10383000FF4F808183FD04C08091C26B87FF7AC0F7
:1038400003E61CE6D8018D919C91892B09F468C090
:1038500060E0C7010E94F32BD801ED91FC91C701F4
:10386000099594CDF701EC56FF4F808183FD02C08E
:1038700090FF60C0F701B7800B2D10E0F801E5560E
:10388000F749808185FF4CC060E0C7010E94F32B9F
:10389000F801EE0FFF1FEA51F849D08061818EECEC
:1038A0009BE60E94F60B6D2D8EEC9BE60E94F60BBC
:1038B000F3E0FB15B0F06E0121E8C20ED11CB60199
:1038C0008B2D0E946013982EAC2C8C2D8A19891593
:1038D00040F4D6016D916D018EEC9BE60E94F60BD3
:1038E000F4CFF801E556F74980818F7009F44ECD89
:1038F0006CE28EEC9BE60E94F60B60E28EEC9BE69F
:103900000E94F60BBE016F577F4F8B2D0E94790EE0
:10391000BE016F577F4F8EEC9BE60E945A0C36CD4E
:103920006EEEBECCF701EC56FF4F808183FD02C0E6
:1039300063EEB6CC86E893E60E94DF050E94EF04B2
:1039400084E40E940C05882319F00E94DF0423CA36
:1039500085EE0E94A8058DE00E940C058AE00E9479
:103960000C05F3CF10820E94B30AA7EDB7E68C9145
:1039700091E0980F9C93833030F4F801EE56FF4F9E
:103980008081883038F4C8010E94A60A1092996696
:1039900010929A668091996690919A66892B09F4A3
:1039A00006CA10929866BFEFB0933F67E7ECFBE65C
:1039B0008081823058F5AFE5BAE62C9130E02F5F78
:1039C0003F4FB7E1B29FC001B39F900D11248254C5
:1039D00096490E94B130892B31F462E070E08EEBA1
:1039E00099E60E94D1300E94B30A809198668F5F59
:1039F00080939866893CD0F28091996690919A66FE
:103A00000E94A60A1092996610929A668091996611
:103A100090919A66892B09F4CAC9E7ECFBE680818C
:103A2000823008F4C4C960E089E10E94250F8091CA
:103A3000996690919A660E948E2B80939766811169
:103A4000B6C91092986680919766811128C0AFE53B
:103A5000BAE62C9130E02F5F3F4FB7E1B29FC00133
:103A6000B39F900D1124825496490E94B130892B46
:103A700009F4B3CF0E945E088093976680919866A0
:103A80008F5F80939866893CF0F28091996690915F
:103A90009A660E94A60A1092996610929A66809180
:103AA0009766813059F48091996690919A660E9448
:103AB000A60A1092996610929A6679C90E94CB075D
:103AC000EFE5FAE6208130E02F5F3F4FF7E1F29F0C
:103AD000C001F39F900D1124825496490E94B13089
:103AE000892B49F40E945C302AE030E040E050E04D
:103AF0000E949B3582C90E94E307AFE5BAE62C918C
:103B000030E02F5F3F4FB7E1B29FC001B39F900DF0
:103B10001124825496490E94B130892B09F047C97B
:103B200063E070E05CCF61E089E10E94250F0C94B6
:103B30009614F70180818F70C25BDE4F8883CE546C
:103B4000D140C380D12CDC2CCC248481C80ED11C64
:103B50006581862F90E020919F683091A068A9012F
:103B60004F5F5F4F8417950729F02E3F310539F4D9
:103B7000613029F480939F689093A06810C0E5EAB3
:103B8000F8E6408151814F5F5F4F40835183281792
:103B9000390780F3603118F4213F310558F7C25BD3
:103BA000DE4F0881CE54D1400C3099F0C25BDE4F1D
:103BB0001881CE54D1401A3009F472C3E0919B664B
:103BC000F0919C66EC56FF4F80818F7B80830C9434
:103BD0009E14F701EC56FF4F80819091C36B83FDDB
:103BE00002C095FFEBCF92FD03C08871883031F39E
:103BF0008091A1689091A268A091A368B091A468F7
:103C00008F3F2FEF9207A207B20709F4B1C00196C8
:103C1000A11DB11D8093A1689093A268A093A36891
:103C2000B093A46830E2C316D10408F4B2C2E6EE41
:103C3000F7E600E081919191C816D90609F09DC080
:103C400010928E6A10928F6A4CE0E40EF11C81EDA6
:103C500091E6E114F10409F0C70128E83AE6C05CF6
:103C6000DE4F28833983C054D140CE5BDE4F88833A
:103C70009983C254D140CC5BDE4FE882F982C454B0
:103C8000D1408AE0CA5BDE4F8883C654D140CD590B
:103C9000DE4F8881C356D140CC59DE4F9881C4563F
:103CA000D1400E94D7116C01DC018D919C91892B30
:103CB00009F484CF62EE70E6C6010E943F11FC0158
:103CC000892B09F411C1848195818330910508F015
:103CD00059C0019708F408C10680F781E02D30979C
:103CE00009F402C180818B3209F49BC08D3209F046
:103CF00099C0319611E08081812C912CB0E8AB2ED7
:103D0000BFE3BB2E843709F44FC08F7D812C912CEB
:103D1000A0ECAA2EAFE7BA2E8E3409F445C0893440
:103D200009F4ECC0B12C20E030E040E050E0DF01CD
:103D3000F19080ED8F0D8A3008F078C02C3CBCECFF
:103D40003B07BCE04B0751050CF06EC0AAE0B0E0A9
:103D50000E94B7352F2DFF0C330B20533109032E52
:103D6000000C440B550B260F371F481F591FDFCF80
:103D700081E090E0A0E0B0E04DCF0F5F043009F0AB
:103D800059CF1CCF8530910538F00597E9F1868031
:103D90009780A084B18408C06681778180859185F1
:103DA0000E945E364B015C018AE090E00E94EE0FBB
:103DB00010E0A801455657497A01DA018C91982FF5
:103DC0009F70923009F40EC108F4F2C0943009F4E7
:103DD0004DC108F42AC1953009F0F0CE62EE70E6CC
:103DE000C6010E946311D7012C91322F3F7019F444
:103DF000207F25602C93F801E556F74920812F702C
:103E0000253009F496C1DACE668177818085918567
:103E10000E945E364B015C01B7FAB094B7F8B094DB
:103E2000C3CF319610E067CFB39481CFEEE2FE129C
:103E300022C0FD013196DF01F19080ED8F0D8A30B7
:103E4000D0F42C3C8CEC38078CE0480751059CF7EB
:103E5000AAE0B0E00E94B7352F2DFF0C330B2053A2
:103E60003109032E000C440B550B260F371F481F3A
:103E7000591FBA94E0CF8C918F7DF12CE12C8534C1
:103E800009F050C0FD01319611968C9111978D3239
:103E900079F53196A1E0F12CE12C8B2D0B2C000C47
:103EA000990B6AE0962EA19060ED6A0D6A30A8F534
:103EB0009E9CB0019F9C700D1124EA2CAA0CFF0857
:103EC000B0E3EB1AF108E60EF71EB701680F791F91
:103ED0006732710544F3AA2389F0812C912CA12C1F
:103EE00030E8B32E111160CF812C912C54015CCF9E
:103EF0008B3211F4FD013296A0E0CDCF812C912CB4
:103F000020E8A22EBB24BA9411114ECF812C912C03
:103F1000F0E8AF2EFFE7BF2E47CFAA2319F0F194A8
:103F2000E194F108EB0CF11CB7FCFA94CA01B90159
:103F30000E9460364B015C011E141F04E4F4712CD6
:103F4000E0FE10C024E0729EF0011124E354FF490A
:103F50002081318142815381C501B4010E94EC3638
:103F60004B015C01F594E7947394E114F10441F77B
:103F7000111152CF19CFF194E194F108712CE11491
:103F8000F104B1F3E0FE10C034E0739EF00111249F
:103F9000EB55FF492081318142815381C501B40134
:103FA0000E94EC364B015C01F594E7947394E7CFE3
:103FB000911104C0807F8160FA018083F801E55689
:103FC000F74980818F70813009F0F8CD000F111F03
:103FD000000F111FF801E955F74980829182A282F2
:103FE000B382ECCD20E030E040E057E4C501B401FD
:103FF0000E94293687FFE2CD20E03EEF4FEF56ECDE
:10400000C501B4010E94E83618160CF0D7CD000F98
:10401000111F000F111F09551749C501B4010E9456
:104020002D36D8016D937C93C9CD20E030E040E877
:1040300057E4C501B4010E94293687FFBFCD20E0B7
:1040400030E0A901C501B4010E94E83687FDB6CD74
:10405000000F111F000F111F09551749C501B401A9
:104060000E943236F80160837183A8CD62EE70E65B
:10407000C6010E943F11FC01892B09F481C0848193
:1040800095818330910598F5019708F479C00680F1
:10409000F781E02D309709F473C08081843709F4EB
:1040A00073C08B3209F45FC08D3209F05DC0319668
:1040B000FF24F39460E070E0CB01819020ED280DA7
:1040C0002A3008F053C0AAE0B0E09B01AC010E9486
:1040D000B735282D880C330B205331094901330F94
:1040E000AA08BB08680D791D8A1D9B1DE6CF853087
:1040F000910548F0059749F1668177818085918522
:104100000E942D3604C06681778180859185F801F3
:10411000E556F7492081322F3F7019F4207F246043
:104120002083F801E556F74920812F70243009F0EB
:1041300045CD000F111F000F111FF801E955F74978
:10414000608371838283938339CD86819781A08533
:10415000B1856C017D0166277727CB016C197D093C
:104160008E099F09D4CF3196F12CA4CFFF2079F28C
:1041700090958095709561957F4F8F4F9F4FC7CFDA
:1041800060E070E0CB01C3CF61E070E080E090E0E0
:10419000BECFB1E0CB16D10409F010CD10928E6ADB
:1041A00010928F6AC7010C969C0111F421ED31E643
:1041B00048E85AE6C75CDE4F48835983C953D1406B
:1041C000C55CDE4F28833983CB53D140C35CDE4FBF
:1041D00088839983CD53D1408AE0C15CDE4F8883C8
:1041E000CF53D140CF59DE4F8881C156D140CE59EF
:1041F000DE4F9881C256D1400E94D7118C01FC013C
:1042000080819181892B09F4D9CC42E7A42E4AE61A
:10421000B42EF50180819181A281B3816CED70E6AD
:104220000097A105B041D8F4C8010E946311D501DF
:104230006D937D938D939C93139765ED70E6C80104
:104240000E94631160936E6A70936F6A8093706AC4
:104250009093716A8AE090E00E94EE0FA7CCC801AB
:104260000E946311F5016080718082809380A401B7
:104270009301245C3F4F4F4F5F4F621773078407D2
:10428000950708F09BCC9B01AC01245C3F4F4F4F3E
:104290005F4F621673068406950608F08FCCC7CF71
:1042A000F7018085882309F489CCEC56FF4F808183
:1042B0009091C36B83FD02C096FF80CC92FD04C039
:1042C0008871883009F47ACC8091A1689091A268B5
:1042D000A091A368B091A4688F3FFFEF9F07AF073D
:1042E000BF07A9F10196A11DB11D8093A16890930C
:1042F000A268A093A368B093A468F701EE56FF4F9D
:10430000E081EE0DFF2DF11D108208E0E00EF11CA2
:1043100002EB15E0B12CD8016D917D918D01C701A3
:104320000E947D37892BC1F40B2D10E0C114D104FC
:10433000C1F4000F111FF801EA51F8498081918101
:10434000892B09F43BCC8B2D0E94BC133DC081E02E
:1043500090E0A0E0B0E0C9CFB394B4E0BB12DBCFF3
:104360002DCC7801E0E4EE0EF11CEE0CFF1CCF5DCD
:10437000DE4FD882C152D140CE5DDE4FC882C252DC
:10438000D1408091106B882339F064E670E080E0C2
:1043900090E00E948909F5CF42E0B701CE018F5D20
:1043A0009E4F0E945C0AFFEFCF16DF0691F0F801E6
:1043B000EE0FFF1FEA51F849C082D182F801E5569D
:1043C000F7498081806180838AE090E00E94EE0F4F
:1043D000F5CBF801EE0FFF1FEA51F8491082118268
:1043E000F801E556F74980818F7EEDCFEAE9F8E6DE
:1043F000808185FD02C00C942C1426E038E62093C1
:10440000996630939A668064808383FD9DC0109284
:10441000D7678091996690919A66009709F4C7C012
:10442000A7EDB7E62C9131E0320F3C93233030F00A
:104430000E94A60A1092996610929A6680919966D7
:1044400090919A66892B29F310929866BFEFB093EA
:104450003F67E7ECFBE68081823030F5AFE5BAE6F6
:104460002C9130E02F5F3F4FB7E1B29FC001B39F67
:10447000900D1124825496490E94B130892B09F481
:10448000ACCA0E94B30A809198668F5F8093986649
:10449000893CF8F28091996690919A660E94A60AEA
:1044A0001092996610929A668091996690919A6698
:1044B000009709F4AECFE7ECFBE62081223008F448
:1044C000A8CF0E948E2B8111A4CF109297661092D4
:1044D000986680919766811128C0AFE5BAE62C9165
:1044E00030E02F5F3F4FB7E1B29FC001B39F900D07
:1044F0001124825496490E94B130892B09F46DCA67
:104500000E945E0880939766809198668F5F809383
:104510009866893CF0F28091996690919A660E9423
:10452000A60A1092996610929A66809197668130D9
:1045300099F48091996690919A660E94A60A1092C9
:10454000996610929A6665CF6091986870E086E0EF
:1045500098E60E944A055BCF0E94CB07EFE5FAE69A
:10456000208130E02F5F3F4FF7E1F29FC001F39FC2
:10457000900D1124825496490E94B130892B09F480
:10458000B1CA0E94E307AFE5BAE62C9130E02F5F95
:104590003F4FB7E1B29FC001B39F900D11248254E9
:1045A00096490E94B130892B09F033CFB9CAEAE9A4
:1045B000F8E680818F7B8F7D80830C942C142531CD
:1045C000B0F110E08091686C8111DAC890E080E071
:1045D000A7014E5E5F4FDA01A80FB91FE1E0F1E0DD
:1045E000EC0FFD1FE80FF91F24E03E91319321509D
:1045F000E1F704968031910571F760E1CE018F5F9C
:104600009E4F0E94B50BCF5EDE4F9883C151D140C3
:10461000CE5EDE4F8883C251D1401260123009F461
:10462000B4C8133009F4D3C8113009F490C88CE62B
:1046300093E60E94A50511EE612FC7010E94F32B9E
:1046400002EC1BE6D80111966C918EEC9BE60E9461
:10465000F60BF80160810C948F181E3E69F78EE707
:1046600093E60E94A505E8CFCF93DF93CDB7DEB7E1
:10467000C455D109CDBFDEBF20915F6A30E02F5F06
:104680003F4F47E1429FC001439F900D1124825448
:1046900096490E94B13069E873E1892B09F40DC194
:1046A0000E94821388E993E60E94DF05CE018F5BAA
:1046B0009F4F63968EAF9FAF639762969FAD629751
:1046C00064969FAF64976396EFAD63976596EFAF7F
:1046D0006597809100608F5F883C08F42BC1109231
:1046E00000608091196B90911A6B9C012227307F9A
:1046F0002115304F09F4CCC020918D66222309F496
:104700009FC0213009F4DDC010928C6610928D6636
:10471000E8ECFBE6808181117DC08091196B90915E
:104720001A6B8115904F08F075C0F0908E660F2DB2
:1047300010E0F801E556F7498081982F9F7009F441
:1047400061C084FF5FC00430110508F05BC0000F3A
:10475000111F0A511849F8016081718161157105B5
:1047600009F450C08CE00E94DD0C6EE973E6CE01C6
:1047700001960E94863784EA93E60E94DF05F801DD
:104780008081918197FDD9C00E94880D89EB93E6C5
:104790000E94DF05BE016A5F7F4F8F2D0E94790E58
:1047A0008C017C01F5E0EF0EF11CCE0106960E9413
:1047B000A50588E993E60E94DF05E1E0F0E0EC0F53
:1047C000FD1FEE0DFF1D8DE78083E7E0F0E0EC0FAD
:1047D000FD1FE00FF11F1082BE016F5F7F4F86E06B
:1047E00098E60E945A0C86E098E60E94CF0B9091C2
:1047F000C36BEAE9F8E68081877F97FF88608B7F4B
:104800008062808380918E668F5F843008F09FC0C5
:1048100080938E66EFE5FAE6208130E02F5F3F4F10
:10482000F7E1F29FC001F39F900D11248254964945
:104830000E94B130892B09F08DC061E375E73DC05E
:1048400080918C66282F30E0D901A556B7499C91FC
:1048500095FD0AC0907E9C938F5F80938C66843018
:1048600008F066C080E012C0220F331FF901EA5140
:10487000F84920813181232B11F09061ECCF9F7E8C
:104880009C930E94BC1380918D668F5F80938D6690
:10489000EFE5FAE6208130E02F5F3F4FF7E1F29F2E
:1048A000C001F39F900D1124825496490E94B130AB
:1048B000892B09F016CF65EF71E08EEB99E60E9427
:1048C000D13060918C6670E0FB01EE0FFF1FEA5162
:1048D000F84920813181232B19F080918C66BCCF5F
:1048E00025E0880F991F2A95E1F7862B972B808367
:1048F000918322969FAF229723968FAF2397605C78
:104900007F4F660F771F42E064968FAD6497659680
:104910009FAD65970E945C0A80918C66E82FF0E05D
:10492000E556F7499081906190830E94BC13D5CFE2
:1049300083E6ACCF80930060EBCE88EC94E60E94D7
:10494000DF05F801808191810E94DD051FCF109263
:104950008E6660CFEFE5FAE6208130E02F5F3F4FB3
:10496000F7E1F29FC001F39F900D11248254964904
:104970000E94B130892B09F0ACCE5FCFCF93DF938B
:10498000CDB7DEB7DA95CDBFDEBFAFE5BAE62C9185
:1049900030E02F5F3F4FB7E1B29FC001B39F900D52
:1049A0001124825496490E94B130892B31F462E07F
:1049B00070E08EEB99E60E94D1308091106B8823D5
:1049C00019F081508093106BE7ECFBE68081883C06
:1049D00010F48F5F8083A8ECBBE68C91882311F0E4
:1049E00081508C93809196668F5F809396668A3013
:1049F00060F210929666E9ECFBE683819481009761
:104A000019F0019783839483E5ECFBE68081918123
:104A1000009709F0C8C000E20E94EF0485E40E94FC
:104A20000C05182F811105C080E00E942805809395
:104A30008F660E94DF04111177C280918F668930E2
:104A400011F400938F6680918F66ABE3B9E6EC9129
:104A5000883009F4B2C58F3709F0B0C0EE2359F0A1
:104A60009FEF9E0FABE3B9E69C93F0E0E954F74962
:104A700014A20E94AE0CABE3B9E6EC91EE3508F45B
:104A8000ADC081E08E0FF7EBEF2EF8E6FF2EABE323
:104A9000B9E68C93F0E0E954F74990E294A3E82F4B
:104AA000F0E0E954F74914A2ADEBCA2EA9E6DA2EDC
:104AB00081E0F60180830E94E205A0E9B6E6139644
:104AC0001C9213971C92CF53DF4F1882C15CD040C9
:104AD000F6018081882309F4BDC1EBE3F9E620806B
:104AE000222009F4B7C1F6011082F701148A108E52
:104AF000118E128E138E158A168A178A248D358D83
:104B0000468D578D1196FC91119712967C90D70186
:104B10009096CD90DD90ED90FC9093976BED78E6BC
:104B2000C650DF4F68837983CA5FD040412E312E53
:104B3000612F912EE12F512E00E073E9A72E76E62A
:104B4000B72EC050DF4F1883C050D14088248A94BC
:104B5000201609F42AC1C650DF4FA881B981CA5F67
:104B6000D0408D91C650DF4FA883B983CA5FD04033
:104B700081320CF4C6C0E1113CC05394362E402E55
:104B800091E09E0F61EC70E06C0F7D1F6E0F711D48
:104B9000FB018083E1ECF0E0EC0FFD1FE90FF11D5C
:104BA0001082E92F28C0019780839183892B09F017
:104BB00032CF61E089E10E94250F2DCF80320CF4C5
:104BC0005ACFE03608F057CF91E09E0FABE3B9E63D
:104BD0009C93F0E0E954F74984A34BCF80918F6612
:104BE0008D3009F44ECF8A3009F44BCF811114CFA8
:104BF00048CFEF3128F29FE9980F9A3108F480529C
:104C0000F0EDF80F7F2EFA30B0F09FEB980F782C74
:104C1000963018F499EC792E780E8D3259F4E130F3
:104C200049F4D5018C91846082608C93602FF82DBB
:104C30000F5F8ECFF82DD5019C91B92FB2706B2EDE
:104C400090FD2FC0FF3F69F1AAE0B0E00E94B735A8
:104C50002F2F0F2E000C330B440B550BC450DF4F7E
:104C6000288339834A835B83CC5FD040260F371F6C
:104C7000481F591F611013C0B4E0CC0CDD1CEE1CA2
:104C8000FF1CBA95D1F7C450DF4F688179818A81C2
:104C90009B81CC5FD040C62AD72AE82AF92A602F08
:104CA000C7CF611029C07FEF7716B1F0D5018C9185
:104CB00081608C93A4E0CC0CDD1CEE1CFF1CAA953B
:104CC000D1F7872D072C000C990BAA0BBB0BC82A18
:104CD000D92AEA2AFB2AE3CFCF53DF4F9881C15C60
:104CE000D040903349F4883539F4E23029F4D501C5
:104CF0008C9181608C93D3CFD5018C91816082603F
:104D0000F9CFEE2309F494CFD5018C91982F9570AB
:104D1000943039F450954095309521953F4F4F4F41
:104D20005F4F80FD27C0B3E0B915A8F0892D90E052
:104D3000DC01A954B749E1E05096EC939394880FB5
:104D4000991F880F991FDC01A954B7492D933D93F2
:104D50004D935C93139710929366C050DF4FE88198
:104D6000C050D140C12CD12CE12CF12C20E030E0FE
:104D7000A9015ECF81FDEFCF23E0291560F3892DD6
:104D800090E0DC01A954B74932E050963C939394EB
:104D9000880F991F880F991FDC01A954B749CD923C
:104DA000DD92ED92FC921397D6CF87EBA82E88E682
:104DB000B82ED5015C962D933D934D935C935F97F0
:104DC0009096CD92DD92ED92FC92939780E996E6D3
:104DD000DC01EC93D50154969C92549757966C93B2
:104DE000579755963C92559756964C92DC011196E2
:104DF000FC93119712967C92552061F1842D90E0DE
:104E000085529749F501808F918FE62FF0E0E954A4
:104E1000F74915A2FC019C012E5E3F4F819188232A
:104E200059F09FE9980F9A3120F4DF0111978052D1
:104E30008C93E217F30791F7F1E0F51558F4E7EBDF
:104E4000F8E68BED98E6828F938FE589F0E0E954E0
:104E5000F74915A2ABE3B9E61C928FE3CF53DF4FBE
:104E60008883C15CD040CE53DF4F1882C25CD040F3
:104E7000E091CF68F091D068309719F0808181116E
:104E800008C0E1ECF0E0EC0FFD1FE093CF68F09379
:104E9000D068A090CF68B090D06805E0E02E00E622
:104EA000F02E012FB701C5010E947D37892BB9F47F
:104EB000EFEFE00FED3008F07DC3F0E0EE59F84D74
:104EC0000C9477378427A5273728862886288628B4
:104ED00035295829C029D929022A432A6F2A0F5F68
:104EE000FAE0EF0EF11C0031E9F68FEE95E60E9434
:104EF000DF058091CF689091D068009711F00E94F3
:104F0000DF0584E596E6ADC00E948A0D88E993E648
:104F10000E94DF05E7EBF8E6148A108E118E128EE0
:104F2000138E158A168A178AE4ECFBE680818823A3
:104F300009F42BCD81508083811127CD88ED84BF6A
:104F400081E0809341000000FECFE7EBF8E6848922
:104F5000882309F489C04081518162817381E1E134
:104F6000FBE6268137812F3F3F4F71F00481158189
:104F700026813781012B022B032B31F0411551057E
:104F80006105710509F067C057FF08C01092B76846
:104F90001092B8681092B9681092BA68E1E1FBE625
:104FA000A7EBB8E62D913C911197248335831682A7
:104FB0001782823028F014968D919C918683978376
:104FC00001E11BE6D80114968C91149715969C91DB
:104FD000159716962C91169717963C91CB50DF4F4C
:104FE0003883C55FD040CA50DF4F2883C65FD040AA
:104FF000C950DF4F9883C75FD040C850DF4F8883C8
:10500000C85FD04044E060E470E0CE018B509F4F19
:105010000E945C0A87E496E60E94DF05F80184811D
:105020009581A681B781892B8A2B8B2B09F461C0CE
:1050300086819781009749F48091156B9091166B4A
:105040000E94880D8CE594E60CC00E94880D8EE2CB
:105050000E94AE0CF1CF80EC93E60E94A50582EE93
:1050600093E60E94A50552CF0E94C60D4FCFE7EBF5
:10507000F8E68489882309F446C080819181A28161
:10508000B3812091196B30911A6B215031092E3F59
:105090003F4F20F40097A105B10571F501E11BE632
:1050A000F80180879187CF50DF4F9883C15FD04050
:1050B000CE50DF4F8883C25FD04042E068E470E0AA
:1050C000CE018F509F4F0E945C0A8BEF93E60E94A7
:1050D000DF05D80118968D919C91892B51F088ECB1
:1050E00094E60E94DF05F801808591850E94DD0528
:1050F000A9CF8BE494E6B5CF83E094E60E94A505A2
:1051000088E294E6AECF0E941A0E00CF80E4F2E46B
:10511000EF2EFBE6FF2E053061F080E4B2E8EB2EC7
:10512000BBE6FB2E063029F080E2A2E2EA2EABE6D7
:10513000FA2EA091D168B091D268109709F46AC094
:105140009C91F7012081222341F09D3209F04DC04E
:1051500011962C911197211148C0FD01019000205A
:10516000E9F73197EA1BE81710F0EFEFE80F9D32EF
:1051700011F41C92E12F57EBA52E58E6B52ED50160
:105180005A968D919C91DC01AE0FB11D11961C9227
:1051900041E04E0F0450602F70E06C5F7F4FE6E0FF
:1051A000660F771FEA95E1F7F501828D938D0E94D6
:1051B0005C0AD5015A96CD90DC90B601C7010E94D9
:1051C0008637F6018081811103C084E494E649CFDB
:1051D00082E594E60E94DF05D5015A968D919C9157
:1051E0000E94DF058BE594E63CCF84E694E60E94BE
:1051F000A50589E894E60E94DF0588EA94E6053073
:1052000009F42FCF81EA94E6063009F02ACF83EB28
:1052100094E627CF053079F00630D1F040E250E037
:1052200060E071E082E29BE60E94AC091092416B63
:105230000E94F1056BCE40E450E060E471E082E44E
:105240009BE60E94AC091092816B0E9403065ECE21
:1052500040E450E060E871E082E89BE60E94AC091F
:105260001092C16B0E94BE0C51CEE7EBF8E6848928
:10527000882331F0808191818093C26B9093C36BBE
:105280008BEB94E60E94DF058091C26B9091C36B1B
:105290000E94DD058BEC94E60E94DF058091686C2E
:1052A000882319F08FED94E6DCCE84EE94E6D9CE17
:1052B000E7EBF8E68489811139C0FF24F3944F2D80
:1052C00050E06091946670919566FE0131966F0191
:1052D000CF010E94AC0910E000E0E02E0F1508F0AD
:1052E0004CC08091946690919566800F911F8F704D
:1052F0009927892B61F12091946630919566200F52
:10530000311F207F2036310589F58AEE94E60E9410
:10531000DF0580E20E94AE0C8E2D8F70873019F46D
:1053200080E20E94AE0C0F5F1F4FD7CF20813181EA
:105330002093946630939566823008F4BECFF48053
:10534000B0E8BF1508F0BBCF40E8F42EB8CF0E94FC
:10535000E2058091946690919566800F911F0E945E
:10536000DD058DE296E60E94DF05C5CFF601E00F70
:10537000F11F80810E949E0CCCCF0E94E205C6CD19
:10538000E7EBF8E68489823088F06081718184815E
:10539000C750DF4F8883C95FD04041E0CE018750BE
:1053A0009F4F0E945C0A82E395E65BCE8DEE94E609
:1053B00058CEE7EBF8E68489823008F1E080F1808E
:1053C0000481102F013408F010E489E095E60E9472
:1053D000DF05812F0E949E0C85E195E60E94DF0586
:1053E000C7010E94DD05011103C080E395E639CEB7
:1053F000412FB70190E080E00E945C0AF6CF87E37E
:1054000095E62FCE48E050E060E170E0CE018F518C
:105410009F4F0E94AC09C751DF4F1882C95ED04030
:10542000CB51DF4F8881C55ED04090E0982F882710
:10543000CA51DF4F0881C65ED040080F192F111DD9
:10544000C951DF4F8881C75ED04090E0982F8827F0
:10545000C851DF4FE880C85ED040E80EF92EF11C3D
:10546000C8010E94DD0580E20E94AE0CC7010E94C7
:10547000DD058DE20E94AE0CC8010E94FA0961E0D0
:105480000E94BF0543CDE7EBF8E61489113021F502
:105490008081823061F0833099F08130E9F482E5D7
:1054A00095E60E94A50582E08093C46B2FCD82E52E
:1054B00095E60E94A50588ED84BF1093410026CD96
:1054C00082E395E60E94A50544E060E170E08EEA83
:1054D00095E00E945C0A1ACD8EE595E6C2CD8091DA
:1054E000CB68811161C010E000E0DD24D394C02EB0
:1054F00078019801255637495901D9019C9195FFAA
:1055000041C0802F0E949E0C8DE296E60E94DF052E
:10551000BE016F577F4F802F0E946013CE018F57BF
:105520009F4F0E94DF05F501808184FF15C08EE644
:1055300095E60E94DF05F801EE0FFF1FEA51F849DA
:105540008081918197FD0BC00E94880DF701E5567F
:10555000F74980818F7031F40E94E20512C00E94E9
:10556000DD05F4CF89EB93E60E94DF05BE016F579E
:105570007F4F8C2D0E94790ECE018F579F4F0E9436
:10558000A5058D2D0F5F1F4F0430110509F0AFCF1A
:10559000882329F088E993E60E94DF05B7CC89E7E4
:1055A00095E60E94A505F6CF813009F0AFCC0E94A8
:1055B0008213ACCC89E895E654CDE11151CA802F15
:1055C00058CAEF93FF93F89AEAEAF6E60BC0EF9316
:1055D000FF93F89AEAEAF6E634C0EF93FF93EAEA1B
:1055E000F6E65FC02F932FB72F938F939F93AF93C0
:1055F000BF936894CF93DF9320E0C085D8E0928971
:10560000DF01A90FB21FAD5ABF4F8C9120E42C834C
:105610008A839F5F9F738D812189291302C08F7DAB
:105620008D83928BDF91CF9116F00C946607BF911A
:10563000AF919F918F912F912FBF2F91FF91EF915C
:1056400018952F932FB72F933F938F939F93CF93BB
:10565000DF93C085D8E02E812F7E2E8389819881AB
:105660008674880F3685382B82FD0DC0C78581E092
:105670008C0F8F732089281791F0CE0FDF2F20E039
:10568000D21F9B8B87873687DF91CF919F918F9118
:105690003F912F912FBF2F91FF91EF91189530647B
:1056A000F2CF8F938FB78F939F93CF93DF93C08564
:1056B000D8E09D8188818C8187FDFCCF9F7B90689D
:1056C0009D83DF91CF919F918F918FBF8F91FF919C
:1056D000EF9118951F920F920FB60F92112484E04C
:1056E0000E942809EF93FF93EDE9F6E68F938FB7B9
:1056F0008F9380818F5F808381818F4F81838281AF
:105700008F4F828383818F4F838381E08093260B29
:105710008F918FBF8F91FF91EF911895CF93DF936A
:10572000009709F43EC0FC01EE56FF4F208128305F
:10573000C0F1EC018093D9679093DA6760913F677D
:105740008AEA96E60E94670780913F678093DB674D
:105750006BE18AEA96E60E9467078BE18093DC673B
:10576000CC56DF4F88818260888382E08093DE6739
:10577000809341671092406788818E7F8883982F3D
:10578000947083FF09C085E0911184E08093DF6706
:1057900080E0DF91CF91089583E09923B9F382E00F
:1057A000F5CF81EEF6CFFF920F931F93CF93DF9348
:1057B0008C01F42EC62FD0E0CF1578F4F801C1117A
:1057C00008C0608160688EEC9BE60E94F60B219613
:1057D000F3CFEC0FFD1F6081F6CFDF91CF911F91CA
:1057E0000F91FF900895CF93C62F46E060E0DBDF76
:1057F00063D420E031E040E050E00E949B358EEC25
:105800009BE60E94F60B6C2F8EEC9BE60E94F60B3B
:105810008EEC9BE6CF910C94270CCF93DF93CDB702
:10582000DEB7A097CDBFDEBF1092AC661092AD661A
:1058300088EE93E0A0E0B0E08093AE669093AF6610
:10584000A093B066B093B1668AE691E68093AA66AB
:105850009093AB6680E298E08093B2669093B366D3
:1058600082ED95E08093B4669093B56683E0809373
:10587000B6661092B7661092B8660E94DF0484E0A4
:105880008093460482E08093660410923E671092F3
:10589000D9671092DA6710929A681092986881E03E
:1058A00090E080939F689093A0681092A1681092F6
:1058B000A2681092A3681092A4681092A568109232
:1058C000A66810929B681092E6671092E7671092A4
:1058D0009C681092E8671092E96710929D68109298
:1058E000EA671092EB6710929E681092EC67109234
:1058F000ED671092D3681092D4681092D568109218
:10590000D6681092D7681092D8681092D968109211
:10591000DA681092CB681092CF681092D06810921B
:10592000D1681092D2681092CC681092CD68109213
:10593000CE6810923B691092BC691092BD6948E034
:1059400050E060E170E0CE0101960E94AC09109237
:105950001B6B8981853551F48AEA8A838B81833C6C
:1059600029F48CE38C8381E080931B6B8D8190E024
:10597000982F88272E81820F911D80931C6B909306
:105980001D6B8F8190E0982F88272885820F911DAD
:1059900080931E6B90931F6B40E250E060E370E0D9
:1059A000CE0101960E94AC0980E02981822B2A81D8
:1059B000382F2093116B3093126B80E02B81822B58
:1059C0002C81382F2093136B3093146B8091156BBF
:1059D0009091166BA091176BB091186BBA2FA92FED
:1059E000982F88272989822BBA2FA92F982F8827AB
:1059F0002A89822BBA2FA92F982F88272B89822BAF
:105A0000BA2FA92F982F88272C89822B8093156B6A
:105A10009093166BA093176BB093186B80E0298D51
:105A2000822B2A8D382F2093196B30931A6B80E0CC
:105A30002D8D822B2E8D382F2F3F320709F4A6C0D3
:105A40002093206B3093216B40E250E060E071E0E6
:105A500082E29BE60E94AC091092416B40E450E068
:105A600060E471E082E49BE60E94AC091092816BD5
:105A700040E450E060E871E082E89BE60E94AC09F7
:105A80001092C16B80E99AE680938A6A90938B6A40
:105A900080E890E080938C6A90938D6A10928E6A71
:105AA00010928F6A8CE791E68093886A9093896A56
:105AB0001092726A1092736A1092746A1092756AE8
:105AC00010926E6A10926F6A1092706A1092716AE8
:105AD00010926C6A10926D6A1092826A1092836AB8
:105AE0001092846AE0E6FAE68CE69AE62EEF3FEF43
:105AF000168A178A219331938E179F07C9F7109240
:105B0000856A1092866A1092CC6B1092CD6B1092BF
:105B1000606C1092626C1092636C1092646C8FEFE8
:105B20009FEF8093C26B9093C36B8091196B9091A0
:105B30001A6B8115984010F548E150E060E670E07E
:105B4000CE0101960E94AC098D8990E0982F88279C
:105B50004E89480F592F511D8F89282F30E0322F41
:105B60002227888D820F932F911D8095909548173D
:105B7000590789F44093C26B5093C36B1092686CC1
:105B8000A096CDBFDEBFDF91CF9108951092206B1C
:105B90001092216B59CF60E1CE0101960E94B50BA6
:105BA000298930E0322F22274A89240F311D2817F6
:105BB000390721F783E28093C26B86E08093C36B41
:105BC000DDCFCF93DF93CDB7DEB7A097CDBFDEBFDC
:105BD00088ED21E030E084BF2093620091E084BF33
:105BE000909363009DE284BF9093800093E084BF14
:105BF0009093600080E090E22091650020FD75C0E8
:105C000021E02093030A9EEF9093260A9093270A9F
:105C10008BE08093000A85E08093E7051092E80509
:105C200037E03093010B90930C0B10920D0B809387
:105C3000000B3093110B90931C0B10921D0B809353
:105C4000100B4FEF5FE04093AA0B5093AB0B90E823
:105C50009093820B1092810B4EEF50E04093AE0B6D
:105C60005093AF0B18ED94E114BF9093680091E14D
:105C70009093800B1092E905E0E0F6E082839EE0CD
:105C8000958390E6938380838091B000887F8560C0
:105C90008093B0008091B200887F85608093B200CD
:105CA0008FED9EE280932C0B90932D0B2093250B70
:105CB0001092210B83E08093200B789400E20093F4
:105CC000A10461E089E10E94250F0093610460E076
:105CD00081E10E94250F14BF89E1809380008091AB
:105CE000650084FD08C00000FACF019709F084CF59
:105CF00083E00E94280988ED84BF83E080936000E0
:105D00000E94E3078AEA96E60E943D07892B59F034
:105D10008AEA96E60E941B0761E070E080E090E06E
:105D20000E948909EFCF0E9402100E9405108CE0AA
:105D300096E60E94851081E196E60E94851088E132
:105D400096E60E9477100E9405108DE196E60E946B
:105D500085106091196B70911A6B90E080E040E1C2
:105D60000E940E108091226B8F5F8A3040F087E294
:105D700096E60E94851082E29BE60E9485100E94B2
:105D8000021080E396E60E94851087EF91E60E945C
:105D9000851089E396E60E94851081E090E00E94DC
:105DA0004B108EE20E94B30790E080E00E944B10FF
:105DB00085E496E60E9485108091176B9091186B90
:105DC000009729F00E944B108EE20E94B307809149
:105DD000156B9091166B0E944B100E9402108CE480
:105DE00096E60E94851089E192E60E94851086E57C
:105DF00096E60E94851090E080E00E944B108EE2B3
:105E00000E94B30780E190E00E944B1089E292E685
:105E10000E94851060911C6B70911D6B90E080E07A
:105E200040E10E940E108EE20E94B30760911E6B4B
:105E300070911F6B90E080E040E10E940E100E9484
:105E400002108091426B8F5F8A3040F088EB91E6C0
:105E50000E94851082E49BE60E9477108091826BFD
:105E60008F5F8A3040F081EE91E60E94851082E8D3
:105E70009BE60E9477108EE296E60E9477100E94C1
:105E8000E2050E94E2050E94D50C8CE096E60E9495
:105E9000DF0581E196E60E94DF0588E196E60E9433
:105EA000A5050E94D50C0E941A0E0E948A0D0E9420
:105EB000C60D0E94F1050E9403060E94BE0C48E137
:105EC00050E060E670E0CE0101960E94AC0960E10E
:105ED000CE0101960E94B50BAC01298930E0322F2A
