:10040000EFC000001DC100001BC100000C94082CAF
:1004100017C1000015C1000013C1000011C1000088
:100420000FC100000DC100000BC1000009C1000098
:1004300007C1000005C1000003C1000001C10000A8
:10044000FFC00000FDC00000FBC00000F9C00000BC
:10045000F7C00000F5C00000F3C00000F1C00000CC
:10046000EFC00000EDC00000EBC00000E9C00000DC
:10047000E7C00000E5C000000C94102C0C94852B04
:100480000C947F2B0C948B2BDBC00000D9C0000098
:1004900000407A10F35A00A0724E18090010A5D43B
:1004A000E80000E87648170000E40B54020000CA98
:1004B0009A3B000000E1F5050000809698000000DE
:1004C00040420F000000A08601000000102700003D
:1004D0000000E803000000006400000000000A00C3
:1004E000000000000100000000002C76D888DC67C6
:1004F0004F0823DFC1DFAE59E1B1B796E5E3E4531E
:10050000C63AE651997696E8E6C28426EB898C9B3A
:1005100062ED407C6FFCEFBC9C9F40F2BAA56FA5DA
:10052000F490055A2AF75C936B6CF9676DC11BFC5C
:10053000E0E40D47FEF520E6B500D0ED902E030077
:10054000943577050080841E080000204E0A0000C4
:1005500000C80C333333330F986E12831141EF8D83
:100560002114893BE65516CFFEE6DB18D1844B38C3
:100570001BF77C1D901DA4BBE424203284725E22F4
:100580008100C9F124ECA1E53D2700000000000036
:1005900000000000000074657374340074657374A7
:1005A000330074657374320074657374310055AA36
:1005B000C33CA805A2059C059605950594059305E1
:1005C0009205910590058F058E058D058C058B058F
:1005D0008A0500080AFFFFFF1012FF180018CB2C35
:1005E00011241FBECFEFCDBFDFE7DEBF80E18093D8
:1005F000011088ED90E984BF9093011017E6A0E008
:10060000B0E6ECEDF1E702C005900D92A833B1071A
:10061000D9F72DE6A8E3B7E601C01D92A034B207D2
:10062000E1F712E0C0EFD2E004C02197FE010E9482
:100630008938CF3ED107C9F70E94B22E0C94EC380E
:10064000DFCECF9320916C6730916D6780916867A2
:1006500090916967A0916A67B0916B67AC01BD0129
:100660004170552766277727B695A7959795879563
:10067000F901E071F470E115F44091F5452B462B3A
:10068000472B41F040EA842747E394274EE6A4270E
:100690004FE8B4278093686790936967A0936A676F
:1006A000B0936B67F901EE0FFF1F20FF26C04BE5EB
:1006B000E42745E7F427E0936C67F0936D67E770F4
:1006C000FF27E730F10508F056C0E759FC4F0C94BE
:1006D00089387F038C0392039903A003AC03B4030E
:1006E000452B462B472BB1F2CBED8C27CEE89C2730
:1006F000C0E6AC27C2E8BC27CDCFE160DCCF80915B
:1007000068678095982F907E80916A678695869518
:100710008695892BCF9108958091696790916B6739
:100720008927F8CF809168678095909169679B5E73
:10073000F7CF8091696790916A67890F805CEACFF3
:100740008091686790E1899F9001112480916B6787
:1007500082958F70822BDECF80916A6799E5892719
:1007600090916B67890FD6CF809168678095909143
:100770006A679F57D5CF809169678C5F90916B674F
:10078000891BC8CF2F923F924F925F926F927F92B8
:100790008F929F92AF92BF92CF92DF92EF92FF9291
:1007A0000F931F93CF93DF93CDB7DEB76297CDBF83
:1007B000DEBFDB0149875A874090686750906967C0
:1007C00060906A6770906B674B865C866D867E86EC
:1007D00020906C6730906D67C12CD12C760190E031
:1007E00014968D909D90AD90BC901797F601E37094
:1007F000FF27EE0FFF1FEE0FFF1F69847A84E60DBF
:10080000F71D40815181628173812A013B014C0CAB
:100810005D1C6E1C7F1C9501840144E0000F111FBC
:10082000221F331F4A95D1F7B501A401E5E0769563
:10083000679557954795EA95D1F7042715272627F9
:100840003727080D191D2A1D3B1DB301A2014027A2
:100850005127622773270D911D912D913C9113977C
:10086000400F511F621F731F4D935D936D937C93D7
:10087000139707E4C01A06E8D00A08ECE00A01E67C
:10088000F00A2A013B01F5E0769467945794479467
:10089000FA95D1F74D825E826F8278869701860144
:1008A000EBE03695279517950795EA95D1F7F8016E
:1008B000E370FF27EE0FFF1FEE0FFF1F69847A849E
:1008C000E60DF71D00811181228133812801390154
:1008D0004C0C5D1C6E1C7F1C4F86588A698A7A8A74
:1008E0008A019B01E4E0000F111F221F331FEA95CC
:1008F000D1F74D805E806F807884042515252625EC
:100900003725040F151F261F371F280139010F85B2
:10091000188929893A890425152526253725080DA2
:10092000191D2A1D3B1D14960D931D932D933C9369
:100930001797923079F40427152726273727B9010E
:10094000A80140644B875C876D877E872D803E8041
:10095000689425F89F5F891343CF6B857C858D85CF
:100960009E85609368677093696780936A679093C8
:100970006B6720926C6730926D676296CDBFDEBF69
:10098000DF91CF911F910F91FF90EF90DF90CF906B
:10099000BF90AF909F908F907F906F905F904F909F
:1009A0003F902F90089546E551E660E37DE68DE0A7
:1009B000E9DE46E551E668E37DE681E1E3CE80E1EC
:1009C0008A95F1F7E0E6F4E088E0828380E28A9598
:1009D000F1F780E1828388E18A95F1F70895EFDFEE
:1009E000E0E6F4E080E1818380E28A95F1F788E037
:1009F000818380E18A95F1F7089580E18A95F1F786
:100A0000E0E6F4E098E0928380E28A95F1F7808551
:100A100091838295817008951F93CF93DF93D82F90
:100A2000C8E010E1D7FF11C010936204DD0FE5DFCD
:100A3000C150C1F7C0E1C0936204DFDFC09361041D
:100A40000000DF91CF911F91089510936104EECFC4
:100A50001F93CF93DF93182F80E1809362040000EF
:100A6000D8E0C0E0CC0FC9DFC82BD150D9F780E166
:100A7000112369F0809362040000BFDF80E180935E
:100A8000610400008C2FDF91CF911F910895809316
:100A90006104F2CFEF92FF920F931F93CF93DF93F6
:100AA0008C017B0140E35DE6BC0186E06BDEE80182
:100AB0002896CE01801B910B8E159F0538F4C1DD61
:100AC0009991FE01319789278083F3CFDF91CF91F0
:100AD0001F910F91FF90EF900895CF92DF92FF92B8
:100AE0000F931F93CF93DF93EC01F62E142F77DF34
:100AF00084E492DF082F81110EC01123B1F0812F01
:100B00008BDF2097A1F4812F87DFFF2021F08DE07C
:100B100083DF8AE081DF53DF802FDF91CF911F9148
:100B20000F91FF90DF90CF900895209771F36E01A1
:100B30008FEFC80ED11C8991882321F06DDFCC1670
:100B4000DD06C9F7112309F3DECF40E060E0C5CF31
:100B500040E061E0C2CFCF93C82F90E024E09595AC
:100B600087952A95E1F78A3048F4805D55DF8C2F10
:100B70008F708A3028F4805DCF914ECF895CF6CF9C
:100B8000895CFACF0F931F93CF93DF93182F092F10
:100B9000D62F25DF84E440DFC82F81110AC0802FC3
:100BA000DADF812FD8DFDD2321F08DE035DF8AE029
:100BB00033DF05DF8C2FDF91CF911F910F910895C7
:100BC00060E0E0CFCF930BDF84E426DFC82F8111F4
:100BD00004C08DE021DF8AE01FDFF1DE8C2FCF9192
:100BE00008958091E66B8F5F8A3028F48EE791E656
:100BF000AFDF8EEE089585E991E6A7DF86EE9BE6EE
:100C0000A7DF80E008958091066C8F5F8A3028F41A
:100C100081EA91E69DDF8EEE089588EB91E695DFFF
:100C200086E09CE695DF80E008954F925F926F9298
:100C30007F928F929F92AF92BF92CF92DF92EF926C
:100C4000FF920F931F93CF93DF938FB7F894C090C9
:100C50006167D0906267E0906367F09064678FBFD0
:100C6000860180E1882E8EE0982EA12CB12C9CE389
:100C7000492E512C612C712C2091466B3091476B81
:100C8000C091486BD0E08091306B9091316B02172E
:100C9000130709F47BC02F5F3F4FE4E2FBE670E0EF
:100CA00060E06C177D0774F441915191141615069C
:100CB00034F4DF011297415051094D935C936F5FFB
:100CC0007F4FEFCF0196883E43E0940700F32093D7
:100CD000466B3093476B8091366B9091376BA09148
:100CE000386BB091396B0196A11DB11D8093366BA5
:100CF0009093376BA093386BB093396B8091326BC4
:100D00009091336BA091346BB091356B0196A11D1E
:100D1000B11D8038E1E59E07E1E0AE07B10568F559
:100D20008093326B9093336BA093346BB093356B9D
:100D30001092306B1092316BC091496BD0914A6B1D
:100D4000209709F499CF6091326B7091336B809149
:100D5000346B9091356BA50194010E940A37A30171
:100D600092010E940A3780914B6B821709F484CF5D
:100D700020934B6BFE0109957FCF1092326B10923E
:100D8000336B1092346B1092356BD2CFC092466B9E
:100D9000D092476B8093306B9093316BDF91CF9102
:100DA0001F910F91FF90EF90DF90CF90BF90AF9089
:100DB0009F908F907F906F905F904F90089580915B
:100DC0000E68813108F18091366B9091376BA0915C
:100DD000386BB091396B0097A105B041A8F483EC52
:100DE00091E6B6DE309111682091106890910F68FD
:100DF00080910E683093366B2093376B9093386BED
:100E00008093396B80E008958EEE0895AF92BF9283
:100E1000CF92DF92EF92FF920F931F93CF93DF93C6
:100E20006C017B018B01040F151FEB015E01AE18F5
:100E3000BF08C017D10759F06991D601ED91FC9117
:100E40000190F081E02DC6010995892B79F7C50144
:100E5000DF91CF911F910F91FF90EF90DF90CF9096
:100E6000BF90AF900895FC0151894289252F30E051
:100E7000842F90E0821B930B541710F0CF960895A7
:100E800001970895FC0197858089981761F0A089E2
:100E9000AE0FBF2FB11D53968C9190899F5F9F73AA
:100EA000908B90E008958FEF9FEF0895FC01978558
:100EB0008089981731F08089E80FF11D838990E0CF
:100EC00008958FEF9FEF0895FC0197852089892F62
:100ED00090E0805C9F4F821B91098F739927089542
:100EE000FC010FB607FE04C0809111018823A9F010
:100EF000A085B18514968C91149785FF0EC09189B9
:100F00008289981307C015968C9115978F7D159639
:100F10008C930895E8940C94982B08950F931F9345
:100F2000CF93DF93EC018E8581608E8799898A89C2
:100F300098130BC0E885F985848185FF06C08E85EE
:100F400081FD0DC080E4848312C0062F19891F5FC4
:100F50001F738A89811315C0CE01C2DFFACF858144
:100F60008F77806490E49483E885F9858583E885AC
:100F7000F985628381E090E0DF91CF911F910F911D
:100F80000895E989EC0FFD2FF11DED5AFF4F008305
:100F9000198B8E85E885F98581FF09C085818F775A
:100FA000806690E49483E885F9858583E3CF858125
:100FB0008062FBCF682F8EE697E6B0CFCF93DF93AA
:100FC000EC018E85882359F0E885F985858185FDBA
:100FD00003C0848186FD03C0CE0182DFF5CFDF919F
:100FE000CF9108958EE697E6E9DFAEE6B7E618966C
:100FF000ED91FC911997868116828581158280E496
:10100000848350968C9150971F968C931F971E96B1
:101010001C920895CF93DF9380917C6780FDE2DF7F
:101020006FB7F894E0917667F0917767168233E0B6
:10103000378388E893E180879187148680E88583E9
:1010400080EC868320917B6770917A6780917867C6
:1010500090917967FC01239FE00DF11D11244591CA
:101060005491271708F03EC05C3190F4252F30E0F2
:10107000F901E65CFE49A081AF3F51F0225E3E4996
:10108000E901E881D0E2ED9FF0011124FC5FA1832A
:1010900021E0250F2C3130F530E0F901E65CFE4906
:1010A000C081CF3FF9F0F901E25EFE49A081E0E2A4
:1010B000AE9FD0011124BC5F2E5F3E49F901D08163
:1010C000F0E0E0E0D83030F49D01205F3F4FF901BF
:1010D000ED0FF11D3FB7F8941296CC932081286054
:1010E00020833FBFFC0123E0729FE00DF11D11241E
:1010F0003296E4918091E205E095E823E42BE093B9
:10110000E2056FBFDF91CF910895CF938EE697E60A
:10111000DBDE892B09F094C08091A268833008F04F
:10112000BAC09091046820919D6830919E68F90141
:10113000EE56FF4F408132968081941708F05EC0D2
:1011400080FF33C0492F50E081FF1FC08D7F808317
:10115000E0919D68F0919E68E40FF51F80818B31CE
:1011600009F050C09F5F90930468C9E06C2F8EE631
:1011700097E6D4DEE091A26881E08E0F8093A268AA
:10118000F0E0E156F749C08333C09F5F9093046855
:10119000240F351FD901CC9191E0CB3109F090E0BB
:1011A000808190FB81F98083E1CF6091A3688EE616
:1011B00097E6B4DE8091A368E091A26891E09E0F6B
:1011C0009093A268F0E0E156F7498083E0919D6832
:1011D000F0919E68EC56FF4F80818D7F8083E09177
:1011E0009D68F0919E68EC56FF4F808181608083FE
:1011F000809105688F5F809305688ECF81FF04C062
:101200008D7F8083C8E0B2CF692F641B770B89F094
:101210006130710599F08E7F8083E0919D68F09137
:101220009E68EC56FF4F80818F7B808381E0CF9159
:101230000895CBE19F5F9093046898CFC7E0FACF01
:1012400010928B6C8EE697E61DDE9091A268992332
:1012500021F120919F68821320C08091A068809323
:101260009F688091A1688093A0688FEF890F809319
:10127000A268E0919D68F0919E68EE56FF4F209124
:1012800004689081291708F441CF81113FCF8EE681
:1012900097E694DECBCF80E0CACF82EEC8CF079A24
:1012A00020E533EC93E0179A44E1F9013197F1F727
:1012B0004150D9F7482F179AF9013197F1F7179A4A
:1012C00059E0F9013197F1F75150D9F7415099F7A9
:1012D000915049F7E7CF9FB7F894E0912A0BF0912E
:1012E0002B0B8091260B20916167309162674091B2
:1012F0006367509164679FBF80FF08C0CF01882754
:10130000892B21F42F5F3F4F4F4F5F4F0F011694F2
:101310000794169407941694079416940794F00172
:1013200016940794E00DF11D16940794102C169452
:1013300001181694010C169401181694010C1694B9
:10134000011816941694010C1124E019F109A8EE65
:10135000B3E00E94C9366E0F7F1F811D911D089555
:10136000CF92DF92EF92FF92CF93DF936B017C01DC
:10137000B2DFEB01B0DF6C1B7D0B683E7340D0F336
:1013800081E0C81AD108E108F108C851DC4FC11446
:10139000D104E104F10471F7DF91CF91FF90EF9058
:1013A000DF90CF900895CF92DF92FF920F931F931B
:1013B000CF93DF93EC01D62EC72E8A018091D46B98
:1013C000882361F02CE3F22E64E670E080E090E088
:1013D000C7DFFA94F110F8CF1092D46B8EEEF82E8E
:1013E0000115110511F1FBDA88EA16DBF82E8111DF
:1013F00025C08C2D11DB8D2D0FDBF1DA89EA0CDB9A
:101400006E0101501109C6018C1B9D0B80179107BD
:1014100030F480E01DDBF60181936F01F4CFC00F43
:10142000D11F81E015DB8883CADA8F2DDF91CF9140
:101430001F910F91FF90DF90CF9008959EEEF92EAF
:10144000F3CF5F926F927F928F929F92AF92BF92F3
:10145000CF92DF92EF92FF920F931F93CF93DF9380
:10146000CDB7DEB7C054D109CDBFDEBF7C01C12CE2
:1014700038E0D32E0FEF1FEFA12C44E0B42ECE01A5
:1014800001963C0190E4E916F104C0F45E2CE110F1
:1014900017C0C801C05CDF4FCDBFDEBFDF91CF9169
:1014A0001F910F91FF90EF90DF90CF90BF90AF9082
:1014B0009F908F907F906F905F90089520E4522EC0
:1014C000852C912CA401B501C3016DDFE818F90842
:1014D000A80CB91CF3018191182788E09801000F2E
:1014E000111F37FF04C091E2092790E119278150AD
:1014F000A9F78E2F8619851570F381E0C81AD108D7
:1015000009F0C0CFC6CFCF92DF92EF92FF920F9338
:101510001F93CF936C01162F072FE42E8091D46B6D
:10152000882351F0CCE364E670E080E090E018DFBF
:10153000C150C9F71092D46BEE2001F150DA88EA5D
:101540006BDAC82F811119C0802F66DA812F64DA17
:101550008601F12CC8018C199D098E159F0580F418
:10156000C114D10439F48FEF57DA811106C00F5F2F
:101570001F4FF0CFF8018081F7CF21DACEEE04C003
:101580001EDA86E08093D46B8C2FCF911F910F9140
:10159000FF90EF90DF90CF900895009751F0FC01FD
:1015A000EC56FF4F80818F7B8F7D80838EE697E6A0
:1015B00005CD08958EE697E687DC892B31F01092F1
:1015C0008B6C8EE697E65EDCF5CF0895FC01A0817A
:1015D000B1818C918D3021F038F489508230A8F59A
:1015E0001196A083B183F3CF8032D1F38F3209F00B
:1015F000089511968C9111978A3219F08F32C1F0AB
:1016000008951196A083B183A081B181CD01019687
:101610008083918311968C9111978823B1F08A323F
:1016200099F712968C9112978F3271F71396D9CF42
:10163000A081B181CD0101968083918311968C9117
:10164000882319F08A30A1F7C2CF08951F93CF9352
:10165000DF93EC01162FBADFE881F981808118133E
:1016600008C03196E883F98381E0DF91CF911F9123
:10167000089580E0FACF0F931F93CF93DF93EC018F
:101680000C811D810296A2DFEA81FB818081873275
:1016900011F0823261F53196EA83FB83EA81FB81A6
:1016A0009081992309F445C09F012F5F3F4F2A8302
:1016B0003B838917F1F19C3579F49181A4EDB1E672
:1016C0002C91222321F0921310C011969C91992302
:1016D00081F13296EA83FB83EC81FD819F012F5FCC
:1016E0003F4F2C833D839083D9CF1296E9CF80332F
:1016F0006CF18A3324F08F35A4F08B37A4F42A815F
:101700003B812F5F3F4F2A833B83EC81FD819F010B
:101710002F5F3F4F2C833D838083EA81FB81808153
:10172000E6CF81349CF08B3554F393ED980F9230D3
:1017300030F3EC81FD81CF0101968C839D83108273
:10174000C801DF91CF911F910F9108958B3269F7F6
:10175000D6CF8091486781110BC0109244671092D8
:101760004567109246671092476781E0809348670B
:1017700084E497E6089580913C6781110BC0109234
:1017800038671092396710923A6710923B6781E090
:1017900080933C6788E397E60895DB01109749F052
:1017A000ED91FC9111970190F081E02DBC01CD01EC
:1017B000099490E080E00895382FFC018FEF9FEFAF
:1017C0002E2F231B261788F42191AC01522728E0E5
:1017D000CA01880F991F57FF04C041E2842740E1E6
:1017E00094272150AC01A1F7EBCF0895CF93DF935D
:1017F000009709F1DC01AE56BF4FEC91EF38D8F4F9
:10180000EC01C057DF4F28813981EC01CE0FD11D8B
:10181000388332E03E0F3C93EF5FE80FF92FF11D64
:101820002083FC01EC56FF4F80818064808380E040
:10183000DF91CF9108958EEEFBCF0F931F93CF933F
:10184000DF93DC01AE56BF4FEC91E03928F5EC0197
:10185000CC56DF4F288126FD1FC02497288139816F
:10186000362748E08901220F331F17FF04C051E2D9
:10187000252750E135274150A9F72883398321E0F6
:101880002E0F2C93E80FF92FF11D608380E0DF917C
:10189000CF911F910F9108958EEEF9CFFF920F9384
:1018A0001F93CF93DF93EC01E6E3FBE61081018108
:1018B000F2806381C2DF6F2DCE01BFDF602FCE01CA
:1018C000BCDF612FCE01DF91CF911F910F91FF906F
:1018D000B4CFCF92DF92FF920F931F93CF93DF93FA
:1018E000FC01EC56FF4F208126FD15C0EC01F62EC1
:1018F0008B016C0182E9C80ED11C802F8F19F80171
:1019000061918F01662341F0F6019081903920F4B6
:10191000CE0193DFF2CF80E0DF91CF911F910F9145
:10192000FF90DF90CF900895FC01268137812F5FD3
:101930003F4F2E7F26833783620F731F84819581EB
:101940008617970738F082819381820F931F6683F1
:101950007783089590E080E00895CF93DF93D82FA8
:101960003ED884E459D8C82F811102C08D2FF3D8F6
:1019700026D88C2FDF91CF910895CF93DF93D82F66
:101980002ED884E449D8C82F811102C08D2F44D8A5
:1019900016D88C2FDF91CF9108958091466C8F5F80
:1019A0008A3050F48091E66BD8DF8DE2E6DF8FED70
:1019B00091E6CED88EEE08958EEE91E6C6D886E4F6
:1019C0009CE6C6D880E00895CF93CEE08DE3D5DFC6
:1019D000C150E1F7CF91F6C81F93CF93DF93182F33
:1019E000EB0180915E6986FD0BC08B7F80935E6901
:1019F0008FEF9FEF80935A6990935B6910925C69B7
:101A00000E946E3120E031E040E050E00E94AD36AF
:101A1000607F612B8AEC98E610DF6091DE6B8AECC8
:101A200098E60BDF6091DD6B8AEC98E606DF6D2FA0
:101A30008AEC98E602DF6C2F8AEC98E6FEDE609175
:101A40006369709164696E3F7105F0F46F5F7F4F59
:101A500060936369709364698AEC98E6EEDE0E9495
:101A60006E3120E031E040E050E00E94AD368AEC7B
:101A700098E6E3DE61E08AEC98E6DFDE8AEC98E641
:101A8000DF91CF911F910ACF61E070E0E1CFBF926B
:101A9000CF92DF92EF92FF920F931F93CF93DF933A
:101AA000CDB7DEB76097CDBFDEBF182F092FC62E8A
:101AB0000E94EF0484E40E940C05D82E811127C0F7
:101AC0000F931F938DE592E69F938F93CE0101961E
:101AD0007C019F938F930E94CC38B82E0F900F906B
:101AE0000F900F900F900F908701802F8E198B15FC
:101AF00030F4F80181918F010E940C05F6CFCC20C3
:101B000031F08DE00E940C058AE00E940C050E94D5
:101B1000DF048D2D6096CDBFDEBFDF91CF911F9189
:101B20000F91FF90EF90DF90CF90BF90089560E00D
:101B3000AECFCF93DF938CEF91E607D842E260E01F
:101B400084E092E60E946D0584E192E60E94A5057C
:101B500081E090E0ECDF8EE210DF61E090E080E079
:101B600096DF8EE192E60E94A50542E260E086E201
:101B700092E60E946D058DE197E60E94A50590E032
:101B800080E0D5DF8EE2F9DE83E190E0D0DF86E30E
:101B900092E60E94A505C5EDDBE68B859C8510D8F5
:101BA0008EE2EBDE61E08D859E85DF91CF910C9416
:101BB000C2050F931F93CF93DF93CDB7DEB7A097E6
:101BC000CDBFDEBF2091DB6B3091DC6B37FD12C0E7
:101BD0008091D96B9091DA6B97FD0CC04091D96BD5
:101BE0005091DA6B6091DB6B7091DC6B452B462B6F
:101BF000472B61F483E492E60E94A805A096CDBF2E
:101C0000DEBFDF91CF911F910F9108958E010F5F7D
:101C10001F4F2115310591F49F938F9384E592E630
:101C20009F938F931F930F930E94CC380F900F9028
:101C30000F900F900F900F90C801DECF9F938F935E
:101C40003F932F9380E692E69F938F931F930F937A
:101C50000E94CC38CDBFDEBFEFCF0F931F93CF9341
:101C6000DF93CDB7DEB7A097CDBFDEBFE5EDFBE6D6
:101C700081858F9380858F9381E792E69F938F93E1
:101C80008E010F5F1F4F1F930F930E94CC38C80126
:101C90000E94A8050F900F900F900F900F900F903B
:101CA000A096CDBFDEBFDF91CF911F910F91089518
:101CB0001F93CF93DF93CDB7DEB76097CDBFDEBF65
:101CC0006091326B7091336B8091346B9091356B76
:101CD00020E13EE040E050E00E940A37122F2CE362
:101CE00030E040E050E00E940A373F932F931F926C
:101CF0001F938FE792E69F938F93CE0101969F9358
:101D00008F930E94CC38CDBFDEBF6096CDBFDEBFC3
:101D1000DF91CF911F9108950F931F93CF93DF937E
:101D2000853008F0A2C0EB0190E0FC01E15AF649D1
:101D300020812F70233009F468C058F4213061F1FC
:101D4000223009F444C080E38883198281E090E066
:101D500057C0243009F46BC02530A9F7880F991FAC
:101D6000880F991FFC01E559F64983818F93828181
:101D70008F9381818F9380818F9382E992E69F93E5
:101D80008F93DF936F930E94CC382DB73EB7285FB7
:101D90003F4F2DBF3EBF34C0880F991F880F991F3A
:101DA000FC01E559F64960817181828193818E0140
:101DB00022E044E00E940831FE0190E080E02191A1
:101DC0002223F1F0019680329105C9F7BCCF880F2C
:101DD000991F880F991FFC01E559F64981818F935E
:101DE00080818F938DE592E69F938F93DF936F931E
:101DF0000E94CC380F900F900F900F900F900F9083
:101E0000DF91CF911F910F910895880F991F880F2F
:101E1000991FFC01E559F64981818F9380818F9349
:101E20008BE892E69F938F93DF936F93E1CF880FB8
:101E3000991F880F991FFC01E559F64983818F93FB
:101E400082818F9381818F9380818F938EE892E638
:101E50009F938F93DF936F930E94CC382DB73EB73B
:101E6000285F3F4F2DBF3EBFCBCF90E080E0C8CF73
:101E70000F931F93CF93DF93482F50E0DA01A65CB6
:101E8000BE498C918F3F09F4A3C08A01025E1E49AE
:101E9000E801E881D0E2ED9FF0011124FC5F6111BF
:101EA00032C08683908189239A012E5F3E49811139
:101EB00011C0E9019881309741F1983030F5709662
:101EC000E90FF11D9FB7F8948081611121C0877FD0
:101ED00080839FBFF90180818F3F09F479C0E801B9
:101EE00028818630B8F48091E7058770281312C0E6
:101EF000EC91E53008F0EE0F8091010AE095E823BF
:101F0000E093010A65C08583CDCFF0E0E0E0DACF51
:101F10008860DECF4A515F49FA01808186FF42C066
:101F20009091E9059770482F50E04F7B9417150664
:101F3000C9F5EC918091920B9E2FE03110F49295AF
:101F4000907F892309F444C0D0E22D9F9001112491
:101F50003C5FE83008F052C0205F3F4FE20FF32FA4
:101F6000F11D4FB7F8949091800B9E7F9093800B5A
:101F700090918E0B90FFFCCF2091920B90E080957A
:101F8000909530E08223932328ED24BF8093920B19
:101F90008091800B81608093800B80818F7780831C
:101FA0004FBF16C085FF12C090E1899FF001112438
:101FB000F75F91819770973059F4EC91853268F40E
:101FC000803298F4803109F494CF02C08111F5CFAA
:101FD000DF91CF911F910F910895803409F4AACF1A
:101FE0008038B1F71092A006F3CFC0E18C9FF001CA
:101FF0001124F75F81818F7E8183EACFF0E0E0E0FA
:10200000B0CF8093896C90938A6C61E089E130CF86
:10201000FC0101900020E9F73197AF01481B590BF3
:10202000BC018EE697E60C94060786E992E6F0CFAF
:10203000CF93CEE08DE30E94DA07C150D9F7CF915C
:10204000F4CF8F929F92AF92BF920F931F93CF9333
:10205000DF93CDB7DEB7A197CDBFDEBF19A2423067
:1020600008F44AE08E010F5D1F4F842E912CB12C95
:10207000A12CA50194010E940A37E62FB901CA01DB
:10208000EA30D4F4E05DD801EE938D01232B242BAC
:10209000252B79F790E080E0109711F0CD01B8DFA3
:1020A000A196CDBFDEBFDF91CF911F910F91BF9061
:1020B000AF909F908F900895E95CE5CFCF92DF922B
:1020C000EF92FF92CF93DF936C01990FEE08FF0818
:1020D000F7FE16C08DE20E94DA07EC01662777272B
:1020E000CB016C197D098E099F094AE0AADF8C0F8C
:1020F0009D1FDF91CF91FF90EF90DF90CF900895DB
:102100004AE0C701B601DF91CF91FF90EF90DF90D9
:10211000CF9097CFCF93DF93D0E0C0E0009711F03E
:1021200077DFEC0182DF8C0F9D1FDF91CF91089547
:10213000009709F06DCF90E080E00895CF93DF9392
:10214000CDB7DEB70E9415061092236BA3E2BBE663
:10215000EC91A8E4BBE68C91E81750F5F0E0EE0FA7
:10216000FF1FE65CF44980819181892B99F082E818
:102170009AE60E94C331E3E2FBE6208130E0220FC1
:10218000331FF901009771F4E65CF4490190F08186
:10219000E02D09950E941506A3E2BBE68C918F5FA6
:1021A0008C93D4CFEC5DF449019780839183F2CF77
:1021B000E3E2FBE61082DF91CF910895CF93DF93A6
:1021C000CDB7DEB7E091236BF0E0EE0FFF1FEC5DC3
:1021D000F44980819181892BF9F482E89AE60E9482
:1021E000C3312091236B30E0009771F42F5F3F4F94
:1021F00047E1429FC001439F900D112461E070E0D0
:102200008E5795490E94E331220F331FF901EC5D8F
:10221000F449019780839183E3E2FBE680818F5F3D
:1022200080839091486B981708F410820E941506DD
:10223000DF91CF910895CF93DF93CDB7DEB760E004
:1022400081E116DEE3E2FBE6208130E02F5F3F4FC5
:10225000F7E1F29FC001F39F900D11248E5795492D
:102260000E94C331892B31F465E670E082E89AE67A
:102270000E94E33161E081E1FBDDE3E2FBE62081E6
:1022800030E02F5F3F4FF7E1F29FC001F39F900DC9
:1022900011248E5795490E94C331892B81F665E838
:1022A00073E0E4CF0F931F93CF93DF938B01FC0177
:1022B000C281D381209759F06A817B810115110574
:1022C00019F06115710549F46017710759F4CE01D1
:1022D000DF91CF911F910F910895C8010E948F380F
:1022E000892BA9F30990D881C02DE4CFCF93DF9338
:1022F000D9DFFC01892B09F464C084819581833086
:10230000910588F5019708F45CC00680F781E02DFF
:10231000309709F456C08081843709F456C08B3257
:1023200009F442C08D3209F040C03196D1E060E03E
:1023300070E0CB01C19120ED2C0F2A30C0F5AAE04E
:10234000B0E09B01AC010E94C9362C2FCC0F330B9F
:1023500020533109032E000C440B550B620F731FE1
:10236000841F951FE7CF8530910548F0059771F0E0
:1023700066817781808591850E94443704C066819B
:10238000778180859185DF91CF91089586819781AE
:10239000A085B1859C01AD0166277727CB01621B23
:1023A000730B840B950BEFCF3196D0E0C0CFDD23BC
:1023B00051F390958095709561957F4F8F4F9F4F0A
:1023C000E2CF60E070E0CB01DECF61E070E080E062
:1023D00090E0D9CFAF92BF92CF92DF92EF92FF926F
:1023E0000F931F93CF93DF93CDB7DEB72697CDBF63
:1023F000DEBF7C01DC0116968C91811103C0A9D946
:102400008C017EC08150F7018683C080D180B601E7
:1024100084E090E0C2D98C01009709F480C0DC010F
:10242000CD92DC92119712961D921C921397670120
:10243000B2E0CB0ED11C6BE7C60108D98823F9F2B4
:102440006DE7C60103D9811157C0C70114D95C01DA
:10245000892BA9F26AE3C601F9D8882381F219828F
:102460001A82BE016F5F7F4FC7015CD0882309F4D9
:10247000C6CFB501C80116DF009751F5F80160819C
:1024800071818AE090E089D9009741F0DC011D92CA
:102490001C92119714961D921C921597D8011296B2
:1024A000ED91FC91309729F4F8018283938308C061
:1024B000F9012081318121153105D1F78083918384
:1024C000009709F49CCFDC011296AD92BC92139751
:1024D00026E0FE013196DC01149601900D922A95BA
:1024E000E1F76DE7C601B2D8811106C06CE2C60102
:1024F000ADD88111AACF83CFF70186818F5F868304
:10250000C8012696CDBFDEBFDF91CF911F910F91FD
:10251000FF90EF90DF90CF90BF90AF90089519D9C2
:102520008C0185CF8F929F92AF92BF92CF92DF9214
:10253000EF92FF920F931F93CF93DF93CDB7DEB748
:102540002697CDBFDEBF7C016B015C0182E0A80E47
:10255000B11CC5013BD8D7011296ED91FC911397A0
:1025600080818B35D9F08B3709F4A8C011E0873210
:1025700019F0823209F010E0C7017DD8009709F404
:102580007FC021E030E0112309F4A1C022E030E057
:10259000F601208331838283938373C0F7018681A0
:1025A000811103C0E8D88C0166C0815016968C93C7
:1025B00016978D909C90B40184E090E0EED88C0149
:1025C000009709F48DC0FC018082918212821382EF
:1025D0006BE5C5013BD8882329F36DE5C50136D8E5
:1025E000811142C019821A82BE016F5F7F4FC701FD
:1025F00099DF8823B9F2D8016D917C9188E090E051
:10260000CCD8DC01892B39F01D921C9211971296BF
:102610001D921C921397F8012281338121153105F7
:1026200021F4A283B38308C09C01F90180819181C8
:102630000097D1F7A083B183109709F4B3CF86E058
:10264000FE013196129601900D928A95E1F76DE5A3
:10265000C5010E94260B811107C06CE2C5010E94D2
:10266000260B8111BFCF9ECFD70116968C9116975E
:102670008F5F16968C93F80180819181892B91F45C
:1026800010E0812F2696CDBFDEBFDF91CF911F9145
:102690000F91FF90EF90DF90CF90BF90AF909F9001
:1026A0008F90089586E090E0D6018D939C931197CA
:1026B00012960D931C93139711E0E3CFC7018ADEA6
:1026C000FC0120813181232BD9F227E030E0D601B3
:1026D0002D933C93119712968D939C931397ECCF67
:1026E0004AD88C0175CFCF93DF93EB01E82FF0E050
:1026F000EE0FFF1FEE54FA4F65917491611571054D
:1027000021F480E0DF91CF910895CE010E94033241
:10271000FE0101900020E9F73197EC1BFD0BCF0182
:102720000197CF9770F78E2FEDCFFF920F931F93E6
:10273000CF93DF93CDB7DEB7C058D109CDBFDEBF91
:1027400089E992E60E94A80510E000E0F12CBE01A4
:102750006F5F7F4F802FC7DF882389F0802FFDD8E0
:1027600081EA92E60E94A505CE0101960E94A80585
:10277000F801E15AF649808180628083F3940F5F0B
:102780001F4F0430110519F78F2DC058DF4FCDBFF3
:10279000DEBFDF91CF911F910F91FF9008951F939E
:1027A000CF93DF93CDB7DEB7C054D109CDBFDEBF25
:1027B00090915E699F7D90935E698430A8F5282F83
:1027C00030E0F901E15AF649908195FF2DC0182FAC
:1027D000220F331FF901E655F749608171818AE0C4
:1027E000FBD8BE016F5F7F4F812F7DDFBE016F5F22
:1027F0007F4F8AEC98E66DD88AEC98E60E94F60B3B
:102800009091876C80915E69877F97FF88608B7F4E
:10281000806280935E6980E0C05CDF4FCDBFDEBF29
:10282000DF91CF911F9108958EEEF6CFCF93DF9376
:10283000CDB7DEB7C856D140CDBFDEBF2091236BE8
:1028400030E02F5F3F4F47E1429FC001439F900D13
:1028500011248E5795490E94C3316BE070E0892B9B
:1028600011F40C945E1D01E011E00C0F1D1F005FC0
:102870001F4FCD5ADE4F08831983C355D140209195
:10288000236B30E02F5F3F4F47E1429FC001439FE2
:10289000900D11248E5795490E94C331892B11F454
:1028A0000C945C1D9E012F5C3E4FC95BDE4F28835C
:1028B0003983C754D140AE01475C5E4FC75BDE4FE2
:1028C00048835983C954D140CE01805C9E4FC55B7B
:1028D000DE4F88839983CB54D140C95BDE4F98810A
:1028E000C754D140C15ADE4F9883CF55D140C85B01
:1028F000DE4FA881C854D140C05ADE4FA883C056CD
:10290000D140C75BDE4FB881C954D140CF59DE4FAB
:10291000B883C156D140C65BDE4FE881CA54D1406E
:10292000CE59DE4FE883C256D140C55BDE4FF881F9
:10293000CB54D140CD59DE4FF883C356D140C45B50
:10294000DE4FC880CC54D140CC59DE4FC882C4562B
:10295000D1403AE9232E38E6332E41E0442E48E6B2
:10296000542E8EE697E60E946407892B11F40C948E
:102970006922ABE8BCE61C928EE697E60E9442070D
:102980009C0197FDEECFF101908196FD5BC0A8E917
:10299000B8E6EC91E03908F055C0822F91FFA4C150
:1029A0009D7FD1019C93273009F451C040F44EEF34
:1029B000420F443018F1F20180818F5F38C0283017
:1029C00009F485C12930B9F790FFF5CF81E08E0F6A
:1029D000A8E9B8E68C93AE2FB0E0AF5FB7499BE1B2
:1029E00015969C93803971F1EE5FA8E9B8E6EC93F7
:1029F000E82FF0E0EF5FF749958324C090FF04C013
:102A0000F20190819F5F9083D1019C9191609C9392
:102A1000E8E9F8E61082823061F0843051F09B7F63
:102A20009C932450223050F0F1018081877F808375
:102A300009C0D1018C9184608C93F3CFD1018C912A
:102A400088608C9310925F67109260678ACF90FFC6
:102A5000B2CF9E7F9F7E9C9393FF58C1CE2ED12CE8
:102A6000CB5ADE4FC882D982C555D140D2011996C2
:102A70004D915D916D917C911C9715968D919D91D5
:102A80000D90BC91A02DC0906867D0906967E090D0
:102A90006A67F0906B67C15BDE4FC882D982EA82B9
:102AA000FB82CF54D14060906C6770906D6716E5E3
:102AB000E12E1AEDF12E0CE415EBCB59DE4FE88236
:102AC000F9820A831B83C556D140C35BDE4F18824F
:102AD000CD54D140CB59DE4FC880D980EA80FB80ED
:102AE000C556D140FBE0F694E794D794C794FA9585
:102AF000D1F7F601E370FF27EE0FFF1FEE0FFF1F68
:102B0000E05DF249C080D180E280F380CB59DE4F96
:102B1000088119812A813B81C556D1400C0D1D1DAC
:102B20002E1D3F1D4C015D01E4E0880C991CAA1C80
:102B3000BB1CEA95D1F76C017D01F5E0F694E794B2
:102B4000D794C794FA95D1F78C249D24AE24BF2442
:102B5000880E991EAA1EBB1E80269126A226B32689
:102B6000481959096A097B09CB59DE4F0881198137
:102B70002A813B81C556D140095B194727433E490D
:102B8000CB59DE4F088319832A833B83C556D14036
:102B9000F801E370FF27EE0FFF1FEE0FFF1FE05D50
:102BA000F249C080D180E280F3800C0D1D1D2E1DE6
:102BB0003F1D4A015B01E4E0880C991CAA1CBB1C68
:102BC000EA95D1F76A017B01F5E0F694E794D79492
:102BD000C794FA95D1F78C249D24AE24BF24840E8B
:102BE000951EA61EB71E80269126A226B3268819FA
:102BF0009909AA09BB09C35BDE4F0881CD54D140B6
:102C00000230E9F46A017B01C826D926EA26FB26B0
:102C1000970186010064C15BDE4F088319832A8314
:102C20003B83CF54D1406C017D01E5E0F694E794FD
:102C3000D794C794EA95D1F73601689465F8C35BD9
:102C4000DE4F1881CD54D1401F5FC35BDE4F188328
:102C5000CD54D140163009F03DCFC15BDE4FC88066
:102C6000D980EA80FB80CF54D140C0926867D0926F
:102C70006967E0926A67F0926B6760926C67709226
:102C80006D67F201418752876387748785839683D6
:102C9000A783B08701E018E638E0E32EF12CCB5A89
:102CA000DE4FC880D980C555D140EC14FD0470F5C5
:102CB0000E942103D8011D969C911D9789271D967E
:102CC0008C93BFEFEB1AFB0A0F5F1F4FE8CF90FF0B
:102CD00072CE81E08E0FA8E9B8E68C93F0E0EF5F4A
:102CE000F7498BE18583AECE2B3121F49260D1017F
:102CF0009C93A8CE90FF5FCE81E08E0FA8E9B8E646
:102D00008C93F0E0EF5FF74925839CCEE2E0F8E694
:102D1000808183FF5CC08091876C82FF8DC00E94A0
:102D2000DF06D1018C9180618C938C9180648C93AF
:102D300086E098E680935F6790936067E2E0F8E64C
:102D4000808184FFACC0E0905F67F0906067B7015E
:102D50006C567F4FDB019C9192FF5EC7E114F1043A
:102D600009F0D7C0F701EC56FF4F80818F7B80833D
:102D700010925D6710925E6710929B6880915D670C
:102D800090915E67892B09F441C7E3E2FBE620815D
:102D900030E02F5F3F4FF7E1F29FC001F39F900DAE
:102DA00011248E5795490E94C33100915D6710919F
:102DB0005E67F801ED56FF4F892B09F042C660812E
:102DC0000AE0609FB00111246F5F7F4F77C6A6EACB
:102DD000B8E61D921C92119780EF91EF8093A8683E
:102DE0009093A968E8E9F8E660816230F8F06250F3
:102DF0006083E62FF0E0EF5FF749058110E0102FC8
:102E000000278681080F111D0D931C938FEF9FEFF4
:102E1000662321F086E098E60E94DC0B8093A86888
:102E20009093A9680817190709F475CFA8E9B8E6BF
:102E30001C92F101108206CE4091366B5091376B97
:102E40006091386B7091396BF20180899785A68506
:102E5000B5858A019B01045C1F4F2F4F3F4F8017A0
:102E60009107A207B30748F4CC96A11DB11D4817DE
:102E700059076A077B0708F454CF0E94DF068823AE
:102E800009F44FCFF10180818F7E80838FEA92E633
:102E90000E94A50588EB92E60E94A805C7CF806135
:102EA000E2E0F8E680832FB7F89480916167909113
:102EB0006267A0916367B09164672FBFE5EDFBE6A1
:102EC000808391839C012D60306F42815381421732
:102ED000530708F038CFCF5CDE4F9883C153D14001
:102EE000CE5CDE4F8883C253D14042E060E370E0A5
:102EF000C15ADE4F8881CF55D140C05ADE4F9881EC
:102F0000C056D1400E94830A82EC92E60E94A80536
:102F10001ACFE6E2FDE6808186FD24CF97012E568A
:102F20003F4FD9012C912C3008F41CCF92FB82F931
:102F30008083F7015081533009F0B6C08091906CC6
:102F40009091916C892B09F0AFC0DB018C9183FDCE
:102F500004C09091866C92FF05CF9091876C92FD92
:102F600004C08871883009F4FDCEF7018480838124
:102F7000823009F480C0833009F48CC0813009F0BC
:102F800084C0912CB12CA12C81149104A104B10412
:102F900039F00E946E31A50194010E94AD364B01BB
:102FA0008092256DD701AC56BF4F9C91E6E2FDE6BD
:102FB000808192FB82F980839C9193FB83F98083CB
:102FC0009C9192FB992790F986FD0BC090FB82F9AA
:102FD00080838FEF9FEF8093226D9093236D1092EB
:102FE000246DC7010E94952C05ED1BE6D8011996AA
:102FF0006C9182E99CE60E941D0CF801608582E9D3
:103000009CE60E941D0CD70115966C9182E99CE606
:103010000E941D0C0E946E3120E031E040E050E043
:103020000E94AD3682E99CE60E941D0C60E082E9B8
:103030009CE60E941D0C82E99CE60E944E0C82E9EF
:103040009CE60E94F60BF701EC56FF4F80818F7BC8
:10305000808382E99CE680935D6790935E678091B0
:10306000266D83FF89CE6091246D70E082E99CE635
:103070000E944A0581CE8091DD6B9091DE6B88279E
:10308000907F8115904F09F47CCF8092256D10922E
:10309000246DD9CF8091DD6B9091DE6B8827907F76
:1030A0008115904F91F36DCFA5EDBBE6F7019381AC
:1030B00019968C911997981355CE948118968C91E6
:1030C000981350CE9091876C92FD08C0D701AC56F2
:1030D000BF4F8C918871883009F444CE97012C56EB
:1030E0003F4FD9014C91A6E2BDE68C9142FB82F99B
:1030F0008C93F901408143FB83F98C93208122FB5F
:10310000222720F986FD0BC020FB82F98C932FEF3C
:103110003FEF2093226D3093236D1092246D109217
:10312000256DEFEFE50FEB3008F068C4F0E0E556F1
:10313000F74E0C948938A618E918FE1C9119AD19A0
:10314000321AE01AF31AA11B7B1C991CF701EC56EA
:10315000FF4F808183FD04C08091866C80FF59C43D
:10316000C7010E94762C80E00E94B42C62E082E9C4
:103170009CE60E941D0C61E082E99CE60E941D0C09
:1031800061E082E99CE60E941D0C60E082E99CE619
:103190000E941D0C61E082E99CE60E941D0C60E02B
:1031A00082E99CE60E941D0C60E082E99CE60E9498
:1031B0001D0C63E182E99CE60E941D0C61E082E93E
:1031C0009CE60E941D0C65E082E99CE60E941D0CB5
:1031D00036C1F701EC56FF4F808183FD04C080911A
:1031E000866C81FF16C4C7010E94762C81E00E9484
:1031F000B42C6FEC72E68E010F5F1F4FC8010E9466
:103200009838B80182E99CE60E94690C1982BAEAF2
:10321000AB2EB8E6BB2ED12CC12C8DE5882E82E6D4
:10322000982E90E8792EF601E15AF649808185FDC5
:1032300038C0FFEFCF1ADF0A22E0A20EB11C34E043
:10324000C316D10481F766ED72E68E010F5F1F4F42
:103250006801C8010E949838B80182E99CE60E9482
:10326000690C198210E000E0BC2CAD2C902E680196
:10327000F801E15AF649808185FF46C084FF44C0C9
:103280008981811130C0F601E15AF64980818F7041
:1032900081F56DE282E99CE60E941D0C8DE2898336
:1032A00033C084FFC6CF8981811117C0D501119623
:1032B0008C9111978F938C918F939F928F921F92E5
:1032C0007F921F930F930E949F38CDBFDEBFB8013E
:1032D00082E99CE60E94690CACCF6CE282E99CE634
:1032E0000E941D0CE3CF6CE282E99CE60E941D0C5B
:1032F000CACF6B2D7A2D892D0E948C0E6B2D7A2DC5
:1033000082E99CE60E94690C0F5F1F4F0430110593
:1033100009F0ACCF6DE582E99CE60E941D0C6DE7DB
:1033200053CFF701EC56FF4F808183FD04C080919D
:10333000866C83FF6EC3D70117968C91B4E68B9F82
:10334000C00111248093906C9093916CC7010E94EE
:10335000762C80E00E94B42C72C0F7013C96D70115
:103360001C964D915C911D975427452754271C9618
:103370009C911C971D966C912091DD6B3091DE6BBA
:103380002115304F28F44A3F07E0500709F041C3A8
:1033900080912C6D882331F0D701AC56BF4F8C91B2
:1033A00083FF37C3D701AE56BF4F8C911EEE8D30D1
:1033B000B0F04A3F17E0510709F049C04093DD6B78
:1033C0005093DE6B8FEF9FEF8093866C9093876CAA
:1033D00042E068E470E0CF010E94830A10E0C70178
:1033E0000E94952CE5EDCE2EEBE6DE2ED601199649
:1033F0006C9182E99CE60E941D0CF601608582E9D1
:103400009CE60E941D0CD70115966C9182E99CE602
:103410000E941D0C0E946E3120E031E040E050E03F
:103420000E94AD3682E99CE60E941D0C612F82E964
:103430009CE60E941D0C82E99CE60E944E0C82E9EB
:103440009CE60E94F60B882309F4FDCD8BCC292F36
:1034500030E0322F2227260F311D2093DD6B309371
:10346000DE6BB6CFF701EC56FF4F808183FD04C0C1
:103470008091866C84FFCDC2F70144856585862FD7
:1034800090E0982F88276685680F792F711D8785B2
:10349000442309F493C0823008F090C06115F4E031
:1034A0007F076CF0C70140960E94830A182F84E6BC
:1034B00080938C6CC7010E94762C812F4BCF60319A
:1034C000710509F07BC0483009F078C0D7015096EB
:1034D0008C915097853509F0F2C051968C91519797
:1034E0008A3A09F0ECC052968C915297833C09F0CD
:1034F000E6C053968C9153978C3309F0E0C05496F4
:10350000CC905497D12CDC2CCC2455968C9155978B
:10351000C80ED11C56960C915697802F90E0982F8C
:10352000882757960C91080F192F111DC6010E946C
:10353000210A5C018FED92E60E94A505C6010E945A
:10354000E00588EE92E60E94A505C8010E94E0050C
:1035500083E493E60E94A50561E0C5010E94C205CF
:103560000A151B05B9F448E060E170E0C701409618
:103570000E94830A182F811108C081EF92E60E94F1
:10358000A8058FE08093886C95CF8BE093E60E942E
:10359000A80590CF8BE293E60E94A505C5010E9485
:1035A000E00588EE92E60E94A505C8010E94E005AC
:1035B00083E293E60E94A80519EE7CCF1EEE7ACF37
:1035C000F701EC56FF4F808183FD04C08091866C2B
:1035D00083FF1FC2F7018781F4E68F9FC00111248A
:1035E0000E940110B3CED70117968C91282F21701D
:1035F00090E0959587958130910509F457C0823008
:10360000910509F445C0892B09F04BC060E071E0D9
:1036100086EEA82E8BE6B82E9EE1D92EF701EC5649
:10362000FF4F80818870222309F44DC0811104C0AE
:103630008091866C86FFEDC1F7014485D5018C91A0
:103640008823D9F185858D32E1F5EE56FF4F8081D3
:103650008E30B9F5F7011586168641E0F701EE5672
:10366000FF4F80818D3058F1F701E40FF11D158671
:103670006701FDE0CF0ED11C4F5FC6010E94830A97
:10368000182F811117CFB601C5010E94983812CFAB
:1036900060E871E036E4A32E3CE6B32E1EE3D12EA3
:1036A000BDCFC7010E94762C81EE54CE60E471E05C
:1036B00006E0A02E0CE6B02EF1CFD41678F611EE6F
:1036C000F9CE18EEF7CE811104C08091866C85FF8B
:1036D000A0C18E010F531F4F40E450E0C8010E946B
:1036E000D309882EF801ED0DF11D1182F80101902A
:1036F0000020E9F731976F01C01AD10A9C2CC7014D
:103700000E94762C882D0E94B42C811098CE6C2DAE
:1037100082E99CE60E941D0CCC2061F0D02ED801DD
:103720006D918D0182E99CE60E941D0C802F8D1900
:103730008915A8F3BE016F537F4FC5010E949838C9
:103740007ECEF701EC56FF4F80818870F70127810C
:1037500020FFC7C0EE56FF4F20812A3008F4C1C0B9
:10376000811104C080912C6D8111FDC78FEFCF5E58
:10377000DE4F8883C151D140CE5EDE4F8883C25177
:10378000D140CD5EDE4F8883C351D140CC5EDE4F49
:103790008883C451D140CB5EDE4F8883C551D14070
:1037A000CA5EDE4F8883C651D140C95EDE4F888332
:1037B000C751D140C85EDE4F8883C851D140D70180
:1037C0001C969C911C971D968C91C92ED12CDC2C9B
:1037D000CC24C80ED11C4091866C5091876CC416C5
:1037E000D50609F463C7CF5FDE4F9883C150D1403F
:1037F000CE5FDE4F8883C250D1409095CD5FDE4FC3
:103800009883C350D1408095CC5FDE4F8883C450ED
:10381000D14011E0253108F04DC744E064E770E085
:10382000CE018F5F9E4F0E94830A182F8BE593E68F
:103830000E94A5051111AFC7C092866CD092876C0B
:1038400085E994E60E94A80510E092C78CE493E60F
:103850000E94A5057FC742E160E670E0CE018F5F60
:103860009E4F0E94830A182F89E693E60E94A505C1
:10387000111191C7FE01EF5FFE4FA0E3BDE68191FC
:103880008D93CD5ADE4FC880D980C355D140CE1616
:10389000DF06A9F70E94D304D3CF48E160E670E0C9
:1038A000CE018F5F9E4F0E94830A182F84E793E614
:1038B0000E94A50511116FC7C092866CD092876CCB
:1038C000FE01EF5FFE4FA0E3BDE681918D93CD5ADF
:1038D000DE4F08811981C355D1400E171F07A9F784
:1038E000D9CF811102C091FF94C011E080912C6D5D
:1038F00081113EC7A9CFF701EC56FF4F808183FDB0
:1039000004C08091866C87FF84C007E21DE6D80161
:103910008D919C91892B09F46CC0C7010E94762C73
:1039200080E00E94B42CD801ED91FC91C70109956B
:1039300086CDF701EC56FF4F808183FD02C090FFDA
:1039400068C0F701B7800B2D10E0F801E15AF64985
:10395000808185FF4EC0C7010E94762C80E00E94C6
:10396000B42CF801EE0FFF1FE655F749D0806181B6
:1039700082E99CE60E941D0C6D2D82E99CE60E9466
:103980001D0CF3E0FB15B0F06E0121E8C20ED11C56
:10399000B6018B2D0E947313982EAC2C8C2D8A1996
:1039A000891540F4D6016D916D0182E99CE60E9473
:1039B0001D0CF4CFF801E15AF64980818F7009F4AB
:1039C0003ECD6CE282E99CE60E941D0C60E282E939
:1039D0009CE60E941D0CBE016F577F4F8B2D0E94ED
:1039E0008C0EBE016F577F4F82E99CE60E94690CE6
:1039F00026CDC7010E94762C8EEEACCCF701EC569A
:103A0000FF4F808183FD05C0C7010E94762C83EEA5
:103A1000A1CC8FEA93E60E94A5050E94EF0484E4FE
:103A20000E940C05882319F00E94DF049BC985EED3
:103A30000E94AB058DE00E940C058AE00E940C05F7
:103A4000F3CF10820E94DA0AABE9B8E68C9191E0DC
:103A5000980F9C93833030F4F801EE56FF4F80812D
:103A6000883038F4C8010E94CD0A10925D67109228
:103A70005E6780915D6790915E67892B09F47EC9CE
:103A800010925C67BFEFB0930368EBE8FCE68081BF
:103A9000823058F5A3E2BBE62C9130E02F5F3F4F18
:103AA000B7E1B29FC001B39F900D11248E57954985
:103AB0000E94C331892B31F462E070E082E89AE61B
:103AC0000E94E3310E94DA0A80915C678F5F8093E5
:103AD0005C67893CD0F280915D6790915E670E943F
:103AE000CD0A10925D6710925E6780915D6790913C
:103AF0005E67892B09F442C9EBE8FCE680818230DD
:103B000008F43CC960E089E10E94380F80915D674C
:103B100090915E670E942C2C80935B6781112EC967
:103B200010925C6780915B67811128C0A3E2BBE6BD
:103B30002C9130E02F5F3F4FB7E1B29FC001B39FA0
:103B4000900D11248E5795490E94C331892B09F499
:103B5000B3CF0E94850880935B6780915C678F5F1D
:103B600080935C67893CF0F280915D6790915E671D
:103B70000E94CD0A10925D6710925E6780915B672C
:103B8000813059F480915D6790915E670E94CD0A03
:103B900010925D6710925E67F1C881EC93E60E9417
:103BA000A8050E94F207E3E2FBE6208130E02F5FE8
:103BB0003F4FF7E1F29FC001F39F900D11248E5704
:103BC00095490E94C331892B49F40E946E312AE045
:103BD00030E040E050E00E94AD36F6C80E940A088E
:103BE000A3E2BBE62C9130E02F5F3F4FB7E1B29FDD
:103BF000C001B39F900D11248E5795490E94C33187
:103C0000892B09F0BBC863E070E058CF61E089E11F
:103C10000E94380F0C94A914F70180818F70C25B49
:103C2000DE4F8883CE54D140C380D12CDC2CCC24F1
:103C30008481C80ED11C6581862F90E02091636934
:103C400030916469A9014F5F5F4F8417950729F090
:103C50002E3F310539F4613029F4809363699093E4
:103C6000646910C0E9E6F9E6408151814F5F5F4F1A
:103C7000408351832817390780F3603118F4213FBE
:103C8000310558F7C25BDE4F0881CE54D1400C306D
:103C900099F0C25BDE4F1881CE54D1401A3009F43E
:103CA00072C3E0915F67F0916067EC56FF4F8081CF
:103CB0008F7B80830C94B114F701EC56FF4F808109
:103CC0009091876C83FD02C095FFEBCF92FD03C0FE
:103CD0008871883031F38091656990916669A0910F
:103CE0006769B09168698F3F2FEF9207A207B2070B
:103CF00009F4B1C00196A11DB11D8093656990932F
:103D00006669A0936769B093686930E2C316D1040D
:103D100008F4B2C2EAEAF8E600E081919191C8168F
:103D2000D90609F09DC01092526B1092536B4CE073
:103D3000E40EF11C8EED91E6E114F10409F0C701E7
:103D40002CE43BE6C05CDE4F28833983C054D1406D
:103D5000CE5BDE4F88839983C254D140CC5BDE4F6B
:103D6000E882F982C454D1408AE0CA5BDE4F88837E
:103D7000C654D140CD59DE4F8881C356D140CC596D
:103D8000DE4F9881C456D1400E94EA116C01DC01DB
:103D90008D919C91892B09F484CF62EE70E6C60167
:103DA0000E945211FC01892B09F411C18481958173
:103DB0008330910508F059C0019708F408C10680C6
:103DC000F781E02D309709F402C180818B3209F42C
:103DD0009BC08D3209F099C0319611E08081812C11
:103DE000912CB0E8AB2EBFE3BB2E843709F44FC053
:103DF0008F7D812C912CA0ECAA2EAFE7BA2E8E34A9
:103E000009F445C0893409F4ECC0B12C20E030E05D
:103E100040E050E0DF01F19080ED8F0D8A3008F036
:103E200078C02C3CBCEC3B07BCE04B0751050CF0C8
:103E30006EC0AAE0B0E00E94C9362F2DFF0C330BF4
:103E400020533109032E000C440B550B260F371F4E
:103E5000481F591FDFCF81E090E0A0E0B0E04DCFD8
:103E60000F5F043009F059CF1CCF8530910538F031
:103E70000597E9F186809780A084B18408C06681A7
:103E80007781808591850E9470374B015C018AE0C3
:103E900090E00E94011010E0A801415A56497A01B1
:103EA000DA018C91982F9F70923009F40EC108F4BA
:103EB000F2C0943009F44DC108F42AC1953009F0DC
:103EC000F0CE62EE70E6C6010E947611D7012C9109
:103ED000322F3F7019F4207F25602C93F801E15AAE
:103EE000F64920812F70253009F496C1DACE66811B
:103EF0007781808591850E9470374B015C01B7FA0C
:103F0000B094B7F8B094C3CF319610E067CFB394B4
:103F100081CFEEE2FE1222C0FD013196DF01F19069
:103F200080ED8F0D8A30D0F42C3C8CEC38078CE07F
:103F3000480751059CF7AAE0B0E00E94C9362F2D32
:103F4000FF0C330B20533109032E000C440B550B8F
:103F5000260F371F481F591FBA94E0CF8C918F7DD1
:103F6000F12CE12C853409F050C0FD0131961196F9
:103F70008C9111978D3279F53196A1E0F12CE12CDD
:103F80008B2D0B2C000C990B6AE0962EA19060ED06
:103F90006A0D6A30A8F59E9CB0019F9C700D11249B
:103FA000EA2CAA0CFF08B0E3EB1AF108E60EF71EA4
:103FB000B701680F791F6732710544F3AA2389F0AE
:103FC000812C912CA12C30E8B32E111160CF812CC3
:103FD000912C54015CCF8B3211F4FD013296A0E09C
:103FE000CDCF812C912C20E8A22EBB24BA941111A4
:103FF0004ECF812C912CF0E8AF2EFFE7BF2E47CF9C
:10400000AA2319F0F194E194F108EB0CF11CB7FC30
:10401000FA94CA01B9010E9472374B015C011E1467
:104020001F04E4F4712CE0FE10C024E0729EF00145
:104030001124E354FF492081318142815381C5011C
:10404000B4010E94FE374B015C01F594E794739430
:10405000E114F10441F7111152CF19CFF194E19419
:10406000F108712CE114F104B1F3E0FE10C034E06A
:10407000739EF0011124EB55FF492081318142816B
:104080005381C501B4010E94FE374B015C01F594D8
:10409000E7947394E7CF911104C0807F8160FA01A7
:1040A0008083F801E15AF64980818F70813009F0F0
:1040B000F8CD000F111F000F111FF801E559F64947
:1040C00080829182A282B382ECCD20E030E040E099
:1040D00057E4C501B4010E943B3787FFE2CD20E0E1
:1040E0003EEF4FEF56ECC501B4010E94FA371816A7
:1040F0000CF0D7CD000F111F000F111F05591649E5
:10410000C501B4010E943F37D8016D937C93C9CD9E
:1041100020E030E040E857E4C501B4010E943B379D
:1041200087FFBFCD20E030E0A901C501B4010E94A6
:10413000FA3787FDB6CD000F111F000F111F05596B
:104140001649C501B4010E944437F80160837183A8
:10415000A8CD62EE70E6C6010E945211FC01892BC7
:1041600009F481C0848195818330910598F5019788
:1041700008F479C00680F781E02D309709F473C008
:104180008081843709F473C08B3209F45FC08D32AB
:1041900009F05DC03196FF24F39460E070E0CB013C
:1041A000819020ED280D2A3008F053C0AAE0B0E03D
:1041B0009B01AC010E94C936282D880C330B20537B
:1041C00031094901330FAA08BB08680D791D8A1D02
:1041D0009B1DE6CF8530910548F0059749F1668132
:1041E0007781808591850E943F3704C06681778101
:1041F00080859185F801E15AF6492081322F3F7080
:1042000019F4207F24602083F801E15AF6492081C7
:104210002F70243009F045CD000F111F000F111F22
:10422000F801E559F649608371838283938339CD20
:1042300086819781A085B1856C017D0166277727EE
:10424000CB016C197D098E099F09D4CF3196F12CD1
:10425000A4CFFF2079F290958095709561957F4F5E
:104260008F4F9F4FC7CF60E070E0CB01C3CF61E0BD
:1042700070E080E090E0BECFB1E0CB16D10409F051
:1042800010CD1092526B1092536BC7010C969C018B
:1042900011F42EED31E64CE45BE6C75CDE4F48835B
:1042A0005983C953D140C55CDE4F28833983CB5332
:1042B000D140C35CDE4F88839983CD53D1408AE0DF
:1042C000C15CDE4F8883CF53D140CF59DE4F888108
:1042D000C156D140CE59DE4F9881C256D1400E947E
:1042E000EA118C01FC0180819181892B09F4D9CCE0
:1042F00046E3A42E4BE6B42EF50180819181A28184
:10430000B3816CED70E60097A105B041D8F4C80107
:104310000E947611D5016D937D938D939C93139795
:1043200065ED70E6C8010E9476116093326B709360
:10433000336B8093346B9093356B8AE090E00E94EE
:104340000110A7CCC8010E947611F5016080718030
:1043500082809380A4019301245C3F4F4F4F5F4FB5
:10436000621773078407950708F09BCC9B01AC018B
:10437000245C3F4F4F4F5F4F6216730684069506CD
:1043800008F08FCCC7CFF7018085882309F489CC4A
:10439000EC56FF4F80819091876C83FD02C096FFA1
:1043A00080CC92FD04C08871883009F47ACC809169
:1043B000656990916669A0916769B09168698F3F5E
:1043C000FFEF9F07AF07BF07A9F10196A11DB11D20
:1043D0008093656990936669A0936769B0936869F3
:1043E000F701EE56FF4FE081EE0DFF2DF11D10821B
:1043F00008E0E00EF11C02EB15E0B12CD8016D9144
:104400007D918D01C7010E948F38892BC1F40B2D3E
:1044100010E0C114D104C1F4000F111FF801E655DA
:10442000F74980819181892B09F43BCC8B2D0E9427
:10443000CF133DC081E090E0A0E0B0E0C9CFB394DD
:10444000B4E0BB12DBCF2DCC7801E0E4EE0EF11C22
:10445000EE0CFF1CCF5DDE4FD882C152D140CE5D45
:10446000DE4FC882C252D1408091D46B882339F08C
:1044700064E670E080E090E00E94B009F5CF42E091
:10448000B701CE018F5D9E4F0E94830AFFEFCF16CA
:10449000DF0691F0F801EE0FFF1FE655F749C082E5
:1044A000D182F801E15AF6498081806180838AE0F7
:1044B00090E00E940110F5CBF801EE0FFF1FE655CA
:1044C000F74910821182F801E15AF64980818F7E06
:1044D000EDCFEEE5F9E6808185FD02C00C943F1436
:1044E0002AEC38E620935D6730935E6780648083B2
:1044F00083FD9DC010929B6880915D6790915E677F
:10450000009709F4CBC0ABE9B8E62C9131E0320F4B
:104510003C93233030F00E94CD0A10925D671092D8
:104520005E6780915D6790915E67892B29F3109299
:104530005C67BFEFB0930368EBE8FCE680818230F4
:1045400030F5A3E2BBE62C9130E02F5F3F4FB7E19F
:10455000B29FC001B39F900D11248E5795490E94C0
:10456000C331892B09F4A8CA0E94DA0A80915C67DA
:104570008F5F80935C67893CF8F280915D679091D2
:104580005E670E94CD0A10925D6710925E6780910F
:104590005D6790915E67009709F4AECFEBE8FCE6AB
:1045A0002081223008F4A8CF0E942C2C8111A4CFA6
:1045B00010925B6710925C6780915B67811128C0E5
:1045C000A3E2BBE62C9130E02F5F3F4FB7E1B29FF3
:1045D000C001B39F900D11248E5795490E94C3319D
:1045E000892B09F469CA0E94850880935B678091D2
:1045F0005C678F5F80935C67893CF0F280915D67B8
:1046000090915E670E94CD0A10925D6710925E677E
:1046100080915B67813099F480915D6790915E67CE
:104620000E94CD0A10925D6710925E6765CF60911F
:104630005C6970E08AEC98E60E944A055BCF81ECE9
:1046400093E60E94A8050E94F207E3E2FBE62081C0
:1046500030E02F5F3F4FF7E1F29FC001F39F900DD5
:1046600011248E5795490E94C331892B09F4ADCA94
:104670000E940A08A3E2BBE62C9130E02F5F3F4F77
:10468000B7E1B29FC001B39F900D11248E57954999
:104690000E94C331892B09F02FCFB5CAEEE5F9E6A8
:1046A00080818F7B8F7D80830C943F14253108F4AB
:1046B0005AC010E080912C6D8111C8C890E080E054
:1046C000A7014E5E5F4FDA01A80FB91FE1E0F1E0EC
:1046D000EC0FFD1FE80FF91F24E03E9131932150AC
:1046E000E1F704968031910571F760E1CE018F5FAB
:1046F0009E4F0E94DC0BCF5EDE4F9883C151D140AC
:10470000CE5EDE4F8883C251D1408FEFCD5EDE4F4B
:104710008883C351D140CC5EDE4F8883C451D140E1
:10472000F7019485CB5EDE4F9883C551D1408585D6
:10473000CA5EDE4F8883C651D1409095C95EDE4F78
:104740009883C751D1408095C85EDE4F8883C85199
:10475000D1401260123009F47EC8133009F49DC8AC
:10476000113009F45AC88CE893E60E94A80511EEAE
:10477000C7010E94762C812F0E94B42C06E81CE60B
:10478000D80111966C9182E99CE60E941D0CF801FB
:1047900060810C94E4181E3E59F78EE993E60E945E
:1047A000A805E6CFCF93DF93CDB7DEB7C455D109C7
:1047B000CDBFDEBF2091236B30E02F5F3F4F47E13D
:1047C000429FC001439F900D11248E5795490E942E
:1047D000C33169E873E1892B09F40DC10E94951377
:1047E00081ED93E60E94A505CE018F5B9F4F6396F6
:1047F0008EAF9FAF639762969FAD629764969FAFAF
:1048000064976396EFAD63976596EFAF6597809178
:1048100000608F5F883C08F42BC11092006080918B
:10482000DD6B9091DE6B9C012227307F2115304F8C
:1048300009F4CCC020915167222309F49FC0213094
:1048400009F4DDC01092506710925167ECE8FCE665
:10485000808181117DC08091DD6B9091DE6B81152F
:10486000904F08F075C0F09052670F2D10E0F801DE
:10487000E15AF6498081982F9F7009F461C084FF46
:104880005FC00430110508F05BC0000F111F065512
:104890001749F801608171816115710509F450C0F3
:1048A0008CE00E94EC0C67ED73E6CE0101960E944D
:1048B00098388DED93E60E94A505F80180819181DD
:1048C00097FDD9C00E94970D82EF93E60E94A5053F
:1048D000BE016A5F7F4F8F2D0E948C0E8C017C0180
:1048E000F5E0EF0EF11CCE0106960E94A80581EDC1
:1048F00093E60E94A505E1E0F0E0EC0FFD1FEE0D50
:10490000FF1D8DE78083E7E0F0E0EC0FFD1FE00F77
:10491000F11F1082BE016F5F7F4F8AEC98E60E9404
:10492000690C8AEC98E60E94F60B9091876CEEE594
:10493000F9E68081877F97FF88608B7F8062808324
:10494000809152678F5F843008F09FC080935267D8
:10495000E3E2FBE6208130E02F5F3F4FF7E1F29F7B
:10496000C001F39F900D11248E5795490E94C331C9
:10497000892B09F08DC061E375E73DC080915067D8
:10498000282F30E0D901A15AB6499C9195FD0AC063
:10499000907E9C938F5F80935067843008F066C050
:1049A00080E012C0220F331FF901E655F74920813C
:1049B0003181232B11F09061ECCF9F7E9C930E945C
:1049C000CF13809151678F5F80935167E3E2FBE6DD
:1049D000208130E02F5F3F4FF7E1F29FC001F39F4E
:1049E000900D11248E5795490E94C331892B09F0EF
:1049F00016CF65EF71E082E89AE60E94E33160919C
:104A0000506770E0FB01EE0FFF1FE655F74920816C
:104A10003181232B19F080915067BCCF25E0880F9E
:104A2000991F2A95E1F7862B972B808391832296F5
:104A30009FAF229723968FAF2397605C7F4F660FBF
:104A4000771F42E064968FAD649765969FAD65973A
:104A50000E94830A80915067E82FF0E0E15AF649FE
:104A60009081906190830E94CF13D5CF83E6ACCF25
:104A700080930060EBCE81E095E60E94A505F801E9
:104A8000808191810E94E0051FCF1092526760CF14
:104A9000E3E2FBE6208130E02F5F3F4FF7E1F29F3A
:104AA000C001F39F900D11248E5795490E94C33188
:104AB000892B09F0ACCE5FCFCF93DF93CDB7DEB7B4
:104AC000DA95CDBFDEBFA3E2BBE62C9130E02F5FCD
:104AD0003F4FB7E1B29FC001B39F900D11248E5795
:104AE00095490E94C331892B31F462E070E082E87D
:104AF0009AE60E94E3318091D46B882319F08150AB
:104B00008093D46BEBE8FCE68081883C10F48F5FE7
:104B10008083ACE8BCE68C91882311F081508C93A3
:104B200080915A678F5F80935A678A3060F2109243
:104B30005A67EDE8FCE683819481009719F00197AC
:104B400083839483E9E8FCE680819181009709F0F2
:104B5000C8C000E20E94EF0485E40E940C05182FF3
:104B6000811105C080E00E942805809353670E9450
:104B7000DF04111177C280915367893011F40093DB
:104B8000536780915367AFEFB9E6EC91883009F431
:104B9000B2C58F3709F0B0C0EE2359F09FEF9E0FDA
:104BA000AFEFB9E69C93F0E0E558F64914A20E94F5
:104BB000BD0CAFEFB9E6EC91EE3508F4ADC081E085
:104BC0008E0FFBE7EF2EF9E6FF2EAFEFB9E68C93E1
:104BD000F0E0E558F64990E294A3E82FF0E0E558BC
:104BE000F64914A2A1E8CA2EAAE6DA2E81E0F6015F
:104BF00080830E94E205A4E5B7E613961C92139702
:104C00001C92CF53DF4F1882C15CD040F6018081E7
:104C1000882309F4BDC1EFEFF9E62080222009F4D2
:104C2000B7C1F6011082F701148A108E118E128E10
:104C3000138E158A168A178A248D358D468D578DC9
:104C40001196FC91119712967C90D7019096CD9079
:104C5000DD90ED90FC9093976FE979E6C650DF4FB9
:104C600068837983CA5FD040412E312E612F912E07
:104C7000E12F512E00E077E5A72E77E6B72EC05042
:104C8000DF4F1883C050D14088248A94201609F43D
:104C90002AC1C650DF4FA881B981CA5FD0408D912B
:104CA000C650DF4FA883B983CA5FD04081320CF46D
:104CB000C6C0E1113CC05394362E402E91E09E0FA9
:104CC00061EC70E06C0F7D1F6E0F711DFB01808326
:104CD000E1ECF0E0EC0FFD1FE90FF11D1082E92F70
:104CE00028C0019780839183892B09F032CF61E03E
:104CF00089E10E94380F2DCF80320CF45ACFE03674
:104D000008F057CF91E09E0FAFEFB9E69C93F0E02B
:104D1000E558F64984A34BCF809153678D3009F451
:104D20004ECF8A3009F44BCF811114CF48CFEF31E9
:104D300028F29FE9980F9A3108F48052F0EDF80FAD
:104D40007F2EFA30B0F09FEB980F782C963018F445
:104D500099EC792E780E8D3259F4E13049F4D50171
:104D60008C91846082608C93602FF82D0F5F8ECFC2
:104D7000F82DD5019C91B92FB2706B2E90FD2FC0EC
:104D8000FF3F69F1AAE0B0E00E94C9362F2F0F2E35
:104D9000000C330B440B550BC450DF4F2883398371
:104DA0004A835B83CC5FD040260F371F481F591FB3
:104DB000611013C0B4E0CC0CDD1CEE1CFF1CBA95D6
:104DC000D1F7C450DF4F688179818A819B81CC5FA4
:104DD000D040C62AD72AE82AF92A602FC7CF611007
:104DE00029C07FEF7716B1F0D5018C9181608C934B
:104DF000A4E0CC0CDD1CEE1CFF1CAA95D1F7872D7E
:104E0000072C000C990BAA0BBB0BC82AD92AEA2A3B
:104E1000FB2AE3CFCF53DF4F9881C15CD040903362
:104E200049F4883539F4E23029F4D5018C91816058
:104E30008C93D3CFD5018C9181608260F9CFEE2322
:104E400009F494CFD5018C91982F9570943039F452
:104E500050954095309521953F4F4F4F5F4F80FDC6
:104E600027C0B3E0B915A8F0892D90E0DC01A55862
:104E7000B649E1E05096EC939394880F991F880F00
:104E8000991FDC01A558B6492D933D934D935C9332
:104E9000139710925767C050DF4FE881C050D14040
:104EA000C12CD12CE12CF12C20E030E0A9015ECF07
:104EB00081FDEFCF23E0291560F3892D90E0DC011F
:104EC000A558B64932E050963C939394880F991FA9
:104ED000880F991FDC01A558B649CD92DD92ED925D
:104EE000FC921397D6CF8BE7A82E89E6B82ED50172
:104EF0005C962D933D934D935C935F979096CD92E6
:104F0000DD92ED92FC92939784E597E6DC01EC93B9
:104F1000D50154969C92549757966C9357975596F3
:104F20003C92559756964C92DC011196FC93119742
:104F300012967C92552061F1842D90E0815696491D
:104F4000F501808F918FE62FF0E0E558F64915A224
:104F5000FC019C012E5E3F4F8191882359F09FE90F
:104F6000980F9A3120F4DF01119780528C93E21749
:104F7000F30791F7F1E0F51558F4EBE7F9E68FE95F
:104F800099E6828F938FE589F0E0E558F64915A2FE
:104F9000AFEFB9E61C928FE3CF53DF4F8883C15C3C
:104FA000D040CE53DF4F1882C25CD040E09193696D
:104FB000F0919469309719F08081811108C0E1EC7B
:104FC000F0E0EC0FFD1FE0939369F0939469A090DB
:104FD0009369B090946905E0E02E00E6F02E012F71
:104FE000B701C5010E948F38892BB9F4EFEFE00FAC
:104FF000ED3008F07DC3F0E0E050F84D0C948938B6
:1050000022284328D528242924292429D329F629EC
:105010005E2A772AA02AE12A0D2B0F5FFAE0EF0E15
:10502000F11C0031E9F688E296E60E94A505809120
:10503000936990919469009711F00E94A5058AE107
:1050400097E6ADC00E94990D81ED93E60E94A505FB
:10505000EBE7F9E6148A108E118E128E138E158AE4
:10506000168A178AE8E8FCE68081882309F42BCDAC
:1050700081508083811127CD88ED84BF81E08093AA
:1050800041000000FECFEBE7F9E68489882309F4AC
:1050900089C04081518162817381E5EDFBE6268103
:1050A00037812F3F3F4F71F0048115812681378171
:1050B000012B022B032B31F04115510561057105C0
:1050C00009F067C057FF08C010927B6910927C6995
:1050D00010927D6910927E69E5EDFBE6ABE7B9E6DB
:1050E0002D913C911197248335831682178282304B
:1050F00028F014968D919C918683978305ED1BE68D
:10510000D80114968C91149715969C911597169624
:105110002C91169717963C91CB50DF4F3883C55F83
:10512000D040CA50DF4F2883C65FD040C950DF4F00
:105130009883C75FD040C850DF4F8883C85FD04096
:1051400044E060E470E0CE018B509F4F0E94830AE0
:105150008DE097E60E94A505F80184819581A681DE
:10516000B781892B8A2B8B2B09F461C086819781AB
:10517000009749F48091D96B9091DA6B0E94970D5A
:1051800085E994E60CC00E94970D8EE20E94BD0C4A
:10519000F1CF89EF93E60E94A8058BE194E60E9487
:1051A000A80552CF0E94D90D4FCFEBE7F9E68489CD
:1051B000882309F446C080819181A281B381209126
:1051C000DD6B3091DE6B215031092E3F3F4F20F4D3
:1051D0000097A105B10571F505ED1BE6F801808783
:1051E0009187CF50DF4F9883C15FD040CE50DF4FC3
:1051F0008883C25FD04042E068E470E0CE018F5007
:105200009F4F0E94830A84E394E60E94A505D8017B
:1052100018968D919C91892B51F081E095E60E9422
:10522000A505F801808591850E94E005A9CF84E855
:1052300094E6B5CF8CE394E60E94A80581E694E657
:10524000AECF0E942D0E00CF80E4F6E0EF2EFCE6FC
:10525000FF2E053061F080E4B6E4EB2EBCE6FB2EB9
:10526000063029F080E2A6EEEA2EABE6FA2EA091F7
:105270009569B0919669109709F46AC09C91F701FD
:105280002081222341F09D3209F04DC011962C91CE
:105290001197211148C0FD0101900020E9F73197D5
:1052A000EA1BE81710F0EFEFE80F9D3211F41C92A3
:1052B000E12F5BE7A52E59E6B52ED5015A968D91C3
:1052C0009C91DC01AE0FB11D11961C9241E04E0F76
:1052D0000450602F70E06C5F7F4FE6E0660F771F31
:1052E000EA95E1F7F501828D938D0E94830AD5013D
:1052F0005A96CD90DC90B601C7010E949838F6010D
:105300008081811103C08DE794E649CF8BE894E654
:105310000E94A505D5015A968D919C910E94A505E4
:1053200084E994E63CCF8DE994E60E94A80582ECDE
:1053300094E60E94A50581EE94E6053009F42FCF8E
:105340008AED94E6063009F02ACF8CEE94E627CF5A
:10535000053079F00630D1F040E250E060E071E0D5
:1053600086EE9BE60E94D3091092056C0E94F1051F
:105370006BCE40E450E060E471E086E09CE60E9481
:10538000D3091092456C0E9403065ECE40E450E0C3
:1053900060E871E086E49CE60E94D3091092856C77
:1053A0000E94CD0C51CEEBE7F9E68489882331F0D9
:1053B000808191818093866C9093876C84EF94E6D2
:1053C0000E94A5058091866C9091876C0E94E005F3
:1053D00084E095E60E94A50580912C6D882319F044
:1053E00088E195E6DCCE8DE195E6D9CEEBE7F9E6EE
:1053F0008489811139C0FF24F3944F2D50E06091CE
:10540000586770915967FE0131966F01CF010E9474
:10541000D30910E000E0E02E0F1508F04CC0809199
:10542000586790915967800F911F8F709927892B2A
:1054300061F12091586730915967200F311F207F0B
:105440002036310589F583E295E60E94A50580E2C4
:105450000E94BD0C8E2D8F70873019F480E20E945F
:10546000BD0C0F5F1F4FD7CF20813181209358672C
:1054700030935967823008F4BECFF480B0E8BF158E
:1054800008F0BBCF40E8F42EB8CF0E94E20580912F
:10549000586790915967800F911F0E94E00583EF34
:1054A00096E60E94A505C5CFF601E00FF11F8081A9
:1054B0000E94AD0CCCCF0E94E205C6CDEBE7F9E629
:1054C0008489823088F0608171818481C750DF4F88
:1054D0008883C95FD04041E0CE0187509F4F0E9432
:1054E000830A8BE695E65BCE86E295E658CEEBE73F
:1054F000F9E68489823008F1E080F1800481102F80
:10550000013408F010E482E495E60E94A505812F9D
:105510000E94AD0C8EE495E60E94A505C7010E948D
:10552000E005011103C089E695E639CE412FB701A8
:1055300090E080E00E94830AF6CF80E795E62FCEC8
:1055400048E050E060E170E0CE018F519F4F0E9433
:10555000D309C751DF4F1882C95ED040CB51DF4F0E
:105560008881C55ED04090E0982F8827CA51DF4FD0
:105570000881C65ED040080F192F111DC951DF4F99
:105580008881C75ED04090E0982F8827C851DF4FB0
:10559000E880C85ED040E80EF92EF11CC8010E94D8
:1055A000E00580E20E94BD0CC7010E94E0058DE28B
:1055B0000E94BD0CC8010E94210A61E00E94C20540
:1055C00043CDEBE7F9E61489113021F58081823073
:1055D00061F0833099F08130E9F48BE895E60E9420
:1055E000A80582E08093886C2FCD8BE895E60E9419
:1055F000A80588ED84BF1093410026CD8BE695E683
:105600000E94A80544E060E170E08EEA95E00E9407
:10561000830A1ACD87E995E6C2CD80918F69811101
:1056200061C010E000E0DD24D394C02E7801980121
:10563000215A36495901D9019C9195FF41C0802FCB
:105640000E94AD0C83EF96E60E94A505BE016F5740
:105650007F4F802F0E947313CE018F579F4F0E9460
:10566000A505F501808184FF15C087EA95E60E94B3
:10567000A505F801EE0FFF1FE655F74980819181DE
:1056800097FD0BC00E94970DF701E15AF649808102
:105690008F7031F40E94E20512C00E94E005F4CF41
:1056A00082EF93E60E94A505BE016F577F4F8C2DB8
:1056B0000E948C0ECE018F579F4F0E94A8058D2D02
:1056C0000F5F1F4F0430110509F0AFCF882329F079
:1056D00081ED93E60E94A505B7CC82EB95E60E948A
:1056E000A805F6CF813009F0AFCC0E949513ACCC61
:1056F00082EC95E654CDE11151CA802F58CAEF9340
:10570000FF93F89AEEE6F7E60BC0EF93FF93F89A53
:10571000EEE6F7E634C0EF93FF93EEE6F7E65FC000
:105720002F932FB72F938F939F93AF93BF9368942B
:10573000CF93DF9320E0C085D8E09289DF01A90FE5
:10574000B21FAD5ABF4F8C9120E42C838A839F5F98
:105750009F738D812189291302C08F7D8D83928B48
:10576000DF91CF9116F00C948D07BF91AF919F916F
:105770008F912F912FBF2F91FF91EF9118952F931C
:105780002FB72F933F938F939F93CF93DF93C08532
:10579000D8E02E812F7E2E83898198818674880F90
:1057A0003685382B82FD0DC0C78581E08C0F8F7345
:1057B0002089281791F0CE0FDF2F20E0D21F9B8B7E
:1057C00087873687DF91CF919F918F913F912F915E
:1057D0002FBF2F91FF91EF9118953064F2CF8F93E7
:1057E0008FB78F939F93CF93DF93C085D8E09D8130
:1057F00088818C8187FDFCCF9F7B90689D83DF91A2
:10580000CF919F918F918FBF8F91FF91EF911895BD
:105810001F920F920FB60F92112484E00E944F093D
:10582000EF93FF93E1E6F7E68F938FB78F93808135
:105830008F5F808381818F4F818382818F4F8283AD
:1058400083818F4F838381E08093260B8F918FBF5D
:105850008F91FF91EF911895CF93DF93009709F403
:1058600043C0FC01EE56FF4F20812830E8F1EC01E7
:105870001092D00181E28093D001C0939D68D093B3
:105880009E68609103688EE697E60E948E0780917D
:10589000036880939F686BE18EE697E60E948E070F
:1058A0008BE18093A068CC56DF4F8881826088832B
:1058B00082E08093A26880930568109204688881D2
:1058C0008E7F8883982F947083FF09C085E09111A3
:1058D00084E08093A36880E0DF91CF91089583E016
:1058E0009923B9F382E0F5CF81EEF6CFEF92FF92E4
:1058F0000F931F93CF937C018C01C0E0C11112C0A4
:10590000F7016081606882E99CE60E941D0CCF5F10
:105910000F5F1F4FC63091F7CF911F910F91FF90EE
:10592000EF900895F8016081EECFEF92FF920F9310
:105930001F93CF937C018C01C0E0C11112C0F7010D
:105940006081606882E99CE60E941D0CCF5F0F5F5A
:105950001F4FC33091F7CF911F910F91FF90EF90A0
:105960000895F8016081EECFCF93C82FB7D420E01F
:1059700031E040E050E00E94AD3682E99CE60E94B2
:105980001D0C6C2F82E99CE60E941D0C82E99CE6AE
:10599000CF910C944E0CCF93DF93CDB7DEB7A09789
:1059A000CDBFDEBF109270671092716788EE93E0F2
:1059B000A0E0B0E08093726790937367A0937467E0
:1059C000B09375678AE691E680936E6790936F67F0
:1059D00080E298E0809376679093776782ED95E018
:1059E000809378679093796783E080937A671092C9
:1059F0007B6710927C670E94DF0484E080934604FA
:105A000082E0809366041092026810929D68109262
:105A10009E6810925E6910925C6981E090E08093CC
:105A20006369909364691092656910926669109237
:105A30006769109268691092696910926A69109298
:105A40005F691092AA681092AB6810926069109218
:105A5000AC681092AD68109261691092AE681092B5
:105A6000AF68109262691092B0681092B16810929B
:105A70009769109298691092996910929A69109298
:105A80009B6910929C6910929D6910929E69109278
:105A90008F6910929369109294691092956910928F
:105AA0009669109290691092916910929269109281
:105AB000FF691092806A1092816A48E050E060E1CC
:105AC00070E0CE0101960E94D3091092DF6B8981AC
:105AD000853551F48AEA8A838B81833C29F48CE3EF
:105AE0008C8381E08093DF6B8D8190E0982F8827F5
:105AF0002E81820F911D8093E06B9093E16B8F81DB
:105B000090E0982F88272885820F911D8093E26B63
:105B10009093E36B40E250E060E370E0CE010196C9
:105B20000E94D30980E02981822B2A81382F20937B
:105B3000D56B3093D66B80E02B81822B2C81382F54
:105B40002093D76B3093D86B8091D96B9091DA6B9F
:105B5000A091DB6BB091DC6BBA2FA92F982F88270F
:105B60002989822BBA2FA92F982F88272A89822B3F
:105B7000BA2FA92F982F88272B89822BBA2FA92FCC
:105B8000982F88272C89822B8093D96B9093DA6B7E
:105B9000A093DB6BB093DC6B80E0298D822B2A8D88
:105BA000382F2093DD6B3093DE6B80E02D8D822BC0
:105BB0002E8D382F2F3F320709F4A8C02093E46BB5
:105BC0003093E56B40E250E060E071E086EE9BE6EA
:105BD0000E94D3091092056C40E450E060E471E04B
:105BE00086E09CE60E94D3091092456C40E450E0A8
:105BF00060E871E086E49CE60E94D3091092856C0F
:105C000084E59BE680934E6B90934F6B80E890E029
:105C10008093506B9093516B1092526B1092536B18
:105C20008CE791E680934C6B90934D6B1092366BA2
:105C30001092376B1092386B1092396B1092326B56
:105C40001092336B1092346B1092356B1092306B54
:105C50001092316B1092466B1092476B1092486B0A
:105C6000E4E2FBE68EEF9FEF168A178A8193919309
:105C70002BE6E033F207C1F71092496B10924A6BA2
:105C80001092906C1092916C1092246D1092266D6F
:105C90001092276D1092286D8FEF9FEF8093866C86
:105CA0009093876C8091DD6B9091DE6B8115904FA6
:105CB00008F055C048E150E060E670E0CE01019682
:105CC0000E94D309811148C08D8990E0982F8827C0
:105CD0004E89480F592F511D8F89282F30E0322FC0
:105CE0002227888D820F932F911D809590954817BC
:105CF000590789F44093866C5093876C10922C6DF1
:105D0000A096CDBFDEBFDF91CF9108951092E46BD6
:105D10001092E56B57CF60E1CE0101960E94DC0B3B
:105D2000298930E0322F22274A89240F311D281774
:105D3000390779F483E28093866C86E08093876CE0
:105D400085E496E60E94A5058DEB96E60E94A805DF
:105D5000D5CF8CE696E6F6CF8AE896E6F3CF85EACD
:105D600096E6F0CFCF93DF93CDB7DEB7A097CDBF48
:105D7000DEBF88ED21E030E084BF2093620091E037
:105D800084BF909363009DE284BF9093800093E072
:105D900084BF9093600080E090E22091650020FD38
:105DA00075C021E02093030A9EEF9093260A9093FA
:105DB000270A8BE08093000A85E08093E705109224
:105DC000E80537E03093010B90930C0B10920D0B0C
:105DD0008093000B3093110B90931C0B10921D0BB2
:105DE0008093100B4FEF5FE04093AA0B5093AB0BE7
:105DF00090E89093820B1092810B4EEF50E040930D
:105E0000AE0B5093AF0B18ED94E114BF9093680064
:105E100091E19093800B1092E905E0E0F6E0828337
:105E20009EE0958390E6938380838091B000887F85
:105E300085608093B0008091B200887F85608093F8
:105E4000B2008FED9EE280932C0B90932D0B20934C
:105E5000250B1092210B83E08093200B789400E2B5
:105E60000093A10461E089E10E94380F009361046E
:105E700060E081E10E94380F14BF89E180938000C7
:105E80008091650084FD08C00000FACF019709F0F9
:105E900084CF83E00E944F0988ED84BF13E0109304
:105EA00060000E940A081092C0011092C80110926E
:105EB000CC011092D0011092D4011092C10181E066
:105EC0008093C2011092C5011092C7011092C901BE
:105ED00098E09093CA0120EF2093CB0122E0209319
