:10040000EFC000001DC100001BC100000C94ED2BCB
:1004100017C1000015C1000013C1000011C1000088
:100420000FC100000DC100000BC1000009C1000098
:1004300007C1000005C1000003C1000001C10000A8
:10044000FFC00000FDC00000FBC00000F9C00000BC
:10045000F7C00000F5C00000F3C00000F1C00000CC
:10046000EFC00000EDC00000EBC00000E9C00000DC
:10047000E7C00000E5C000000C94F52B0C946A2B3B
:100480000C94642B0C94702BDBC00000D9C00000CE
:1004900000407A10F35A00A0724E18090010A5D43B
:1004A000E80000E87648170000E40B54020000CA98
:1004B0009A3B000000E1F5050000809698000000DE
:1004C00040420F000000A08601000000102700003D
:1004D0000000E803000000006400000000000A00C3
:1004E000000000000100000000002C76D888DC67C6
:1004F0004F0823DFC1DFAE59E1B1B796E5E3E4531E
:10050000C63AE651997696E8E6C28426EB898C9B3A
:1005100062ED407C6FFCEFBC9C9F40F2BAA56FA5DA
:10052000F490055A2AF75C936B6CF9676DC11BFC5C
:10053000E0E40D47FEF520E6B500D0ED902E030077
:10054000943577050080841E080000204E0A0000C4
:1005500000C80C333333330F986E12831141EF8D83
:100560002114893BE65516CFFEE6DB18D1844B38C3
:100570001BF77C1D901DA4BBE424203284725E22F4
:100580008100C9F124ECA1E53D2700000000000036
:1005900000000000000074657374340074657374A7
:1005A000330074657374320074657374310055AA36
:1005B000C33CA805A2059C059605950594059305E1
:1005C0009205910590058F058E058D058C058B058F
:1005D0008A0500080AFFFFFF1012FF180018902C70
:1005E00011241FBECFEFCDBFDFE7DEBF80E18093D8
:1005F000011088ED90E984BF9093011017E6A0E008
:10060000B0E6E4EEF0E702C005900D92A032B1072B
:10061000D9F72DE6A0E2B7E601C01D92A832B207D5
:10062000E1F712E0C0EFD2E004C02197FE010E9482
:100630000D38CF3ED107C9F70E94772E0C94703841
:10064000DFCECF93209154673091556780915067EA
:1006500090915167A0915267B0915367AC01BD0171
:100660004170552766277727B695A7959795879563
:10067000F901E071F470E115F44091F5452B462B3A
:10068000472B41F040EA842747E394274EE6A4270E
:100690004FE8B4278093506790935167A0935267B7
:1006A000B0935367F901EE0FFF1F20FF26C04BE503
:1006B000E42745E7F427E0935467F0935567E77024
:1006C000FF27E730F10508F056C0E759FC4F0C94BE
:1006D0000D387F038C0392039903A003AC03B4038A
:1006E000452B462B472BB1F2CBED8C27CEE89C2730
:1006F000C0E6AC27C2E8BC27CDCFE160DCCF80915B
:1007000050678095982F907E809152678695869548
:100710008695892BCF910895809151679091536769
:100720008927F8CF809150678095909151679B5EA3
:10073000F7CF8091516790915267890F805CEACF23
:100740008091506790E1899F9001112480915367B7
:1007500082958F70822BDECF8091526799E5892731
:1007600090915367890FD6CF809150678095909173
:1007700052679F57D5CF809151678C5F9091536797
:10078000891BC8CF2F923F924F925F926F927F92B8
:100790008F929F92AF92BF92CF92DF92EF92FF9291
:1007A0000F931F93CF93DF93CDB7DEB76297CDBF83
:1007B000DEBFDB0149875A874090506750905167F0
:1007C00060905267709053674B865C866D867E861C
:1007D0002090546730905567C12CD12C760190E061
:1007E00014968D909D90AD90BC901797F601E37094
:1007F000FF27EE0FFF1FEE0FFF1F69847A84E60DBF
:10080000F71D40815181628173812A013B014C0CAB
:100810005D1C6E1C7F1C9501840144E0000F111FBC
:10082000221F331F4A95D1F7B501A401E5E0769563
:10083000679557954795EA95D1F7042715272627F9
:100840003727080D191D2A1D3B1DB301A2014027A2
:100850005127622773270D911D912D913C9113977C
:10086000400F511F621F731F4D935D936D937C93D7
:10087000139707E4C01A06E8D00A08ECE00A01E67C
:10088000F00A2A013B01F5E0769467945794479467
:10089000FA95D1F74D825E826F8278869701860144
:1008A000EBE03695279517950795EA95D1F7F8016E
:1008B000E370FF27EE0FFF1FEE0FFF1F69847A849E
:1008C000E60DF71D00811181228133812801390154
:1008D0004C0C5D1C6E1C7F1C4F86588A698A7A8A74
:1008E0008A019B01E4E0000F111F221F331FEA95CC
:1008F000D1F74D805E806F807884042515252625EC
:100900003725040F151F261F371F280139010F85B2
:10091000188929893A890425152526253725080DA2
:10092000191D2A1D3B1D14960D931D932D933C9369
:100930001797923079F40427152726273727B9010E
:10094000A80140644B875C876D877E872D803E8041
:10095000689425F89F5F891343CF6B857C858D85CF
:100960009E85609350677093516780935267909310
:10097000536720925467309255676296CDBFDEBFB1
:10098000DF91CF911F910F91FF90EF90DF90CF906B
:10099000BF90AF909F908F907F906F905F904F909F
:1009A0003F902F90089546E551E668E17DE68DE0A1
:1009B000E9DE46E551E660E27DE681E1E3CE80E1F5
:1009C0008A95F1F7E0E6F4E088E0828380E28A9598
:1009D000F1F780E1828388E18A95F1F70895EFDFEE
:1009E000E0E6F4E080E1818380E28A95F1F788E037
:1009F000818380E18A95F1F7089580E18A95F1F786
:100A0000E0E6F4E098E0928380E28A95F1F7808551
:100A100091838295817008951F93CF93DF93D82F90
:100A2000C8E010E1D7FF11C010936204DD0FE5DFCD
:100A3000C150C1F7C0E1C0936204DFDFC09361041D
:100A40000000DF91CF911F91089510936104EECFC4
:100A50001F93CF93DF93182F80E1809362040000EF
:100A6000D8E0C0E0CC0FC9DFC82BD150D9F780E166
:100A7000112369F0809362040000BFDF80E180935E
:100A8000610400008C2FDF91CF911F910895809316
:100A90006104F2CFEF92FF920F931F93CF93DF93F6
:100AA0008C017B0148E15DE6BC0186E06BDEE8017C
:100AB0002896CE01801B910B8E159F0538F4C1DD61
:100AC0009991FE01319789278083F3CFDF91CF91F0
:100AD0001F910F91FF90EF900895CF92DF92FF92B8
:100AE0000F931F93CF93DF93EC01F62E142F77DF34
:100AF00084E492DF082F81110EC01123B1F0812F01
:100B00008BDF2097A1F4812F87DFFF2021F08DE07C
:100B100083DF8AE081DF53DF802FDF91CF911F9148
:100B20000F91FF90DF90CF900895209771F36E01A1
:100B30008FEFC80ED11C8991882321F06DDFCC1670
:100B4000DD06C9F7112309F3DECF40E060E0C5CF31
:100B500040E061E0C2CFCF93C82F90E024E09595AC
:100B600087952A95E1F78A3048F4805D55DF8C2F10
:100B70008F708A3028F4805DCF914ECF895CF6CF9C
:100B8000895CFACF0F931F93CF93DF93182F092F10
:100B9000D62F25DF84E440DFC82F81110AC0802FC3
:100BA000DADF812FD8DFDD2321F08DE035DF8AE029
:100BB00033DF05DF8C2FDF91CF911F910F910895C7
:100BC00060E0E0CFCF930BDF84E426DFC82F8111F4
:100BD00004C08DE021DF8AE01FDFF1DE8C2FCF9192
:100BE00008958091CE6B8F5F8A3028F48EE791E66E
:100BF000AFDF8EEE089585E991E6A7DF8EEC9BE6E8
:100C0000A7DF80E008958091EE6B8F5F8A3028F433
:100C100081EA91E69DDF8EEE089588EB91E695DFFF
:100C20008EEE9BE695DF80E008954F925F926F9283
:100C30007F928F929F92AF92BF92CF92DF92EF926C
:100C4000FF920F931F93CF93DF938FB7F894C090C9
:100C50004967D0904A67E0904B67F0904C678FBF30
:100C6000860180E1882E8EE0982EA12CB12C9CE389
:100C7000492E512C612C712C20912E6B30912F6BB1
:100C8000C091306BD0E08091186B9091196B021776
:100C9000130709F47BC02F5F3F4FECE0FBE670E0E9
:100CA00060E06C177D0774F441915191141615069C
:100CB00034F4DF011297415051094D935C936F5FFB
:100CC0007F4FEFCF0196883E43E0940700F32093D7
:100CD0002E6B30932F6B80911E6B90911F6BA091A8
:100CE000206BB091216B0196A11DB11D80931E6BED
:100CF00090931F6BA093206BB093216B80911A6B24
:100D000090911B6BA0911C6BB0911D6B0196A11D66
:100D1000B11D8038E1E59E07E1E0AE07B10568F559
:100D200080931A6B90931B6BA0931C6BB0931D6BFD
:100D30001092186B1092196BC091316BD091326B7D
:100D4000209709F499CF60911A6B70911B6B809179
:100D50001C6B90911D6BA50194010E948E36A3011E
:100D600092010E948E368091336B821709F484CFF2
:100D70002093336BFE0109957FCF10921A6B10926E
:100D80001B6B10921C6B10921D6BD2CFC0922E6BFE
:100D9000D0922F6B8093186B9093196BDF91CF914A
:100DA0001F910F91FF90EF90DF90CF90BF90AF9089
:100DB0009F908F907F906F905F904F900895AF922B
:100DC000BF92CF92DF92EF92FF920F931F93CF9338
:100DD000DF936C017B018B01040F151FEB015E019A
:100DE000AE18BF08C017D10759F06991D601ED912F
:100DF000FC910190F081E02DC6010995892B79F7CE
:100E0000C501DF91CF911F910F91FF90EF90DF907F
:100E1000CF90BF90AF900895FC0151894289252F52
:100E200030E0842F90E0821B930B541710F0CF9684
:100E3000089501970895FC0197858089981761F0BE
:100E4000A089AE0FBF2FB11D53968C9190899F5FE3
:100E50009F73908B90E008958FEF9FEF0895FC01B2
:100E600097858089981731F08089E80FF11D838973
:100E700090E008958FEF9FEF0895FC0197852089FA
:100E8000892F90E0805C9F4F821B91098F73992777
:100E90000895FC010FB607FE04C08091110188235C
:100EA000A9F0A085B18514968C91149785FF0EC08A
:100EB00091898289981307C015968C9115978F7D1B
:100EC00015968C930895E8940C947D2B08950F93B8
:100ED0001F93CF93DF93EC018E8581608E87998974
:100EE0008A8998130BC0E885F985848185FF06C03F
:100EF0008E8581FD0DC080E4848312C0062F198980
:100F00001F5F1F738A89811315C0CE01C2DFFACF1C
:100F100085818F77806490E49483E885F985858363
:100F2000E885F985628381E090E0DF91CF911F91A0
:100F30000F910895E989EC0FFD2FF11DED5AFF4F38
:100F40000083198B8E85E885F98581FF09C085812D
:100F50008F77806690E49483E885F9858583E3CF75
:100F600085818062FBCF682F86E597E6B0CFCF936F
:100F7000DF93EC018E85882359F0E885F98585811A
:100F800085FD03C0848186FD03C0CE0182DFF5CFDD
:100F9000DF91CF91089586E597E6E9DFA6E5B7E60C
:100FA0001896ED91FC91199786811682858115829C
:100FB00080E4848350968C9150971F968C931F9752
:100FC0001E961C920895CF93DF938091646780FDF5
:100FD000E2DF6FB7F894E0915E67F0915F67168289
:100FE00033E0378388E893E180879187148680E82F
:100FF000858380EC8683209163677091626780911E
:10100000606790916167FC01239FE00DF11D112441
:1010100045915491271708F03EC05C3190F4252F7C
:1010200030E0F901E65CFE49A081AF3F51F0225E5D
:101030003E49E901E881D0E2ED9FF0011124FC5F17
:10104000A18321E0250F2C3130F530E0F901E65C79
:10105000FE49C081CF3FF9F0F901E25EFE49A0816F
:10106000E0E2AE9FD0011124BC5F2E5F3E49F90142
:10107000D081F0E0E0E0D83030F49D01205F3F4FB8
:10108000F901ED0FF11D3FB7F8941296CC93208132
:10109000286020833FBFFC0123E0729FE00DF11D1B
:1010A00011243296E4918091E205E095E823E42B47
:1010B000E093E2056FBFDF91CF910895CF9386E56E
:1010C00097E6DBDE892B09F094C080918A68833033
:1010D00008F0BAC09091EC672091856830918668DD
:1010E000F901EE56FF4F408132968081941708F047
:1010F0005EC080FF33C0492F50E081FF1FC08D7F4D
:101100008083E0918568F0918668E40FF51F808107
:101110008B3109F050C09F5F9093EC67C9E06C2F52
:1011200086E597E6D4DEE0918A6881E08E0F8093B1
:101130008A68F0E0E957F749C08333C09F5F909316
:10114000EC67240F351FD901CC9191E0CB3109F028
:1011500090E0808190FB81F98083E1CF60918B6882
:1011600086E597E6B4DE80918B68E0918A6891E02D
:101170009E0F90938A68F0E0E957F7498083E091E9
:101180008568F0918668EC56FF4F80818D7F808363
:10119000E0918568F0918668EC56FF4F8081816010
:1011A00080838091ED678F5F8093ED678ECF81FFA5
:1011B00004C08D7F8083C8E0B2CF692F641B770B9A
:1011C00089F06130710599F08E7F8083E0918568A8
:1011D000F0918668EC56FF4F80818F7B808381E0A1
:1011E000CF910895CBE19F5F9093EC6798CFC7E0D4
:1011F000FACF1092736C86E597E61DDE90918A68AF
:10120000992321F120918768821320C080918868FA
:101210008093876880918968809388688FEF890FB1
:1012200080938A68E0918568F0918668EE56FF4F5A
:101230002091EC679081291708F441CF81113FCFAD
:1012400086E597E694DECBCF80E0CACF82EEC8CFAA
:10125000079A20E533EC93E0179A44E1F9013197BE
:10126000F1F74150D9F7482F179AF9013197F1F763
:10127000179A59E0F9013197F1F75150D9F74150D8
:1012800099F7915049F7E7CF9FB7F894E0912A0B6F
:10129000F0912B0B8091260B2091496730914A6782
:1012A00040914B6750914C679FBF80FF08C0CF01B2
:1012B0008827892B21F42F5F3F4F4F4F5F4F0F013E
:1012C000169407941694079416940794169407940A
:1012D000F00116940794E00DF11D16940794102C5C
:1012E000169401181694010C169401181694010C0A
:1012F0001694011816941694010C1124E019F109A2
:10130000A8EEB3E00E944D366E0F7F1F811D911D28
:101310000895CF92DF92EF92FF92CF93DF936B010C
:101320007C01B2DFEB01B0DF6C1B7D0B683E7340CC
:10133000D0F381E0C81AD108E108F108C851DC4FA8
:10134000C114D104E104F10471F7DF91CF91FF9052
:10135000EF90DF90CF900895CF92DF92EF92FF92BF
:101360000F931F93CF936C01162F072FE42E8091BC
:10137000BC6B882351F0CCE364E670E080E090E041
:10138000C8DFC150C9F71092BC6BEE2001F127DB1A
:1013900088EA42DBC82F811119C0802F3DDB812FE5
:1013A0003BDB8601F12CC8018C199D098E159F0528
:1013B00080F4C114D10439F48FEF2EDB811106C003
:1013C0000F5F1F4FF0CFF8018081F7CFF8DACEEE34
:1013D00004C0F5DA86E08093BC6B8C2FCF911F910F
:1013E0000F91FF90EF90DF90CF900895CF92DF9212
:1013F000FF920F931F93CF93DF93EC01D62EC72E4E
:101400008A018091BC6B882361F02CE3F22E64E6A4
:1014100070E080E090E07DDFFA94F110F8CF109258
:10142000BC6B8EEEF82E0115110511F1D8DA88EAA1
:10143000F3DAF82E811125C08C2DEEDA8D2DECDA41
:10144000CEDA89EAE9DA6E0101501109C6018C1B76
:101450009D0B8017910730F480E0FADAF601819352
:101460006F01F4CFC00FD11F81E0F2DA8883A7DAD1
:101470008F2DDF91CF911F910F91FF90DF90CF9033
:1014800008959EEEF92EF3CF5F926F927F928F9226
:101490009F92AF92BF92CF92DF92EF92FF920F9303
:1014A0001F93CF93DF93CDB7DEB7C054D109CDBF23
:1014B000DEBF7C01C12C38E0D32E0FEF1FEFA12C33
:1014C00044E0B42ECE0101963C0190E4E916F1040B
:1014D000C0F45E2CE11017C0C801C05CDF4FCDBF67
:1014E000DEBFDF91CF911F910F91FF90EF90DF90C2
:1014F000CF90BF90AF909F908F907F906F905F90B4
:10150000089520E4522E852C912CA401B501C3012D
:101510006DDFE818F908A80CB91CF30181911827B0
:1015200088E09801000F111F37FF04C091E20927DE
:1015300090E119278150A9F78E2F8619851570F330
:1015400081E0C81AD10809F0C0CFC6CF009751F08A
:10155000FC01EC56FF4F80818F7B8F7D808386E579
:1015600097E605CD089586E597E687DC892B31F06F
:101570001092736C86E597E65EDCF5CF0895FC016A
:10158000A081B1818C918D3021F038F48950823066
:10159000A8F51196A083B183F3CF8032D1F38F32B7
:1015A00009F0089511968C9111978A3219F08F32B3
:1015B000C1F008951196A083B183A081B181CD01BE
:1015C00001968083918311968C9111978823B1F0B5
:1015D0008A3299F712968C9112978F3271F713967F
:1015E000D9CFA081B181CD010196808391831196DD
:1015F0008C91882319F08A30A1F7C2CF08951F93E8
:10160000CF93DF93EC01162FBADFE881F981808157
:10161000181308C03196E883F98381E0DF91CF91F8
:101620001F91089580E0FACF0F931F93CF93DF931C
:10163000EC010C811D810296A2DFEA81FB81808191
:10164000873211F0823261F53196EA83FB83EA81B9
:10165000FB819081992309F445C09F012F5F3F4F83
:101660002A833B838917F1F19C3579F49181A7ECAA
:10167000B1E62C91222321F0921310C011969C9177
:10168000992381F13296EA83FB83EC81FD819F01EE
:101690002F5F3F4F2C833D839083D9CF1296E9CFA4
:1016A00080336CF18A3324F08F35A4F08B37A4F4A7
:1016B0002A813B812F5F3F4F2A833B83EC81FD8151
:1016C0009F012F5F3F4F2C833D838083EA81FB8105
:1016D0008081E6CF81349CF08B3554F393ED980FE5
:1016E000923030F3EC81FD81CF0101968C839D8394
:1016F0001082C801DF91CF911F910F9108958B3215
:1017000069F7D6CF8091306781110BC010922C679A
:1017100010922D6710922E6710922F6781E08093B0
:1017200030678CE297E608958091246781110BC0A1
:1017300010922067109221671092226710922367FF
:1017400081E08093246780E297E60895DB0110979B
:1017500049F0ED91FC9111970190F081E02DBC01D1
:10176000CD01099490E080E00895382FFC018FEFBF
:101770009FEF2E2F231B261788F42191AC015227AF
:1017800028E0CA01880F991F57FF04C041E284274F
:1017900040E194272150AC01A1F7EBCF0895CF93FE
:1017A000DF93009709F1DC01AE56BF4FEC91EF38A3
:1017B000D8F4EC01C057DF4F28813981EC01CE0FFE
:1017C000D11D388332E03E0F3C93EF5FE80FF92FD5
:1017D000F11D2083FC01EC56FF4F808180648083E3
:1017E00080E0DF91CF9108958EEEFBCF0F931F9392
:1017F000CF93DF93DC01AE56BF4FEC91E03928F573
:10180000EC01CC56DF4F288126FD1FC0249728818C
:101810003981362748E08901220F331F17FF04C0A2
:1018200051E2252750E135274150A9F72883398314
:1018300021E02E0F2C93E80FF92FF11D608380E03B
:10184000DF91CF911F910F9108958EEEF9CFFF9206
:101850000F931F93CF93DF93EC01EEE1FBE6108132
:101860000181F2806381C2DF6F2DCE01BFDF602F67
:10187000CE01BCDF612FCE01DF91CF911F910F917F
:10188000FF90B4CFCF92DF92FF920F931F93CF932D
:10189000DF93FC01EC56FF4F208126FD15C0EC01C3
:1018A000F62E8B016C0182E9C80ED11C802F8F1996
:1018B000F80161918F01662341F0F6019081903922
:1018C00020F4CE0193DFF2CF80E0DF91CF911F9122
:1018D0000F91FF90DF90CF900895FC012681378112
:1018E0002F5F3F4F2E7F26833783620F731F8481C4
:1018F00095818617970738F082819381820F931F15
:1019000066837783089590E080E00895CF93DF9316
:10191000D82F65D884E480D8C82F811102C08D2FBC
:101920001AD94DD88C2FDF91CF910895CF93DF93A3
:10193000D82F55D884E470D8C82F811102C08D2FBC
:101940006BD83DD88C2FDF91CF91089580912E6C6C
:101950008F5F8A3050F48091CE6BD8DF8DE2E6DF66
:1019600082ED91E6F5D88EEE089581EE91E6EDD800
:101970008EE29CE6EDD880E00895CF93CEE08DE333
:10198000D5DFC150E1F7CF911DC91F93CF93DF93EE
:10199000182FEB018091466986FD0BC08B7F8093E9
:1019A00046698FEF9FEF809342699093436910924D
:1019B00044690E94F23020E031E040E050E00E94B3
:1019C0003136607F612B82EB98E610DF6091C66B49
:1019D00082EB98E60BDF6091C56B82EB98E606DF41
:1019E0006D2F82EB98E602DF6C2F82EB98E6FEDE2D
:1019F00060914B6970914C696E3F7105F0F46F5FB7
:101A00007F4F60934B6970934C6982EB98E6EEDEF2
:101A10000E94F23020E031E040E050E00E94313698
:101A200082EB98E6E3DE61E082EB98E6DFDE82EBB4
:101A300098E6DF91CF911F910ACF61E070E0E1CF8E
:101A4000BF92CF92DF92EF92FF920F931F93CF93AB
:101A5000DF93CDB7DEB76097CDBFDEBF182F092F5C
:101A6000C62E0E94EF0484E40E940C05D82E81113A
:101A700027C00F931F9380E592E69F938F93CE012B
:101A800001967C019F938F930E945038B82E0F903F
:101A90000F900F900F900F900F908701802F8E194D
:101AA0008B1530F4F80181918F010E940C05F6CF5F
:101AB000CC2031F08DE00E940C058AE00E940C05DC
:101AC0000E94DF048D2D6096CDBFDEBFDF91CF91E8
:101AD0001F910F91FF90EF90DF90CF90BF900895EE
:101AE00060E0AECFCF93DF938FEE91E62ED842E247
:101AF00060E087EF91E60E946D0587E092E625D8C9
:101B000081E090E0EDDF8EE211DF61E090E080E0C7
:101B100097DF81E192E619D842E260E089E192E63E
:101B20000E946D0584E097E610D890E080E0D8DF51
:101B30008EE2FCDE81E190E0D3DF89E292E605D817
:101B4000CDEBDBE68B859C853BD88EE2EFDE61E05A
:101B50008D859E85DF91CF9115C80F931F93CF93ED
:101B6000DF93CDB7DEB7A097CDBFDEBF2091C36BAB
:101B70003091C46B37FD12C08091C16B9091C26BE4
:101B800097FD0CC04091C16B5091C26B6091C36BCB
:101B90007091C46B452B462B472B61F486E392E68C
:101BA0000E94A805A096CDBFDEBFDF91CF911F9107
:101BB0000F9108958E010F5F1F4F2115310591F48C
:101BC0009F938F9387E492E69F938F931F930F9336
:101BD0000E9450380F900F900F900F900F900F9021
:101BE000C801DECF9F938F933F932F9383E592E6B7
:101BF0009F938F931F930F930E945038CDBFDEBFEA
:101C0000EFCF0F931F93CF93DF93CDB7DEB7A0979E
:101C1000CDBFDEBFEDEBFBE681858F9380858F9393
:101C200084E692E69F938F938E010F5F1F4F1F9361
:101C30000F930E945038C8010E94A8050F900F9082
:101C40000F900F900F900F90A096CDBFDEBFDF9149
:101C5000CF911F910F9108951F93CF93DF93CDB72D
:101C6000DEB76097CDBFDEBF60911A6B70911B6BC2
:101C700080911C6B90911D6B20E13EE040E050E0B4
:101C80000E948E36122F2CE330E040E050E00E949C
:101C90008E363F932F931F921F9382E792E69F9376
:101CA0008F93CE0101969F938F930E945038CDBFA2
:101CB000DEBF6096CDBFDEBFDF91CF911F9108954B
:101CC0000F931F93CF93DF93853008F0A2C0EB01F1
:101CD00090E0FC01E95BF64920812F70233009F484
:101CE00068C058F4213061F1223009F444C080E327
:101CF0008883198281E090E057C0243009F46BC0DA
:101D00002530A9F7880F991F880F991FFC01ED5AFC
:101D1000F64983818F9382818F9381818F93808114
:101D20008F9385E892E69F938F93DF936F930E9442
:101D300050382DB73EB7285F3F4F2DBF3EBF34C050
:101D4000880F991F880F991FFC01ED5AF649608191
:101D50007181828193818E0122E044E00E948C3067
:101D6000FE0190E080E021912223F1F00196803283
:101D70009105C9F7BCCF880F991F880F991FFC01E7
:101D8000ED5AF64981818F9380818F9380E592E6A9
:101D90009F938F93DF936F930E9450380F900F9013
:101DA0000F900F900F900F90DF91CF911F910F9197
:101DB0000895880F991F880F991FFC01ED5AF64965
:101DC00081818F9380818F938EE792E69F938F938B
:101DD000DF936F93E1CF880F991F880F991FFC0144
:101DE000ED5AF64983818F9382818F9381818F93FE
:101DF00080818F9381E892E69F938F93DF936F9317
:101E00000E9450382DB73EB7285F3F4F2DBF3EBFD1
:101E1000CBCF90E080E0C8CF0F931F93CF93DF9399
:101E2000482F50E0DA01A65CBE498C918F3F09F43F
:101E3000A3C08A01025E1E49E801E881D0E2ED9F5D
:101E4000F0011124FC5F611132C0868390818923E7
:101E50009A012E5F3E49811111C0E90198813097A6
:101E600041F1983030F57096E90FF11D9FB7F89465
:101E70008081611121C0877F80839FBFF9018081AC
:101E80008F3F09F479C0E80128818630B8F4809149
:101E9000E7058770281312C0EC91E53008F0EE0FCB
:101EA0008091010AE095E823E093010A65C08583EB
:101EB000CDCFF0E0E0E0DACF8860DECF4A515F4975
:101EC000FA01808186FF42C09091E9059770482F02
:101ED00050E04F7B94171506C9F5EC918091920B59
:101EE0009E2FE03110F49295907F892309F444C02D
:101EF000D0E22D9F900111243C5FE83008F052C0E1
:101F0000205F3F4FE20FF32FF11D4FB7F8949091F0
:101F1000800B9E7F9093800B90918E0B90FFFCCF57
:101F20002091920B90E08095909530E0822393234E
:101F300028ED24BF8093920B8091800B8160809369
:101F4000800B80818F7780834FBF16C085FF12C0C2
:101F500090E1899FF0011124F75F9181977097308C
:101F600059F4EC91853268F4803298F4803109F4A8
:101F700094CF02C08111F5CFDF91CF911F910F91C6
:101F80000895803409F4AACF8038B1F71092A006E2
:101F9000F3CFC0E18C9FF0011124F75F81818F7E28
:101FA0008183EACFF0E0E0E0B0CF8093716C909352
:101FB000726C61E089E130CFFC0101900020E9F70B
:101FC0003197AF01481B590BBC0186E597E60C948D
:101FD000DF0689E892E6F0CFCF93CEE08DE30E9452
:101FE000B307C150D9F7CF91F4CF8F929F92AF92A0
:101FF000BF920F931F93CF93DF93CDB7DEB7A19717
:10200000CDBFDEBF19A2423008F44AE08E010F5D59
:102010001F4F842E912CB12CA12CA50194010E945C
:102020008E36E62FB901CA01EA30D4F4E05DD8015A
:10203000EE938D01232B242B252B79F790E080E064
:10204000109711F0CD01B8DFA196CDBFDEBFDF91B3
:10205000CF911F910F91BF90AF909F908F90089557
:10206000E95CE5CFCF92DF92EF92FF92CF93DF93BF
:102070006C01990FEE08FF08F7FE16C08DE20E9472
:10208000B307EC0166277727CB016C197D098E0910
:102090009F094AE0AADF8C0F9D1FDF91CF91FF902F
:1020A000EF90DF90CF9008954AE0C701B601DF912D
:1020B000CF91FF90EF90DF90CF9097CFCF93DF93AA
:1020C000D0E0C0E0009711F077DFEC0182DF8C0FE9
:1020D0009D1FDF91CF910895009709F06DCF90E09B
:1020E00080E00895CF93DF93CDB7DEB70E94150649
:1020F00010920B6BABE0BBE6EC91A0E3BBE68C91DE
:10210000E81750F5F0E0EE0FFF1FEE5DF449808117
:102110009181892B99F08AE69AE60E944731EBE09B
:10212000FBE6208130E0220F331FF901009771F4A4
:10213000EE5DF4490190F081E02D09950E941506AD
:10214000ABE0BBE68C918F5F8C93D4CFE45FF44916
:10215000019780839183F2CFEBE0FBE61082DF9161
:10216000CF910895CF93DF93CDB7DEB7E0910B6B9E
:10217000F0E0EE0FFF1FE45FF44980819181892B2D
:10218000F9F48AE69AE60E94473120910B6B30E021
:10219000009771F42F5F3F4F47E1429FC001439F7B
:1021A000900D112461E070E0865995490E946731D5
:1021B000220F331FF901E45FF44901978083918373
:1021C000EBE0FBE680818F5F80839091306B981706
:1021D00008F410820E941506DF91CF910895CF93E5
:1021E000DF93CDB7DEB760E081E116DEEBE0FBE622
:1021F000208130E02F5F3F4FF7E1F29FC001F39F56
:10220000900D1124865995490E944731892B31F44C
:1022100065E670E08AE69AE60E94673161E081E156
:10222000FBDDEBE0FBE6208130E02F5F3F4FF7E185
:10223000F29FC001F39F900D1124865995490E9489
:102240004731892B81F665E873E0E4CF0F931F9344
:10225000CF93DF938B01FC01C281D381209759F08A
:102260006A817B810115110519F06115710549F429
:102270006017710759F4CE01DF91CF911F910F9133
:102280000895C8010E941338892BA9F30990D881B9
:10229000C02DE4CFCF93DF93D9DFFC01892B09F464
:1022A00064C0848195818330910588F5019708F495
:1022B0005CC00680F781E02D309709F456C080811C
:1022C000843709F456C08B3209F442C08D3209F0CC
:1022D00040C03196D1E060E070E0CB01C19120EDCB
:1022E0002C0F2A30C0F5AAE0B0E09B01AC010E949F
:1022F0004D362C2FCC0F330B20533109032E000CFD
:10230000440B550B620F731F841F951FE7CF853059
:10231000910548F0059771F06681778180859185F8
:102320000E94C83604C06681778180859185DF91DF
:10233000CF91089586819781A085B1859C01AD01DB
:1023400066277727CB01621B730B840B950BEFCFAE
:102350003196D0E0C0CFDD2351F3909580957095F4
:1023600061957F4F8F4F9F4FE2CF60E070E0CB01D0
:10237000DECF61E070E080E090E0D9CFAF92BF9215
:10238000CF92DF92EF92FF920F931F93CF93DF9341
:10239000CDB7DEB72697CDBFDEBF7C01DC01169638
:1023A0008C91811103C0AED98C017EC08150F701A0
:1023B0008683C080D180B60184E090E0C7D98C01CB
:1023C000009709F480C0DC01CD92DC92119712963F
:1023D0001D921C9213976701B2E0CB0ED11C6BE7E4
:1023E000C6010DD98823F9F26DE7C60108D981111C
:1023F00057C0C70119D95C01892BA9F26AE3C6014C
:10240000FED8882381F219821A82BE016F5F7F4F46
:10241000C7015CD0882309F4C6CFB501C80116DF17
:10242000009751F5F801608171818AE090E08ED9C2
:10243000009741F0DC011D921C92119714961D9299
:102440001C921597D8011296ED91FC91309729F4C2
:10245000F8018283938308C0F9012081318121151D
:102460003105D1F780839183009709F49CCFDC017B
:102470001296AD92BC92139726E0FE013196DC01D4
:10248000149601900D922A95E1F76DE7C601B7D831
:10249000811106C06CE2C601B2D88111AACF83CFE8
:1024A000F70186818F5F8683C8012696CDBFDEBF88
:1024B000DF91CF911F910F91FF90EF90DF90CF9020
:1024C000BF90AF9008951ED98C0185CF8F929F92B7
:1024D000AF92BF92CF92DF92EF92FF920F931F9332
:1024E000CF93DF93CDB7DEB72697CDBFDEBF7C019C
:1024F0006B015C0182E0A80EB11CC50140D8D70178
:102500001296ED91FC91139780818B35D9F08B3722
:1025100009F4A7C011E0873219F0823209F010E007
:10252000C70182D8009709F47EC021E030E0112372
:1025300009F4A0C022E030E0F601208331838283D9
:10254000938372C0F7018681811103C0EDD88C019D
:1025500065C0815016968C9316978D909C90B4010F
:1025600084E090E0F3D88C01009709F48CC0FC0162
:1025700080829182128213826BE5C50140D8882344
:1025800029F36DE5C5013BD8811141C019821A823A
:10259000BE016F5F7F4FC70199DF8823B9F2D80171
:1025A0006D917C9188E090E0D1D8DC01892B39F0E5
:1025B0001D921C92119712961D921C921397F8016E
:1025C000228133812115310521F4A283B38308C010
:1025D0009C01F901808191810097D1F7A083B1839B
:1025E000109709F4B3CF86E0FE0131961296019060
:1025F0000D928A95E1F76DE5C50101D8811107C0FB
:102600006CE2C5010E94FF0A8111C0CF9FCFD701A4
:1026100016968C9116978F5F16968C93F801808191
:102620009181892B91F410E0812F2696CDBFDEBFDA
:10263000DF91CF911F910F91FF90EF90DF90CF909E
:10264000BF90AF909F908F90089586E090E0D60164
:102650008D939C93119712960D931C93139711E0F1
:10266000E3CFC7018BDEFC0120813181232BD9F21E
:1026700027E030E0D6012D933C93119712968D936D
:102680009C931397ECCF50D88C0176CFCF93DF93E8
:10269000EB01E82FF0E0EE0FFF1FEE54FA4F6591CB
:1026A00074916115710521F480E0DF91CF91089557
:1026B000CE010E948731FE0101900020E9F7319799
:1026C000EC1BFD0BCF010197CF9770F78E2FEDCF4D
:1026D000FF920F931F93CF93DF93CDB7DEB7C05810
:1026E000D109CDBFDEBF8CE892E60E94A80510E0BC
:1026F00000E0F12CBE016F5F7F4F802FC7DF882382
:1027000089F0802F03D984E992E60E94A505CE01C5
:1027100001960E94A805F801E95BF6498081806274
:102720008083F3940F5F1F4F0430110519F78F2D2D
:10273000C058DF4FCDBFDEBFDF91CF911F910F910A
:10274000FF9008951F93CF93DF93CDB7DEB7C054AA
:10275000D109CDBFDEBF909146699F7D90934669B8
:102760008430A8F5282F30E0F901E95BF649908123
:1027700095FF2DC0182F220F331FF901EE56F74990
:10278000608171818AE001D9BE016F5F7F4F812F27
:102790007DDFBE016F5F7F4F82EB98E673D882EBDF
:1027A00098E60E94CF0B90916F6C80914669877F6D
:1027B00097FF88608B7F80628093466980E0C05C71
:1027C000DF4FCDBFDEBFDF91CF911F9108958EEE19
:1027D000F6CFCF93DF93CDB7DEB7C856D140CDBF8C
:1027E000DEBF20910B6B30E02F5F3F4F47E1429FF0
:1027F000C001439F900D1124865995490E9447318D
:102800006BE070E0892B11F40C944A1D01E011E09B
:102810000C0F1D1F005F1F4FCD5ADE4F0883198319
:10282000C355D14020910B6B30E02F5F3F4F47E104
:10283000429FC001439F900D1124865995490E94E3
:102840004731892B11F40C94481D9E012F5C3E4F9B
:10285000C95BDE4F28833983C754D140AE01475C42
:102860005E4FC75BDE4F48835983C954D140CE01C8
:10287000805C9E4FC55BDE4F88839983CB54D140EB
:10288000C95BDE4F9881C754D140C15ADE4F98834F
:10289000CF55D140C85BDE4FA881C854D140C05A43
:1028A000DE4FA883C056D140C75BDE4FB881C95404
:1028B000D140CF59DE4FB883C156D140C65BDE4F01
:1028C000E881CA54D140CE59DE4FE883C256D14088
:1028D000C55BDE4FF881CB54D140CD59DE4FF88334
:1028E000C356D140C45BDE4FC880CC54D140CC59D4
:1028F000DE4FC882C456D14032E8232E38E6332E4C
:1029000049EE442E47E6542E86E597E60E943D07A1
:10291000892B11F40C945122A3E7BCE61C9286E5A6
:1029200097E60E941B079C0197FDEECFF101908175
:1029300096FD5BC0A0E8B8E6EC91E03908F055C020
:10294000822F91FFA4C19D7FD1019C93273009F470
:1029500051C040F44EEF420F443018F1F201808133
:102960008F5F38C0283009F485C12930B9F790FF4E
:10297000F5CF81E08E0FA0E8B8E68C93AE2FB0E0E3
:10298000A751B8499BE115969C93803971F1EE5F90
:10299000A0E8B8E6EC93E82FF0E0E751F84995831A
:1029A00024C090FF04C0F20190819F5F9083D10109
:1029B0009C9191609C93E0E8F8E61082823061F08F
:1029C000843051F09B7F9C932450223050F0F101D1
:1029D0008081877F808309C0D1018C9184608C9332
:1029E000F3CFD1018C9188608C931092476710923D
:1029F00048678ACF90FFB2CF9E7F9F7E9C9393FFC4
:102A000058C1CE2ED12CCB5ADE4FC882D982C555A3
:102A1000D140D20119964D915D916D917C911C9799
:102A200015968D919D910D90BC91A02DC0905067F1
:102A3000D0905167E0905267F0905367C15BDE4FD2
:102A4000C882D982EA82FB82CF54D1406090546719
:102A50007090556716E5E12E1AEDF12E0CE415EB9A
:102A6000CB59DE4FE882F9820A831B83C556D140D9
:102A7000C35BDE4F1882CD54D140CB59DE4FC880A6
:102A8000D980EA80FB80C556D140FBE0F694E794FC
:102A9000D794C794FA95D1F7F601E370FF27EE0FAC
:102AA000FF1FEE0FFF1FE85EF249C080D180E28079
:102AB000F380CB59DE4F088119812A813B81C556AD
:102AC000D1400C0D1D1D2E1D3F1D4C015D01E4E08C
:102AD000880C991CAA1CBB1CEA95D1F76C017D01DE
:102AE000F5E0F694E794D794C794FA95D1F78C243F
:102AF0009D24AE24BF24880E991EAA1EBB1E8026CC
:102B00009126A226B326481959096A097B09CB598F
:102B1000DE4F088119812A813B81C556D140095B6E
:102B2000194727433E49CB59DE4F088319832A832F
:102B30003B83C556D140F801E370FF27EE0FFF1F1E
:102B4000EE0FFF1FE85EF249C080D180E280F38083
:102B50000C0D1D1D2E1D3F1D4A015B01E4E0880C7C
:102B6000991CAA1CBB1CEA95D1F76A017B01F5E010
:102B7000F694E794D794C794FA95D1F78C249D24C2
:102B8000AE24BF24840E951EA61EB71E8026912655
:102B9000A226B32688199909AA09BB09C35BDE4F8F
:102BA0000881CD54D1400230E9F46A017B01C82686
:102BB000D926EA26FB26970186010064C15BDE4F19
:102BC000088319832A833B83CF54D1406C017D0154
:102BD000E5E0F694E794D794C794EA95D1F73601E7
:102BE000689465F8C35BDE4F1881CD54D1401F5FF8
:102BF000C35BDE4F1883CD54D140163009F03DCF72
:102C0000F201418752876387748785839683A78300
:102C1000B087C15BDE4FC880D980EA80FB80CF548B
:102C2000D140C0925067D0925167E0925267F092C3
:102C30005367609254677092556709EE17E638E063
:102C4000E32EF12CCB5ADE4FC880D980C555D14038
:102C5000EC14FD0470F50E942103D8011D969C918F
:102C60001D9789271D968C93BFEFEB1AFB0A0F5F08
:102C70001F4FE8CF90FF72CE81E08E0FA0E8B8E63C
:102C80008C93F0E0E751F8498BE18583AECE2B3190
:102C900021F49260D1019C93A8CE90FF5FCE81E099
:102CA0008E0FA0E8B8E68C93F0E0E751F849258351
:102CB0009CCEEAEEF7E6808183FF44C00EE11BE67E
:102CC000F80180819181A281B38120916F6C22FDF6
:102CD0006EC0F201C088D784E684F584AC01BD01E2
:102CE000445C5F4F6F4F7F4FC416D506E606F7066C
:102CF00008F47DC0B701A601445C5F4F6F4F7F4F62
:102D000084179507A607B70708F471C00097A105B7
:102D1000B04108F0C3C0F1E0CF16D104E104F0E106
:102D2000FF0608F4BBC082EA92E60E94A805D8011B
:102D3000CD92DD92ED92FC921397F101808180613A
:102D4000808359C0AEE8B8E61D921C92119780EFBF
:102D500091EF8093906890939168E0E8F8E6608145
:102D60006230F8F062506083E62FF0E0E751F849F6
:102D7000058110E0102F00278681080F111D0D938B
:102D80001C938FEF9FEF662321F08EEE97E60E9453
:102D9000B50B80939068909391680817190709F410
:102DA0008DCFE0E8F8E61082D1011C921ECE00978C
:102DB000A105B041E0F4D2015096CC9050971F96F7
:102DC000DC901F971E96EC901E971D96FC90B1E02C
:102DD000CB16D104E104B0E1FB0648F082EA92E6AA
:102DE0000E94A805F801C082D182E282F382D1015B
:102DF0008C9180618C93F1018081806480838EEE60
:102E000097E68093476790934867AAEEB7E68C9160
:102E100084FF4DC0E0904767F0904867B7016C565B
:102E20007F4FFB01908192FFDFC6E114F10409F0AE
:102E300078C0F701EC56FF4F80818F7B8083109222
:102E4000456710924667109283688091456790911C
:102E50004667892B09F4C2C6EBE0FBE6208130E02F
:102E60002F5F3F4FF7E1F29FC001F39F900D1124B8
:102E7000865995490E9447310091456710914667F0
:102E8000F801ED56FF4F892B09F0C7C560810AE0B4
:102E9000609FB00111246F5F7F4FFCC5D1018C9101
:102EA0008F7E8C938FEA92E60E94A8057ACF80618C
:102EB000AAEEB7E68C932FB7F8948091496790916A
:102EC0004A67A0914B67B0914C672FBFEDEBFBE6D3
:102ED000808391839C012D60306F42815381421722
:102EE000530708F097CFCF5CDE4F9883C153D14092
:102EF000CE5CDE4F8883C253D14042E060E370E095
:102F0000C15ADE4F8881CF55D140C05ADE4F9881DB
:102F1000C056D1400E94AC0989EB92E60E94A805F8
:102F200079CFEEE0FDE6808186FD83CF97012E56B6
:102F30003F4FD9012C912C3008F47BCF92FB82F9C2
:102F40008083F7015081533009F0B6C08091786CCE
:102F50009091796C892B09F0AFC0DB018C9183FDD6
:102F600004C090916E6C92FF64CF90916F6C92FD53
:102F700004C08871883009F45CCFF70184808381B4
:102F8000823009F480C0833009F48CC0813009F0AC
:102F900084C0912CB12CA12C81149104A104B10402
:102FA00039F00E94F230A50194010E9431364B01A4
:102FB00080920D6DD701AC56BF4F9C91EEE0FDE6BF
:102FC000808192FB82F980839C9193FB83F98083BB
:102FD0009C9192FB992790F986FD0BC090FB82F99A
:102FE00080838FEF9FEF80930A6D90930B6D10920B
:102FF0000C6D43E060E0C7010E94562C0DEB1BE610
:10300000D80119966C918AE79CE60E94F60BF801AC
:1030100060858AE79CE60E94F60B46E065E0C70102
:103020000E94562C0E94F23020E031E040E050E057
:103030000E9431368AE79CE60E94F60B60E08AE740
:103040009CE60E94F60B8AE79CE60E94270C8AE722
:103050009CE60E94CF0BF701EC56FF4F80818F7BDF
:1030600080838AE79CE680934567909346678091CA
:103070000E6D83FFE8CE60910C6D70E08AE79CE6F0
:103080000E944A05E0CE8091C56B9091C66B88275F
:10309000907F8115904F09F47CCF80920D6D109236
:1030A0000C6DD9CF8091C56B9091C66B8827907FAE
:1030B0008115904F91F36DCFADEBBBE6F701938196
:1030C00019968C9119979813B4CE948118968C9177
:1030D0009813AFCE90916F6C92FD08C0D701AC569B
:1030E000BF4F8C918871883009F4A3CE97012C567C
:1030F0003F4FD9014C91AEE0BDE68C9142FB82F985
:103100008C93F901408143FB83F98C93208122FB4E
:10311000222720F986FD0BC020FB82F98C932FEF2C
:103120003FEF20930A6D30930B6D10920C6D10924F
:103130000D6DEFEFE50FEB3008F04FC4F0E0ED550B
:10314000F74E0C940D38AE18EF18ED1C9519AF1909
:10315000341AD71AEB1A991B711C8D1CF701EC5607
:10316000FF4F808183FD04C080916E6C80FF3DC461
:1031700060E0C7010E94762C62E08AE79CE60E942C
:10318000F60B61E08AE79CE60E94F60B61E08AE7B5
:103190009CE60E94F60B60E08AE79CE60E94F60B34
:1031A00061E08AE79CE60E94F60B60E08AE79CE615
:1031B0000E94F60B60E08AE79CE60E94F60B61E154
:1031C0008AE79CE60E94F60B61E08AE79CE60E9493
:1031D000F60B65E08AE79CE60E94F60B32C1F70128
:1031E000EC56FF4F808183FD04C080916E6C81FF9F
:1031F000FCC361E0C7010E94762C66EC72E68E018A
:103200000F5F1F4FC8010E941C38B8018AE79CE677
:103210000E94420C1982B2E9AB2EB8E6BB2ED12C2B
:10322000C12C80E5882E82E6982E90E8792EF60152
:10323000E95BF649808185FD38C0FFEFCF1ADF0AD0
:1032400022E0A20EB11C34E0C316D10481F76DEC6C
:1032500072E68E010F5F1F4F6801C8010E941C3883
:10326000B8018AE79CE60E94420C198210E000E057
:10327000BC2CAD2C902E6801F801E95BF6498081E9
:1032800085FF46C084FF44C08981811130C0F601AA
:10329000E95BF64980818F7081F56DE28AE79CE6F3
:1032A0000E94F60B8DE2898333C084FFC6CF8981EB
:1032B000811117C0D50111968C9111978F938C9124
:1032C0008F939F928F921F927F921F930F930E94D2
:1032D0002338CDBFDEBFB8018AE79CE60E94420CCE
:1032E000ACCF6CE28AE79CE60E94F60BE3CF6CE27F
:1032F0008AE79CE60E94F60BCACF6B2D7A2D892DAA
:103300000E94600E6B2D7A2D8AE79CE60E94420C8B
:103310000F5F1F4F0430110509F0ACCF6DE58AE750
:103320009CE60E94F60B6DE755CFF701EC56FF4F78
:10333000808183FD04C080916E6C83FF56C3D701EA
:1033400017968C91B4E68B9FC00111248093786C02
:103350009093796C60E0C7010E94762C72C0F701EF
:103360003C96D7011C964D915C911D97542745279B
:1033700054271C969C911C971D966C912091C56BAF
:103380003091C66B2115304F28F44A3F07E05007B3
:1033900009F02BC38091146D882331F0D701AC560E
:1033A000BF4F8C9183FF21C3D701AE56BF4F8C9185
:1033B0001EEE8D30B0F04A3F17E0510709F049C0CA
:1033C0004093C56B5093C66B8FEF9FEF80936E6CED
:1033D00090936F6C42E068E470E0CF010E94AC090A
:1033E00010E043E060E0C7010E94562CEDEBCE2ECA
:1033F000EBE6DE2ED60119966C918AE79CE60E94D8
:10340000F60BF60160858AE79CE60E94F60B46E023
:1034100065E0C7010E94562C0E94F23020E031E0A6
:1034200040E050E00E9431368AE79CE60E94F60BAD
:10343000612F8AE79CE60E94F60B8AE79CE60E94D1
:10344000270C8AE79CE60E94CF0B882309F403CE61
:10345000F0CC292F30E0322F2227260F311D209368
:10346000C56B3093C66BB6CFF701EC56FF4F80812A
:1034700083FD04C080916E6C84FFB7C2D7011C9697
:103480004C911C971D966C911D97862F90E0982F5C
:1034900088271E966C911E97680F792F711D1F96B5
:1034A0008C91442309F481C0823008F07EC06115FC
:1034B000B4E07B0754F0C70140960E94AC09182F76
:1034C00084E68093746C612F46CF6031710509F0FA
:1034D0006CC0483009F069C0F7018089853509F072
:1034E000E8C081898A3A09F0E4C08289833C09F006
:1034F000E0C083898C3309F0DCC0C488D12CDC2C7B
:10350000CC248589C80ED11C0689802F90E0982F85
:1035100088270789080F192F111DC6010E94440A28
:103520005C0186ED92E60E94A505C6010E94E005B9
:103530008FED92E60E94A505C8010E94E0058AE38E
:1035400093E60E94A50561E0C5010E94C2050A1527
:103550001B05B9F448E060E170E0C70140960E94A5
:10356000AC09182F811108C088EE92E60E94A805C8
:103570008FE08093706CA7CF82E093E60E94A8054D
:10358000A2CF82E293E60E94A505C5010E94E00554
:103590008FED92E60E94A505C8010E94E0058AE130
:1035A00093E60E94A80519EE8ECF1EEE8CCFF70190
:1035B000EC56FF4F808183FD04C080916E6C83FFC9
:1035C00014C2D70117968C91B4E68B9FC0011124C9
:1035D0000E94D50FBFCEF7018781282F217090E080
:1035E000959587958130910509F45AC082309105EF
:1035F00009F44DC061EE892B09F0ADCE60E071E0B9
:103600008EECA82E8BE6B82E9EE1D92EF701EC5653
:10361000FF4F80818870222309F44FC0811104C0BC
:1036200080916E6C86FFE1C1D7011C964C911C976E
:10363000F50180818823D9F11D968C911D978D32DB
:10364000D1F5F701EE56FF4F80818E30A1F51D9622
:103650001C921D971E961C9241E0F701EE56FF4FFB
:1036600080818D3030F1F701E40FF11D158667017F
:10367000BDE0CB0ED11C4F5FC6010E94AC09182FD4
:10368000811121CFB601C5010E941C381CCF60E812
:1036900071E03EE2A32E3CE6B32E1EE3D12EB6CF60
:1036A00060E471E00EEEA02E0BE6B02EF6CFD4163D
:1036B000A0F611EE08CF18EE06CF811104C080915C
:1036C0006E6C85FF92C18E010F531F4F40E450E096
:1036D000C8010E94F609882EF801ED0DF11D118236
:1036E000F80101900020E9F731976F01C01AD10A63
:1036F0009C2C682FC7010E94762C8110A2CE6C2DC5
:103700008AE79CE60E94F60BCC2061F0D02EF801EF
:1037100061918F018AE79CE60E94F60B802F8D193C
:103720008915A8F3BE016F537F4FC5010E941C3855
:1037300088CEF701EC56FF4F80818870D70117962D
:103740002C9120FFC3C0329720812A3008F4BEC0DC
:10375000811104C08091146D8111ECC78FEFCF5E91
:10376000DE4F8883C151D140CE5EDE4F8883C25187
:10377000D140CD5EDE4F8883C351D140CC5EDE4F59
:103780008883C451D140CB5EDE4F8883C551D14080
:10379000CA5EDE4F8883C651D140C95EDE4F888342
:1037A000C751D140C85EDE4F8883C851D140F70170
:1037B00094858585C92ED12CDC2CCC24C80ED11C37
:1037C00040916E6C50916F6CC416D50609F452C7C7
:1037D000CF5FDE4F9883C150D140CE5FDE4F8883EC
:1037E000C250D1409095CD5FDE4F9883C350D140F9
:1037F0008095CC5FDE4F8883C450D14011E02531E5
:1038000008F03CC744E064E770E0CE018F5F9E4F54
:103810000E94AC09182F82E593E60E94A5051111BC
:103820009FC7C0926E6CD0926F6C8CE794E60E943A
:10383000A80510E084C783E493E60E94A50571C73C
:1038400042E160E670E0CE018F5F9E4F0E94AC09BE
:10385000182F80E693E60E94A505111181C7FE018D
:10386000EF5FFE4FA8E1BDE681918D93CD5ADE4F0B
:10387000C880D980C355D140CE16DF06A9F70E9473
:10388000D304D3CF48E160E670E0CE018F5F9E4F56
:103890000E94AC09182F8BE693E60E94A505111132
:1038A0005FC7C0926E6CD0926F6CFE01EF5FFE4FEF
:1038B000A8E1BDE681918D93CD5ADE4F0881198133
:1038C000C355D1400E171F07A9F7D9CF811102C0E8
:1038D00091FF8BC061E08091146D811131C760E070
:1038E0002FC7F701EC56FF4F808183FD04C0809104
:1038F0006E6C87FF7AC00FE01DE6D8018D919C9118
:10390000892B09F468C060E0C7010E94762CD801B9
:10391000ED91FC91C701099594CDF701EC56FF4F4D
:10392000808183FD02C090FF60C0F701B7800B2D3E
:1039300010E0F801E95BF649808185FF4CC060E04A
:10394000C7010E94762CF801EE0FFF1FEE56F749D3
:10395000D08061818AE79CE60E94F60B6D2D8AE794
:103960009CE60E94F60BF3E0FB15B0F06E0121E837
:10397000C20ED11CB6018B2D0E944613982EAC2C82
:103980008C2D8A19891540F4D6016D916D018AE755
:103990009CE60E94F60BF4CFF801E95BF6498081C2
:1039A0008F7009F44ECD6CE28AE79CE60E94F60B1C
:1039B00060E28AE79CE60E94F60BBE016F577F4FDC
:1039C0008B2D0E94600EBE016F577F4F8AE79CE6E9
:1039D0000E94420C36CD6EEEBECCF701EC56FF4F86
:1039E000808183FD02C063EEB6CC86EA93E60E9436
:1039F000A5050E94EF0484E40E940C05882319F0B9
:103A00000E94DF0416CA85EE0E94AB058DE00E947D
:103A10000C058AE00E940C05F3CF10820E94B30AC5
:103A2000A3E8B8E68C9191E0980F9C93833030F432
:103A3000F801EE56FF4F8081883038F4C8010E94AB
:103A4000A60A10924567109246678091456790914B
:103A50004667892B09F4F9C910924467BFEFB09308
:103A6000EB67E3E7FCE68081823058F5ABE0BBE62C
:103A70002C9130E02F5F3F4FB7E1B29FC001B39F61
:103A8000900D1124865995490E944731892B31F4B4
:103A900062E070E08AE69AE60E9467310E94B30A0B
:103AA000809144678F5F80934467893CD0F2809116
:103AB0004567909146670E94A60A1092456710924A
:103AC00046678091456790914667892B09F4BDC987
:103AD000E3E7FCE68081823008F4B7C960E089E161
:103AE0000E940C0F80914567909146670E94112CAF
:103AF000809343678111A9C91092446780914367FD
:103B0000811128C0ABE0BBE62C9130E02F5F3F4F26
:103B1000B7E1B29FC001B39F900D1124865995491A
:103B20000E944731892B09F4B3CF0E945E0880932D
:103B30004367809144678F5F80934467893CF0F2CC
:103B400080914567909146670E94A60A109245674A
:103B50001092466780914367813059F480914567A0
:103B6000909146670E94A60A109245671092466798
:103B70006CC90E94CB07EBE0FBE6208130E02F5FB1
:103B80003F4FF7E1F29FC001F39F900D112486593A
:103B900095490E944731892B49F40E94F2302AE06E
:103BA00030E040E050E00E94313675C90E94E307E2
:103BB000ABE0BBE62C9130E02F5F3F4FB7E1B29F07
:103BC000C001B39F900D1124865995490E94473139
:103BD000892B09F03AC963E070E05CCF61E089E1CC
:103BE0000E940C0F0C947C14F70180818F70C25BD3
:103BF000DE4F8883CE54D140C380D12CDC2CCC2422
:103C00008481C80ED11C6581862F90E020914B697C
:103C100030914C69A9014F5F5F4F8417950729F0D8
:103C20002E3F310539F4613029F480934B6990932C
:103C30004C6910C0E1E5F9E6408151814F5F5F4F6B
:103C4000408351832817390780F3603118F4213FEE
:103C5000310558F7C25BDE4F0881CE54D1400C309D
:103C600099F0C25BDE4F1881CE54D1401A3009F46E
:103C700072C3E0914767F0914867EC56FF4F80812F
:103C80008F7B80830C948414F701EC56FF4F808166
:103C900090916F6C83FD02C095FFEBCF92FD03C046
:103CA0008871883031F380914D6990914E69A0916F
:103CB0004F69B09150698F3F2FEF9207A207B2076B
:103CC00009F4B1C00196A11DB11D80934D69909377
:103CD0004E69A0934F69B093506930E2C316D10486
:103CE00008F4B2C2E2E9F8E600E081919191C816C9
:103CF000D90609F09DC010923A6B10923B6B4CE0D4
:103D0000E40EF11C81ED91E6E114F10409F0C70124
:103D100024E33BE6C05CDE4F28833983C054D140A6
:103D2000CE5BDE4F88839983C254D140CC5BDE4F9B
:103D3000E882F982C454D1408AE0CA5BDE4F8883AE
:103D4000C654D140CD59DE4F8881C356D140CC599D
:103D5000DE4F9881C456D1400E94BE116C01DC0137
:103D60008D919C91892B09F484CF62EE70E6C60197
:103D70000E942611FC01892B09F411C184819581CF
:103D80008330910508F059C0019708F408C10680F6
:103D9000F781E02D309709F402C180818B3209F45C
:103DA0009BC08D3209F099C0319611E08081812C41
:103DB000912CB0E8AB2EBFE3BB2E843709F44FC083
:103DC0008F7D812C912CA0ECAA2EAFE7BA2E8E34D9
:103DD00009F445C0893409F4ECC0B12C20E030E08E
:103DE00040E050E0DF01F19080ED8F0D8A3008F067
:103DF00078C02C3CBCEC3B07BCE04B0751050CF0F9
:103E00006EC0AAE0B0E00E944D362F2DFF0C330BA0
:103E100020533109032E000C440B550B260F371F7E
:103E2000481F591FDFCF81E090E0A0E0B0E04DCF08
:103E30000F5F043009F059CF1CCF8530910538F061
:103E40000597E9F186809780A084B18408C06681D7
:103E50007781808591850E94F4364B015C018AE070
:103E600090E00E94D50F10E0A801495B56497A0105
:103E7000DA018C91982F9F70923009F40EC108F4EA
:103E8000F2C0943009F44DC108F42AC1953009F00C
:103E9000F0CE62EE70E6C6010E944A11D7012C9165
:103EA000322F3F7019F4207F25602C93F801E95BD5
:103EB000F64920812F70253009F496C1DACE66814B
:103EC0007781808591850E94F4364B015C01B7FAB9
:103ED000B094B7F8B094C3CF319610E067CFB394E5
:103EE00081CFEEE2FE1222C0FD013196DF01F1909A
:103EF00080ED8F0D8A30D0F42C3C8CEC38078CE0B0
:103F0000480751059CF7AAE0B0E00E944D362F2DDE
:103F1000FF0C330B20533109032E000C440B550BBF
:103F2000260F371F481F591FBA94E0CF8C918F7D01
:103F3000F12CE12C853409F050C0FD013196119629
:103F40008C9111978D3279F53196A1E0F12CE12C0D
:103F50008B2D0B2C000C990B6AE0962EA19060ED36
:103F60006A0D6A30A8F59E9CB0019F9C700D1124CB
:103F7000EA2CAA0CFF08B0E3EB1AF108E60EF71ED4
:103F8000B701680F791F6732710544F3AA2389F0DE
:103F9000812C912CA12C30E8B32E111160CF812CF3
:103FA000912C54015CCF8B3211F4FD013296A0E0CC
:103FB000CDCF812C912C20E8A22EBB24BA941111D4
:103FC0004ECF812C912CF0E8AF2EFFE7BF2E47CFCC
:103FD000AA2319F0F194E194F108EB0CF11CB7FC61
:103FE000FA94CA01B9010E94F6364B015C011E1415
:103FF0001F04E4F4712CE0FE10C024E0729EF00176
:104000001124E354FF492081318142815381C5014C
:10401000B4010E9482374B015C01F594E7947394DC
:10402000E114F10441F7111152CF19CFF194E19449
:10403000F108712CE114F104B1F3E0FE10C034E09A
:10404000739EF0011124EB55FF492081318142819B
:104050005381C501B4010E9482374B015C01F59484
:10406000E7947394E7CF911104C0807F8160FA01D7
:104070008083F801E95BF64980818F70813009F017
:10408000F8CD000F111F000F111FF801ED5AF6496E
:1040900080829182A282B382ECCD20E030E040E0C9
:1040A00057E4C501B4010E94BF3687FFE2CD20E08E
:1040B0003EEF4FEF56ECC501B4010E947E37181653
:1040C0000CF0D7CD000F111F000F111F0D5A16490C
:1040D000C501B4010E94C336D8016D937C93C9CD4C
:1040E00020E030E040E857E4C501B4010E94BF364B
:1040F00087FFBFCD20E030E0A901C501B4010E94D7
:104100007E3787FDB6CD000F111F000F111F0D5A0E
:104110001649C501B4010E94C836F8016083718355
:10412000A8CD62EE70E6C6010E942611FC01892B23
:1041300009F481C0848195818330910598F50197B8
:1041400008F479C00680F781E02D309709F473C038
:104150008081843709F473C08B3209F45FC08D32DB
:1041600009F05DC03196FF24F39460E070E0CB016C
:10417000819020ED280D2A3008F053C0AAE0B0E06D
:104180009B01AC010E944D36282D880C330B205327
:1041900031094901330FAA08BB08680D791D8A1D32
:1041A0009B1DE6CF8530910548F0059749F1668162
:1041B0007781808591850E94C33604C066817781AE
:1041C00080859185F801E95BF6492081322F3F70A7
:1041D00019F4207F24602083F801E95BF6492081EF
:1041E0002F70243009F045CD000F111F000F111F53
:1041F000F801ED5AF649608371838283938339CD48
:1042000086819781A085B1856C017D01662777271E
:10421000CB016C197D098E099F09D4CF3196F12C01
:10422000A4CFFF2079F290958095709561957F4F8E
:104230008F4F9F4FC7CF60E070E0CB01C3CF61E0ED
:1042400070E080E090E0BECFB1E0CB16D10409F081
:1042500010CD10923A6B10923B6BC7010C969C01EB
:1042600011F421ED31E644E35BE6C75CDE4F4883A1
:104270005983C953D140C55CDE4F28833983CB5362
:10428000D140C35CDE4F88839983CD53D1408AE00F
:10429000C15CDE4F8883CF53D140CF59DE4F888138
:1042A000C156D140CE59DE4F9881C256D1400E94AE
:1042B000BE118C01FC0180819181892B09F4D9CC3C
:1042C0004EE1A42E4BE6B42EF50180819181A281AE
:1042D000B3816CED70E60097A105B041D8F4C80138
:1042E0000E944A11D5016D937D938D939C931397F2
:1042F00065ED70E6C8010E944A1160931A6B7093D5
:104300001B6B80931C6B90931D6B8AE090E00E9466
:10431000D50FA7CCC8010E944A11F50160807180B9
:1043200082809380A4019301245C3F4F4F4F5F4FE5
:10433000621773078407950708F09BCC9B01AC01BB
:10434000245C3F4F4F4F5F4F6216730684069506FD
:1043500008F08FCCC7CFF7018085882309F489CC7A
:10436000EC56FF4F808190916F6C83FD02C096FFE9
:1043700080CC92FD04C08871883009F47ACC809199
:104380004D6990914E69A0914F69B09150698F3FEE
:10439000FFEF9F07AF07BF07A9F10196A11DB11D50
:1043A00080934D6990934E69A0934F69B093506983
:1043B000F701EE56FF4FE081EE0DFF2DF11D10824B
:1043C00008E0E00EF11C02EB15E0B12CD8016D9174
:1043D0007D918D01C7010E941338892BC1F40B2DEB
:1043E00010E0C114D104C1F4000F111FF801EE5602
:1043F000F74980819181892B09F43BCC8B2D0E9458
:10440000A2133DC081E090E0A0E0B0E0C9CFB3943A
:10441000B4E0BB12DBCF2DCC7801E0E4EE0EF11C52
:10442000EE0CFF1CCF5DDE4FD882C152D140CE5D75
:10443000DE4FC882C252D1408091BC6B882339F0D4
:1044400064E670E080E090E00E948909F5CF42E0E8
:10445000B701CE018F5D9E4F0E94AC09FFEFCF16D2
:10446000DF0691F0F801EE0FFF1FEE56F749C0820C
:10447000D182F801E95BF6498081806180838AE01E
:1044800090E00E94D50FF5CBF801EE0FFF1FEE561E
:10449000F74910821182F801E95BF64980818F7E2D
:1044A000EDCFE6E4F9E6808185FD02C00C9412149C
:1044B00022EB38E62093456730934667806480831B
:1044C00083FD9DC0109283688091456790914667F7
:1044D000009709F4C7C0A3E8B8E62C9131E0320F89
:1044E0003C93233030F00E94A60A10924567109248
:1044F00046678091456790914667892B29F3109212
:104500004467BFEFB093EB67E3E7FCE6808182305E
:1045100030F5ABE0BBE62C9130E02F5F3F4FB7E1C9
:10452000B29FC001B39F900D1124865995490E94F6
:104530004731892B09F4ACCA0E94B30A80914467C1
:104540008F5F80934467893CF8F280914567909132
:1045500046670E94A60A10924567109246678091AE
:10456000456790914667009709F4AECFE3E7FCE614
:104570002081223008F4A8CF0E94112C8111A4CFF1
:10458000109243671092446780914367811128C05D
:10459000ABE0BBE62C9130E02F5F3F4FB7E1B29F1D
:1045A000C001B39F900D1124865995490E9447314F
:1045B000892B09F46DCA0E945E088093436780913D
:1045C00044678F5F80934467893CF0F28091456730
:1045D000909146670E94A60A10924567109246671E
:1045E00080914367813099F4809145679091466747
:1045F0000E94A60A109245671092466765CF6091A7
:10460000446970E082EB98E60E944A055BCF0E9405
:10461000CB07EBE0FBE6208130E02F5F3F4FF7E177
:10462000F29FC001F39F900D1124865995490E9475
:104630004731892B09F4B1CA0E94E307ABE0BBE61E
:104640002C9130E02F5F3F4FB7E1B29FC001B39F85
:10465000900D1124865995490E944731892B09F004
:1046600033CFB9CAE6E4F9E680818F7B8F7D808302
:104670000C941214253108F45DC010E08091146D83
:104680008111D9C890E080E0A7014E5E5F4FDA014A
:10469000A80FB91FE1E0F1E0EC0FFD1FE80FF91FD3
:1046A00024E03E9131932150E1F704968031910549
:1046B00071F760E1CE018F5F9E4F0E94B50BCF5E18
:1046C000DE4F9883C151D140CE5EDE4F8883C25108
:1046D000D1408FEFCD5EDE4F8883C351D140CC5E99
:1046E000DE4F8883C451D140D7011C969C911C9702
:1046F000CB5EDE4F9883C551D1401D968C91CA5E2A
:10470000DE4F8883C651D1409095C95EDE4F9883B5
:10471000C751D1408095C85EDE4F8883C851D140D3
:104720001260123009F48CC8133009F4ABC8113090
:1047300009F468C883E893E60E94A80511EE612F8A
:10474000C7010E94762C0EE61CE6D80111966C91EA
:104750008AE79CE60E94F60BF80160810C94EA1847
:104760001E3E69F785E993E60E94A805E8CFCF933E
:10477000DF93CDB7DEB7C455D109CDBFDEBF2091E1
:104780000B6B30E02F5F3F4F47E1429FC001439FDB
:10479000900D1124865995490E94473169E873E1CB
:1047A000892B09F40DC10E94681388EB93E60E94DF
:1047B000A505CE018F5B9F4F63968EAF9FAF63972A
:1047C00062969FAD629764969FAF64976396EFADD4
:1047D00063976596EFAF6597809100608F5F883C27
:1047E00008F42BC1109200608091C56B9091C66B4C
:1047F0009C012227307F2115304F09F4CCC0209135
:104800003967222309F49FC0213009F4DDC01092DA
:10481000386710923967E4E7FCE6808181117DC03A
:104820008091C56B9091C66B8115904F08F075C053
:10483000F0903A670F2D10E0F801E95BF6498081AE
:10484000982F9F7009F461C084FF5FC00430110588
:1048500008F05BC0000F111F0E561749F801608168
:1048600071816115710509F450C08CE00E94C50C7E
:104870006EEB73E6CE0101960E941C3884EC93E641
:104880000E94A505F8018081918197FDD9C00E9401
:10489000700D89ED93E60E94A505BE016A5F7F4F0A
:1048A0008F2D0E94600E8C017C01F5E0EF0EF11C53
:1048B000CE0106960E94A80588EB93E60E94A50506
:1048C000E1E0F0E0EC0FFD1FEE0DFF1D8DE78083B2
:1048D000E7E0F0E0EC0FFD1FE00FF11F1082BE01DA
:1048E0006F5F7F4F82EB98E60E94420C82EB98E666
:1048F0000E94CF0B90916F6CE6E4F9E68081877F90
:1049000097FF88608B7F8062808380913A678F5F9A
:10491000843008F09FC080933A67EBE0FBE620818B
:1049200030E02F5F3F4FF7E1F29FC001F39F900D02
:104930001124865995490E944731892B09F08DC071
:1049400061E375E73DC080913867282F30E0D901D9
:10495000A95BB6499C9195FD0AC0907E9C938F5FA0
:1049600080933867843008F066C080E012C0220F60
:10497000331FF901EE56F74920813181232B11F0C5
:104980009061ECCF9F7E9C930E94A2138091396727
:104990008F5F80933967EBE0FBE6208130E02F5F8B
:1049A0003F4FF7E1F29FC001F39F900D112486590C
:1049B00095490E944731892B09F016CF65EF71E0C8
:1049C0008AE69AE60E9467316091386770E0FB01E1
:1049D000EE0FFF1FEE56F74920813181232B19F08E
:1049E00080913867BCCF25E0880F991F2A95E1F7A1
:1049F000862B972B8083918322969FAF22972396B5
:104A00008FAF2397605C7F4F660F771F42E06496FD
:104A10008FAD649765969FAD65970E94AC098091B4
:104A20003867E82FF0E0E95BF64990819061908368
:104A30000E94A213D5CF83E6ACCF80930060EBCE6B
:104A400088EE94E60E94A505F801808191810E947C
:104A5000E0051FCF10923A6760CFEBE0FBE62081C4
:104A600030E02F5F3F4FF7E1F29FC001F39F900DC1
:104A70001124865995490E944731892B09F0ACCE03
:104A80005FCFCF93DF93CDB7DEB7DA95CDBFDEBF73
:104A9000ABE0BBE62C9130E02F5F3F4FB7E1B29F18
:104AA000C001B39F900D1124865995490E9447314A
:104AB000892B31F462E070E08AE69AE60E94673161
:104AC0008091BC6B882319F081508093BC6BE3E725
:104AD000FCE68081883C10F48F5F8083A4E7BCE60D
:104AE0008C91882311F081508C93809142678F5F65
:104AF000809342678A3060F210924267E5E7FCE6F5
:104B000083819481009719F0019783839483E1E76F
:104B1000FCE680819181009709F0C8C000E20E9404
:104B2000EF0485E40E940C05182F811105C080E078
:104B30000E94280580933B670E94DF04111177C211
:104B400080913B67893011F400933B6780913B670C
:104B5000A7EEB9E6EC91883009F4B2C58F3709F0B9
:104B6000B0C0EE2359F09FEF9E0FA7EEB9E69C93DD
:104B7000F0E0ED59F64914A20E94960CA7EEB9E6B2
:104B8000EC91EE3508F4ADC081E08E0FF3E6EF2E28
:104B9000F9E6FF2EA7EEB9E68C93F0E0ED59F64961
:104BA00090E294A3E82FF0E0ED59F64914A2A9E6AB
:104BB000CA2EAAE6DA2E81E0F60180830E94E20581
:104BC000ACE3B7E613961C9213971C92CF53DF4FBA
:104BD0001882C15CD040F6018081882309F4BDC1F0
:104BE000E7EEF9E62080222009F4B7C1F601108231
:104BF000F701148A108E118E128E138E158A168A62
:104C0000178A248D358D468D578D1196FC911197FD
:104C100012967C90D7019096CD90DD90ED90FC900F
:104C2000939767E879E6C650DF4F68837983CA5F58
:104C3000D040412E312E612F912EE12F512E00E0D8
:104C40007FE3A72E77E6B72EC050DF4F1883C05002
:104C5000D14088248A94201609F42AC1C650DF4F17
:104C6000A881B981CA5FD0408D91C650DF4FA8831B
:104C7000B983CA5FD04081320CF4C6C0E1113CC098
:104C80005394362E402E91E09E0F61EC70E06C0F35
:104C90007D1F6E0F711DFB018083E1ECF0E0EC0FD6
:104CA000FD1FE90FF11D1082E92F28C001978083B5
:104CB0009183892B09F032CF61E089E10E940C0FCA
:104CC0002DCF80320CF45ACFE03608F057CF91E068
:104CD0009E0FA7EEB9E69C93F0E0ED59F64984A348
:104CE0004BCF80913B678D3009F44ECF8A3009F469
:104CF0004BCF811114CF48CFEF3128F29FE9980FA5
:104D00009A3108F48052F0EDF80F7F2EFA30B0F0AF
:104D10009FEB980F782C963018F499EC792E780E3A
:104D20008D3259F4E13049F4D5018C918460826070
:104D30008C93602FF82D0F5F8ECFF82DD5019C91AD
:104D4000B92FB2706B2E90FD2FC0FF3F69F1AAE022
:104D5000B0E00E944D362F2F0F2E000C330B440B6A
:104D6000550BC450DF4F288339834A835B83CC5F64
:104D7000D040260F371F481F591F611013C0B4E0E1
:104D8000CC0CDD1CEE1CFF1CBA95D1F7C450DF4FD4
:104D9000688179818A819B81CC5FD040C62AD72ADD
:104DA000E82AF92A602FC7CF611029C07FEF771654
:104DB000B1F0D5018C9181608C93A4E0CC0CDD1C0A
:104DC000EE1CFF1CAA95D1F7872D072C000C990B20
:104DD000AA0BBB0BC82AD92AEA2AFB2AE3CFCF5356
:104DE000DF4F9881C15CD040903349F4883539F465
:104DF000E23029F4D5018C9181608C93D3CFD50119
:104E00008C9181608260F9CFEE2309F494CFD501B3
:104E10008C91982F9570943039F450954095309539
:104E200021953F4F4F4F5F4F80FD27C0B3E0B9152D
:104E3000A8F0892D90E0DC01AD59B649E1E050962B
:104E4000EC939394880F991F880F991FDC01AD593B
:104E5000B6492D933D934D935C93139710923F6702
:104E6000C050DF4FE881C050D140C12CD12CE12C83
:104E7000F12C20E030E0A9015ECF81FDEFCF23E0EF
:104E8000291560F3892D90E0DC01AD59B64932E077
:104E900050963C939394880F991F880F991FDC01BB
:104EA000AD59B649CD92DD92ED92FC921397D6CFD3
:104EB00083E6A82E89E6B82ED5015C962D933D9306
:104EC0004D935C935F979096CD92DD92ED92FC921C
:104ED00093978CE397E6DC01EC93D50154969C9272
:104EE000549757966C93579755963C92559756966C
:104EF0004C92DC011196FC93119712967C925520EE
:104F000061F1842D90E089579649F501808F918F4A
:104F1000E62FF0E0ED59F64915A2FC019C012E5E4A
:104F20003F4F8191882359F09FE9980F9A3120F4DF
:104F3000DF01119780528C93E217F30791F7F1E0AC
:104F4000F51558F4E3E6F9E687E899E6828F938F42
:104F5000E589F0E0ED59F64915A2A7EEB9E61C92F5
:104F60008FE3CF53DF4F8883C15CD040CE53DF4FF8
:104F70001882C25CD040E0917B69F0917C693097E7
:104F800019F08081811108C0E1ECF0E0EC0FFD1F09
:104F9000E0937B69F0937C69A0907B69B0907C6919
:104FA00005E0E02E00E6F02E012FB701C5010E94BA
:104FB0001338892BB9F4EFEFE00FED3008F07DC323
:104FC000F0E0EB51F84D0C940D3807282828BA284A
:104FD000092909290929B829DB29432A5C2A852AB4
:104FE000C62AF22A0F5FFAE0EF0EF11C0031E9F653
:104FF0008FE096E60E94A50580917B6990917C697F
:10500000009711F00E94A50581E097E6ADC00E94CF
:10501000720D88EB93E60E94A505E3E6F9E6148A93
:10502000108E118E128E138E158A168A178AE0E75B
:10503000FCE68081882309F42BCD81508083811187
:1050400027CD88ED84BF81E0809341000000FECF32
:10505000E3E6F9E68489882309F489C04081518117
:1050600062817381EDEBFBE6268137812F3F3F4F55
:1050700071F00481158126813781012B022B032BCE
:1050800031F0411551056105710509F067C057FF01
:1050900008C0109263691092646910926569109259
:1050A0006669EDEBFBE6A3E6B9E62D913C9111971D
:1050B0002483358316821782823028F014968D91CE
:1050C0009C91868397830DEB1BE6D80114968C91F7
:1050D000149715969C91159716962C9116971796DE
:1050E0003C91CB50DF4F3883C55FD040CA50DF4F73
:1050F0002883C65FD040C950DF4F9883C75FD04038
:10510000C850DF4F8883C85FD04044E060E470E05F
:10511000CE018B509F4F0E94AC0984EF96E60E940F
:10512000A505F80184819581A681B781892B8A2BF9
:105130008B2B09F461C086819781009749F4809197
:10514000C16B9091C26B0E94700D8CE794E60CC00D
:105150000E94700D8EE20E94960CF1CF80EE93E6D5
:105160000E94A80582E094E60E94A80552CF0E9402
:10517000AD0D4FCFE3E6F9E68489882309F446C0F4
:1051800080819181A281B3812091C56B3091C66BE2
:10519000215031092E3F3F4F20F40097A105B10562
:1051A00071F50DEB1BE6F80180879187CF50DF4F3B
:1051B0009883C15FD040CE50DF4F8883C25FD0401C
:1051C00042E068E470E0CE018F509F4F0E94AC092E
:1051D0008BE194E60E94A505D80118968D919C91CB
:1051E000892B51F088EE94E60E94A505F801808590
:1051F00091850E94E005A9CF8BE694E6B5CF83E2C6
:1052000094E60E94A80588E494E6AECF0E94010EC1
:1052100000CF80E4FEEEEF2EFBE6FF2E053061F0BE
:1052200080E4BEE2EB2EBCE6FB2E063029F080E2E5
:10523000AEECEA2EABE6FA2EA0917D69B0917E69C4
:10524000109709F46AC09C91F7012081222341F054
:105250009D3209F04DC011962C911197211148C033
:10526000FD0101900020E9F73197EA1BE81710F0E3
:10527000EFEFE80F9D3211F41C92E12F53E6A52EBB
:1052800059E6B52ED5015A968D919C91DC01AE0F51
:10529000B11D11961C9241E04E0F0450602F70E03A
:1052A0006C5F7F4FE6E0660F771FEA95E1F7F50147
:1052B000828D938D0E94AC09D5015A96CD90DC90D9
:1052C000B601C7010E941C38F6018081811103C01C
:1052D00084E694E649CF82E794E60E94A505D501CD
:1052E0005A968D919C910E94A5058BE794E63CCF40
:1052F00084E894E60E94A80589EA94E60E94A50540
:1053000088EC94E6053009F42FCF81EC94E6063062
:1053100009F02ACF83ED94E627CF053079F00630E7
:10532000D1F040E250E060E071E08EEC9BE60E943C
:10533000F6091092ED6B0E94F1056BCE40E450E04F
:1053400060E471E08EEE9BE60E94F60910922D6CEF
:105350000E9403065ECE40E450E060E871E08EE219
:105360009CE60E94F60910926D6C0E94A60C51CE2C
:10537000E3E6F9E68489882331F080819181809386
:105380006E6C90936F6C8BED94E60E94A5058091F6
:105390006E6C90916F6C0E94E0058BEE94E60E941B
:1053A000A5058091146D882319F08FEF94E6DCCE6B
:1053B00084E095E6D9CEE3E6F9E68489811139C027
:1053C000FF24F3944F2D50E0609140677091416746
:1053D000FE0131966F01CF010E94F60910E000E056
:1053E000E02E0F1508F04CC0809140679091416706
:1053F000800F911F8F709927892B61F12091406751
:1054000030914167200F311F207F2036310589F50B
:105410008AE095E60E94A50580E20E94960C8E2DFA
:105420008F70873019F480E20E94960C0F5F1F4F37
:10543000D7CF2081318120934067309341678230FC
:1054400008F4BECFF480B0E8BF1508F0BBCF40E849
:10545000F42EB8CF0E94E205809140679091416799
:10546000800F911F0E94E0058AED96E60E94A50537
:10547000C5CFF601E00FF11F80810E94860CCCCFD2
:105480000E94E205C6CDE3E6F9E68489823088F021
:10549000608171818481C750DF4F8883C95FD040AC
:1054A00041E0CE0187509F4F0E94AC0982E595E60E
:1054B0005BCE8DE095E658CEE3E6F9E6848982304E
:1054C00008F1E080F1800481102F013408F010E42D
:1054D00089E295E60E94A505812F0E94860C85E34E
:1054E00095E60E94A505C7010E94E005011103C0D1
:1054F00080E595E639CE412FB70190E080E00E942B
:10550000AC09F6CF87E595E62FCE48E050E060E1A4
:1055100070E0CE018F519F4F0E94F609C751DF4FB7
:105520001882C95ED040CB51DF4F8881C55ED04024
:1055300090E0982F8827CA51DF4F0881C65ED0407F
:10554000080F192F111DC951DF4F8881C75ED04048
:1055500090E0982F8827C851DF4FE880C85ED04080
:10556000E80EF92EF11CC8010E94E00580E20E94BD
:10557000960CC7010E94E0058DE20E94960CC801BE
:105580000E94440A61E00E94C20543CDE3E6F9E6C9
:105590001489113021F58081823061F0833099F0D7
:1055A0008130E9F482E795E60E94A80582E08093C5
:1055B000706C2FCD82E795E60E94A80588ED84BF28
:1055C0001093410026CD82E595E60E94A80544E0AF
:1055D00060E170E08EEA95E00E94AC091ACD8EE79A
:1055E00095E6C2CD80917769811161C010E000E03D
:1055F000DD24D394C02E78019801295B36495901E6
:10560000D9019C9195FF41C0802F0E94860C8AEDA4
:1056100096E60E94A505BE016F577F4F802F0E941E
:105620004613CE018F579F4F0E94A505F50180813B
:1056300084FF15C08EE895E60E94A505F801EE0FDF
:10564000FF1FEE56F7498081918197FD0BC00E94A4
:10565000700DF701E95BF64980818F7031F40E948B
:10566000E20512C00E94E005F4CF89ED93E60E94A6
:10567000A505BE016F577F4F8C2D0E94600ECE0195
:105680008F579F4F0E94A8058D2D0F5F1F4F04302D
:10569000110509F0AFCF882329F088EB93E60E942B
:1056A000A505B7CC89E995E60E94A805F6CF81301B
:1056B00009F0AFCC0E946813ACCC89EA95E654CDD2
:1056C000E11151CA802F58CAEF93FF93F89AE6E58B
:1056D000F7E60BC0EF93FF93F89AE6E5F7E634C0E0
:1056E000EF93FF93E6E5F7E65FC02F932FB72F9375
:1056F0008F939F93AF93BF936894CF93DF9320E0F2
:10570000C085D8E09289DF01A90FB21FAD5ABF4F03
:105710008C9120E42C838A839F5F9F738D812189E4
:10572000291302C08F7D8D83928BDF91CF9116F06C
:105730000C946607BF91AF919F918F912F912FBFCE
:105740002F91FF91EF9118952F932FB72F933F93A0
:105750008F939F93CF93DF93C085D8E02E812F7EC8
:105760002E83898198818674880F3685382B82FD37
:105770000DC0C78581E08C0F8F732089281791F0A9
:10578000CE0FDF2F20E0D21F9B8B87873687DF91DC
:10579000CF919F918F913F912F912FBF2F91FF918B
:1057A000EF9118953064F2CF8F938FB78F939F93BB
:1057B000CF93DF93C085D8E09D8188818C8187FD60
:1057C000FCCF9F7B90689D83DF91CF919F918F91BC
:1057D0008FBF8F91FF91EF9118951F920F920FB687
:1057E0000F92112484E00E942809EF93FF93E9E4CB
:1057F000F7E68F938FB78F9380818F5F808381814E
:105800008F4F818382818F4F828383818F4F8383E8
:1058100081E08093260B8F918FBF8F91FF91EF9145
:105820001895CF93DF93009709F43EC0FC01EE5624
:10583000FF4F20812830C0F1EC0180938568909360
:1058400086686091EB6786E597E60E94670780911E
:10585000EB67809387686BE186E597E60E946707B0
:105860008BE180938868CC56DF4F88818260888383
:1058700082E080938A688093ED671092EC6788815C
:105880008E7F8883982F947083FF09C085E09111E3
:1058900084E080938B6880E0DF91CF91089583E06E
:1058A0009923B9F382E0F5CF81EEF6CFFF920F9303
:1058B0001F93CF93DF938C01F42EC62FD0E0CF152A
:1058C00078F4F801C11108C0608160688AE79CE63D
:1058D0000E94F60B2196F3CFEC0FFD1F6081F6CFEF
:1058E000DF91CF911F910F91FF900895CF93C62F15
:1058F00046E060E0DBDF76D420E031E040E050E0DD
:105900000E9431368AE79CE60E94F60B6C2F8AE7EC
:105910009CE60E94F60B8AE79CE6CF910C94270C3C
:10592000CF93DF93CDB7DEB7A097CDBFDEBF109288
:1059300058671092596788EE93E0A0E0B0E080933A
:105940005A6790935B67A0935C67B0935D678AE644
:1059500091E6809356679093576780E298E0809332
:105960005E6790935F6782ED95E0809360679093A8
:10597000616783E080936267109263671092646747
:105980000E94DF0484E08093460482E080936604F2
:105990001092EA67109285681092866810924669A4
:1059A0001092446981E090E080934B6990934C6938
:1059B00010924D6910924E6910924F691092506981
:1059C0001092516910925269109247691092926830
:1059D000109293681092486910929468109295689A
:1059E00010924969109296681092976810924A69CD
:1059F000109298681092996810927F69109280694D
:105A00001092816910928269109283691092846960
:105A100010928569109286691092776910927B695D
:105A200010927C6910927D6910927E69109278695B
:105A30001092796910927A691092E7691092686AF7
:105A40001092696A48E050E060E170E0CE01019692
:105A50000E94F6091092C76B8981853551F48AEA54
:105A60008A838B81833C29F48CE38C8381E080934F
:105A7000C76B8D8190E0982F88272E81820F911D12
:105A80008093C86B9093C96B8F8190E0982F882783
:105A90002885820F911D8093CA6B9093CB6B40E257
:105AA00050E060E370E0CE0101960E94F60980E0CC
:105AB0002981822B2A81382F2093BD6B3093BE6BB6
:105AC00080E02B81822B2C81382F2093BF6B309369
:105AD000C06B8091C16B9091C26BA091C36BB09170
:105AE000C46BBA2FA92F982F88272989822BBA2F08
:105AF000A92F982F88272A89822BBA2FA92F982F70
:105B000088272B89822BBA2FA92F982F88272C8999
:105B1000822B8093C16B9093C26BA093C36BB093A5
:105B2000C46B80E0298D822B2A8D382F2093C56B82
:105B30003093C66B80E02D8D822B2E8D382F2F3F1A
:105B4000320709F4A8C02093CC6B3093CD6B40E2B0
:105B500050E060E071E08EEC9BE60E94F609109246
:105B6000ED6B40E450E060E471E08EEE9BE60E9455
:105B7000F60910922D6C40E450E060E871E08EE28E
:105B80009CE60E94F60910926D6C8CE39BE6809374
:105B9000366B9093376B80E890E08093386B9093EE
:105BA000396B10923A6B10923B6B8CE791E68093C5
:105BB000346B9093356B10921E6B10921F6B10928A
:105BC000206B1092216B10921A6B10921B6B10922B
:105BD0001C6B10921D6B1092186B1092196B109227
:105BE0002E6B10922F6B1092306BECE0FBE68EEF79
:105BF0009FEF168A178A819391932BE6E831F2077B
:105C0000C1F71092316B1092326B1092786C109237
:105C1000796C10920C6D10920E6D10920F6D1092A7
:105C2000106D8FEF9FEF80936E6C90936F6C8091EF
:105C3000C56B9091C66B8115904F08F055C048E137
:105C400050E060E670E0CE0101960E94F6098111F5
:105C500048C08D8990E0982F88274E89480F592F8A
:105C6000511D8F89282F30E0322F2227888D820FF7
:105C7000932F911D809590954817590789F440936B
:105C80006E6C50936F6C1092146DA096CDBFDEBFFA
:105C9000DF91CF9108951092CC6B1092CD6B57CFBE
:105CA00060E1CE0101960E94B50B298930E0322FC8
:105CB00022274A89240F311D2817390779F483E2F6
:105CC00080936E6C86E080936F6C8CE296E60E9407
:105CD000A50584EA96E60E94A805D5CF83E596E659
:105CE000F6CF81E796E6F3CF8CE896E6F0CFCF9338
:105CF000DF93CDB7DEB7A097CDBFDEBF88ED21E043
:105D000030E084BF2093620091E084BF90936300F1
:105D10009DE284BF9093800093E084BF90936000E5
:105D200080E090E22091650020FD75C021E0209385
:105D3000030A9EEF9093260A9093270A8BE08093A4
:105D4000000A85E08093E7051092E80537E030937C
:105D5000010B90930C0B10920D0B8093000B309362
:105D6000110B90931C0B10921D0B8093100B4FEF97
:105D70005FE04093AA0B5093AB0B90E89093820B9B
:105D80001092810B4EEF50E04093AE0B5093AF0B4F
:105D900018ED94E114BF9093680091E19093800B0B
:105DA0001092E905E0E0F6E082839EE0958390E6BC
:105DB000938380838091B000887F85608093B0005A
:105DC0008091B200887F85608093B2008FED9EE263
:105DD00080932C0B90932D0B2093250B1092210B6D
:105DE00083E08093200B789400E20093A10461E0AB
:105DF00089E10E940C0F0093610460E081E10E9440
:105E00000C0F14BF89E1809380008091650084FDB0
:105E100008C00000FACF019709F084CF83E00E9408
:105E2000280988ED84BF83E0809360000E94E30727
:105E300086E597E60E943D07892B59F086E597E6AF
:105E40000E941B0761E070E080E090E00E948909F9
:105E5000EFCF0E94E90F0E94EC0F89EB96E60E94BB
:105E60006C108EEB96E60E946C1085EC96E60E9414
:105E70005E100E94EC0F8AEC96E60E946C10609116
:105E8000C56B7091C66B90E080E040E10E94F50F19
:105E90008091CE6B8F5F8A3040F084ED96E60E9451
:105EA0006C108EEC9BE60E946C100E94E90F8DED49
:105EB00096E60E946C1087EF91E60E946C1086EEC9
:105EC00096E60E946C1081E090E00E9432108EE213
:105ED0000E94B30790E080E00E94321082EF96E6C5
