:10040000F3C0000019C1000017C100000C94632A5A
:1004100013C1000011C100000FC100000DC1000098
:100420000BC1000009C1000007C1000005C10000A8
:1004300003C1000001C10000FFC00000FDC00000BA
:10044000FBC00000F9C00000F7C00000F5C00000CC
:10045000F3C00000F1C00000EFC00000EDC00000DC
:10046000EBC00000E9C00000E7C00000E5C00000EC
:10047000E3C00000E1C000000C946B2A0C94E0295A
:100480000C94DA290C94E629D7C00000D5C00000EE
:100490006E616E00696E660000407A10F35A00A02B
:1004A000724E18090010A5D4E80000E8764817003D
:1004B00000E40B54020000CA9A3B000000E1F5057D
:1004C000000080969800000040420F000000A086C7
:1004D00001000000102700000000E80300000000F9
:1004E0006400000000000A0000000000010000009D
:1004F00000002C76D888DC674F0823DFC1DFAE59B7
:10050000E1B1B796E5E3E453C63AE651997696E849
:10051000E6C28426EB898C9B62ED407C6FFCEFBCCD
:100520009C9F40F2BAA56FA5F490055A2AF75C93F8
:100530006B6CF9676DC11BFCE0E40D47FEF520E62E
:10054000B500D0ED902E0300943577050080841E11
:10055000080000204E0A000000C80C333333330F6C
:10056000986E12831141EF8D2114893BE65516CF09
:10057000FEE6DB18D1844B381BF77C1D901DA4BB15
:10058000E424203284725E228100C9F124ECA1E5CA
:100590003D2700000000000000000000000074651E
:1005A000737434007465737433007465737432004B
:1005B00074657374310055AAC33CB005AA05A4053F
:1005C0009E059D059C059B059A059905980597052F
:1005D0009605950594059305920500080AFFFFFF0F
:1005E0001012FF1800188E2F11241FBECFEFCDBFA1
:1005F000DFE7DEBF17E6A0E0B0E6E2EAF0E702C020
:1006000005900D92AC34B107D9F72DE6ACE4B7E60E
:1006100001C01D92A437B207E1F712E0C4EFD2E0A7
:1006200004C02197FE010E94EA37C33FD107C9F7F2
:100630000E945C310C944F38E3CECF9320918067B9
:100640003091816780917C6790917D67A0917E67F2
:10065000B0917F67AC01BD014170552766277727B0
:10066000B695A79597958795F901E071F470E11516
:10067000F44091F5452B462B472B41F040EA842767
:1006800047E394274EE6A4274FE8B42780937C677E
:1006900090937D67A0937E67B0937F67F901EE0F1B
:1006A000FF1F20FF26C04BE5E42745E7F427E09332
:1006B0008067F0938167E770FF27E730F10508F066
:1006C00056C0EB59FC4F0C94EA377B0388038E032A
:1006D00095039C03A803B003452B462B472BB1F28F
:1006E000CBED8C27CEE89C27C0E6AC27C2E8BC2720
:1006F000CDCFE160DCCF80917C678095982F907E94
:1007000080917E67869586958695892BCF910895F1
:1007100080917D6790917F678927F8CF80917C6772
:10072000809590917D679B5EF7CF80917D679091DA
:100730007E67890F805CEACF80917C6790E1899F1A
:100740009001112480917F6782958F70822BDECF7C
:1007500080917E6799E5892790917F67890FD6CF31
:1007600080917C67809590917E679F57D5CF8091CF
:100770007D678C5F90917F67891BC8CF2F923F92D6
:100780004F925F926F927F928F929F92AF92BF92A1
:10079000CF92DF92EF92FF920F931F93CF93DF934D
:1007A000CDB7DEB76297CDBFDEBFDB0149875A8781
:1007B00040907C6750907D6760907E6770907F6707
:1007C0004B865C866D867E86209080673090816740
:1007D000C12CD12C760190E014968D909D90AD9017
:1007E000BC901797F601E370FF27EE0FFF1FEE0F87
:1007F000FF1F69847A84E60DF71D40815181628173
:1008000073812A013B014C0C5D1C6E1C7F1C950101
:10081000840144E0000F111F221F331F4A95D1F7B6
:10082000B501A401E5E07695679557954795EA955A
:10083000D1F70427152726273727080D191D2A1D4C
:100840003B1DB301A20140275127622773270D9159
:100850001D912D913C911397400F511F621F731FE3
:100860004D935D936D937C93139707E4C01A06E84C
:10087000D00A08ECE00A01E6F00A2A013B01F5E0A3
:100880007694679457944794FA95D1F74D825E8297
:100890006F82788697018601EBE03695279517954C
:1008A0000795EA95D1F7F801E370FF27EE0FFF1FD8
:1008B000EE0FFF1F69847A84E60DF71D0081118118
:1008C00022813381280139014C0C5D1C6E1C7F1C78
:1008D0004F86588A698A7A8A8A019B01E4E0000F70
:1008E000111F221F331FEA95D1F74D805E806F8064
:1008F00078840425152526253725040F151F261F66
:10090000371F280139010F85188929893A8904255B
:10091000152526253725080D191D2A1D3B1D149662
:100920000D931D932D933C931797923079F40427E0
:10093000152726273727B901A80140644B875C8714
:100940006D877E872D803E80689425F89F5F891390
:1009500043CF6B857C858D859E8560937C67709386
:100960007D6780937E6790937F6720928067309247
:1009700081676296CDBFDEBFDF91CF911F910F914E
:10098000FF90EF90DF90CF90BF90AF909F908F90AF
:100990007F906F905F904F903F902F90089546E525
:1009A00051E664E67DE68DE0E9DE46E551E66CE67B
:1009B0007DE681E1E3CE80E18A95F1F7E0E6F4E0BF
:1009C00088E0828380E28A95F1F780E1828388E182
:1009D0008A95F1F70895EFDFE0E6F4E080E18183A6
:1009E00080E28A95F1F788E0818380E18A95F1F7CA
:1009F000089580E18A95F1F7E0E6F4E098E09283CB
:100A000080E28A95F1F780859183829581700895BF
:100A10001F93CF93DF93D82FC8E010E1D7FF11C009
:100A200010936204DD0FE5DFC150C1F7C0E1C09350
:100A30006204DFDFC09361040000DF91CF911F915A
:100A4000089510936104EECF1F93CF93DF93182F77
:100A500080E1809362040000D8E0C0E0CC0FC9DFE1
:100A6000C82BD150D9F780E1112369F0809362043B
:100A70000000BFDF80E18093610400008C2FDF91D4
:100A8000CF911F91089580936104F2CFEF92FF926E
:100A90000F931F93CF93DF938C017B0144E65DE6B8
:100AA000BC0186E06BDEE8012896CE01801B910B2D
:100AB0008E159F0538F4C1DD9991FE013197892784
:100AC0008083F3CFDF91CF911F910F91FF90EF9033
:100AD0000895CF92DF92FF920F931F93CF93DF93EE
:100AE000EC01F62E142F77DF84E492DF082F8111BA
:100AF0000EC01123B1F0812F8BDF2097A1F4812F3D
:100B000087DFFF2021F08DE083DF8AE081DF53DF84
:100B1000802FDF91CF911F910F91FF90DF90CF90A9
:100B20000895209771F36E018FEFC80ED11C899143
:100B3000882321F06DDFCC16DD06C9F7112309F3F8
:100B4000DECF40E061E0C5CFCF93C82F90E024E036
:100B5000959587952A95E1F78A3048F4805D58DFAE
:100B60008C2F8F708A3028F4805DCF9151CF895CB3
:100B7000F6CF895CFACF0F931F93CF93DF93182F93
:100B8000092FD62F28DF84E443DFC82F81110AC044
:100B9000802FDADF812FD8DFDD2321F08DE038DFF1
:100BA0008AE036DF08DF8C2FDF91CF911F910F9104
:100BB000089560E0E0CF1F93CF93DF93182FD62FD7
:100BC0000ADF84E425DFC82F811108C0812FBCDF34
:100BD000DD2321F08DE01CDF8AE01ADFECDE8C2FB4
:100BE000DF91CF911F910895CF93F5DE84E410DF5C
:100BF000C82F811104C08DE00BDF8AE009DFDBDE46
:100C00008C2FCF91089580911A6C8F5F8A3028F4D1
:100C10008EE791E696DF8EEE089585E991E60E94D3
:100C2000E52D8AE19CE68DDF80E0089580913A6CA5
:100C30008F5F8A3028F481EA91E683DF8EEE089593
:100C400088EB91E60E94E52D8AE39CE67ADF80E05E
:100C5000089580917A6C8F5F8A3028F483EC91E656
:100C600070DF8EEE089582ED91E60E94E52D8AE711
:100C70009CE667DF80E008954F925F926F927F92CB
:100C80008F929F92AF92BF92CF92DF92EF92FF929C
:100C90000F931F93CF93DF938FB7F894C09075672E
:100CA000D0907667E0907767F09078678FBF860185
:100CB00080E1882E8EE0982EA12CB12C9CE3492E49
:100CC000512C612C712C20915A6B30915B6BC0912F
:100CD0005C6BD0E08091446B9091456B02171307D9
:100CE00009F47BC02F5F3F4FE8E3FBE670E060E074
:100CF0006C177D0774F4419151911416150634F464
:100D0000DF011297415051094D935C936F5F7F4F04
:100D1000EFCF0196883E43E0940700F320935A6B8F
:100D200030935B6B80914A6B90914B6BA0914C6BB5
:100D3000B0914D6B0196A11DB11D80934A6B9093AC
:100D40004B6BA0934C6BB0934D6B8091466B909125
:100D5000476BA091486BB091496B0196A11DB11DE5
:100D60008038E1E59E07E1E0AE07B10568F58093C4
:100D7000466B9093476BA093486BB093496B10926E
:100D8000446B1092456BC0915D6BD0915E6B209768
:100D900009F499CF6091466B7091476B8091486BD5
:100DA0009091496BA50194010E946B36A3019201B9
:100DB0000E946B3680915F6B821709F484CF209379
:100DC0005F6BFE0109957FCF1092466B1092476BC7
:100DD0001092486B1092496BD2CFC0925A6BD0924E
:100DE0005B6B8093446B9093456BDF91CF911F9128
:100DF0000F91FF90EF90DF90CF90BF90AF909F90BA
:100E00008F907F906F905F904F90089580912268AF
:100E1000813108F180914A6B90914B6BA0914C6BA2
:100E2000B0914D6B0097A105B041A8F480EE91E61A
:100E300088DE309125682091246890912368809104
:100E4000226830934A6B20934B6B90934C6B80934A
:100E50004D6B80E008958EEE0895AF92BF92CF92D1
:100E6000DF92EF92FF920F931F93CF93DF936C016A
:100E70007B018B01040F151FEB015E01AE18BF084B
:100E8000C017D10759F06991D601ED91FC910190FD
:100E9000F081E02DC6010995892B79F7C501DF9115
:100EA000CF911F910F91FF90EF90DF90CF90BF9067
:100EB000AF900895FC0151894289252F30E0842F9D
:100EC00090E0821B930B541710F0CF960895019772
:100ED0000895FC0197858089981761F0A089AE0F6D
:100EE000BF2FB11D53968C9190899F5F9F73908BFC
:100EF00090E008958FEF9FEF0895FC01978580891A
:100F0000981731F08089E80FF11D838990E00895EA
:100F10008FEF9FEF0895FC0197852089892F90E03E
:100F2000805C9F4F821B91098F7399270895FC0164
:100F30000FB607FE04C0809111018823A9F0A08597
:100F4000B18514968C91149785FF0EC09189828982
:100F5000981307C015968C9115978F7D15968C93D5
:100F60000895E8940C94F32908950F931F93CF9359
:100F7000DF93EC018E8581608E8799898A89981329
:100F80000BC0E885F985848185FF06C08E8581FDCB
:100F90000DC080E4848312C0062F19891F5F1F7360
:100FA0008A89811315C0CE01C2DFFACF85818F7780
:100FB000806490E49483E885F9858583E885F985E4
:100FC000628381E090E0DF91CF911F910F910895AE
:100FD000E989EC0FFD2FF11DED5AFF4F0083198BAE
:100FE0008E85E885F98581FF09C085818F778066C8
:100FF00090E49483E885F9858583E3CF85818062D9
:10100000FBCF682F82E897E6B0CFCF93DF93EC0158
:101010008E85882359F0E885F985858185FD03C093
:10102000848186FD03C0CE0182DFF5CFDF91CF91B1
:10103000089582E897E6E9DFA2E8B7E61896ED9111
:10104000FC911997868116828581158280E48483BC
:1010500050968C9150971F968C931F971E961C92BA
:101060000895CF93DF938091906780FDE2DF6FB7A3
:10107000F894E0918A67F0918B67168233E03783AA
:1010800088E893E180879187148680E8858380ECE7
:10109000868320918F6770918E6780918C67909185
:1010A0008D67FC01239FE00DF11D112445915491A2
:1010B000271708F03EC05C3190F4252F30E0F9018D
:1010C000E65CFE49A081AF3F51F0225E3E49E90156
:1010D000E881D0E2ED9FF0011124FC5FA18321E0C3
:1010E000250F2C3130F530E0F901E65CFE49C08176
:1010F000CF3FF9F0F901E25EFE49A081E0E2AE9F48
:10110000D0011124BC5F2E5F3E49F901D081F0E08F
:10111000E0E0D83030F49D01205F3F4FF901ED0F42
:10112000F11D3FB7F8941296CC932081286020835C
:101130003FBFFC0123E0729FE00DF11D11243296A8
:10114000E4918091E205E095E823E42BE093E20549
:101150006FBFDF91CF910895CF9382E897E6DBDEF2
:10116000892B09F094C08091B668833008F0BAC02A
:10117000909118682091B1683091B268F901EE56EB
:10118000FF4F408132968081941708F05EC080FF47
:1011900033C0492F50E081FF1FC08D7F8083E091D5
:1011A000B168F091B268E40FF51F80818B3109F0CE
:1011B00050C09F5F90931868C9E06C2F82E897E653
:1011C000D4DEE091B66881E08E0F8093B668F0E0DF
:1011D000ED54F749C08333C09F5F90931868240F84
:1011E000351FD901CC9191E0CB3109F090E080819D
:1011F00090FB81F98083E1CF6091B76882E897E640
:10120000B4DE8091B768E091B66891E09E0F90934C
:10121000B668F0E0ED54F7498083E091B168F09151
:10122000B268EC56FF4F80818D7F8083E091B1687A
:10123000F091B268EC56FF4F80818160808380918D
:1012400019688F5F809319688ECF81FF04C08D7FEE
:101250008083C8E0B2CF692F641B770B89F06130BF
:10126000710599F08E7F8083E091B168F091B2684A
:10127000EC56FF4F80818F7B808381E0CF91089572
:10128000CBE19F5F9093186898CFC7E0FACF109298
:10129000BF6C82E897E61DDE9091B668992321F134
:1012A0002091B368821320C08091B4688093B368A2
:1012B0008091B5688093B4688FEF890F8093B6688A
:1012C000E091B168F091B268EE56FF4F2091186836
:1012D0009081291708F441CF81113FCF82E897E62A
:1012E00094DECBCF80E0CACF82EEC8CF079A20E54C
:1012F00033EC93E0179A44E1F9013197F1F741504B
:10130000D9F7482F179AF9013197F1F7179A59E051
:10131000F9013197F1F75150D9F7415099F79150B0
:1013200049F7E7CF9FB7F894E0912A0BF0912B0B88
:101330008091260B20917567309176674091776791
:10134000509178679FBF80FF08C0CF018827892B05
:1013500021F42F5F3F4F4F4F5F4F0F0116940794BB
:10136000169407941694079416940794F001169413
:101370000794E00DF11D16940794102C1694011893
:101380001694010C169401181694010C1694011869
:1013900016941694010C1124E019F109A8EEB3E09B
:1013A0000E945B366E0F7F1F811D911D0895CF92A5
:1013B000DF92EF92FF92CF93DF936B017C01B2DF5C
:1013C000EB01B0DF6C1B7D0B683E7340D0F381E016
:1013D000C81AD108E108F108C851DC4FC114D10482
:1013E000E104F10471F7DF91CF91FF90EF90DF906E
:1013F000CF900895CF92DF92FF920F931F93CF93D8
:10140000DF93EC01D62EC72E8A018091E86B8823EA
:1014100061F02CE3F22E64E670E080E090E0C7DF3C
:10142000FA94F110F8CF1092E86B8EEEF82E0115B9
:10143000110511F1D0DA88EAEBDAF82E811125C016
:101440008C2DE6DA8D2DE4DAC6DA89EAE1DA6E016E
:1014500001501109C6018C1B9D0B8017910730F4B8
:1014600080E0F2DAF60181936F01F4CFC00FD11F53
:1014700081E0EADA88839FDA8F2DDF91CF911F9187
:101480000F91FF90DF90CF9008959EEEF92EF3CF4D
:1014900040E250E060E071E08AE19CE6ABDF8091E1
:1014A0001A6C8F3F11F410921A6C1092396C0895D7
:1014B00040E450E060E471E08AE39CE69BDF8091C9
:1014C0003A6C8F3F11F410923A6C1092796C089537
:1014D00040E450E060E871E08AE79CE68BDF8091B1
:1014E0007A6C8F3F11F410927A6C1092B96C089557
:1014F000CF92DF92EF92FF920F931F93CF936C01E5
:10150000162F072FE42E8091E86B882351F0CCE34F
:1015100064E670E080E090E04ADFC150C9F71092C5
:10152000E86BEE2001F157DA88EA72DAC82F8111F0
:1015300019C0802F6DDA812F6BDA8601F12CC8017A
:101540008C199D098E159F0580F4C114D10439F4BE
:101550008FEF5EDA811106C00F5F1F4FF0CFF801E9
:101560008081F7CF28DACEEE04C025DA86E08093BA
:10157000E86B8C2FCF911F910F91FF90EF90DF9030
:10158000CF900895009751F0FC01EC56FF4F8081F9
:101590008F7B8F7D808382E897E637CD089582E840
:1015A00097E6B9DC892B31F01092BF6C82E897E6A0
:1015B00090DCF5CF0895FC01A081B1818C918D3034
:1015C00021F038F489508230A8F51196A083B183B8
:1015D000F3CF8032D1F38F3209F0089511968C91B8
:1015E00011978A3219F08F32C1F008951196A083B5
:1015F000B183A081B181CD01019680839183119641
:101600008C9111978823B1F08A3299F712968C91B8
:1016100012978F3271F71396D9CFA081B181CD0186
:1016200001968083918311968C91882319F08A30DA
:10163000A1F7C2CF08951F93CF93DF93EC01162F2C
:10164000BADFE881F9818081181308C03196E883F8
:10165000F98381E0DF91CF911F91089580E0FACF67
:101660000F931F93CF93DF93EC010C811D810296A2
:10167000A2DFEA81FB818081873211F0823261F53D
:101680003196EA83FB83EA81FB819081992309F4F7
:1016900045C09F012F5F3F4F2A833B838917F1F19C
:1016A0009C3579F49181A1EFB1E62C91222321F0B0
:1016B000921310C011969C91992381F13296EA837E
:1016C000FB83EC81FD819F012F5F3F4F2C833D8386
:1016D0009083D9CF1296E9CF80336CF18A3324F00E
:1016E0008F35A4F08B37A4F42A813B812F5F3F4FC5
:1016F0002A833B83EC81FD819F012F5F3F4F2C8329
:101700003D838083EA81FB818081E6CF81349CF038
:101710008B3554F393ED980F923030F3EC81FD81CB
:10172000CF0101968C839D831082C801DF91CF91F8
:101730001F910F9108958B3269F7D6CF80915C6726
:1017400081110BC0109258671092596710925A6716
:1017500010925B6781E080935C6788E597E6089567
:101760008091506781110BC010924C6710924D67A9
:1017700010924E6710924F6781E0809350678CE41F
:1017800097E60895DB01109749F0ED91FC911197D0
:101790000190F081E02DBC01CD01099490E080E042
:1017A0000895382FFC018FEF9FEF2E2F231B261754
:1017B00088F42191AC01522728E0CA01880F991FB3
:1017C00057FF04C041E2842740E194272150AC0137
:1017D000A1F7EBCF0895CF93DF93009709F1DC01D8
:1017E000AE56BF4FEC91EF38D8F4EC01C057DF4F45
:1017F00028813981EC01CE0FD11D388332E03E0FB4
:101800003C93EF5FE80FF92FF11D2083FC01EC56AC
:10181000FF4F80818064808380E0DF91CF910895C5
:101820008EEEFBCF0F931F93CF93DF93DC01AE5669
:10183000BF4FEC91E03928F5EC01CC56DF4F288101
:1018400026FD1FC0249728813981362748E0890169
:10185000220F331F17FF04C051E2252750E135271F
:101860004150A9F72883398321E02E0F2C93E80FEC
:10187000F92FF11D608380E0DF91CF911F910F91CF
:1018800008958EEEF9CFFF920F931F93CF93DF93BE
:10189000EC01EAE4FBE610810181F2806381C2DFA2
:1018A0006F2DCE01BFDF602FCE01BCDF612FCE01D7
:1018B000DF91CF911F910F91FF90B4CFCF92DF9224
:1018C000FF920F931F93CF93DF93FC01EC56FF4FD2
:1018D000208126FD15C0EC01F62E8B016C0182E9FA
:1018E000C80ED11C802F8F19F80161918F016623DA
:1018F00041F0F6019081903920F4CE0193DFF2CFD0
:1019000080E0DF91CF911F910F91FF90DF90CF90FA
:101910000895FC01268137812F5F3F4F2E7F26835C
:101920003783620F731F848195818617970738F07C
:1019300082819381820F931F66837783089590E05D
:1019400080E00895CF93DF93D82F45D884E460D802
:10195000C82F811102C08D2F5BD82DD88C2FDF911D
:10196000CF910895CF93CEE08DE3ECDFC150E1F746
:10197000CF913AC91F93CF93DF93182FEB0180913A
:10198000726986FD0BC08B7F809372698FEF9FEF2A
:1019900080936E6990936F69109270690E942734EA
:1019A00020E031E040E050E00E943F36607F612B54
:1019B0008EED98E637DF6091126C8EED98E632DF9F
:1019C0006091116C8EED98E62DDF6D2F8EED98E60F
:1019D00029DF6C2F8EED98E625DF60917769709195
:1019E00078696E3F7105F0F46F5F7F4F60937769A0
:1019F000709378698EED98E615DF0E94273420E019
:101A000031E040E050E00E943F368EED98E60ADF7C
:101A100061E08EED98E606DF8EED98E6DF91CF91DE
:101A20001F9131CF61E070E0E1CFBF92CF92DF92A2
:101A3000EF92FF920F931F93CF93DF93CDB7DEB753
:101A40006097CDBFDEBF182F092FC62E0E94EB0472
:101A500084E40E940805D82E811127C00F931F939C
:101A60008DE692E69F938F93CE0101967C019F9322
:101A70008F930E942E38B82E0F900F900F900F90DA
:101A80000F900F908701802F8E198B1530F4F8017D
:101A900081918F010E940805F6CFCC2031F08DE0B6
:101AA0000E9408058AE00E9408050E94DB048D2D33
:101AB0006096CDBFDEBFDF91CF911F910F91FF9058
:101AC000EF90DF90CF90BF90089560E0AECFCF93BE
:101AD000DF938CE092E60E94E52D42E260E084E133
:101AE00092E60E94690584E292E60E94E52D81E07B
:101AF00090E0EBDF8EE226DF61E090E080E095DFB2
:101B00008EE292E60E94E52D42E260E086E392E6F4
:101B10000E94690580E397E60E94E52D81E090E050
:101B2000D4DF8EE20FDF90E080E0CFDF86E492E644
:101B30000E94E52DC9E0DCE68B859C853AD88EE2D3
:101B400001DF61E08D859E85DF91CF9114C80F93F1
:101B50001F93CF93DF93CDB7DEB7A097CDBFDEBF86
:101B600020910F6C3091106C37FD12C080910D6C7C
:101B700090910E6C97FD0CC040910D6C50910E6CC5
:101B800060910F6C7091106C452B462B472B61F4C4
:101B900083E592E60E94A105A096CDBFDEBFDF914E
:101BA000CF911F910F9108958E010F5F1F4F211547
:101BB000310591F49F938F9384E692E69F938F93E0
:101BC0001F930F930E942E380F900F900F900F903D
:101BD0000F900F90C801DECF9F938F933F932F9369
:101BE00080E792E69F938F931F930F930E942E3866
:101BF000CDBFDEBFEFCF0F931F93CF93DF93CDB752
:101C0000DEB7A097CDBFDEBFE9E0FCE681858F930C
:101C100080858F9381E892E69F938F938E010F5F6B
:101C20001F4F1F930F930E942E38C8010E94A105D9
:101C30000F900F900F900F900F900F90A096CDBF28
:101C4000DEBFDF91CF911F910F9108951F93CF9326
:101C5000DF93CDB7DEB76097CDBFDEBF6091466B37
:101C60007091476B8091486B9091496B20E13EE009
:101C700040E050E00E946B36122F2CE330E040E051
:101C800050E00E946B363F932F931F921F938FE873
:101C900092E69F938F93CE0101969F938F930E941C
:101CA0002E38CDBFDEBF6096CDBFDEBFDF91CF91B6
:101CB0001F9108950F931F93CF93DF93482F50E008
:101CC000DA01A65CBE498C918F3F09F4A3C08A015A
:101CD000025E1E49E801E881D0E2ED9FF001112487
:101CE000FC5F611132C08683908189239A012E5F47
:101CF0003E49811111C0E9019881309741F1983036
:101D000030F57096E90FF11D9FB7F894808161114D
:101D100021C0877F80839FBFF90180818F3F09F4B5
:101D200079C0E80128818630B8F48091E705877092
:101D3000281312C0EC91E53008F0EE0F8091010AF3
:101D4000E095E823E093010A65C08583CDCFF0E0FC
:101D5000E0E0DACF8860DECF4A515F49FA01808146
:101D600086FF42C09091E9059770482F50E04F7B65
:101D700094171506C9F5EC918091920B9E2FE031D6
:101D800010F49295907F892309F444C0D0E22D9FEE
:101D9000900111243C5FE83008F052C0205F3F4FB3
:101DA000E20FF32FF11D4FB7F8949091800B9E7FB7
:101DB0009093800B90918E0B90FFFCCF2091920B13
:101DC00090E08095909530E08223932328ED24BF06
:101DD0008093920B8091800B81608093800B808137
:101DE0008F7780834FBF16C085FF12C090E1899F17
:101DF000F0011124F75F91819770973059F4EC91BD
:101E0000853268F4803298F4803109F494CF02C0AE
:101E10008111F5CFDF91CF911F910F9108958034FB
:101E200009F4AACF8038B1F71092A006F3CFC0E131
:101E30008C9FF0011124F75F81818F7E8183EACF2F
:101E4000F0E0E0E0B0CF8093BD6C9093BE6C61E0B9
:101E500089E130CFFC0101900020E9F73197AF0113
:101E6000481B590BBC0182E897E60C942D078BE9BF
:101E700092E6F0CFCF93CEE08DE3C3D8C150E1F727
:101E8000CF91F5CF8F929F92AF92BF920F931F93F6
:101E9000CF93DF93CDB7DEB7A197CDBFDEBF19A239
:101EA000423008F44AE08E010F5D1F4F842E912CC2
:101EB000B12CA12CA50194010E946B36E62FB9012B
:101EC000CA01EA30D4F4E05DD801EE938D01232BF2
:101ED000242B252B79F790E080E0109711F0CD01AD
:101EE000B9DFA196CDBFDEBFDF91CF911F910F91DA
:101EF000BF90AF909F908F900895E95CE5CFCF920F
:101F0000DF92EF92FF92CF93DF936C01990FEE086F
:101F1000FF08F7FE15C08DE274D8EC01662777271D
:101F2000CB016C197D098E099F094AE0ABDF8C0F4C
:101F30009D1FDF91CF91FF90EF90DF90CF9008959C
:101F40004AE0C701B601DF91CF91FF90EF90DF909B
:101F5000CF9098CFCF93DF93D0E0C0E0009711F0FF
:101F600079DFEC0184DF8C0F9D1FDF91CF91089505
:101F7000009709F06FCF90E080E00895CF93DF9352
:101F8000CDB7DEB70E943C061092376BA7E3BBE6E5
:101F9000EC91ACE5BBE68C91E81750F5F0E0EE0F64
:101FA000FF1FE25BF44980819181892B99F086E9DA
:101FB0009AE60E945435E7E3FBE6208130E0220FE9
:101FC000331FF901009771F4E25BF4490190F0814D
:101FD000E02D09950E943C06A7E3BBE68C918F5F3C
:101FE0008C93D4CFE85CF449019780839183F2CF3E
:101FF000E7E3FBE61082DF91CF910895CF93DF9363
:10200000CDB7DEB7E091376BF0E0EE0FFF1FE85C75
:10201000F44980819181892BF9F486E99AE60E943E
:1020200054352091376B30E0009771F42F5F3F4FAC
:1020300047E1429FC001439F900D112461E070E091
:102040008A5695490E947435220F331FF901E85CC6
:10205000F449019780839183E7E3FBE680818F5FFA
:10206000808390915C6B981708F410820E943C0664
:10207000DF91CF910895CF93DF93CDB7DEB760E0C6
:1020800081E118DEE7E3FBE6208130E02F5F3F4F80
:10209000F7E1F29FC001F39F900D11248A569549F4
:1020A0000E945435892B31F465E670E086E99AE6A2
:1020B0000E94743561E081E1FDDDE7E3FBE620810C
:1020C00030E02F5F3F4FF7E1F29FC001F39F900D8B
:1020D00011248A5695490E945435892B81F665E86A
:1020E00073E0E4CF0F931F93CF93DF938B01FC0139
:1020F000C281D381209759F06A817B810115110536
:1021000019F06115710549F46017710759F4CE0192
:10211000DF91CF911F910F910895C8010E94F03770
:10212000892BA9F30990D881C02DE4CFCF93DF93F9
:10213000D9DFFC01892B09F464C084819581833047
:10214000910588F5019708F45CC00680F781E02DC1
:10215000309709F456C08081843709F456C08B3219
:1021600009F442C08D3209F040C03196D1E060E000
:1021700070E0CB01C19120ED2C0F2A30C0F5AAE010
:10218000B0E09B01AC010E945B362C2FCC0F330BCF
:1021900020533109032E000C440B550B620F731FA3
:1021A000841F951FE7CF8530910548F0059771F0A2
:1021B00066817781808591850E94A53604C06681FD
:1021C000778180859185DF91CF9108958681978170
:1021D000A085B1859C01AD0166277727CB01621BE5
:1021E000730B840B950BEFCF3196D0E0C0CFDD237E
:1021F00051F390958095709561957F4F8F4F9F4FCC
:10220000E2CF60E070E0CB01DECF61E070E080E023
:1022100090E0D9CFAF92BF92CF92DF92EF92FF9230
:102220000F931F93CF93DF93CDB7DEB72697CDBF24
:10223000DEBF7C01DC0116968C91811103C07EDA31
:102240008C017EC08150F7018683C080D180B601A9
:1022500084E090E097DA8C01009709F480C0DC01FB
:10226000CD92DC92119712961D921C9213976701E2
:10227000B2E0CB0ED11C6BE7C601DDD98823F9F2A1
:102280006DE7C601D8D9811157C0C701E9D95C01F2
:10229000892BA9F26AE3C601CED9882381F219827B
:1022A0001A82BE016F5F7F4FC7015CD0882309F49B
:1022B000C6CFB501C80116DF009751F5F80160815E
:1022C00071818AE090E05EDA009741F0DC011D92B6
:1022D0001C92119714961D921C921597D801129674
:1022E000ED91FC91309729F4F8018283938308C023
:1022F000F9012081318121153105D1F78083918346
:10230000009709F49CCFDC011296AD92BC92139712
:1023100026E0FE013196DC01149601900D922A957B
:10232000E1F76DE7C60187D9811106C06CE2C601ED
:1023300082D98111AACF83CFF70186818F5F8683EF
:10234000C8012696CDBFDEBFDF91CF911F910F91BF
:10235000FF90EF90DF90CF90BF90AF900895EED9AF
:102360008C0185CF8F929F92AF92BF92CF92DF92D6
:10237000EF92FF920F931F93CF93DF93CDB7DEB70A
:102380002697CDBFDEBF7C016B015C0182E0A80E09
:10239000B11CC50110D9D7011296ED91FC9113978C
:1023A00080818B35D9F08B3709F4A6C011E08732D4
:1023B00019F0823209F010E0C70152D9009709F4F0
:1023C0007DC021E030E0112309F49FC022E030E01D
:1023D000F601208331838283938371C0F701868164
:1023E000811103C0BDD98C0164C0815016968C93B5
:1023F00016978D909C90B40184E090E0C3D98C0135
:10240000009709F48BC0FC018082918212821382B2
:102410006BE5C50110D9882329F36DE5C5010BD9FA
:10242000811140C019821A82BE016F5F7F4FC701C0
:1024300099DF8823B9F2D8016D917C9188E090E012
:10244000A1D9DC01892B39F01D921C9211971296AB
:102450001D921C921397F8012281338121153105B9
:1024600021F4A283B38308C09C01F901808191818A
:102470000097D1F7A083B183109709F4B3CF86E01A
:10248000FE013196129601900D928A95E1F76DE565
:10249000C501D1D8811106C06CE2C501CCD881112B
:1024A000C1CFA0CFD70116968C9116978F5F169645
:1024B0008C93F80180819181892B91F410E0812F18
:1024C0002696CDBFDEBFDF91CF911F910F91FF9078
:1024D000EF90DF90CF90BF90AF909F908F90089536
:1024E00086E090E0D6018D939C93119712960D9300
:1024F0001C93139711E0E3CFC7018CDEFC01208110
:102500003181232BD9F227E030E0D6012D933C9383
:10251000119712968D939C931397ECCF21D98C0130
:1025200077CFCF93DF93EB01E82FF0E0EE0FFF1FA3
:10253000E654FA4F659174916115710521F480E0BC
:10254000DF91CF910895CE010E949435FE01019054
:102550000020E9F73197EC1BFD0BCF010197CF97D6
:1025600070F78E2FEDCFFF920F931F93CF93DF93D2
:10257000CDB7DEB7C058D109CDBFDEBF8EE992E638
:102580000E94A10510E000E0F12CBE016F5F7F4FBB
:10259000802FC7DF882399F060E0802F0E94DB0541
:1025A00086EA92E60E94E52DCE0101960E94A105E1
:1025B000F801ED58F649808180628083F3940F5FC3
:1025C0001F4F0430110509F78F2DC058DF4FCDBFC5
:1025D000DEBFDF91CF911F910F91FF9008951F9360
:1025E000CF93DF93CDB7DEB7C054D109CDBFDEBFE7
:1025F000909172699F7D909372698430A0F5282F25
:1026000030E0F901ED58F649908195FF2CC0182F64
:10261000220F331FF901E254F749608171818AE08A
:10262000A9D9BE016F5F7F4F812F7BDFBE016F5F36
:102630007F4F8EED98E642D98EED98E6CCD89091FA
:10264000BB6C80917269877F97FF88608B7F806207
:102650008093726980E0C05CDF4FCDBFDEBFDF9149
:10266000CF911F9108958EEEF6CFCF93DF93CDB724
:10267000DEB7C753D140CDBFDEBF2091376B30E00E
:102680002F5F3F4F47E1429FC001439F900D1124B0
:102690008A5695490E9454356BE070E0892B11F4FD
:1026A0000C94401C9E012F5F3E4FC55EDE4F288379
:1026B0003983CB51D140C55EDE4F3881CB51D140FB
:1026C000C25DDE4F3883CE52D140C45EDE4F4881BA
:1026D000CC51D140C15DDE4F4883CF52D1402091D3
:1026E000376B30E02F5F3F4F47E1429FC001439F70
:1026F000900D11248A5695490E945435892B11F466
:102700000C943E1CCE01875F9E4FC95EDE4F8883CE
:102710009983C751D140DE01A05FBE4FC75EDE4F37
:10272000A883B983C951D140C95EDE4FB881C75172
:10273000D140C65DDE4FB883CA52D140C85EDE4F7D
:10274000E881C851D140C55DDE4FE883CB52D1400E
:10275000C75EDE4FF881C951D140C45DDE4FF883BA
:10276000CC52D140C65EDE4F8880CA51D140C35D95
:10277000DE4F8882CD52D140A5E12A2EA8E63A2E1E
:1027800082E897E60E948B07892B11F40C94312183
:10279000AFEBBCE61C9282E897E60E9469079C01B9
:1027A00097FDEECFEEEAF8E6908196FD60C0ACEAC8
:1027B000B8E6EC91E03908F05AC0822F91FF9FC132
:1027C0009D7FAEEAB8E69C93273009F455C040F4EB
:1027D0004EEF420F443018F1F10180818F5F3AC013
:1027E000283009F47FC12930B9F790FFF5CF81E097
:1027F0008E0FACEAB8E68C93AE2FB0E0AB5EB74973
:102800009BE115969C93803991F1EE5FACEAB8E6B6
:10281000EC93E82FF0E0EB5EF749958328C090FF3A
:1028200004C0F10190819F5F9083AEEAB8E69C916D
:1028300091609C93ECEAF8E61082823069F0843073
:1028400059F09B7F9C932450223060F0EEEAF8E62A
:102850008081877F80830BC0AEEAB8E68C9184606C
:102860008C93F1CFAEEAB8E68C9188608C9310928D
:1028700073671092746784CF90FFAECF9E7F9F7E68
:10288000AEEAB8E69C9393FF4DC18E2E912CC05EAC
:10289000DE4F88829982C052D140D10119964D9164
:1028A0005D916D917C911C9715968D919D910D90E8
:1028B000BC91A02D40907C6750907D6760907E67B2
:1028C00070907F67E0918067F0918167C25EDE4F14
:1028D000E883F983CE51D14006E51AED2CE435EBBF
:1028E000C35EDE4F1882CD51D14068017901FBE013
:1028F000F694E794D794C794FA95D1F7F601E3706C
:10290000FF27EE0FFF1FEE0FFF1FEC59F249C080AB
:10291000D180E280F38046015701800E911EA21EF5
:10292000B31EC05DDE4F88829982AA82BB82C053EB
:10293000D1404C015D01E4E0880C991CAA1CBB1C31
:10294000EA95D1F76C017D01F5E0F694E794D79410
:10295000C794FA95D1F78C249D24AE24BF24880E09
:10296000991EAA1EBB1EC05DDE4FC880D980EA80BA
:10297000FB80C053D1408C249D24AE24BF24481931
:1029800059096A097B09095B194727433E49F80140
:10299000E370FF27EE0FFF1FEE0FFF1FEC59F24908
:1029A000C080D180E280F38046015701800E911EE5
:1029B000A21EB31ECC5CDE4F88829982AA82BB82A3
:1029C000C453D1404A015B01E4E0880C991CAA1C65
:1029D000BB1CEA95D1F76A017B01F5E0F694E79418
:1029E000D794C794FA95D1F78C249D24AE24BF24A4
:1029F000840E951EA61EB71ECC5CDE4FC880D98003
:102A0000EA80FB80C453D1408C249D24AE24BF2493
:102A100088199909AA09BB09C35EDE4FE881CD5127
:102A2000D140E230C9F42A013B01482659266A26E2
:102A30007B26689446F86C017D01E5E0F694E79406
:102A4000D794C794EA95D1F7F601E062C25EDE4FF3
:102A5000E883F983CE51D140C35EDE4FF881CD517A
:102A6000D140FF5FC35EDE4FF883CD51D140F630D9
:102A700009F03BCF40927C6750927D6760927E6701
:102A800070927F67C25EDE4F88809980CE51D140C0
:102A90008092806790928167F101418752876387B6
:102AA000748785839683A783B08705E118E638E0AD
:102AB000E32EF12CC05EDE4F88809980C052D14059
:102AC000E814F90478F50E941D03D8011D969C9125
:102AD0001D9789271D968C93BFEFEB1AFB0A0F5F9A
:102AE0001F4FE8CF90FF78CE81E08E0FACEAB8E6BA
:102AF0008C93F0E0EB5EF7498BE18583B8CE2B3108
:102B000029F49260AEEAB8E69C93B1CE90FF64CE11
:102B100081E08E0FACEAB8E68C93F0E0EB5EF7490B
:102B20002583A5CEE6E1F8E6808183FF5FC0809132
:102B3000BB6C82FF92C00E940607EEEAF8E6808135
:102B400080618083AEEAB8E68C9180648C938AE1E0
:102B500098E68093736790937467E6E1F8E6808166
:102B600084FFB3C0E0907367F0907467B7016C5650
:102B70007F4FDB019C9192FF31C7E114F10409F012
:102B8000DEC0F701EC56FF4F80818F7B808310926F
:102B90007167109272671092AF688091716790911F
:102BA0007267892B09F414C7E7E3FBE6208130E064
:102BB0002F5F3F4FF7E1F29FC001F39F900D11246B
:102BC0008A5695490E945435009171671091726739
:102BD000F801ED56FF4F892B09F015C660812AE0F8
:102BE000629FB00111246F5F7F4F4AC6AAEBB8E61F
:102BF0001D921C9280EF91EFECEBF8E680839183BD
:102C0000ACEAB8E66C91623008F162506C93E62F42
:102C1000F0E0EB5EF749058110E0102F0027868178
:102C2000080F111DEAEBF8E6008311838FEF9FEF89
:102C3000662321F08AE198E60E94D10BACEBB8E65E
:102C40008D939C930817190709F471CFACEAB8E685
:102C50001C92EEEAF8E610820ACE40914A6B50913F
:102C60004B6B60914C6B70914D6BF1018089978536
:102C7000A685B5858A019B01045C1F4F2F4F3F4FEE
:102C800080179107A207B30770F4CC96A11DB11D60
:102C9000481759076A077B0730F4AEEAB8E68C910B
:102CA00080618C934FCF0E9406078823B1F3EEEA30
:102CB000F8E680818F7E808384EB92E60E94E52D8A
:102CC0008DEB92E60E94A105C1CF8061E6E1F8E6B6
:102CD00080832FB7F8948091756790917667A09163
:102CE0007767B09178672FBFE9E0FCE68083918336
:102CF0009C012D60306F428153814217530708F0C9
:102D000031CFCF5FDE4F9883C150D140CE5FDE4FD1
:102D10008883C250D14042E060E370E0C25DDE4F84
:102D20008881CE52D140C15DDE4F9881CF52D140D3
:102D30000E94780A87EC92E60E94A10513CFEAE58B
:102D4000FDE6808186FD1DCF97012E563F4FD901AC
:102D50002C912C3008F415CF92FB82F98083F70177
:102D60005081533009F0B6C08091C46C9091C56C0D
:102D7000892B09F0AFC0DB018C9183FD04C09091D9
:102D8000BA6C92FFFECE9091BB6C92FD04C088712C
:102D9000883009F4F6CEF70184808381823009F40B
:102DA00080C0833009F48CC0813009F084C0912C3C
:102DB000B12CA12C81149104A104B10439F00E941A
:102DC0002734A50194010E943F364B018092596D32
:102DD000D701AC56BF4F9C91EAE5FDE6808192FB9E
:102DE00082F980839C9193FB83F980839C9192FB71
:102DF000992790F986FD0BC090FB82F980838FEFB5
:102E00009FEF8093566D9093576D1092586DC70148
:102E10000E94B52E09E01CE6D80119966C9186EC4B
:102E20009CE60E94120CF801608586EC9CE60E94EC
:102E3000120CD70115966C9186EC9CE60E94120C40
:102E40000E94273420E031E040E050E00E943F360D
:102E500086EC9CE60E94120C60E086EC9CE60E94E8
:102E6000120C86EC9CE60E94430C86EC9CE60E94C9
:102E7000EB0BF701EC56FF4F80818F7B808386EC54
:102E80009CE6809371679093726780915A6D83FF7F
:102E900082CE6091586D70E086EC9CE60E944605FB
:102EA0007ACE8091116C9091126C8827907F811559
:102EB000904F09F47CCF8092596D1092586DD9CF04
:102EC0008091116C9091126C8827907F8115904FA2
:102ED00091F36DCFA9E0BCE6F701938119968C912F
:102EE000199798134ECE948118968C91981349CEC9
:102EF0009091BB6C92FD08C0D701AC56BF4F8C912E
:102F00008871883009F43DCE97012C563F4FD90186
:102F10004C91AAE5BDE68C9142FB82F98C93F901B4
:102F2000408143FB83F98C93208122FB222720F9E7
:102F300086FD0BC020FB82F98C932FEF3FEF20938F
:102F4000566D3093576D1092586D1092596DEFEF8A
:102F5000E50FEB3008F043C4F0E0EF54F84E0C946A
:102F6000EA37BC170618EF1BAE18CA184819F6192D
:102F7000091ACB1A6C1B8A1BF701EC56FF4F808194
:102F800083FD04C08091BA6C80FF34C4C7010E94E5
:102F9000962E80E00E94D42E62E086EC9CE60E9491
:102FA000120C61E086EC9CE60E94120C61E086EC5B
:102FB0009CE60E94120C60E086EC9CE60E94120CDB
:102FC00061E086EC9CE60E94120C60E086EC9CE6D8
:102FD0000E94120C61E086EC9CE60E94120C60E0FC
:102FE00086EC9CE60E94120C61E086EC9CE60E9456
:102FF000120C65E086EC9CE60E94120C86EC9CE6C6
:103000000E94EB0B882309F434CFBBCDF701EC56BB
:10301000FF4F808183FD04C08091BA6C81FFEAC3B9
:10302000C7010E94962E81E00E94D42E64ED72E6C4
:103030008E010F5F1F4FC8010E94F937B80186EC5F
:103040009CE60E945E0C1982BEEBCB2EB8E6DB2E0E
:10305000B12CA12C8DE6882E82E6982E90E8792E50
:10306000F501ED58F649808185FD38C0FFEFAF1AB4
:10307000BF0A22E0C20ED11C34E0A316B10481F7CE
:103080006BED72E69E012F5F3F4F6901C9010E94FF
:10309000F937B60186EC9CE60E945E0C198210E0BE
:1030A00000E0BC2CAD2C902E6801F801ED58F649DB
:1030B000808185FF46C084FF44C08981811130C072
:1030C000F601ED58F64980818F7081F56DE286EC4E
:1030D0009CE60E94120C8DE2898333C084FFC6CF28
:1030E0008981811117C0D60111968C9111978F9308
:1030F0008C918F939F928F921F927F921F930F9329
:103100000E940038CDBFDEBFB80186EC9CE60E946D
:103110005E0CACCF6CE286EC9CE60E94120CE3CF16
:103120006CE286EC9CE60E94120CCACF6B2D7A2DC5
:10313000892D0E94EA2E6B2D7A2D86EC9CE60E944A
:103140005E0C0F5F1F4F0430110509F0ACCF6DE529
:1031500086EC9CE60E94120C6DE74CCFF701EC5612
:10316000FF4F808183FD04C08091BA6C83FF42C30E
:10317000D70117968C91B4E68B9FC00111248093E0
:10318000C46C9093C56CC7010E94962E80E00E948B
:10319000D42E34CFF7013C96D7011C964D915C910B
:1031A0001D975427452754271C969C911C971D96C4
:1031B0006C912091116C3091126C2115304F28F4D4
:1031C0004A3F27E0520709F015C38091606D8823BC
:1031D00031F0D701AC56BF4F8C9183FF0BC3D701A1
:1031E000AE56BF4F8C911EEE8D30B0F04A3F37E0A7
:1031F000530709F042C04093116C5093126C8FEF4B
:103200009FEF8093BA6C9093BB6C42E068E470E0EF
:10321000CF010E94780A10E0C7010E94B52E79E024
:10322000C72E7CE6D72ED60119966C9186EC9CE6CB
:103230000E94120CF601608586EC9CE60E94120C3E
:10324000D70115966C9186EC9CE60E94120C0E94A8
:10325000273420E031E040E050E00E943F3686EC29
:103260009CE60E94120C612F86EC9CE60E94120CD8
:1032700086EC9CE60E94430CC1CE292F30E0322F11
:103280002227260F311D2093116C3093126CBDCF75
:10329000F701EC56FF4F808183FD04C08091BA6C2A
:1032A00084FFA8C2F70144856585862F90E0982F9A
:1032B00088276685680F792F711D8785442309F457
:1032C00093C0823008F090C06115F4E07F076CF085
:1032D000C70140960E94780A182F84E68093C06C3C
:1032E000C7010E94962E812F52CF6031710509F0DF
:1032F0007BC0483009F078C0D70150968C91509728
:10330000853509F0F0C051968C9151978A3A09F0B1
:10331000EAC052968C915297833C09F0E4C05396D0
:103320008C9153978C3309F0DEC05496CC9054970F
:10333000D12CDC2CCC2455968C915597C80ED11CE1
:1033400056960C915697802F90E0982F8827579685
:103350000C91080F192F111DC6010E94332E5C011C
:1033600084EE92E60E94E52DC6010E94D9058DEEFD
:1033700092E60E94E52DC8010E94D90588E493E6F3
:103380000E94E52D61E0C5010E94BB050A151B05E1
:10339000B9F448E060E170E0C70140960E94780A05
:1033A000182F811108C086EF92E60E94A1058FE0D8
:1033B0008093BC6C95CF80E193E60E94A10590CFED
:1033C00080E393E60E94E52DC5010E94D9058DEEAC
:1033D00092E60E94E52DC8010E94D90588E293E695
:1033E0000E94A10519EE7CCF1EEE7ACFF701EC56B4
:1033F000FF4F808183FD04C08091BA6C83FFFAC1C6
:10340000F7018781F4E68F9FC00111240E94230FEA
:10341000BACED70117968C91282F217090E0959500
:1034200087958130910509F455C08230910509F4E2
:1034300044C0892B09F049C060E071E08AE1C82EE0
:103440008CE6D82E00E2F701EC56FF4F80818870A1
:10345000222309F44CC0811104C08091BA6C86FF0C
:10346000C9C1F7014485D6018C918823D1F18585A6
:103470008D32D9F5EE56FF4F80818E30B1F5F701D0
:103480001586168641E0F701EE56FF4F80818D309C
:1034900050F1F701E40FF11D15865701FDE0AF0E65
:1034A000B11C4F5FC5010E94780A182F811118CFF7
:1034B000B501C6010E94F93713CF60E871E09AE7C1
:1034C000C92E9CE6D92E00E4BECFC7010E94962EDD
:1034D00081EE5DCE60E471E00AE3C02E0CE6D02EF2
:1034E000F2CF041780F611EEFBCE18EEF9CE811163
:1034F00004C08091BA6C85FF7DC110E0A801CE01A7
:103500008F539F4F0E94FA09B82ECF53DF4F888107
:10351000C15CD0408F3F29F4CF53DF4F1882C15C8C
:10352000D040E0ECF0E0EC0FFD1FE00FF11F108247
:10353000DE01AF53BF4FFD0101900020E9F7319745
:10354000EA1BFB0B1C9111111E2FC7010E94962E26
:103550008B2D0E94D42EB11051CD612F86EC9CE6AC
:103560000E94120C112381F04E0121EC820E911C5D
:103570005401D5016D915D0186EC9CE60E94120C10
:103580008A2D88198117A8F3BE016F537F4FC6019A
:103590000E94F93733CDF701EC56FF4F80818870D8
:1035A000F701278120FF8EC0EE56FF4F20812A3081
:1035B00008F488C0811104C08091606D811182C7B8
:1035C000E9EFFBE648EE5BE689E09CE63FEF3193EE
:1035D0008E179F07E1F7D7011C969C911C971D96AB
:1035E0008C91C92ED12CDC2CCC24C80ED11C60911E
:1035F000BA6C7091BB6CC616D70609F41FC7E8EE0B
:10360000FBE691838283909593838095848311E078
:10361000253108F017C744E064E770E089EE9BE6C7
:103620000E94780A182F80E693E60E94E52D11117A
:1036300060C7C092BA6CD092BB6C8AE994E60E94D3
:10364000A10510E044C781E593E60E94E52D31C74E
:1036500042E160E670E089EE9BE60E94780A182F4E
:103660008EE693E60E94E52D111143C7E9EEFBE6D5
:10367000A4E6BDE689EF9BE621912D938E179F0767
:10368000D9F70E94CF04D9CF48E160E670E089EE17
:103690009BE60E94780A182F89E793E60E94E52DA1
:1036A000111127C7C092BA6CD092BB6CE9EEFBE651
:1036B000A4E6BDE689EF9BE621912D938E179F0727
:1036C000D9F7DFCF811102C091FF94C011E0809142
:1036D000606D8111FCC6B5CFF701EC56FF4F8081BC
:1036E00083FD04C08091BA6C87FF84C00BE51DE6A2
:1036F000F80180819181892B09F46CC0C7010E9477
:10370000962E80E00E94D42ED801ED91FC91C70145
:10371000099574CCF701EC56FF4F808183FD02C000
:1037200090FF68C0F701B7800B2D10E0F801ED584D
:10373000F649808185FF4EC0C7010E94962E80E029
:103740000E94D42EF801EE0FFF1FE254F749D080FB
:10375000618186EC9CE60E94120C6D2D86EC9CE645
:103760000E94120CF3E0FB15B0F06E0121E8C20ECE
:10377000D11CB6018B2D0E949112982EAC2C8C2D51
:103780008A19891540F4D6016D916D0186EC9CE68D
:103790000E94120CF4CFF801ED58F64980818F7029
:1037A00009F42CCC6CE286EC9CE60E94120C60E2E0
:1037B00086EC9CE60E94120CBE016F577F4F8B2D4A
:1037C0000E94EA2EBE016F577F4F86EC9CE60E9456
:1037D0005E0C14CCC7010E94962E8EEED8CCF70159
:1037E000EC56FF4F808183FD05C0C7010E94962ED5
:1037F00083EECDCC84EB93E60E94E52D61E085EE6F
:103800000E94DB05BEC910820E94CF0AAFEAB8E66B
:103810008C9191E0980F9C93833030F4F801EE5630
:10382000FF4F8081883038F4C8010E94C20A10928C
:103830007167109272678091716790917267892B9E
:1038400009F4ABC910927067BFEFB0931768EFEB44
:10385000FCE68081823058F5A7E3BBE62C9130E08E
:103860002F5F3F4FB7E1B29FC001B39F900D11246E
:103870008A5695490E945435892B31F462E070E0F4
:1038800086E99AE60E9474350E94CF0A809170679B
:103890008F5F80937067893CD0F2809171679091BF
:1038A00072670E94C20A10927167109272678091CB
:1038B000716790917267892B09F46FC9EFEBFCE691
:1038C0008081823008F469C960E089E10E945A0E63
:1038D00080917167909172670E94E92D80936F6764
:1038E00081115BC91092706780916F67811128C048
:1038F000A7E3BBE62C9130E02F5F3F4FB7E1B29FCB
:10390000C001B39F900D11248A5695490E945435E9
:10391000892B09F4B3CF0E94AC0880936F67809124
:1039200070678F5F80937067893CF0F28091716758
:10393000909172670E94C20A10927167109272672A
:1039400080916F67813059F48091716790917267AF
:103950000E94C20A10927167109272671EC986ECAB
:1039600093E60E94A1050E941908E7E3FBE6208187
:1039700030E02F5F3F4FF7E1F29FC001F39F900DC2
:1039800011248A5695490E945435892B49F40E9486
:1039900027342AE030E040E050E00E943F3623C95F
:1039A0000E943108A7E3BBE62C9130E02F5F3F4F28
:1039B000B7E1B29FC001B39F900D11248A5695497B
:1039C0000E945435892B09F0E8C863E070E058CFB5
:1039D00061E089E10E945A0E0C94BC13F7018081CA
:1039E0008F70982EC380D12CDC2CCC248481C80EFF
:1039F000D11C6581862F90E020917769309178699C
:103A0000A9014F5F5F4F8417950729F02E3F3105BD
:103A100039F4613029F4809377699093786910C004
:103A2000EDE7F9E6408151814F5F5F4F408351835D
:103A30002817390780F3603118F4213F310558F712
:103A4000FCE09F1681F07AE0872E981409F476C383
:103A5000E0917367F0917467EC56FF4F80818F7B24
:103A600080830C94C013F701EC56FF4F8081909136
:103A7000BB6C83FD02C095FFEBCF92FD03C0887144
:103A8000883031F38091796990917A69A0917B694E
:103A9000B0917C698F3F2FEF9207A207B20709F41C
:103AA000B3C00196A11DB11D8093796990937A6985
:103AB000A0937B69B0937C6930E2C316D10408F40B
:103AC000B6C2EEEBF8E600E081919191C816D906F6
:103AD00009F09FC01092666B1092676B4CE0E40E89
:103AE000F11C8BEF91E6E114F10409F0C70120E627
:103AF0003BE6C05FDE4F28833983C051D140CE5EA4
:103B0000DE4F88839983C251D140CC5EDE4FE8827C
:103B1000F982C451D1408AE0CA5EDE4F8883C65123
:103B2000D140C45DDE4F8881CC52D140C35DDE4FB1
:103B30009881CD52D1400E940A116C01DC018D9117
:103B40009C91892B09F484CF62EE70E6C6010E9435
:103B50007210FC01892B09F415C184819581833091
:103B6000910508F05BC0019708F40CC10680F7814D
:103B7000E02D309709F406C180818B3209F49DC095
:103B80008D3209F09BC0319611E08081812C912CFF
:103B9000B0E8AB2EBFE3BB2E843709F451C08F7D54
:103BA000812C912CA0ECAA2EAFE7BA2E8E3409F40A
:103BB00047C0893409F4F0C0B12C20E030E040E087
:103BC00050E0DF01F19080ED8F0D8A3008F07AC06F
:103BD0002C3CBCEC3B07BCE04B0751050CF070C023
:103BE000AAE0B0E00E945B362F2DFF0C330B205370
:103BF00031092901330F66087708A3019201260FC6
:103C0000371F481F591FDDCF81E090E0A0E0B0E0F2
:103C10004BCF0F5F043009F057CF1ACF8530910595
:103C200038F00597E9F186809780A084B18408C0B8
:103C300066817781808591850E94D1364B015C0138
:103C40008AE090E00E94230F10E0A8014D585649E9
:103C50007A01DA018C91982F9F70923009F410C18B
:103C600008F4F4C0943009F44FC108F42CC1953025
:103C700009F0EECE62EE70E6C6010E949610D70102
:103C80002C91322F3F7019F4207F25602C93F8017E
:103C9000ED58F64920812F70253009F498C1D8CE0F
:103CA00066817781808591850E94D1364B015C01C8
:103CB000B7FAB094B7F8B094C3CF319610E065CF9F
:103CC000B3947FCFEEE2FE1224C0FD013196DF01F6
:103CD000F19080ED8F0D8A30E0F42C3C8CEC3807AD
:103CE0008CE0480751059CF7AAE0B0E00E945B36E3
:103CF0002F2DFF0C330B205331092901330F660898
:103D00007708A3019201260F371F481F591FBA9445
:103D1000DECF8C918F7DF12CE12C853409F050C0E1
:103D2000FD01319611968C9111978D3279F531966E
:103D3000A1E0F12CE12C8B2D0B2C000C990B6AE0EF
:103D4000962EA19060ED6A0D6A30A8F59E9CB00198
:103D50009F9C700D1124EA2CAA0CFF08B0E3EB1A0B
:103D6000F108E60EF71EB701680F791F673271057B
:103D700044F3AA2389F0812C912CA12C30E8B32E96
:103D800011115ECF812C912C54015ACF8B3211F43A
:103D9000FD013296A0E0CDCF812C912C20E8A22EFF
:103DA000BB24BA9411114CCF812C912CF0E8AF2E8A
:103DB000FFE7BF2E45CFAA2319F0F194E194F10853
:103DC000EB0CF11CB7FCFA94CA01B9010E94D3367E
:103DD0004B015C011E141F04E4F4712CE0FE10C0C2
:103DE00024E0729EF0011124E354FF4920813181C7
:103DF00042815381C501B4010E945F374B015C01D0
:103E0000F594E7947394E114F10441F7111150CF44
:103E100017CFF194E194F108712CE114F104B1F39E
:103E2000E0FE10C034E0739EF0011124EB55FF4911
:103E30002081318142815381C501B4010E945F37E5
:103E40004B015C01F594E7947394E7CF911104C0A2
:103E5000807F8160FA018083F801ED58F649808106
:103E60008F70813009F0F4CD000F111F000F111F6A
:103E7000F801E158F64980829182A282B382E8CDAE
:103E800020E030E040E057E4C501B4010E949C36D8
:103E900087FFDECD20E03EEF4FEF56ECC501B401C9
:103EA0000E945B3718160CF0D3CD000F111F000FC6
:103EB000111F01581649C501B4010E94A036D8014E
:103EC0006D937C93C5CD20E030E040E857E4C50118
:103ED000B4010E949C3687FFBBCD20E030E0A901F1
:103EE000C501B4010E945B3787FDB2CD000F111FE1
:103EF000000F111F01581649C501B4010E94A536D3
:103F0000F80160837183A4CD62EE70E6C6010E9461
:103F10007210FC01892B09F481C084819581833062
:103F2000910598F5019708F479C00680F781E02D96
:103F3000309709F473C08081843709F473C08B32E1
:103F400009F45FC08D3209F05DC03196FF24F3940F
:103F500060E070E0CB01819020ED280D2A3008F060
:103F600053C0AAE0B0E09B01AC010E945B36282D53
:103F7000880C330B205331094901330FAA08BB08C1
:103F8000680D791D8A1D9B1DE6CF8530910548F08F
:103F9000059749F166817781808591850E94A036D9
:103FA00004C06681778180859185F801ED58F649D6
:103FB0002081322F3F7019F4207F24602083F80184
:103FC000ED58F64920812F70243009F041CD000FC3
:103FD000111F000F111FF801E158F649608371832A
:103FE0008283938335CD86819781A085B1854C01ED
:103FF0005D0166277727CB01681979098A099B0932
:10400000D4CF3196F12CA4CFFF2079F290958095F2
:10401000709561957F4F8F4F9F4FC7CF60E070E0E5
:10402000CB01C3CF61E070E080E090E0BECFB1E0B3
:10403000CB16D10409F00CCD1092666B1092676B11
:10404000C7010C969C0111F42BEF31E640E65BE6CC
:10405000C75FDE4F48835983C950D140C55FDE4FEB
:1040600028833983CB50D140C35FDE4F8883998347
:10407000CD50D1408AE0C15FDE4F8883CF50D14020
:10408000C65DDE4F8881CA52D140C55DDE4F988142
:10409000CB52D1400E940A118C01FC018081918198
:1040A000892B09F4D5CC4AE4A42E4BE6B42EF501B5
:1040B00080819181A281B3816CED70E60097A105AA
:1040C000B041D8F4C8010E949610D5016D937D933C
:1040D0008D939C93139765ED70E6C8010E9496102E
:1040E0006093466B7093476B8093486B9093496BDA
:1040F0008AE090E00E94230FA6CCC8010E9496108F
:10410000F5014080518062807380A3019201245C9C
:104110003F4F4F4F5F4F621773078407950708F0B3
:1041200097CC9B01AC01245C3F4F4F4F5F4F421631
:1041300053066406750608F08BCCC7CFF70180855F
:10414000882309F485CCEC56FF4F80819091BB6C9D
:1041500083FD02C096FF7CCC92FD04C0887188303C
:1041600009F476CC8091796990917A69A0917B6904
:10417000B0917C698F3FFFEF9F07AF07BF0709F43E
:104180004BC00196A11DB11D8093796990937A6906
:10419000A0937B69B0937C69F701EE56FF4FE081F5
:1041A000EE0DFF2DF11D108228E0E20EF11C0AEB4E
:1041B00015E0B12CD8016D917D918D01C7010E9450
:1041C000F037892B71F50B2D10E0C114D104D9F112
:1041D000E8EEFBE6D182C282B801605C7F4F660FD9
:1041E000771F42E089EE9BE60E94780AEFEFCE1639
:1041F000DE06E1F0F801EE0FFF1FE254F749C0823E
:10420000D182F801ED58F6498081806180838AE08F
:1042100090E00E94230F1CCC81E090E0A0E0B0E091
:10422000B3CFB394B4E0BB12C5CF12CCF801EE0FFC
:10423000FF1FE254F74910821182F801ED58F64948
:1042400080818F7EE3CF000F111FF801E254F74900
:1042500080819181892B09F4FBCB8B2D0E94EF1279
:10426000D6CFE2E7F9E6808185FD02C00C946F139A
:104270002EED38E6209371673093726780648083F7
:1042800083FD9DC01092AF688091716790917267B5
:10429000009709F4CBC0AFEAB8E62C9131E0320FB9
:1042A0003C93233030F00E94C20A10927167109242
:1042B00072678091716790917267892B29F31092D0
:1042C0007067BFEFB0931768EFEBFCE68081823038
:1042D00030F5A7E3BBE62C9130E02F5F3F4FB7E10D
:1042E000B29FC001B39F900D11248A5695490E9438
:1042F0005435892B09F4C2CA0E94CF0A8091706795
:104300008F5F80937067893CF8F28091716790911C
:1043100072670E94C20A1092716710927267809150
:10432000716790917267009709F4AECFEFEBFCE6EE
:104330002081223008F4A8CF0E94E92D8111A4CF5A
:1043400010926F671092706780916F67811128C01B
:10435000A7E3BBE62C9130E02F5F3F4FB7E1B29F60
:10436000C001B39F900D11248A5695490E9454357F
:10437000892B09F483CA0E94AC0880936F678091EF
:1043800070678F5F80937067893CF0F280917167EE
:10439000909172670E94C20A1092716710927267C0
:1043A00080916F67813099F4809171679091726705
:1043B0000E94C20A109271671092726765CF609175
:1043C000706970E08EED98E60E9446055BCF86EC42
:1043D00093E60E94A1050E941908E7E3FBE620810D
:1043E00030E02F5F3F4FF7E1F29FC001F39F900D48
:1043F00011248A5695490E945435892B09F4C7CA5D
:104400000E943108A7E3BBE62C9130E02F5F3F4FBD
:10441000B7E1B29FC001B39F900D11248A56954910
:104420000E945435892B09F02FCFCFCAE2E7F9E675
:1044300080818F7B8F7D80830C946F13253108F4EE
:1044400041C010E08091606D8111FDC881E090E075
:10445000B7016F5E7F4FDB01A80FB91FFA01E80FAC
:10446000F91F24E03E9131932150E1F70496813108
:10447000910589F760E189EE9BE60E94D10BE8EE99
:10448000FBE6918B828B8FEF838B848BD7011C96FD
:104490008C911C97858B1D968C911D97868B1C96F5
:1044A0008C911C978095878B1D968C918095808F21
:1044B0001260123009F4CCC8133009F4E5C8113089
:1044C00009F4A9C881E993E60E94A10511EEC7018C
:1044D0000E94962E812F0E94D42E0AEB1CE6F80132
:1044E000618186EC9CE60E94120CD8016C910C94C0
:1044F000FA171E3E61F783EA93E60E94A105E7CF13
:10450000CF93DF93CDB7DEB7C054D109CDBFDEBFA7
:104510002091376B30E02F5F3F4F47E1429FC00152
:10452000439F900D11248A5695490E94543569E89D
:1045300073E1892B09F4FAC00E94B31286ED93E669
:104540000E94E52D809100608F5F883C08F425C1B2
:10455000109200608091116C9091126C9C01222746
:10456000307F2115304F09F4CCC02091656722239C
:1045700009F49FC0213009F4DDC0109264671092E5
:104580006567E0ECFCE6808181117DC08091116C53
:104590009091126C8115904F08F075C0F09066678D
:1045A0000F2D10E0F801ED58F6498081982F9F708B
:1045B00009F461C084FF5FC00430110508F05BC0DE
:1045C000000F111F02541749F801608171816115B4
:1045D000710509F450C08CE00E94BA0C6CED73E6D2
:1045E000CE0101960E94F93782EE93E60E94E52DF6
:1045F000F8018081918197FDD3C00E94650D87EFFE
:1046000093E60E94E52DBE016A5F7F4F8F2D0E94C9
:10461000EA2E8C017C01F5E0EF0EF11CCE0106962E
:104620000E94A10586ED93E60E94E52DE1E0F0E011
:10463000EC0FFD1FEE0DFF1D8DE78083E7E0F0E03E
:10464000EC0FFD1FE00FF11F1082BE016F5F7F4F67
:104650008EED98E60E945E0C8EED98E60E94EB0BC4
:104660009091BB6CE2E7F9E68081877F97FF8860D5
:104670008B7F80628083809166678F5F843008F0D3
:1046800099C080936667E7E3FBE6208130E02F5F07
:104690003F4FF7E1F29FC001F39F900D11248A561E
:1046A00095490E945435892B09F087C061E375E76D
:1046B0003DC080916467282F30E0D901AD58B649DC
:1046C0009C9195FD0AC0907E9C938F5F8093646758
:1046D000843008F060C080E012C0220F331FF9015F
:1046E000E254F74920813181232B11F09061ECCF06
:1046F0009F7E9C930E94EF12809165678F5F8093ED
:104700006567E7E3FBE6208130E02F5F3F4FF7E18D
:10471000F29FC001F39F900D11248A5695490E9483
:104720005435892B09F016CF65EF71E086E99AE6DA
:104730000E9474356091646770E0FB01EE0FFF1F0B
:10474000E254F74920813181232B19F0809164676D
:10475000BCCF25E0880F991F2A95E1F7862B972B70
:10476000808391839093E96B8093EA6B605C7F4FC9
:10477000660F771F42E089EE9BE60E94780A8091DF
:104780006467E82FF0E0ED58F649908190619083DE
:104790000E94EF12DBCF83E6B2CF80930060F1CEB0
:1047A00086E095E60E94E52DF801808191810E94C6
:1047B000D90525CF1092666766CFE7E3FBE6208137
:1047C00030E02F5F3F4FF7E1F29FC001F39F900D64
:1047D00011248A5695490E945435892B09F0B2CE8E
:1047E00065CFCF93DF93CDB7DEB7C55FD109CDBF1E
:1047F000DEBF2091376B30E02F5F3F4F47E1429F94
:10480000C001439F900D11248A5695490E9454354A
:10481000892B49F462E070E086E99AE60E947435DB
:1048200080936E67E6CFE8EEFBE68081882311F087
:1048300081508083EFEBFCE68081883C10F48F5F31
:104840008083E0ECFCE68081882311F08150808336
:1048500080916E678F5F8A3018F310926E67E1EC7B
:10486000FCE683819481009719F0019783839483F8
:10487000EDEBFCE680819181009709F0B3C000E286
:104880000E94EB0485E40E940805182F811105C0E1
:1048900080E00E942405809367670E94DB04111169
:1048A00064C280916767893011F4009367678091D3
:1048B0006767A3E1BAE6EC91883009F477C58F37D2
:1048C00009F09BC0EE2359F09FEF9E0FA3E1BAE6DB
:1048D0009C93F0E0E157F64914A20E94A20CA3E1D8
:1048E000BAE6EC91EE3508F498C081E08E0F7FE8CF
:1048F000E72E79E6F72EA3E1BAE68C93F0E0E157D4
:10490000F64990E294A3E82FF0E0E157F64914A2AB
:10491000E5E9CE2EEAE6DE2E81E0F60180830E94F4
:10492000F40510926B67A8E6B7E61C92CF53DF4FF1
:104930001882C15CD040F6018081882309F4AEC1A1
:10494000A3E1BAE64C90442009F4A8C11082F70113
:10495000148A108E118E128E138E158A168A178A5B
:10496000248D358D468D578DF091696790906A67DB
:10497000D7019096CD90DD90ED90FC90939763EBEE
:10498000262E69E6362E712E512E612FB12EE12F83
:10499000A12E00E0CB50DF4F1883C55FD0408824A4
:1049A0008A94401609F426C1D1018D911D018132EE
:1049B0000CF4CBC0E1113CC0A394562E702E91E0B4
:1049C0009E0F61EC70E06C0F7D1F6E0F711DFB017F
:1049D0008083E1ECF0E0EC0FFD1FE90FF11D108288
:1049E000E92F28C0019780839183892B09F047CF55
:1049F00061E089E10E945A0E42CF80320CF46FCF01
:104A0000E03608F06CCF91E09E0FA3E1BAE69C93EC
:104A1000F0E0E157F64984A360CF809167678D305D
:104A200009F463CF8A3009F460CF811129CF5DCFBB
:104A3000EF3128F29FE9980F9A3108F48052F0ED97
:104A4000F80F9F2EFA30B8F09FEB980F982C963005
:104A500018F499EC992E980E8D3261F4E13051F4EE
:104A6000ABE6B7E68C91846082608C93602FF82D62
:104A70000F5F97CFF82DABE6B7E69C91B92FB270D8
:104A80006B2E90FD2FC0FF3F69F1AAE0B0E00E94BD
:104A90005B362F2F0F2E000C330B440B550BCF50D2
:104AA000DF4F288339834A835B83C15FD040260F61
:104AB000371F481F591F611013C0B4E0CC0CDD1C18
:104AC000EE1CFF1CBA95D1F7CF50DF4F688179817A
:104AD0008A819B81C15FD040C62AD72AE82AF92A59
:104AE000602FC6CF61102BC07FEF9716B9F0ABE6F1
:104AF000B7E68C9181608C93A4E0CC0CDD1CEE1C9D
:104B0000FF1CAA95D1F7892D092C000C990BAA0B33
:104B1000BB0BC82AD92AEA2AFB2AE2CFCF53DF4FA0
:104B20009881C15CD040903351F4883541F4E23033
:104B300031F4ABE6B7E68C9181608C93D1CFABE6D4
:104B4000B7E68C9181608260F8CFEE2309F490CFB4
:104B5000ABE6B7E68C91982F9570943039F4509568
:104B60004095309521953F4F4F4F5F4F80FD27C0B7
:104B7000B3E0BB15A8F08B2D90E0DC01A157B6493E
:104B8000E1E05096EC93B394880F991F880F991F1A
:104B9000DC01A157B6492D933D934D935C93139738
:104BA00010926B67CB50DF4FE881C55FD040C12CBE
:104BB000D12CE12CF12C20E030E0A90159CF81FD6E
:104BC000EFCF23E02B1560F38B2D90E0DC01A15794
:104BD000B64932E050963C93B394880F991F880FE2
:104BE000991FDC01A157B649CD92DD92ED92FC925E
:104BF0001397D6CFAFE82A2EA9E63A2ED1015C96BC
:104C00002D933D934D935C935F979096CD92DD925B
:104C1000ED92FC929397A8E6B7E6EC93D1015496F7
:104C2000BC92549757966C93579755965C925597AC
:104C300056967C925697F093696790926A67AA207D
:104C400069F1872D90E08D54964958968D939C93E9
:104C50005997E62FF0E0E157F64915A2FC019C01B7
:104C60002E5E3F4F8191882359F09FE9980F9A312A
:104C700020F4DF01119780528C93E217F30791F72C
:104C8000B1E0BA1558F4EFE8F9E683EB99E6828FC4
:104C9000938FE589F0E0E157F64915A2E3E1FAE6E2
:104CA00010828FE3CF53DF4F8883C15CD040CE5357
:104CB000DF4F1882C25CD040E091A769F091A869EB
:104CC000309719F08081811108C021EC30E02C0F61
:104CD0003D1F2093A7693093A869C090A769D09021
:104CE000A869F5E0EF2EF0E6FF2E012FB701C6010F
:104CF0000E94F037892BB9F4EFEFE00FED3008F0A8
:104D00004BC3F0E0EA57F94D0C94EA37A626D826B3
:104D10005A27A027A027A02732285328BA28CF280F
:104D2000F728372963290F5F3AE0E30EF11C0031C1
:104D3000E9F68BE396E649D78091A7699091A86937
:104D4000009709F042D78DE297E6AEC00E94670D4A
:104D500086ED93E63AD7EFE8F9E6148A108E118EC5
:104D6000128E138E158A168A178AECEBFCE6808168
:104D7000882309F43ECD8150808381113ACD8DE2A4
:104D800096E60E94A1052091376B30E02F5F3F4FE0
:104D900047E1429FC001439F900D11248A569549D7
:104DA0000E945435892B09F0FAC26BE070E034CDD3
:104DB000EFE8F9E68489882309F479C040815181BC
:104DC00062817381E9E0FCE6268137812F3F3F4F06
:104DD00071F00481158126813781012B022B032B71
:104DE00031F0411551056105710509F057C057FFB4
:104DF00008C010928F691092906910929169109278
:104E00009269E9E0FCE6AFE8B9E62D913C91119793
:104E10002483358316821782823028F014968D9170
:104E20009C918683978309E01CE6D80114968C91A7
:104E3000149715969C91159716962C911697179680
:104E40003C91E8EEFBE6318322839383848344E044
:104E500060E470E089EE9BE60E94780A80E297E6C3
:104E6000B4D6F80184819581A681B781892B8A2BDC
:104E70008B2B09F458C086819781009749F4809163
:104E80000D6C90910E6C0E94650D8AE994E60CC041
:104E90000E94650D8EE20E94A20CF1CF8EEF93E688
:104EA0000E94A10580E294E60E94A10551CF0E94D4
:104EB000A70D4ECFEFE8F9E68489882309F43DC0B9
:104EC00080819181A281B3812091116C3091126C0B
:104ED000215031092E3F3F4F20F40097A105B10525
:104EE00029F509E01CE6F80180879187E8EEFBE6EA
:104EF0009183828342E068E470E089EE9BE60E9441
:104F0000780A89E394E661D6D80118968D919C9130
:104F1000892B49F086E095E658D6F8018085918581
:104F20000E94D905B2CF89E894E6BECF81E494E629
:104F30000E94A10586E694E6B7CF0E94FB0D08CF3C
:104F400080E46AE3E62E6CE6F62E053061F080E43C
:104F5000EAE7EE2EECE6FE2E063029F080E27AE15A
:104F6000E72E7CE6F72E6CEF600F70E06C5F7F4FF2
:104F700056E0660F771F5A95E1F7A091A969B091A5
:104F8000AA69109709F45BC09C91F7012081222344
:104F900041F09D3209F03FC011962C9111972111DB
:104FA0003AC0FD0101900020E9F73197EA1BE817AC
:104FB00010F0EFEFE80F9D3211F41C92E12F0FE893
:104FC00019E6D8015A968D919C91DC01AE0FB11D66
:104FD00011961C9241E04E0FF801828D938D0E9434
:104FE000780AD8015A96CD90DC90B601C7010E948C
:104FF000F937F6018081811103C082E894E654CF2D
:1050000080E994E6E2D5D8015A968D919C91DDD540
:1050100089E994E649CF82EA94E60E94A10587ECEB
:1050200094E6D3D586EE94E6053009F43DCF8FEDB6
:1050300094E6063009F038CF81EF94E635CF05309D
:1050400039F0063051F00E94480A0E94030680CED3
:105050000E94580A0E9416067BCE0E94680A0E948F
:10506000290676CEEFE8F9E68489882331F080813D
:1050700091818093BA6C9093BB6C89EF94E6A5D52F
:105080008091BA6C9091BB6C0E94D90589E095E63D
:105090009CD58091606D882319F08DE195E604CF51
:1050A00082E295E601CFEFE8F9E68489811138C004
:1050B000FF24F3944F2D50E060916C6770916D6701
:1050C000FE0131966F01CF010E94FA0910E000E065
:1050D000E02E0F1508F04BC080916C6790916D67C2
:1050E000800F911F8F709927892B59F120916C6740
:1050F00030916D67200F311F207F2036310579F503
:1051000088E295E662D580E20E94A20C8E2D8F7017
:10511000873019F480E20E94A20C0F5F1F4FD8CF96
:105120002081318120936C6730936D67823008F461
:10513000BFCFF480B0E8BF1508F0BCCF40E8F42E34
:10514000B9CF0E94F40580916C6790916D67800FD4
:10515000911F0E94D90586E097E637D5C7CF60E05A
:10516000F601E00FF11F80810E94DB05CCCF0E9489
:10517000F405EECDEFE8F9E68489823068F06081CD
:10518000718184818093E96B41E089EE9BE60E9406
:10519000780A80E795E688CE8BE295E685CEEFE843
:1051A000F9E68489823000F1E080F1800481102FDB
:1051B000013408F010E487E495E607D560E0812F1C
:1051C0000E94DB0583E595E600D5C7010E94D9055D
:1051D000011103C08EE695E667CE412FB70190E03E
:1051E00080E00E94780AF6CF85E795E65DCE48E03C
:1051F00050E060E170E0CE018F519F4F0E94FA09AC
:10520000C751DF4F1882C95ED040CB51DF4F888134
:10521000C55ED04090E0982F8827CA51DF4F0881A3
:10522000C65ED040080F192F111DC951DF4F88816C
:10523000C75ED04090E0982F8827C851DF4FE880A4
:10524000C85ED040E80EF92EF11CC8010E94D905B5
:1052500080E20E94A20CC7010E94D9058DE20E9443
:10526000A20CC80100D561E00E94BB0571CDEFE83A
:10527000F9E61489113021F58081823061F08330A4
:1052800099F08130E9F480E995E60E94A10582E079
:105290008093BC6C5DCD80E995E60E94A10588ED08
:1052A00084BF1093410054CD80E795E60E94A1058C
:1052B00044E060E170E086EB95E00E94780A48CD1A
:1052C0008CE995E6F1CD8091A36981115FC09EEBD9
:1052D000E92E98E6F92E10E000E099249394802EB0
:1052E000680198012D5836495901D9019C9195FFC3
:1052F00039C060E0802F0E94DB0586E097E665D428
:10530000BE016F577F4F802F0E949112CE018F57A1
:105310009F4F5BD4F501808184FF10C08CEA95E635
:1053200054D4D7018D919C9197FD0BC00E94650DBF
:10533000F601ED58F64980818F7031F40E94F40532
:1053400010C00E94D905F4CF87EF93E63ED4BE018A
:105350006F577F4F882D3ED5CE018F579F4F0E94AC
:10536000A105892D0F5F1F4FB2E0EB0EF11C043039
:10537000110509F0B4CF882321F086ED93E625D4FA
:10538000E7CC87EB95E60E94A105F7CF813009F0C5
:10539000DFCC0E94B312DCCC87EC95E685CD88ED9E
:1053A00084BF81E0809341000000FECFE1118CCAF0
:1053B000802F93CAEF93FF93F89AE2E8F7E60BC0C9
:1053C000EF93FF93F89AE2E8F7E634C0EF93FF9388
:1053D000E2E8F7E65FC02F932FB72F938F939F9349
:1053E000AF93BF936894CF93DF9320E0C085D8E05C
:1053F0009289DF01A90FB21FAD5ABF4F8C9120E4F3
:105400002C838A839F5F9F738D812189291302C01A
:105410008F7D8D83928BDF91CF9116F00C94B40722
:10542000BF91AF919F918F912F912FBF2F91FF919E
:10543000EF9118952F932FB72F933F938F939F93AF
:10544000CF93DF93C085D8E02E812F7E2E83898174
:1054500098818674880F3685382B82FD0DC0C785EC
:1054600081E08C0F8F732089281791F0CE0FDF2FEA
:1054700020E0D21F9B8B87873687DF91CF919F914A
:105480008F913F912F912FBF2F91FF91EF91189501
:105490003064F2CF8F938FB78F939F93CF93DF9327
:1054A000C085D8E09D8188818C8187FDFCCF9F7B62
:1054B00090689D83DF91CF919F918F918FBF8F9146
:1054C000FF91EF9118951F920F920FB60F92112432
:1054D00084E00E947609EF93FF93E5E7F7E68F9368
:1054E0008FB78F9380818F5F808381818F4F81837E
:1054F00082818F4F828383818F4F838381E080936A
:10550000260B8F918FBF8F91FF91EF911895AFE090
:10551000B0E0EDE8FAE20C94AD336C011B015A01E6
:10552000FC0116821782838181FF45C39E012F5F94
:105530003F4F4901F6019381F10193FD859193FF5E
:1055400081911F01882309F4E7C2853239F493FD64
:10555000859193FF81911F01853239F4B60190E066
:105560000E94B13535015301E5CFF12C512C00E0FB
:10557000003238F48B3209F190F48032F9F0833242
:1055800009F107FD34C020ED280F2A3020F506FF71
:105590001BC0FAE0FF9E200D1124F22E05C08D32B3
:1055A00079F0803371F70160F10193FD859193FFEC
:1055B00081911F018111DCCF1AC002600460F4CF19
:1055C0000860F2CF0061F0CF3AE0539E200D112425
:1055D000522E0062E9CF8E3221F406FD9DC2006496
:1055E000E3CF8C3611F40068DFCF8836E9F29BEB0D
:1055F000980F933008F05FC00061805E06FD02C026
:1056000046E0F42E102F1F73853609F05BC010643E
:1056100017FF61C08F2D9BE39F1508F48BE3442493
:105620004394480E27E03501F4E06F0E711CF5013C
:105630006081718182819381042DA4010E947C3458
:105640005C01F981FC87F0FF03C00DE2F3FF07C0A6
:105650000BE211FD04C0012F047012FD00E22C8545
:105660002C70E22E09F457C00111A8C2F3E0E12C1E
:10567000F515A0F483E0E52CE81A13FD08C0B60187
:1056800080E290E00E94B135EA94E110F8CF002367
:1056900029F0B601802F90E00E94B1353C8520E9C9
:1056A000A22E24E0B22E33FD04C094E9A92E94E08A
:1056B000B92E107122C09BE9980F933008F033C1C6
:1056C0000F7E9CCF863611F41068A2CFFF2009F41C
:1056D0009FCFFA949DCFE7E02F2DEF1518F427E028
:1056E00037E0F32E412C9FCF11118052B60190E08C
:1056F0000E94B1358FEFA81AB80AF5018491811183
:10570000F3CFEE2009F42FCFB60180E290E00E94A3
:10571000B135EA94F6CF17FF6FC04A0CFC85F4FF51
:1057200004C08A81813309F44A9414140CF086C0B1
:1057300028E0241510F488E0482E85E090E017FF5B
:1057400006C0C501B7FE02C090E080E001960111DD
:105750000196FF2031F02F2D30E02F5F3F4F820F59
:10576000931F5816190619F014F0E52CE81A812F2A
:10577000897011F4E11067C0002329F0B601802F71
:1057800090E00E94B13513FD02C0E11063C017FF25
:105790007CC08501B7FE02C010E000E0C50184199D
:1057A00091092C016F2D70E0EE27FF27E61BF70B08
:1057B000EE87FF870F3F100729F4B6018EE290E0D5
:1057C0000E94B135A016B1060CF44BC0401651062C
:1057D0000CF047C0F501E01BF10BE80DF91D8181CC
:1057E000015011092E853F8502171307E4F1B60118
:1057F00090E00E94B135DECF16FD9FCFEF2DF0E097
:10580000EA15FB0534F03CEFA3163FEFB3060CF0AE
:1058100010683296E80DF91D01C0FA94FF2019F0C6
:1058200082918033D1F317FF88CF442443944F0CE7
:10583000FA141B0431F02CF0FA187FCF442443945F
:105840007CCFF12C7ACFB60180E290E00E94B13596
:10585000EA9490CFB60180E390E00E94B135EA94DB
:1058600094CF80E3BDCFA016B10641F49A81963360
:1058700050F4953319F43C8534FF05C0B60190E02F
:105880000E94B1353ECF81E3F9CF8A81813319F08F
:105890009C859F7E9C87B60190E00E94B135FF20D9
:1058A000A9F0B6018EE290E00E94B135F394F39432
:1058B000E2E001E00E0FE80DF92DF11D8081B60147
:1058C00090E00E94B135E02F0F11F3CF85E690E014
:1058D00014FF02C085E490E0B6010E94B135B7FC28
:1058E00006C0A114B104C1F4EC85E4FF15C0B19465
:1058F000A194B1088DE2B60190E00E94B13580E339
:105900002AE0A216B10454F4B60190E00E94B13529
:10591000B601C501C096B4CF8BE2EDCF8F5FFAE040
:10592000AF1AB108EDCF8336C9F0833771F18335F3
:1059300009F05BC03501F2E06F0E711CF501A0802B
:10594000B1806F2D70E006FD02C06FEF7FEFC501E3
:105950000E949B358C879D8700680DC0350132E021
:10596000630E711CF5018081898321E030E02C8772
:105970003D8754010F7703FD06C02C853D855216E7
:10598000130609F0A8F4E52C2BC0350132E0630EB4
:10599000711CF501A080B1806F2D70E006FD02C082
:1059A0006FEF7FEFC5010E94A6358C879D87E2CF00
:1059B000B60180E290E00E94B1355A94DECFF50145
:1059C00007FD859107FF81915F01B60190E00E947C
:1059D000B135E110EA948C859D8501978C879D8770
:1059E000EC85FD85EF2B59F78CCE843619F089367E
:1059F00009F074C0350107FF66C0F4E06F0E711C3A
:105A0000F5016081718182819381102F1F7697FF4C
:105A100008C090958095709561957F4F8F4F9F4FEF
:105A200010682AE030E0A4010E94E135A82EA818F1
:105A3000BA2C012F16FF0AC00E7FAF1438F414FFE2
:105A400004C012FD02C0012F0E7EBF2C04FF8DC0CA
:105A5000FE01EA0DF11D8081803309F07FC0097ECF
:105A6000F02FF870EF2E03FD8EC000FF88C0FA2CD7
:105A7000B51410F4F50CFB1804FF8BC0B60180E3DD
:105A800090E00E94B13502FF09C088E790E001FF75
:105A900002C088E590E0B6010E94B135AF1408F469
:105AA00084C0AA940A2D10E00F5F1F4F080D191D26
:105AB000F80182918F01B60190E00E94B135801605
:105AC0009106B1F71ECEF2E06F0E711CF5016081F8
:105AD0007181072E000C880B990B97CF102F8537FB
:105AE000A9F41F7E2AE030E0350117FF2EC0F4E054
:105AF0006F0E711CF5016081718182819381A40117
:105B00000E94E135A82EA8181F7792CF197F8F36F3
:105B1000C9F040F4883589F0F601868197812F9687
:105B2000E2E134C6803739F08837B1F714FD1460EC
:105B300020E130E0D9CF1061F9CF04FD166020E1FB
:105B400032E0D2CF28E030E0CFCFF2E06F0E711C10
:105B5000F5016081718190E080E0D1CF02FD02C04B
:105B6000B3947ECFB394B3947BCF802F867809F41F
:105B700077CFF6CFB60180E290E0F3D7B394B514B7
:105B8000C8F3E12C79CFE52CEB18B51408F474CFE9
:105B9000F8CF802F867809F481CF8BE201FF80E275
:105BA00007FD8DE2B60190E077CFB60180E390E08B
:105BB000D8D7FA9473CF8FEF9FEFB1CF24E0E12CC9
:105BC000251508F066CD84E056CD40E060E00C94E9
:105BD0006905CF93DF93009709F443C0FC01EE56AB
:105BE000FF4F20812830E8F1EC011092D00181E2D2
:105BF0008093D001C093B168D093B2686091176868
:105C000082E897E60E94B507809117688093B36891
:105C10006BE182E897E60E94B5078BE18093B46858
:105C2000CC56DF4F88818260888382E08093B6689B
:105C3000809319681092186888818E7F8883982FC6
:105C4000947083FF09C085E0911184E08093B76868
:105C500080E0DF91CF91089583E09923B9F382E04A
:105C6000F5CF81EEF6CF5F926F927F928F929F92E7
:105C7000AF92BF92CF92DF92EF92FF920F931F935A
:105C8000CF93DF93CDB7DEB7C054D109CDBFDEBF10
:105C90007C01C12C38E0D32E0FEF1FEFA12C44E084
:105CA000B42ECE0101963C0190E4E916F104C0F453
:105CB0005E2CE11017C0C801C05CDF4FCDBFDEBF56
:105CC000DF91CF911F910F91FF90EF90DF90CF90D8
:105CD000BF90AF909F908F907F906F905F9008954E
:105CE00020E4522E852C912CA401B501C3010E9401
:105CF000FA09E818F908A80CB91CF30181911827D2
:105D000088E09801000F111F37FF04C091E20927B6
:105D100090E119278150A9F78E2F8619851570F308
:105D200081E0C81AD10809F0BFCFC5CFEF92FF922A
:105D30000F931F93CF937C018C01C0E0C11112C05F
:105D4000F7016081606886EC9CE60E94120CCF5FD0
:105D50000F5F1F4FC63091F7CF911F910F91FF90AA
:105D6000EF900895F8016081EECFEF92FF920F93CC
:105D70001F93CF937C018C01C0E0C11112C0F701C9
:105D80006081606886EC9CE60E94120CCF5F0F5F1A
:105D90001F4FC33091F7CF911F910F91FF90EF905C
:105DA0000895F8016081EECFCF93C82F50D520E041
:105DB00031E040E050E063D786EC9CE60E94120C94
:105DC0006C2F86EC9CE60E94120C86EC9CE6CF9130
:105DD0000C94430C853008F09EC0DB0190E0FC0180
:105DE000ED58F64920812F70233009F468C060F423
:105DF000213069F1223009F448C080E38C93119678
:105E00001C9281E090E00895243009F466C02530AA
:105E1000A1F7880F991F880F991FFC01E158F649D7
:105E200083818F9382818F9381818F9380818F93E0
:105E300088E092E69F938F93BF936F930E942E38D2
:105E40002DB73EB7285F3F4F2DBF3EBF0895880F47
:105E5000991F880F991FFC01E158F64983818F93A0
:105E600082818F9381818F9380818F938CEF91E6D4
:105E70009F938F93BF93AF930E942E382DB73EB759
:105E8000285F3F4F2DBF3EBF0895880F991F880F91
:105E9000991FFC01E158F64981818F9380818F938E
:105EA0008DE692E69F938F93BF93AF930E942E3817
:105EB0000F900F900F900F900F900F900895880FF4
:105EC000991F880F991FFC01E158F64981818F9332
:105ED00080818F9381E092E6E5CF880F991F880F2C
