:10040000EDC000001FC100001DC100000C94BA28FF
:1004100019C1000017C1000015C1000013C1000080
:1004200011C100000FC100000DC100000BC1000090
:1004300009C1000007C1000005C1000003C10000A0
:1004400001C10000FFC00000FDC00000FBC00000B3
:10045000F9C00000F7C00000F5C00000F3C00000C4
:10046000F1C00000EFC00000EDC00000EBC00000D4
:10047000E9C00000E7C000000C94C2280C943728A3
:100480000C9431280C943D28DDC00000DBC0000036
:1004900000407A10F35A00A0724E18090010A5D43B
:1004A000E80000E87648170000E40B54020000CA98
:1004B0009A3B000000E1F5050000809698000000DE
:1004C00040420F000000A08601000000102700003D
:1004D0000000E803000000006400000000000A00C3
:1004E000000000000100000000002C76D888DC67C6
:1004F0004F0823DFC1DFAE59E1B1B796E5E3E4531E
:10050000C63AE651997696E8E6C28426EB898C9B3A
:1005100062ED407C6FFCEFBC9C9F40F2BAA56FA5DA
:10052000F490055A2AF75C936B6CF9676DC11BFC5C
:10053000E0E40D47FEF520E6B500D0ED902E030077
:10054000943577050080841E080000204E0A0000C4
:1005500000C80C333333330F986E12831141EF8D83
:100560002114893BE65516CFFEE6DB18D1844B38C3
:100570001BF77C1D901DA4BBE424203284725E22F4
:100580008100C9F124ECA1E53D2700000000000036
:1005900000000000000074657374340074657374A7
:1005A0003300746573743200746573743100A80588
:1005B000A2059C0596059505940593059205910560
:1005C00090058F058E058D058C058B058A05000825
:1005D0000AFFFFFF1012FF1800185D2911241FBE2B
:1005E000CFEFCDBFDFE7DEBF8091400080934000BA
:1005F000811105C098ED21E094BF209341008CBB90
:1006000016E6A0E0B0E6E2E7FAE602C005900D9239
:10061000AE34B107D9F72CE6AEE4B6E601C01D92C0
:10062000AC34B207E1F712E0CEEED2E004C021977D
:10063000FE010E94D434CD3ED107C9F70E94402B61
:100640000C943735DDCECF9320917C6630917D665A
:100650008091786690917966A0917A66B0917B6678
:10066000AC01BD014170552766277727B695A79540
:1006700097958795F901E071F470E115F44091F5D3
:10068000452B462B472B41F040EA842747E394272C
:100690004EE6A4274FE8B427809378669093796656
:1006A000A0937A66B0937B66F901EE0FFF1F20FFDF
:1006B00026C04BE5E42745E7F427E0937C66F093FA
:1006C0007D66E770FF27E730F10508F056C0E55971
:1006D000FC4F0C94D43481038E0394039B03A20338
:1006E000AE03B603452B462B472BB1F2CBED8C273F
:1006F000CEE89C27C0E6AC27C2E8BC27CDCFE1609E
:10070000DCCF809178668095982F907E80917A6674
:10071000869586958695892BCF91089580917966E7
:1007200090917B668927F8CF80917866809590912B
:1007300079669B5EF7CF8091796690917A66890F92
:10074000805CEACF8091786690E1899F90011124C6
:1007500080917B6682958F70822BDECF80917A6646
:1007600099E5892790917B66890FD6CF809178662D
:10077000809590917A669F57D5CF809179668C5FEE
:1007800090917B66891BC8CF2F923F924F925F92C8
:100790006F927F928F929F92AF92BF92CF92DF9291
:1007A000EF92FF920F931F93CF93DF93CDB7DEB7F6
:1007B0006297CDBFDEBFDB0149875A8740907866DC
:1007C0005090796660907A6670907B664B865C8606
:1007D0006D867E8620907C6630907D66C12CD12C03
:1007E000760190E014968D909D90AD90BC901797F7
:1007F000F601E370FF27EE0FFF1FEE0FFF1F698466
:100800007A84E60DF71D40815181628173812A014E
:100810003B014C0C5D1C6E1C7F1C9501840144E067
:10082000000F111F221F331F4A95D1F7B501A401F4
:10083000E5E07695679557954795EA95D1F70427B2
:10084000152726273727080D191D2A1D3B1DB30123
:10085000A20140275127622773270D911D912D91E9
:100860003C911397400F511F621F731F4D935D936F
:100870006D937C93139707E4C01A06E8D00A08EC3E
:10088000E00A01E6F00A2A013B01F5E0769467945C
:1008900057944794FA95D1F74D825E826F8278869D
:1008A00097018601EBE03695279517950795EA9510
:1008B000D1F7F801E370FF27EE0FFF1FEE0FFF1FC8
:1008C00069847A84E60DF71D0081118122813381CC
:1008D000280139014C0C5D1C6E1C7F1C4F86588A08
:1008E000698A7A8A8A019B01E4E0000F111F221FA6
:1008F000331FEA95D1F74D805E806F8078840425A0
:10090000152526253725040F151F261F371F2801FB
:1009100039010F85188929893A8904251525262545
:100920003725080D191D2A1D3B1D14960D931D9387
:100930002D933C931797923079F404271527262797
:100940003727B901A80140644B875C876D877E8794
:100950002D803E80689425F89F5F891343CF6B8577
:100960007C858D859E85609378667093796680938B
:100970007A6690937B6620927C6630927D66629662
:10098000CDBFDEBFDF91CF911F910F91FF90EF9010
:10099000DF90CF90BF90AF909F908F907F906F909F
:1009A0005F904F903F902F90089545E551E66CE39E
:1009B0007CE68DE0E9DE45E551E664E47CE681E134
:1009C000E3CE80E18A95F1F7E0E6F4E088E0828307
:1009D00080E28A95F1F780E1828388E18A95F1F7D8
:1009E0000895EFDFE0E6F4E080E1818380E28A951C
:1009F000F1F788E0818380E18A95F1F7089580E13D
:100A00008A95F1F7E0E6F4E098E0928380E28A9537
:100A1000F1F7808591838295817008951F93CF931C
:100A2000DF93D82FC8E010E1D7FF11C01093620404
:100A3000DD0FE5DFC150C1F7C0E1C0936204DFDF25
:100A4000C09361040000DF91CF911F91089510932E
:100A50006104EECF1F93CF93DF93182F80E1809333
:100A600062040000D8E0C0E0CC0FC9DFC82BD15031
:100A7000D9F780E1112369F0809362040000BFDFA1
:100A800080E18093610400008C2FDF91CF911F9152
:100A9000089580936104F2CFCF92DF92EF92FF929C
:100AA0001F93CF93DF934115510509F436C0209170
:100AB000E46A211132C07A01C72ED62EEC0191DFF3
:100AC00088EAACDF182F811126C08C2DA7DF8D2D71
:100AD000A5DF87DF89EAA2DF6E0181E0E81AF1086D
:100AE000C6018C1B9D0B8E159F0530F480E0B2DF94
:100AF000F60181936F01F4CFCE0DDF1D81E0AADFF7
:100B000088835FDF812FDF91CF911F91FF90EF905E
:100B1000DF90CF9008951EEEF4CF1EEEF3CFEF924C
:100B2000FF920F931F93CF93DF938C017B014CE3D4
:100B30005CE6BC0186E028DEE8012896CE01801B39
:100B4000910B8E159F0538F47EDD9991FE0131974A
:100B500089278083F3CFDF91CF911F910F91FF9071
:100B6000EF900895CF92DF92FF920F931F93CF9350
:100B7000DF93EC01F62E142F34DF84E44FDF082FCF
:100B800081110EC01123B1F0812F48DF2097A1F40D
:100B9000812F44DFFF2021F08DE040DF8AE03EDF3F
:100BA00010DF802FDF91CF911F910F91FF90DF9089
:100BB000CF900895209771F36E018FEFC80ED11C6E
:100BC0008991882321F02ADFCC16DD06C9F711238D
:100BD00009F3DECF40E061E0C5CFCF92DF92EF9224
:100BE000FF920F931F93CF937C01162F072FC42ED4
:100BF000892B19F48DE791E6EDDFCC2021F180916E
:100C0000E46A811120C0EDDE88EA08DFC82F811177
:100C100019C0802F03DF812F01DF8701D12CC8018C
:100C20008E199F098C159D0580F4E114F10439F4A7
:100C30008FEFF4DE811106C00F5F1F4FF0CFF80178
:100C40008081F7CFBEDECEEE04C0BBDE8AE08093AB
:100C5000E46A8C2FCF911F910F91FF90EF90DF905E
:100C6000CF900895CF93C82F90E024E09595879575
:100C70002A95E1F78A3048F4805DD0DE8C2F8F70A2
:100C80008A3028F4805DCF91C9CE895CF6CF895C2B
:100C9000FACF0F931F93CF93DF93182F092FD62FDF
:100CA000A0DE84E4BBDEC82F81110AC0802FDADF0A
:100CB000812FD8DFDD2321F08DE0B0DE8AE0AEDECB
:100CC00080DE8C2FDF91CF911F910F91089560E00E
:100CD000E0CF40E060E046CF5F926F927F928F92CC
:100CE0009F92AF92BF92CF92DF92EF92FF920F93BB
:100CF0001F93CF93DF93CDB7DEB7C054D109CDBFDB
:100D0000DEBF7C01C12C38E0D32E0FEF1FEFA12CEA
:100D100044E0B42ECE0101963C0190E4E916F104C2
:100D2000C0F45E2CE11017C0C801C05CDF4FCDBF1E
:100D3000DEBFDF91CF911F910F91FF90EF90DF9079
:100D4000CF90BF90AF909F908F907F906F905F906B
:100D5000089520E4522E852C912CA401B501C301E5
:100D60009BDEE818F908A80CB91CF301819118273B
:100D700088E09801000F111F37FF04C091E2092796
:100D800090E119278150A9F78E2F8619851570F3E8
:100D900081E0C81AD10809F0C0CFC6CF1F93CF9306
:100DA000DF93182FD62F1DDE84E438DEC82F811183
:100DB00008C0812F57DFDD2321F08DE02FDE8AE090
:100DC0002DDEFFDD8C2FDF91CF911F910895809153
:100DD000F66A8F5F8A3028F487E891E6FBDE8EEEB4
:100DE00008958EE991E675DF86EF9AE6F3DE80E0FE
:100DF00008958091166B8F5F8A3028F48AEA91E615
:100E0000E9DE8EEE089581EC91E663DF86E19BE6F4
:100E1000E1DE80E00895CF93E4DD84E4FFDDC82FB8
:100E2000811104C08DE0FADD8AE0F8DDCADD8C2F87
:100E3000CF9108954F925F926F927F928F929F927F
:100E4000AF92BF92CF92DF92EF92FF920F931F93D8
:100E5000CF93DF938FB7F894C0907466D090756687
:100E6000E0907666F09077668FBF860180E1882EED
:100E70008EE0982EA12CB12C9CE3492E512C612C94
:100E8000712C2091566A3091576AC091586AD0E00F
:100E90008091406A9091416A0217130709F47BC060
:100EA0002F5F3F4FE4E3FAE670E060E06C177D07E8
:100EB00074F4419151911416150634F4DF01129720
:100EC000415051094D935C936F5F7F4FEFCF019677
:100ED000883E43E0940700F32093566A3093576AA4
:100EE0008091466A9091476AA091486AB091496A98
:100EF0000196A11DB11D8093466A9093476AA09305
:100F0000486AB093496A8091426A9091436AA0917D
:100F1000446AB091456A0196A11DB11D8038E1E592
:100F20009E07E1E0AE07B10568F58093426A9093B1
:100F3000436AA093446AB093456A1092406A109243
:100F4000416AC091596AD0915A6A209709F499CFA1
:100F50006091426A7091436A8091446A9091456AB7
:100F6000A50194010E945533A30192010E945533BB
:100F700080915B6A821709F484CF20935B6AFE013B
:100F800009957FCF1092426A1092436A1092446A88
:100F90001092456AD2CFC092566AD092576A809317
:100FA000406A9093416ADF91CF911F910F91FF901A
:100FB000EF90DF90CF90BF90AF909F908F907F90F9
:100FC0006F905F904F900895AF92BF92CF92DF9253
:100FD000EF92FF920F931F93CF93DF936C017B01EE
:100FE0008B01040F151FEB015E01AE18BF08C0177F
:100FF000D10759F06991D601ED91FC910190F081F2
:10100000E02DC6010995892B79F7C501DF91CF91B4
:101010001F910F91FF90EF90DF90CF90BF90AF9016
:101020000895FC0151894289252F30E0842F90E0FA
:10103000821B930B541710F0CF96089501970895D3
:10104000FC0197858089981761F0A089AE0FBF2FAA
:10105000B11D53968C9190899F5F9F73908B90E008
:1010600008958FEF9FEF0895FC0197858089981769
:1010700031F08089E80FF11D838990E008958FEFAA
:101080009FEF0895FC0197852089892F90E0805C6F
:101090009F4F821B91098F7399270895FC010FB60A
:1010A00007FE04C0809111018823A9F0A085B185B5
:1010B00014968C91149785FF0EC09189828998139C
:1010C00007C015968C9115978F7D15968C93089572
:1010D000E8940C944A2808950F931F93CF93DF93BD
:1010E000EC018E8581608E8799898A8998130BC05F
:1010F000E885F985848185FF06C08E8581FD0DC058
:1011000080E4848312C0062F19891F5F1F738A89A8
:10111000811315C0CE01C2DFFACF85818F7780643D
:1011200090E49483E885F9858583E885F985628371
:1011300081E090E0DF91CF911F910F910895E989AF
:10114000EC0FFD2FF11DED5AFF4F0083198B8E859B
:10115000E885F98581FF09C085818F77806690E4F5
:101160009483E885F9858583E3CF85818062FBCF11
:10117000682F8EE796E6B0CFCF93DF93EC018E8594
:10118000882359F0E885F985858185FD03C0848130
:1011900086FD03C0CE0182DFF5CFDF91CF910895A8
:1011A0008EE796E6E9DFAEE7B6E61896ED91FC919C
:1011B0001997868116828581158280E484835096F2
:1011C0008C9150971F968C931F971E961C92089592
:1011D000CF93DF9380918C6680FDE2DF6FB7F89448
:1011E000E0918666F0918766168233E0378388E85F
:1011F00093E180879187148680E8858380EC8683DD
:1012000020918B6670918A6680918866909189663C
:10121000FC01239FE00DF11D1124459154912717E6
:1012200008F03EC05C3190F4252F30E0F901E75C16
:10123000FE49A081AF3F51F0235E3E49E901E881BC
:10124000D0E2ED9FF0011124FC5FA18321E0250F86
:101250002C3130F530E0F901E75CFE49C081CF3F29
:10126000F9F0F901E35EFE49A081E0E2AE9FD00112
:101270001124BC5F2F5F3E49F901D081F0E0E0E02E
:10128000D83030F49D01205F3F4FF901ED0FF11D83
:101290003FB7F8941296CC932081286020833FBFFB
:1012A000FC0123E0729FE00DF11D11243296E491C0
:1012B0008091E205E095E823E42BE093E2056FBF1F
:1012C000DF91CF910895CF938EE796E6DBDE892BF1
:1012D00009F094C08091B267833008F0BAC0909151
:1012E00014672091AD673091AE67F901EE56FF4F5C
:1012F000408132968081941708F05EC080FF33C031
:10130000492F50E081FF1FC08D7F8083E091AD6742
:10131000F091AE67E40FF51F80818B3109F050C06A
:101320009F5F90931467C9E06C2F8EE796E6D4DE3A
:10133000E091B26781E08E0F8093B267F0E0E155F3
:10134000F849C08333C09F5F90931467240F351F03
:10135000D901CC9191E0CB3109F090E0808190FBF4
:1013600081F98083E1CF6091B3678EE796E6B4DEC2
:101370008091B367E091B26791E09E0F9093B2675E
:10138000F0E0E155F8498083E091AD67F091AE67F8
:10139000EC56FF4F80818D7F8083E091AD67F091A7
:1013A000AE67EC56FF4F8081816080838091156726
:1013B0008F5F809315678ECF81FF04C08D7F808300
:1013C000C8E0B2CF692F641B770B89F061307105DB
:1013D00099F08E7F8083E091AD67F091AE67EC5617
:1013E000FF4F80818F7B808381E0CF910895CBE197
:1013F0009F5F9093146798CFC7E0FACF10929B6BD2
:101400008EE796E61DDE9091B267992321F1209137
:10141000AF67821320C08091B0678093AF678091DF
:10142000B1678093B0678FEF890F8093B267E091C7
:10143000AD67F091AE67EE56FF4F20911467908133
:10144000291708F441CF81113FCF8EE796E694DE4D
:10145000CBCF80E0CACF82EEC8CF079A20E533EC2D
:1014600093E0179A44E1F9013197F1F74150D9F728
:10147000482F179AF9013197F1F7179A59E0F901B6
:101480003197F1F75150D9F7415099F7915049F7F9
:10149000E7CF9FB7F894E0912A0BF0912B0B809146
:1014A000260B209174663091756640917666509156
:1014B00077669FBF80FF08C0CF018827892B21F462
:1014C0002F5F3F4F4F4F5F4F0F01169407941694B5
:1014D00007941694079416940794F00116940794B1
:1014E000E00DF11D16940794102C16940118169413
:1014F000010C169401181694010C169401181694F8
:101500001694010C1124E019F109A8EEB3E00E9431
:1015100014336E0F7F1F811D911D0895CF93DF93AC
:10152000B8DFEB01B6DF6C1B7D0B683E7340D0F378
:10153000DF91CF910895009751F0FC01EC56FF4FD9
:1015400080818F7B8F7D80838EE796E615CE089510
:101550008EE796E697DD892B31F010929B6B8EE734
:1015600096E66EDDF5CF0895FC01A081B1818C91E6
:101570008D3021F038F489508230A8F51196A0837F
:10158000B183F3CF8032D1F38F3209F008951196F1
:101590008C9111978A3219F08F32C1F0089511960B
:1015A000A083B183A081B181CD0101968083918315
:1015B00011968C9111978823B1F08A3299F712967F
:1015C0008C9112978F3271F71396D9CFA081B18188
:1015D000CD0101968083918311968C91882319F017
:1015E0008A30A1F7C2CF08951F93CF93DF93EC0108
:1015F000162FBADFE881F9818081181308C031966F
:10160000E883F98381E0DF91CF911F91089580E015
:10161000FACF0F931F93CF93DF93EC010C811D81C1
:101620000296A2DFEA81FB818081873211F082324B
:1016300061F53196EA83FB83EA81FB8190819923EE
:1016400009F445C09F012F5F3F4F2A833B838917D1
:10165000F1F19C3579F49181A0EDB1E62C91222332
:1016600021F0921310C011969C91992381F132962A
:10167000EA83FB83EC81FD819F012F5F3F4F2C8329
:101680003D839083D9CF1296E9CF80336CF18A33B2
:1016900024F08F35A4F08B37A4F42A813B812F5F8F
:1016A0003F4F2A833B83EC81FD819F012F5F3F4F9A
:1016B0002C833D838083EA81FB818081E6CF813466
:1016C0009CF08B3554F393ED980F923030F3EC810E
:1016D000FD81CF0101968C839D831082C801DF912B
:1016E000CF911F910F9108958B3269F7D6CF8091DA
:1016F000606681110BC010925C6610925D6610925C
:101700005E6610925F6681E0809360668CE596E687
:1017100008958091546681110BC01092506610920A
:101720005166109252661092536681E0809354661F
:1017300080E596E60895DB01109749F0ED91FC9164
:1017400011970190F081E02DBC01CD01099490E04A
:1017500080E00895382FFC018FEF9FEF2E2F231B81
:10176000261788F42191AC01522728E0CA01880F7E
:10177000991F57FF04C041E2842740E1942721507C
:10178000AC01A1F7EBCF0895CF93DF93009709F158
:10179000DC01AE56BF4FEC91EF38D8F4EC01C057E6
:1017A000DF4F28813981EC01CE0FD11D388332E023
:1017B0003E0F3C93EF5FE80FF92FF11D2083FC01F2
:1017C000EC56FF4F80818064808380E0DF91CF9171
:1017D00008958EEEFBCF0F931F93CF93DF93DC0121
:1017E000AE56BF4FEC91E03928F5EC01CC56DF4FF7
:1017F000288126FD1FC0249728813981362748E09B
:101800008901220F331F17FF04C051E2252750E141
:1018100035274150A9F72883398321E02E0F2C93D7
:10182000E80FF92FF11D608380E0DF91CF911F91C8
:101830000F9108958EEEF9CFCF92DF92EF92FF9243
:101840000F931F93CF93DF9300D000D0CDB7DEB7B7
:101850006C018091466A9091476AA091486AB09164
:10186000496A89839A83AB83BC838E010B5F1F4FC8
:10187000CE0101967C01F80162918F01C601ABDFB8
:101880000E151F05C1F72496CDBFDEBFDF91CF91A6
:101890001F910F91FF90EF90DF90CF900895CF921E
:1018A000DF92FF920F931F93CF93DF93FC01EC56CF
:1018B000FF4F208126FD15C0EC01F62E8B016C0137
:1018C00082E9C80ED11C802F8F19F80161918F0118
:1018D000662341F0F6019081903920F4CE017BDF40
:1018E000F2CF80E0DF91CF911F910F91FF90DF90B9
:1018F000CF900895FC01268137812F5F3F4F2E7FC7
:1019000026833783620F731F84819581861797071B
:1019100038F082819381820F931F668377830895C5
:1019200090E080E00895CF93DF93D82F5AD884E4D5
:1019300075D8C82F811102C08D2F70D842D88C2F36
:10194000DF91CF9108958091566B8F5F8A3058F464
:1019500060E08091F66A22DA8DE2E5DF8BED91E6B8
:1019600039D98EEE08958AEE91E6B3D986E59BE6E5
:1019700031D980E00895CF93CEE08DE3D4DFC1501C
:10198000E1F7CF9148CABF92CF92DF92EF92FF92D8
:101990000F931F93CF93DF93CDB7DEB76097CDBF83
:1019A000DEBF182F092FC62E1CD884E437D8D82EB6
:1019B000811124C00F931F9389E592E69F938F9323
:1019C000CE0101967C019F938F930E941735B82E0C
:1019D0000F900F900F900F900F900F908701802F16
:1019E0008E198B1528F4F80181918F0117D8F7CF44
:1019F000CC2021F08DE012D88AE010D80E94E104BA
:101A00008D2D6096CDBFDEBFDF91CF911F910F91DD
:101A1000FF90EF90DF90CF90BF90089560E0B3CF3C
:101A2000CF93DF9388EF91E654D942E260E080E003
:101A300092E698D880E192E64CD981E090E0EEDF22
:101A40008EE271DF61E090E080E09DDF8AE192E666
:101A500040D942E260E082E292E684D882E396E6F0
:101A600038D990E080E0DADF8EE25DDF8FE090E051
:101A7000D5DF82E392E62DD9C5EEDAE68B859C852B
:101A800026D98EE250DF61E08D859E85DF91CF9172
:101A900000C90F931F93CF93DF93CDB7DEB7A09705
:101AA000CDBFDEBF2091EB6A3091EC6A37FD12C0EA
:101AB0008091E96A9091EA6A97FD0CC04091E96AC9
:101AC0005091EA6A6091EB6A7091EC6A452B462B63
:101AD000472B59F48FE392E67DD8A096CDBFDEBFA9
:101AE000DF91CF911F910F9108958E010F5F1F4FCE
:101AF0002115310591F49F938F9380E592E69F9392
:101B00008F931F930F930E9417350F900F900F9094
:101B10000F900F900F90C801DFCF9F938F933F934B
:101B20002F938CE592E69F938F931F930F930E94C0
:101B30001735CDBFDEBFEFCF0F931F93CF93DF934A
:101B4000CDB7DEB7A097CDBFDEBFE5EEFAE6818563
:101B50008F9380858F938DE692E69F938F938E016E
:101B60000F5F1F4F1F930F930E941735C80132D884
:101B70000F900F900F900F900F900F90A096CDBFE9
:101B8000DEBFDF91CF911F910F9108951F93CF93E7
:101B9000DF93CDB7DEB76097CDBFDEBF6091426AFD
:101BA0007091436A8091446A9091456A20E13EE0D9
:101BB00040E050E00E945533122F2CE330E040E02B
:101BC00050E00E9455333F932F931F921F938BE752
:101BD00092E69F938F93CE0101969F938F930E94DD
:101BE0001735CDBFDEBF6096CDBFDEBFDF91CF9191
:101BF0001F9108950F931F93CF93DF93482F50E0C9
:101C0000DA01A75CBE498C918F3F09F4A3C08A0119
:101C1000035E1E49E801E881D0E2ED9FF001112446
:101C2000FC5F611132C08683908189239A012F5F06
:101C30003E49811111C0E9019881309741F19830F6
:101C400030F57096E90FF11D9FB7F894808161110E
:101C500021C0877F80839FBFF90180818F3F09F476
:101C600079C0E80128818630B8F48091E705877053
:101C7000281312C0EC91E53008F0EE0F8091010AB4
:101C8000E095E823E093010A65C08583CDCFF0E0BD
:101C9000E0E0DACF8860DECF4B515F49FA01808106
:101CA00086FF42C09091E9059770482F50E04F7B26
:101CB00094171506C9F5EC918091920B9E2FE03197
:101CC00010F49295907F892309F444C0D0E22D9FAF
:101CD000900111243C5FE83008F052C0205F3F4F74
:101CE000E20FF32FF11D4FB7F8949091800B9E7F78
:101CF0009093800B90918E0B90FFFCCF2091920BD4
:101D000090E08095909530E08223932328ED24BFC6
:101D10008093920B8091800B81608093800B8081F7
:101D20008F7780834FBF16C085FF12C090E1899FD7
:101D3000F0011124F75F91819770973059F4EC917D
:101D4000853268F4803298F4803109F494CF02C06F
:101D50008111F5CFDF91CF911F910F9108958034BC
:101D600009F4AACF8038B1F71092A006F3CFC0E1F2
:101D70008C9FF0011124F75F81818F7E8183EACFF0
:101D8000F0E0E0E0B0CF8093996B90939A6B61E0C4
:101D900089E130CFFC0101900020E9F73197AF01D4
:101DA000481B590BBC018EE796E60EC987E892E600
:101DB000F1CFCF93CEE08DE3DBD9C150E1F7CF91E6
:101DC000F5CF8F929F92AF92BF920F931F93CF93B5
:101DD000DF93CDB7DEB7A197CDBFDEBF19A24230EA
:101DE00008F44AE08E010F5D1F4F842E912CB12C18
:101DF000A12CA50194010E945533E62FB901CA0117
:101E0000EA30D4F4E05DD801EE938D01232B242B2E
:101E1000252B79F790E080E0109711F0CD01BADF23
:101E2000A196CDBFDEBFDF91CF911F910F91BF90E3
:101E3000AF909F908F900895E95CE5CFCF92DF92AD
:101E4000EF92FF92CF93DF936C01990FEE08FF089A
:101E5000F7FE15C08DE28CD9EC0166277727CB0100
:101E60006C197D098E099F094AE0ABDF8C0F9D1F1D
:101E7000DF91CF91FF90EF90DF90CF9008954AE0EF
:101E8000C701B601DF91CF91FF90EF90DF90CF9027
:101E900098CFCF93DF93D0E0C0E0009711F07ADFC6
:101EA000EC0184DF8C0F9D1FDF91CF910895009787
:101EB00009F070CF90E080E00895CF93DF93CDB725
:101EC000DEB70E941A071092336AA3E3BAE6EC91D8
:101ED000A8E5BAE68C91E81750F5F0E0EE0FFF1F89
:101EE000E65BF54980819181892B99F082E999E639
:101EF0000E940E2EE3E3FAE6208130E0220F331F2A
:101F0000F901009771F4E65BF5490190F081E02D4D
:101F100009950E941A07A3E3BAE68C918F5F8C9310
:101F2000D4CFEC5CF549019780839183F2CFE3E352
:101F3000FAE61082DF91CF910895CF93DF93CDB76A
:101F4000DEB7E091336AF0E0EE0FFF1FEC5CF5497D
:101F500080819181892BF9F482E999E60E940E2E05
:101F60002091336A30E0009771F42F5F3F4F47E1D3
:101F7000429FC001439F900D112461E070E08E5696
:101F800096490E942E2E220F331FF901EC5CF54971
:101F9000019780839183E3E3FAE680818F5F8083FA
:101FA0009091586A981708F410820E941A07DF91DE
:101FB000CF910895CF93DF93CDB7DEB7E3E3FAE691
:101FC000208130E02F5F3F4FF7E1F29FC001F39F88
:101FD000900D11248E5696490E940E2E892B31F4B5
:101FE00069EC70E082E999E60E942E2EE3E3FAE6BE
:101FF000208130E02F5F3F4FF7E1F29FC001F39F58
:10200000900D11248E5696490E940E2E892BB1F602
:102010006DE271E0E7CFCF93DF93CDB7DEB72091CC
:10202000336A30E02F5F3F4F47E1429FC001439F3B
:10203000900D11248E5696490E940E2E65E670E092
:10204000892BA1F0E3E3FAE6208130E02F5F3F4FD8
:10205000F7E1F29FC001F39F900D11248E5696492F
:102060000E940E2E892B31F467EB73E082E999E62A
:102070000E942E2E60E081E1BDDDE3E3FAE62081DF
:1020800030E02F5F3F4FF7E1F29FC001F39F900DCB
:1020900011248E5696490E940E2E892B19F463E363
:1020A00070E0E4CF61E081E1A5DDCCCF0F931F9319
:1020B000CF93DF938B01FC01C281D381209759F02C
:1020C0006A817B810115110519F06115710549F4CB
:1020D0006017710759F4CE01DF91CF911F910F91D5
:1020E0000895C8010E94DA34892BA9F30990D88198
:1020F000C02DE4CFCF93DF93D9DFFC01892B09F406
:1021000064C0848195818330910588F5019708F436
:102110005CC00680F781E02D309709F456C08081BD
:10212000843709F456C08B3209F442C08D3209F06D
:1021300040C03196D1E060E070E0CB01C19120ED6C
:102140002C0F2A30C0F5AAE0B0E09B01AC010E9440
:1021500014332C2FCC0F330B20533109032E000CDA
:10216000440B550B620F731F841F951FE7CF8530FB
:10217000910548F0059771F066817781808591859A
:102180000E948F3304C06681778180859185DF91BD
:10219000CF91089586819781A085B1859C01AD017D
:1021A00066277727CB01621B730B840B950BEFCF50
:1021B0003196D0E0C0CFDD2351F390958095709596
:1021C00061957F4F8F4F9F4FE2CF60E070E0CB0172
:1021D000DECF61E070E080E090E0D9CFAF92BF92B7
:1021E000CF92DF92EF92FF920F931F93CF93DF93E3
:1021F000CDB7DEB72697CDBFDEBF7C01DC011696DA
:102200008C91811103C073DA8C017EC08150F7017B
:102210008683C080D180B60184E090E08CDA8C01A6
:10222000009709F480C0DC01CD92DC9211971296E0
:102230001D921C9213976701B2E0CB0ED11C6BE785
:10224000C601D2D98823F9F26DE7C601CDD9811133
:1022500057C0C701DED95C01892BA9F26AE3C60128
:10226000C3D9882381F219821A82BE016F5F7F4F22
:10227000C7015CD0882309F4C6CFB501C80116DFB9
:10228000009751F5F801608171818AE090E053DA9E
:10229000009741F0DC011D921C92119714961D923B
:1022A0001C921597D8011296ED91FC91309729F464
:1022B000F8018283938308C0F901208131812115BF
:1022C0003105D1F780839183009709F49CCFDC011D
:1022D0001296AD92BC92139726E0FE013196DC0176
:1022E000149601900D922A95E1F76DE7C6017CD90D
:1022F000811106C06CE2C60177D98111AACF83CFC4
:10230000F70186818F5F8683C8012696CDBFDEBF29
:10231000DF91CF911F910F91FF90EF90DF90CF90C1
:10232000BF90AF900895E3D98C0185CF8F929F9293
:10233000AF92BF92CF92DF92EF92FF920F931F93D3
:10234000CF93DF93CDB7DEB72697CDBFDEBF7C013D
:102350006B015C0182E0A80EB11CC50105D9D70153
:102360001296ED91FC91139780818B35D9F08B37C4
:1023700009F4A6C011E0873219F0823209F010E0AA
:10238000C70147D9009709F47DC021E030E011234F
:1023900009F49FC022E030E0F6012083318382837C
:1023A000938371C0F7018681811103C0B2D98C017A
:1023B00064C0815016968C9316978D909C90B401B2
:1023C00084E090E0B8D98C01009709F48BC0FC013F
:1023D00080829182128213826BE5C50105D9882320
:1023E00029F36DE5C50100D9811140C019821A8217
:1023F000BE016F5F7F4FC70199DF8823B9F2D80113
:102400006D917C9188E090E096D9DC01892B39F0C0
:102410001D921C92119712961D921C921397F8010F
:10242000228133812115310521F4A283B38308C0B1
:102430009C01F901808191810097D1F7A083B1833C
:10244000109709F4B3CF86E0FE0131961296019001
:102450000D928A95E1F76DE5C501C6D8811106C0D8
:102460006CE2C501C1D88111C1CFA0CFD7011696AA
:102470008C9116978F5F16968C93F80180819181CD
:10248000892B91F410E0812F2696CDBFDEBFDF911E
:10249000CF911F910F91FF90EF90DF90CF90BF9061
:1024A000AF909F908F90089586E090E0D6018D9335
:1024B0009C93119712960D931C93139711E0E3CF01
:1024C000C7018CDEFC0120813181232BD9F227E06A
:1024D00030E0D6012D933C93119712968D939C93E7
:1024E0001397ECCF16D98C0177CFCF93DF93CDB76D
:1024F000DEB7C85CD109CDBFDEBF9E012F543F4F70
:10250000C254DF4F28833983CE5BD040C254DF4FA3
:102510003881CE5BD040C953DF4F3883C75CD04091
:10252000C154DF4F4881CF5BD040C853DF4F488351
:10253000C85CD040A3E3BAE62C9130E02F5F3F4F58
:10254000B7E1B29FC001B39F900D11248E569649FA
:102550000E940E2E892B31F462E070E082E999E648
:102560000E942E2E8091E46A882319F08150809376
:10257000E46AEBE9FBE68081883C10F48F5F80839E
:1025800080916D668F5F80936D668A3098F21092AD
:102590006D66ECE9FBE683819481009719F0019761
:1025A00083839483E9E9FBE680819181009709F0B8
:1025B000C7C000E20E94F10485E40E940E05182FB6
:1025C000811105C080E00E942A05809368660E9400
:1025D000E104111175C280916866893011F400938D
:1025E000686680916866AFE0B9E6EC91883009F4DE
:1025F00061C58F3709F0AEC0EE2351F09FEF9E0FFB
:10260000AFE0B9E69C93F0E0E557F74914A28BD907
:10261000AFE0B9E6EC91EE3508F4ACC081E08E0F86
:10262000FBE8EF2EF8E6FF2EAFE0B9E68C93F0E082
:10263000E557F74990E294A3E82FF0E0E557F74912
:1026400014A2A1E9CA2EA9E6DA2E81E0F601808360
:102650000E940B07A9E6B6E613961C9213971C92EC
:10266000CF57DF4F1882C158D040F60180818823B0
:1026700009F4BCC1EFE0F9E62080222009F4B6C1DC
:10268000F6011082F701148A108E118E128E138EAD
:10269000158A168A178A248D358D468D578D119689
:1026A000FC91119712968C90D7019096CD90DD9069
:1026B000ED90FC9093976FEA78E6C054DF4F688303
:1026C0007983C05CD040412E312E612F912EE12FB5
:1026D000512E00E07CE6A72E76E6B72ECA53DF4FD8
:1026E0001883C65CD04077247A94201609F429C157
:1026F000C054DF4FA881B981C05CD0408D91C054D7
:10270000DF4FA883B983C05CD04081320CF4C5C0D0
:10271000E1113BC05394362E402E91E09E0F61E8AC
:1027200070E06C0F7D1F6E0F711DFB018083E1E86F
:10273000F0E0EC0FFD1FE90FF11D1082E92F27C01B
:10274000019780839183892B09F033CF61E089E180
:1027500051DA2FCF80320CF45BCFE03608F058CF3F
:1027600091E09E0FAFE0B9E69C93F0E0E557F749A2
:1027700084A34DCF809168668D3009F44FCF8A30A5
:1027800009F44CCF811116CF49CFEF3130F29FE9D8
:10279000980F9A3108F48052F0EDF80F8F2EFA302E
:1027A000B0F09FEB980F872C963018F499EC892E97
:1027B000880E8D3259F4E13049F4D5018C91846052
:1027C00082608C93602FF72D0F5F8FCFF72DD5018F
:1027D0009C91B92FB2706B2E90FD2FC0FF3F69F115
:1027E000AAE0B0E00E9414332F2F0F2E000C330B01
:1027F000440B550BCE53DF4F288339834A835B83C9
:10280000C25CD040260F371F481F591F611013C0EC
:1028100084E0CC0CDD1CEE1CFF1C8A95D1F7CE5356
:10282000DF4F688179818A819B81C25CD040C62A52
:10283000D72AE82AF92A602FC7CF611029C07FEF75
:102840008716B1F0D5018C9181608C93B4E0CC0CEB
:10285000DD1CEE1CFF1CBA95D1F7882D082C000C4E
:10286000990BAA0BBB0BC82AD92AEA2AFB2AE3CF69
:10287000CF57DF4F9881C158D040903349F4883505
:1028800039F4E23029F4D5018C9181608C93D3CF57
:10289000D5018C9181608260F9CFEE2309F494CF49
:1028A000D5018C91982F9570943039F450954095BE
:1028B000309521953F4F4F4F5F4F80FD27C0B3E0CC
:1028C000B915A8F0892D90E0DC01A557B749E1E0E2
:1028D0005096EC939394880F991F880F991FDC01F1
:1028E000A557B7492D933D934D935C931397109241
:1028F0006C66CA53DF4FE881C65CD040C12CD12C36
:10290000E12CF12C20E030E0A9015ECF81FDEFCF7A
:1029100023E0291560F3892D90E0DC01A557B74924
:1029200032E050963C939394880F991F880F991F1B
:10293000DC01A557B749CD92DD92ED92FC92139739
:10294000D6CF89E696E6DC0112968C927BE8A72E1C
:1029500078E6B72ED5015C962D933D934D935C930D
:102960005F979096CD92DD92ED92FC929397DC0169
:10297000EC93D50154969C92549757966C93579725
:1029800055963C92559756964C92DC011196FC93C5
:10299000552061F1842D90E081559749F501808F94
:1029A000918FE62FF0E0E557F74915A2FC019C0155
:1029B0002E5E3F4F8191882359F09FE9980F9A31FD
:1029C00020F4DF01119780528C93E217F30791F7FF
:1029D000F1E0F51558F4EBE8F8E68FEA98E6828F17
:1029E000938FE589F0E0E557F74915A2AFE0B9E626
:1029F0001C928FE3CF57DF4F8883C158D040CE570A
:102A0000DF4F1882C258D040E091A368F091A468CB
:102A1000309719F08081811108C0E1E8F0E0EC0FF7
:102A2000FD1FE093A368F093A468A090A368B09002
:102A3000A46864E0E62E60E6F62ED12EB701C5014B
:102A40000E94DA34892BB1F4EFEFED0DEC3008F091
:102A50002EC3F0E0E25DFA4E0C94D434501571159B
:102A60000D1666166616661619173C1783179C17FF
:102A7000C6170718D394FAE0EF0EF11C20E1D2122A
:102A8000DDCF89EC94E60E9469068091A36890915D
:102A9000A468009711F00E9469068FE296E6B7C01D
:102AA0000E94100D83EC94E60E946906EBE8F8E6BC
:102AB000148A108E118E128E138E158A168A178A1A
:102AC000E8E9FBE68081882309F434CD81508083D6
:102AD000811130CD88ED84BF81E0809341000000FA
:102AE000FECFEBE8F8E68489882309F493C0A5EECD
:102AF000BAE616962D913C9117972F3F3F4F99F0CC
:102B000014964D915D916D917C911797452B462BB5
:102B1000472B49F04081518162817381452B462BBF
:102B2000472B09F06EC09091E46A992319F08AE866
:102B300092E66DC0EBE8F8E62081318137FF04C0F2
:102B40001082118212821382E5EEFAE6ABE8B8E653
:102B50002D913C9111972483358316821782823000
:102B600028F014968D919C918683978305EE1AE642
:102B7000D80114968C91149715969C9115971696DA
:102B80002C91169717963C91C754DF4F3883C95B39
:102B9000D040C654DF4F2883CA5BD040C554DF4FB6
:102BA0009883CB5BD040C454DF4F8883CC5BD0404C
:102BB00044E060E470E0CE0187549F4F0E94ED0531
:102BC00082E296E60E946906F80184819581A681D9
:102BD000B781892B8A2B8B2B09F46BC08681978157
:102BE000009749F48091E96A9091EA6A0E940E0D7B
:102BF0008EE493E60CC00E940E0D8EE20E94930CB0
:102C0000F1CF82EB92E60E94EA0584ED92E60E9403
:102C1000EA0548CF0E94490D45CFEBE8F8E68489E4
:102C2000882309F450C08091ED6A9091EE6A019773
:102C30008E3F9F4F40F480819181A281B381892B87
:102C40008A2B8B2BC9F58091E46A811170CF20917A
:102C50008B6830918C6805EE1AE6C901D801189688
:102C60008D939C931997CB54DF4F3883C55BD0402D
:102C7000CA54DF4F2883C65BD04042E068E470E06E
:102C8000CE018B549F4F0E94ED058DEE92E60E947F
:102C90006906F80180859185892B59F08AEB93E6C6
:102CA0000E946906D80118968D919C910E94670632
:102CB0009FCF8DE393E6ABCF85EF92E60E94EA05C6
:102CC0008AE193E6A4CF0E949C0DECCEB5E080E4AF
:102CD00006E11BE6DB1649F0E6E080E406E51BE6CC
:102CE000DE1619F080E206EF1AE6A091A568B09111
:102CF000A668109709F470C0F8019081992349F0F3
:102D00009C919D3209F052C011969C91119791119E
:102D10004DC09091E46A91110ACFFD01019000200D
:102D2000E9F73197EA1BE81710F0EFEFE80F8C9105
:102D30008D3211F41C92E92F4BE8E42E48E6F42E74
:102D4000D7015A968D919C91DC01AE0FB11D119661
:102D50001C9241E04E0F6CEF6D0D70E06C5F7F4F89
:102D600056E0660F771F5A95E1F7F701828D938D34
:102D70000E94ED05D7015A96CD90DC90B601C801AE
:102D80000E94E334F6018081811103C086E393E65B
:102D90003ECF84E493E60E946906D7015A968D914E
:102DA0009C910E9469068DE493E631CF86E593E617
:102DB0000E94EA058BE793E60E946906B5E08AE97E
:102DC00093E6DB1609F423CFE6E083E993E6DE120F
:102DD0001ECF85EA93E61BCFF5E0DF1681F026E0F3
:102DE000D216D1F040E250E060E071E086EF9AE662
:102DF0000E944C051092156B0E94E70653CE40E4EA
:102E000050E060E471E086E19BE60E944C05109280
:102E1000556B0E94F90646CE40E450E060E871E050
:102E200086E59BE60E944C051092956B0E94A30CD0
:102E300039CEEBE8F8E68489882331F080819181EE
:102E40008093966B9093976B8DEA93E60E94690648
:102E50008091966B9091976B0E9467068DEB93E63D
:102E60000E9469068091386C882319F081ED93E601
:102E7000CECE86ED93E6CBCEEBE8F8E684898823C8
:102E800089F1A080B180823078F10481013808F0A6
:102E900000E8402F50E0B501CE0101960E944C059C
:102EA000AE014F5F5F4F7A01A41AB50A011741F1D5
:102EB0006501CE0CDF1CC6018F709927892BB1F0FC
:102EC000D7018D917D0160E00E94CE0680E20E94D4
:102ED000930C812F8F70873019F480E20E94930C3D
:102EE0001F5FE4CFB12CA12C01E0D3CF0E940B07D0
:102EF000C6010E94670688E096E60E946906E0CF58
:102F00000E940B07CFCDEBE8F8E68489823088F089
:102F1000608171818481C354DF4F8883CD5BD04051
:102F200041E0CE0183549F4F0E94ED0581E294E67B
:102F30006ECE8CED93E66BCEEBE8F8E684898230BA
:102F400010F1E080F1800481102F013408F010E4CA
:102F500088EF93E60E94690660E0812F0E94CE060A
:102F600084E094E60E946906C7010E946706011189
:102F700003C08FE194E64BCE412FB70190E080E093
:102F80000E94ED05F6CF86E294E641CE48E050E09F
:102F900060E170E0CE018F559F4F0E944C05C755F0
:102FA000DF4F1882C95AD040CB55DF4F8881C55AB0
:102FB000D04090E0982F8827CA55DF4F0881C65A25
:102FC000D040080F192F111DC955DF4F8881C75AEE
:102FD000D04090E0982F8827C855DF4FE880C85A26
:102FE000D040E80EF92EF11CC8010E94670680E26D
:102FF0000E94930CC7010E9467068DE20E94930C09
:10300000C8010E946C0661E00E9449064BCDEBE8C6
:10301000F8E61489113009F047C080819181813030
:10302000910541F481E494E60E94EA0582E08093F0
:10303000986B38CD8230910549F481E494E60E9482
:10304000EA0588ED84BF109341002CCD039761F50C
:1030500081E294E60E94EA0585E5CF54DF4F88833C
:10306000C15BD0408AEACE54DF4F8883C25BD04038
:1030700083ECCD54DF4F8883C35BD0408CE3CC54CA
:10308000DF4F8883C45BD04044E060E170E0C95307
:10309000DF4F8881C75CD040C853DF4F9881C85C40
:1030A000D0400E94ED05FECC8DE494E6B0CD8DE5D8
:1030B00094E6ADCDE111A2CA802FA9CACF93DF93C8
:1030C000EB01E82FF0E0EE0FFF1FE255FA4F65919C
:1030D00074916115710521F480E0DF91CF9108951D
:1030E000CE010E944E2EFE0101900020E9F731979B
:1030F000EC1BFD0BCF010197CF9770F78E2FEDCF13
:10310000CF93DF93CDB7DEB7C55AD140CDBFDEBF79
:103110002091336A30E02F5F3F4F47E1429FC0016B
:10312000439F900D11248E5696490E940E2E6BE0FF
:1031300070E0892B11F40C948C219E012F583E4F86
:10314000C757DE4F28833983C958D14041E451E045
:103150004C0F5D1F405F5F4FC257DE4F488359835E
:10316000CE58D1402091336A30E02F5F3F4F47E186
:10317000429FC001439F900D11248E5696490E9494
:103180000E2E892B11F40C948A21CE0187589E4F64
:10319000C957DE4F88839983C758D140C757DE4F40
:1031A0009881C958D140C656DE4F9883CA59D1403C
:1031B000C657DE4FA881CA58D140C556DE4FA883F6
:1031C000CB59D140C957DE4FB881C758D140C456FA
:1031D000DE4FB883CC59D140C857DE4FE881C8587C
:1031E000D140C356DE4FE883CD59D140AAEA2A2EFA
:1031F000A7E63A2E8EE796E60E944208892B11F444
:103200000C94F926ABE9BBE61C928EE796E60E9489
:1032100020089C0197FDEECFF101908196FD5DC0E5
:10322000A8EAB7E6EC91E03908F057C0822F91FF89
:10323000A3C19D7FD1019C93273009F453C048F46A
:103240004EEF420F443020F1E1E1F7E680818F5FDD
:1032500039C0283009F483C12930B1F790FFF4CF89
:1032600081E08E0FA8EAB7E68C93AE2FB0E0AF5E98
:10327000B8499BE115969C93803979F1EE5FA8EAF5
:10328000B7E6EC93E82FF0E0EF5EF849958325C0B0
:1032900090FF05C0E1E1F7E690819F5F9083D10147
:1032A0009C9191609C93E8EAF7E61082823061F08D
:1032B000843051F09B7F9C932450223050F0F101D8
:1032C0008081877F808309C0D1018C9184608C9339
:1032D000F3CFD1018C9188608C931092726610921A
:1032E000736688CF90FFB0CF9E7F9C9393FF56C1AB
:1032F0008E2E912CC057DE4F88829982C059D140C2
:1033000040911A6750911B6760911C6770911D670F
:103310008091166790911767A0911867B09119670F
:10332000409078665090796660907A6670907B667F
:10333000A0907C66B0907D66C457DE4FA882B982AB
:10334000CC58D14006E51AED2CE435EBC557DE4FDD
:103350001882CB58D14068017901FBE0F694E794DC
:10336000D794C794FA95D1F7F601E370FF27EE0FD3
:10337000FF1FEE0FFF1FE45CF349C080D180E280A5
:10338000F38046015701800E911EA21EB31EC25645
:10339000DE4F88829982AA82BB82CE59D1404C01ED
:1033A0005D01E4E0880C991CAA1CBB1CEA95D1F7CE
:1033B0006C017D01F5E0F694E794D794C794FA95F3
:1033C000D1F78C249D24AE24BF24880E991EAA1EFA
:1033D000BB1EC256DE4FC880D980EA80FB80CE5922
:1033E000D1408C249D24AE24BF24481959096A0970
:1033F0007B09095B194727433E49F801E370FF2722
:10340000EE0FFF1FEE0FFF1FE45CF349C080D18079
:10341000E280F38046015701800E911EA21EB31E6A
:10342000CE55DE4F88829982AA82BB82C25AD14091
:103430004A015B01E4E0880C991CAA1CBB1CEA95BC
:10344000D1F76A017B01F5E0F694E794D794C7942D
:10345000FA95D1F78C249D24AE24BF24840E951EAA
:10346000A61EB71ECE55DE4FC880D980EA80FB80ED
:10347000C25AD1408C249D24AE24BF2488199909B6
:10348000AA09BB09C557DE4FE881CB58D140E230CD
:10349000C9F42A013B01482659266A267B266894EE
:1034A00046F86C017D01E5E0F694E794D794C79463
:1034B000EA95D1F7F601E062C457DE4FE883F9835D
:1034C000CC58D140C557DE4FF881CB58D140FF5F73
:1034D000C557DE4FF883CB58D140F63009F03BCFCB
:1034E00040931A6750931B6760931C6770931D6726
:1034F0008093166790931767A0931867B093196726
:10350000409278665092796660927A6670927B6695
:10351000C457DE4F88809980CC58D14080927C6619
:1035200090927D6601E117E648E0E42EF12CC05749
:10353000DE4FA880B980C059D140EA14FB0470F571
:103540000E942303D8011D969C911D9789271D96E3
:103550008C93BFEFEB1AFB0A0F5F1F4FE8CF90FF72
:1035600073CE81E08E0FA8EAB7E68C93F0E0EF5EB1
:10357000F8498BE18583B1CE2B3121F49260D101E2
:103580009C93ABCE90FF60CE81E08E0FA8EAB7E6A9
:103590008C93F0E0EF5EF84925839FCEF0901267A0
:1035A000F3FE89C0F10180818064808386E197E623
:1035B0008093726690937366F4FC39C0E2E1F7E69B
:1035C0008081806180832FB7F89480917466909198
:1035D0007566A0917666B09177662FBFE5EEFAE644
:1035E000808391839C012D60306F4281538142170B
:1035F0005307E8F4CF58DE4F9883C157D140CE58D7
:10360000DE4F8883C257D14042E060E370E0C65687
:10361000DE4F8881CA59D140C556DE4F9881CB59BB
:10362000D1400E94ED0586EE94E60E94EA05E09006
:103630007266F0907366B7016C567F4FFB01908104
:1036400092FF13C7E114F10409F06DC0F701EC56C5
:10365000FF4F80818F7B808310927066109271661D
:103660001092AB678091706690917166892B09F416
:10367000F6C6E3E3FAE6208130E02F5F3F4FF7E143
:10368000F29FC001F39F900D11248E5696490E941F
:103690000E2E0091706610917166F801ED56FF4F85
:1036A000892B09F0FCC560812AE0629FB0011124DA
:1036B0006F5F7F4F31C6E6EBF7E61082118280EF35
:1036C00091EF8093B8679093B967A8EAB7E66C91D9
:1036D000623018F162506C93A62FB0E0AF5EB8492B
:1036E00015968C91159790E0982F882716960C9137
:1036F000080F192F111D008311838FEF9FEF662391
:1037000021F086E197E60E94AA0B8093B867909318
:10371000B9670817190709F445CFA8EAB7E61C925C
:10372000F1011082DACDE5E3FCE6808186FD8ECFE3
:1037300097012E563F4FD9012C912C3008F486CF9B
:1037400092FB82F98083F7015081533009F0B6C0B3
:1037500080919F6B9091A06B892B09F0AFC0DB012A
:103760008C9183FD04C09091966B92FF6FCF9091E6
:10377000976B92FD04C08871883009F467CFF70118
:1037800084808381823009F480C0833009F48CC046
:10379000813009F084C0912CB12CA12C81149104AA
:1037A000A104B10439F00E94B92DA50194010E9431
:1037B000F8324B018092346CD701AC56BF4F9C91CC
:1037C000E5E3FCE6808192FB82F980839C9193FB88
:1037D00083F980839C9192FB992790F986FD0BC019
:1037E00090FB82F980838FEF9FEF8093316C9093F1
:1037F000326C1092336C43E060E0C7010E942329D1
:1038000005EE1AE6D80119966C9181EA9BE60E94B2
:10381000EB0BF801608581EA9BE60E94EB0B46E02A
:1038200065E0C7010E9423290E94B92D20E031E004
:1038300040E050E00E94F83281EA9BE60E94EB0BE8
:1038400060E081EA9BE60E94EB0B81EA9BE60E9426
:103850001C0C81EA9BE60E94C40BF701EC56FF4F5B
:1038600080818F7B808381EA9BE680937066909352
:1038700071668091356C83FFF3CE6091336C70E09C
:1038800081EA9BE60E948F05EBCE8091ED6A9091D4
:10389000EE6A8827907F8115904F09F47CCF809243
:1038A000346C1092336CD9CF8091ED6A9091EE6AAE
:1038B0008827907F8115904F91F36DCFA5EEBAE6E2
:1038C000F701938119968C9119979813BFCE948123
:1038D00018968C919813BACE4091976B42FD08C010
:1038E000D701AC56BF4F8C918871883009F4AECEA9
:1038F00097012C563F4FD9019C91A5E3BCE68C91D2
:1039000092FB82F98C93F901908193FB83F98C935C
:10391000908192FB992790F986FD0BC090FB82F96C
:103920008C938FEF9FEF8093316C9093326C109259
:10393000336C1092346CEFEFE50FEB3008F09EC45F
:10394000F0E0EB55F34E0C94D434B01CF11C3E2146
:10395000FC1D161E9B1E401F541F0820E020FC204B
:10396000F701EC56FF4F808183FD04C08091966B78
:1039700080FF8CC460E0C7010E94432962E081EAB5
:103980009BE60E94EB0B61E081EA9BE60E94EB0B59
:1039900061E081EA9BE60E94EB0B60E081EA9BE636
:1039A0000E94EB0B61E081EA9BE60E94EB0B60E07A
:1039B00081EA9BE60E94EB0B60E081EA9BE60E94B5
:1039C000EB0B6FE081EA9BE60E94EB0B61E081EA82
:1039D0009BE60E94EB0B65E081EA9BE60E94EB0B05
:1039E00097C1F701EC56FF4F808183FD04C08091A1
:1039F000966B81FF4BC461E0C7010E94432963EFCE
:103A000074E68E010F5F1F4FC8010E94E334B801B6
:103A100081EA9BE60E944F0C19828AEBA82E87E66A
:103A2000B82ED12CC12C99E5892E92E6992E20E84A
:103A3000722EF601E159F749808185FD43C0FFEF01
:103A4000CF1ADF0A22E0A20EB11C34E0C316D10463
:103A500081F76AEF74E68E010F5F1F4FC8010E9465
:103A6000E334B80181EA9BE60E944F0C1982BBE760
:103A7000CB2EB8E6DB2E912C812C580113E0612E61
:103A800015E6712E2E01F1E24F0E511C09E5202E94
:103A900002E6302E8401F401E159F749808185FD69
:103AA00031C02FEF821A920A34E0C30ED11C44E0D9
:103AB0008416910479F76DE581EA9BE60E94EB0B91
:103AC0006DE78ACF8981811117C0D50111968C913C
:103AD00011978F938C918F939F928F921F927F92C9
:103AE0001F930F930E94EA34CDBFDEBFB80181EA75
:103AF0009BE60E944F0CA3CF6CE281EA9BE60E94FA
:103B0000EB0BE3CF898181112AC0F801E159F74914
:103B100080818F70833009F451C040F4813029F1E5
:103B20008230A9F150E359831A8242C0843009F4EB
:103B30004FC08530B9F7D60113968C9113978F93A8
:103B400012968C9112978F9311968C9111978F9357
:103B50008C918F93EAE0F5E6FF93EF9346C06CE219
:103B600081EA9BE60E94EB0BD0CFD6016D917D914F
:103B70008D919C91850122E044E00E94532DF50136
:103B800081918823A9F04E165F06D1F7CBCFF601BD
:103B900081818F9380818F933F922F92BF92AF92BA
:103BA0000E9417350F900F900F900F900F900F906D
:103BB000B50181EA9BE60E944F0C73CFD6011196A6
:103BC0008C9111978F938C918F937F926F92E6CF08
:103BD000F60183818F9382818F9381818F9380817E
:103BE0008F9326E035E63F932F93BF92AF920E94CA
:103BF0001735CDBFDEBFDCCFF701EC56FF4F80811C
:103C000083FD04C08091966B83FF40C3D701179654
:103C10008C91B4E68B9FC001112480939F6B90938D
:103C2000A06B60E0C7010E94432972C0F7013C9677
:103C3000D7011C964D915C911D9754274527542719
:103C40001C969C911C971D966C912091ED6A309169
:103C5000EE6A2115304F28F44A3F27E0520709F059
:103C600015C38091386C882331F0D701AC56BF4F13
:103C70008C9183FF0BC3D701AE56BF4F8C911EEEC4
:103C80008D30B0F04A3F37E0530709F049C0409308
:103C9000ED6A5093EE6A8FEF9FEF8093966B90934F
:103CA000976B42E068E470E0CF010E94ED0510E000
:103CB00043E060E0C7010E942329F5EECF2EFAE62B
:103CC000DF2ED60119966C9181EA9BE60E94EB0BE0
:103CD000F601608581EA9BE60E94EB0B46E065E019
:103CE000C7010E9423290E94B92D20E031E040E065
:103CF00050E00E94F83281EA9BE60E94EB0B612FB4
:103D000081EA9BE60E94EB0B81EA9BE60E941C0C79
:103D100081EA9BE60E94C40B882309F49ECD96CCD1
:103D2000292F30E0322F2227260F311D2093ED6AF4
:103D30003093EE6AB6CFF701EC56FF4F808183FDDA
:103D400004C08091966B84FFA1C28091E46A10EE5A
:103D5000811122C0D7011C964C911C971D966C9125
:103D60001D97862F90E0982F88271E966C911E979E
:103D7000680F792F711D1F968C91442309F47EC022
:103D8000823008F07BC06115B4E07B073CF0C701CE
:103D900040960E94ED05182F612F44CF60317105C8
:103DA00009F06CC0483009F069C0F7018089853599
:103DB00009F0EDC081898A3A09F0E9C08289833C23
:103DC00009F0E5C083898C3309F0E1C0C488D12CA7
:103DD000DC2CCC248589C80ED11C0689802F90E06C
:103DE000982F88270789080F192F111DC6010E94D7
:103DF0006C065C018EE095E60E946906C6010E9491
:103E0000670687E195E60E946906C8010E94670679
:103E100082E795E60E94690661E0C5010E944906B5
:103E20000A151B05B9F448E060E170E0C70140964F
:103E30000E94ED05182F811108C080E295E60E94CE
:103E4000EA058FE08093986BA7CF8AE395E60E94FE
:103E5000EA05A2CF8AE595E60E946906C5010E949F
:103E6000670687E195E60E946906C8010E94670619
:103E700082E595E60E94EA0519EE8ECF1EEE8CCF04
:103E8000F701EC56FF4F808183FD04C08091966B53
:103E900083FFFCC1D70117968C91B4E68B9FC001BC
:103EA00011240E94C30EBDCE8091E46A60EE8111A0
:103EB000B9CEF7018781282F217090E095958795DD
:103EC0008130910509F45AC08230910509F44DC042
:103ED00061EE892B09F0A6CE60E071E096EFA92E85
:103EE0009AE6B92E3EE1D32EF701EC56FF4F8081C2
:103EF0008870222309F44FC0811104C08091966B11
:103F000086FFC4C1D7011C964C911C97F501808196
:103F10008823D9F11D968C911D978D32D1F5F7012B
:103F2000EE56FF4F80818E30A1F51D961C921D9795
:103F30001E961C9241E0F701EE56FF4F80818D30B6
:103F400030F1F701E40FF11D15866701BDE0CB0EDE
:103F5000D11C4F5FC6010E94ED05182F81111CCFA7
:103F6000B601C5010E94E33417CF60E871E046E571
:103F7000A42E4BE6B42E0EE3D02EB6CF60E471E053
:103F800086E1A82E8BE6B82EF6CFD416A0F611EE59
:103F900003CF18EE01CF811104C08091966B85FF8D
:103FA00075C18E010F5F1E4F40E450E0C8010E94B2
:103FB0004C05882EF801ED0DF11D1182F8010190DC
:103FC0000020E9F731976F01C01AD10A9C2C682FA5
:103FD000C7010E94432981109BCE6C2D81EA9BE68C
:103FE0000E94EB0BCC2069F0C02ED12EF60161911E
:103FF0006F0181EA9BE60E94EB0B8C2D801B8915DB
:10400000A8F3BE016F5F7E4FC5010E94E33480CEEE
:10401000F701EC56FF4F80818870D70117969C916D
:1040200090FFC3C0329720812A3008F4BEC08111AE
:1040300004C08091386C8111F8C78FEFCF5ADE4FE2
:104040008883C155D140CE5ADE4F8883C255D140B6
:10405000CD5ADE4F8883C355D140CC5ADE4F88837A
:10406000C455D140CB5ADE4F8883C555D140CA5A7A
:10407000DE4F8883C655D140C95ADE4F8883C75565
:10408000D140C85ADE4F8883C855D140F701948586
:104090008585C92ED12CDC2CCC24C80ED11C409196
:1040A000966B5091976BC416D50609F486C7CB5A08
:1040B000DE4F9883C555D140CA5ADE4F8883C65516
:1040C000D1409095C95ADE4F9883C755D14080950D
:1040D000C85ADE4F8883C855D14011E0253108F019
:1040E0006FC744E064E770E0CE018F5B9E4F0E9493
:1040F000ED05182F8AE895E60E9469061111AAC7F6
:10410000C092966BD092976B8EE493E60E94EA057C
:1041100010E090C78BE795E60E9469067DC742E1F3
:1041200060E670E0CE018F5B9E4F0E94ED05182F78
:1041300088E995E60E94690611118CC7FE01EF5BC4
:10414000FE4FACE3BCE681918D93C257DE4F888071
:104150009980CE58D1408E169F06A9F70E94D504AB
:10416000D3CF48E160E670E0CE018F5B9E4F0E94A6
:10417000ED05182F83EA95E60E94690611116AC7BA
:10418000C092966BD092976BFE01EF5BFE4FACE353
:10419000BCE681918D93C257DE4FA880B980CE587E
:1041A000D140AE16BF06A9F7D9CF811102C041FF99
:1041B0006DC061E08091386C81113DC760E03BC704
:1041C000F701EC56FF4F808183FD04C08091966B10
:1041D00087FF5CC006E31CE6D8018D919C91892B7A
:1041E00009F44AC060E0C7010E944329D801ED915B
:1041F000FC91C70109958CCDF701EC56FF4F8081EA
:1042000083FD02C040FF42C0F701D7800D2D10E0B2
:10421000F801E159F749808185FF2EC060E0C701B0
:104220000E944329000F111FF801E654F84910813C
:10423000618181EA9BE60E94EB0B612F81EA9BE69C
:104240000E94EB0BF3E0FD1508F462CD8E010F53D5
:104250001F4FB8018D2D0E945E18C82ED02E802FC2
:104260008D198C1508F054CDD8016D918D0181EA1E
:104270009BE60E94EB0BF3CF6EEED4CCF701EC562D
:10428000FF4F808183FD02C063EECCCC85ED95E6C7
:104290000E94690661E085EE0E94CE06D7C91082B1
:1042A0000E94A80AABEAB7E68C9191E0980F9C9324
:1042B000833030F4F801EE56FF4F8081883038F4B7
:1042C000C8010E949B0A10927066109271668091DC
:1042D000706690917166892B09F4C4C910926F665B
:1042E000BFEFB0931367EBE9FBE68081823058F5AE
:1042F000A3E3BAE62C9130E02F5F3F4FB7E1B29FC6
:10430000C001B39F900D11248E5696490E940E2E27
:10431000892B31F462E070E082E999E60E942E2E4A
:104320000E94A80A80916F668F5F80936F66893CB8
:10433000D0F280917066909171660E949B0A1092F3
:104340007066109271668091706690917166892B8B
:1043500009F488C9EBE9FBE68081823008F482C960
:1043600060E089E10E94FA0D80917066909171661B
:1043700025D780936E66811175C910926F66809102
:104380006E66811128C0A3E3BAE62C9130E02F5F5E
:104390003F4FB7E1B29FC001B39F900D11248E56DD
:1043A00096490E940E2E892B09F4B4CF0E9463090E
:1043B00080936E6680916F668F5F80936F66893C95
:1043C000F0F280917066909171660E949B0A109243
:1043D00070661092716680916E66813059F480919A
:1043E0007066909171660E949B0A1092706610929E
:1043F000716638C90E94D008E3E3FAE6208130E014
:104400002F5F3F4FF7E1F29FC001F39F900D112402
:104410008E5696490E940E2E892B49F40E94B92D82
:104420002AE030E040E050E00E94F83241C90E94AA
:10443000E808A3E3BAE62C9130E02F5F3F4FB7E1E5
:10444000B29FC001B39F900D11248E5696490E94D1
:104450000E2E892B09F006C963E070E05DCF61E0A4
:1044600089E10E94FA0D0C94F618F70180818F7093
:10447000982EC380D12CDC2CCC248481C80ED11C76
:104480006581862F90E02091736830917468A9014E
:104490004F5F5F4F8417950729F02E3F310539F4A0
:1044A000613029F4809373689093746810C0E9E7D1
:1044B000F8E6408151814F5F5F4F40835183281759
:1044C000390780F3603118F4213F310558F7FCE0DB
:1044D0009F1681F07AE0872E981409F471C3E09159
:1044E0007266F0917366EC56FF4F80818F7B8083FC
:1044F0000C94FA18F701EC56FF4F80819091976B5E
:1045000083FD02C095FFEBCF92FD03C08871883018
:1045100031F38091756890917668A0917768B09139
:1045200078688F3F2FEF9207A207B20709F4AAC05D
:104530000196A11DB11D8093756890937668A09334
:104540007768B093786830E2C316D10408F4ABC240
:10455000EAEBF7E600E081919191C816D90609F0DF
:1045600096C01092626A1092636A4CE0E40EF11CED
:104570008AED91E6E114F10409F0C7012CE53AE671
:10458000C058DE4F28833983C058D140CE57DE4F04
:1045900088839983C258D140CC57DE4FE882F98294
:1045A000C458D1408AE0CA57DE4F8883C658D140EC
:1045B000CE0180589E4F0E94EE106C01DC018D915F
:1045C0009C91892B09F48BCF61EE70E6C6010E94A5
:1045D0005610FC01892B09F411C184819581833027
:1045E000910508F059C0019708F408C10680F781C9
:1045F000E02D309709F402C180818B3209F49BC011
:104600008D3209F099C0319611E08081812C912C76
:10461000B0E8AB2EBFE3BB2E843709F44FC08F7DCB
:10462000812C912CA0ECAA2EAFE7BA2E8E3409F47F
:1046300045C0893409F4ECC0B12C20E030E040E002
:1046400050E0DF01F19080ED8F0D8A3008F078C0E6
:104650002C3CBCEC3B07BCE04B0751050CF06EC09A
:10466000AAE0B0E00E9414332F2DFF0C330B20532F
:104670003109032E000C440B550B260F371F481F22
:10468000591FDFCF81E090E0A0E0B0E054CF0F5F92
:10469000043009F060CF23CF8530910538F00597BD
:1046A000E9F186809780A084B18408C06681778113
:1046B000808591850E94BB334B015C018AE090E0CC
:1046C0000E94C30E10E0A801415957497A01DA014E
:1046D0008C91982F9F70923009F40EC108F4F2C0AB
:1046E000943009F44DC108F42AC1953009F0F7CE91
:1046F00061EE70E6C6010E947A10D7012C91322F2C
:104700003F7019F4207F25602C93F801E159F74997
:1047100020812F70253009F496C1E1CE6681778122
:10472000808591850E94BB334B015C01B7FAB09440
:10473000B7F8B094C3CF319610E067CFB39481CF70
:10474000EEE2FE1222C0FD013196DF01F19080ED14
:104750008F0D8A30D0F42C3C8CEC38078CE0480765
:1047600051059CF7AAE0B0E00E9414332F2DFF0CF6
:10477000330B20533109032E000C440B550B260F2D
:10478000371F481F591FBA94E0CF8C918F7DF12CB1
:10479000E12C853409F050C0FD01319611968C91C1
:1047A00011978D3279F53196A1E0F12CE12C8B2D0A
:1047B0000B2C000C990B6AE0962EA19060ED6A0D0F
:1047C0006A30A8F59E9CB0019F9C700D1124EA2CC4
:1047D000AA0CFF08B0E3EB1AF108E60EF71EB701CA
:1047E000680F791F6732710544F3AA2389F0812C81
:1047F000912CA12C30E8B32E111160CF812C912C7B
:1048000054015CCF8B3211F4FD013296A0E0CDCF84
:10481000812C912C20E8A22EBB24BA9411114ECFEA
:10482000812C912CF0E8AF2EFFE7BF2E47CFAA23B3
:1048300019F0F194E194F108EB0CF11CB7FCFA9437
:10484000CA01B9010E94BD334B015C011E141F0453
:10485000E4F4712CE0FE10C024E0729EF0011124FB
:10486000E454FF492081318142815381C501B40163
:104870000E9449344B015C01F594E7947394E11470
:10488000F10441F7111152CF19CFF194E194F108DD
:10489000712CE114F104B1F3E0FE10C034E0739E1A
:1048A000F0011124EC55FF4920813181428153816F
:1048B000C501B4010E9449344B015C01F594E794B1
:1048C0007394E7CF911104C0807F8160FA018083E7
:1048D000F801E159F74980818F70813009F0FFCDEF
:1048E000000F111F000F111FF801E558F7498082D2
:1048F0009182A282B382F3CD20E030E040E057E421
:10490000C501B4010E94863387FFE9CD20E03EEF68
:104910004FEF56ECC501B4010E94453418160CF057
:10492000DECD000F111F000F111F05581749C501DB
:10493000B4010E948A33D8016D937C93D0CD20E0DE
:1049400030E040E857E4C501B4010E94863387FF98
:10495000C6CD20E030E0A901C501B4010E94453474
:1049600087FDBDCD000F111F000F111F05581749FE
:10497000C501B4010E948F33F80160837183AFCD0C
:1049800061EE70E6C6010E945610FC01892B09F405
:1049900081C0848195818330910598F5019708F451
:1049A00079C00680F781E02D309709F473C08081CB
:1049B000843709F473C08B3209F45FC08D3209F07B
:1049C0005DC03196FF24F39460E070E0CB01E1908C
:1049D00020ED2E0D2A3008F053C0AAE0B0E09B0174
:1049E000AC010E9414332E2DEE0C330B20533109F1
:1049F000032E000C440B550B620F731F841F951F71
:104A0000E6CF8530910548F0059749F166817781B9
:104A1000808591850E948A3304C066817781808574
:104A20009185F801E159F7492081322F3F7019F43F
:104A3000207F24602083F801E159F74920812F70FD
:104A4000243009F04CCD000F111F000F111FF80189
:104A5000E558F749608371838283938340CD8681D3
:104A60009781A085B1854C015D0166277727CB0131
:104A7000681979098A099B09D4CF3196F12CA4CF02
:104A8000FF2079F290958095709561957F4F8F4FBB
:104A90009F4FC7CF60E070E0CB01C3CF61E070E013
:104AA00080E090E0BECFB1E0CB16D10409F017CD85
:104AB0001092626A1092636AC7010C969C0111F40D
:104AC0002AED31E64CE55AE6C758DE4F4883598354
:104AD000C957D140C558DE4F28833983CB57D140C1
:104AE000C358DE4F88839983CD57D1408AE0C1589F
:104AF000DE4F8883CF57D140C456DE4F8881CC59D2
:104B0000D140C356DE4F9881CD59D1400E94EE105E
:104B10008C01FC0180819181892B09F4E0CC46E471
:104B2000A42E4AE6B42EF50180819181A281B38141
:104B30006BED70E60097A105B041D8F4C8010E9462
:104B40007A10D5016D937D938D939C93139764EDAB
:104B500070E6C8010E947A106093426A7093436ABB
:104B60008093446A9093456A8AE090E00E94C30E65
:104B7000B1CCC8010E947A10AB01BC01F501808163
:104B80009181A281B3812C013D01FCE34F0E511CA8
:104B9000611C711C441555056605770508F09FCC0E
:104BA000CC97A109B10984179507A607B70708F0A4
:104BB00096CCD5014D935D936D937C931397C7CF9E
:104BC000F7018085882309F48ACCEC56FF4F808159
:104BD0009091976B83FD02C096FF81CC92FD04C03B
:104BE0008871883009F47BCC8091756890917668E3
:104BF000A0917768B09178688F3FFFEF9F07AF076C
:104C0000BF0709F453C00196A11DB11D80937568BB
:104C100090937668A0937768B0937868F701EE5622
:104C2000FF4FE081EE0DFF2DF11D108228E0E20E16
:104C3000F11C0EEA15E0B12CD8016D917D918D012A
:104C4000C7010E94DA34892BB1F50B2D10E0C11495
:104C5000D10409F442C0CF59DE4FD882C156D140A9
:104C6000CE59DE4FC882C256D140B801605C7F4F3A
:104C7000660F771F42E0CE018F599E4F0E94ED05CF
:104C8000EFEFCE16DE06E1F0F801EE0FFF1FE6545F
:104C9000F849C082D182F801E159F74980818061E9
:104CA00080838AE090E00E94C30E19CC81E090E0FE
:104CB000A0E0B0E0ABCFB394B4E0BB12BDCF0FCC5B
:104CC000F801EE0FFF1FE654F84910821182F80137
:104CD000E159F74980818F7EE3CFF801EE0FFF1F86
:104CE000E654F849E080F180E114F10409F4F7CBCF
:104CF000AEE6B8E68C918F7D8C93F801E159F749C7
:104D0000908195FFCECF86FD0AC08B7F8C938FEF6D
:104D10009FEF80936A6890936B6810926C6829D7B4
:104D200020E031E040E050E00E94F832607F6A60AD
:104D30008AED97E60E94EB0B05EE1AE6D80119966C
:104D40006C918AED97E60E94EB0BF80160858AED85
:104D500097E60E94EB0B6F2D8AED97E60E94EB0B16
:104D60006E2D8AED97E60E94EB0B6091736870914F
:104D700074686E3F7105D0F56F5F7F4F6093736805
:104D8000709374688AED97E60E94EB0BF2D620E0F0
:104D900031E040E050E00E94F8328AED97E60E9450
:104DA000EB0B61E08AED97E60E94EB0B8AED97E64C
:104DB0000E941C0CBE016F577F4F8B2D0E945E1806
:104DC000BE016F577F4F8AED97E60E944F0C8AED28
:104DD00097E60E94C40B9091976BEEE6F8E680810F
:104DE000877F97FF88608B7F80625ACF61E070E099
:104DF000C5CFEEE6F8E6808185FD02C00C94B218BE
:104E00002AED37E620937066309371668064808364
:104E100083FD9AC01092AB67809170669091716625
:104E2000009709F4C2C0ABEAB7E62C9131E0320F2B
:104E30003C93233030F00E949B0A109270661092CF
:104E400071668091706690917166892B29F310923A
:104E50006F66BFEFB0931367EBE9FBE680818230AA
:104E600028F5A3E3BAE62C9130E02F5F3F4FB7E17E
:104E7000B29FC001B39F900D11248E569649CED695
:104E8000892B09F447CA0E94A80A80916F668F5F38
:104E900080936F66893C00F3809170669091716693
:104EA0000E949B0A109270661092716680917066E3
:104EB00090917166009709F4AFCFEBE9FBE6208192
:104EC000223008F4A9CF7AD18111A6CF10926E6654
:104ED00010926F6680916E66811127C0A3E3BAE6D7
:104EE0002C9130E02F5F3F4FB7E1B29FC001B39FDD
:104EF000900D11248E56964991D6892B09F40ACA31
:104F00000E94630980936E6680916F668F5F8093C5
:104F10006F66893CF8F280917066909171660E948C
:104F20009B0A109270661092716680916E66813055
:104F300099F480917066909171660E949B0A10921C
:104F400070661092716668CF60916C6870E08AED4F
:104F500097E60E948F055ECF0E94D008E3E3FAE651
:104F6000208130E02F5F3F4FF7E1F29FC001F39FB8
:104F7000900D11248E56964951D6892B09F44ECAAC
:104F80000E94E808A3E3BAE62C9130E02F5F3F4F80
:104F9000B7E1B29FC001B39F900D11248E56964980
:104FA0003DD6892B09F038CF57CAEEE6F8E6808166
:104FB0008F7B8F7D80830C94B2182531B0F110E087
:104FC0008091386C8111A6C890E080E0A7014E5E08
:104FD0005F4FDA01A80FB91FE1E4F1E0EC0FFD1F0C
:104FE000E80FF91F24E03E9131932150E1F7049638
:104FF0008031910571F760E1CE018F5B9E4F0E9479
:10500000AA0BCF5ADE4F9883C155D140CE5ADE4FFE
:105010008883C255D1401260123009F480C8133021
:1050200009F49FC8113009F45CC88BEB95E60E9427
:10503000EA0511EE612FC70126D106E91BE6D8016A
:1050400011966C9181EA9BE60E94EB0BF80160815E
:105050000C94EC1C1E3E71F78DEC95E60E94EA055F
:10506000E9CFEF93FF93F89AEEE7F6E60BC0EF93E4
:10507000FF93F89AEEE7F6E634C0EF93FF93EEE77E
:10508000F6E65FC02F932FB72F938F939F93AF9325
:10509000BF936894CF93DF9320E0C085D8E09289D6
:1050A000DF01A90FB21FAD5ABF4F8C9120E42C83B2
:1050B0008A839F5F9F738D812189291302C08F7D11
:1050C0008D83928BDF91CF9116F00C946B08BF917A
:1050D000AF919F918F912F912FBF2F91FF91EF91C2
:1050E00018952F932FB72F933F938F939F93CF9321
:1050F000DF93C085D8E02E812F7E2E838981988111
:105100008674880F3685382B82FD0DC0C78581E0F7
:105110008C0F8F732089281791F0CE0FDF2F20E09E
:10512000D21F9B8B87873687DF91CF919F918F917D
:105130003F912F912FBF2F91FF91EF9118953064E0
:10514000F2CF8F938FB78F939F93CF93DF93C085C9
:10515000D8E09D8188818C8187FDFCCF9F7B906802
:105160009D83DF91CF919F918F918FBF8F91FF9101
:10517000EF9118951F920F920FB60F92112484E0B1
:105180000E942D0AEF93FF93E4E7F6E68F938FB723
:105190008F9380818F5F808381818F4F8183828114
:1051A0008F4F828383818F4F838381E08093260B8F
:1051B0008F918FBF8F91FF91EF911895CF93DF93D0
:1051C000009709F43EC0FC01EE56FF4F20812830C5
:1051D000C0F1EC018093AD679093AE676091136767
:1051E0008EE796E60E946C08809113678093AF6704
:1051F0006BE18EE796E60E946C088BE18093B067C6
:10520000CC56DF4F88818260888382E08093B267CA
:10521000809315671092146788818E7F8883982FFA
:10522000947083FF09C085E0911184E08093B36797
:1052300080E0DF91CF91089583E09923B9F382E074
:10524000F5CF81EEF6CFFF920F931F93CF93DF93AD
:105250008C01F42EC62FD0E0CF1578F4F801C111DF
:1052600008C06081606881EA9BE60E94EB0B219692
:10527000F3CFEC0FFD1F6081F6CFDF91CF911F912F
:105280000F91FF900895CF93C62F46E060E0DBDFDB
:1052900070D420E031E040E050E00E94F83281EA32
:1052A0009BE60E94EB0B6C2F81EA9BE60E94EB0BC6
:1052B00081EA9BE6CF910C941C0C0F931F93CF9324
:1052C000DF93CDB7DEB7A097CDBFDEBF109280666B
:1052D0001092816688EE93E0A0E0B0E08093826651
:1052E00090938366A0938466B093856689E691E681
:1052F00080937E6690937F6680E298E080938666D6
:10530000909387668EEC95E080938866909389668B
:1053100083E080938A6610928B6610928C660E945E
:10532000E10484E08093460482E080936604109256
:1053300012671092AD671092AE6710926E6810926D
:105340006C6881E090E08093736890937468109229
:10535000756810927668109277681092786810924B
:10536000796810927A6810926F681092BA671092FA
:10537000BB67109270681092BC671092BD67109264
:1053800071681092BE671092BF6710927268109297
:10539000C0671092C1671092A7681092A868109217
:1053A000A9681092AA681092AB681092AC6810922B
:1053B000AD681092AE680AE010E08091E46A88233C
:1053C00029F00E948E0A01501109B9F710929F68C6
:1053D0001092A3681092A4681092A5681092A66813
:1053E0001092A0681092A1681092A26810920F69A2
:1053F000109290691092916948E050E060E170E08D
:10540000CE0101960E944C051092EF6A8981853584
:1054100051F48AEA8A838B81833C29F48CE38C8360
:1054200081E08093EF6A8D8190E0982F88272E810C
:10543000820F911D8093F06A9093F16A8F8190E0C2
:10544000982F88272885820F911D8093F26A909368
:10545000F36A40E250E060E370E0CE0101960E9402
:105460004C0580E02981822B2A81382F2093E56A20
:105470003093E66A80E02B81822B2C81382F209399
:10548000E76A3093E86A8091E96A9091EA6AA091AC
:10549000EB6AB091EC6ABA2FA92F982F8827298937
:1054A000822BBA2FA92F982F88272A89822BBA2FCF
:1054B000A92F982F88272B89822BBA2FA92F982FB5
:1054C00088272C89822B8093E96A9093EA6AA093BB
:1054D000EB6AB093EC6A80E0298D822B2A8D382FFD
:1054E0002093ED6A3093EE6A80E02D8D822B2E8D15
:1054F000382F2F3F320709F4A8C02093F46A309365
:10550000F56A40E250E060E071E086EF9AE60E94C2
:105510004C051092156B40E450E060E471E086E1C8
:105520009BE60E944C051092556B40E450E060E809
:1055300071E086E59BE60E944C051092956B84E62F
:105540009AE680935E6A90935F6A80E890E0809329
:10555000606A9093616A1092626A1092636A8BE744
:1055600091E680935C6A90935D6A1092466A10920D
:10557000476A1092486A1092496A1092426A1092E1
:10558000436A1092446A1092456A1092406A1092DF
:10559000416A1092566A1092576A1092586AE4E370
:1055A000FAE680E49AE62EEF3FEF168A178A2193F7
:1055B00031938E179F07C9F71092596A10925A6A51
:1055C00010929F6B1092A06B1092336C1092356CFE
:1055D0001092366C1092376C8FEF9FEF8093966B22
:1055E0009093976B8091ED6A9091EE6A8115984047
:1055F00010F548E150E060E670E0CE0101960E94AF
:105600004C058D8990E0982F88274E89480F592F97
:10561000511D8F89282F30E0322F2227888D820F4D
:10562000932F911D809590954817590799F44093B1
:10563000966B5093976B1092386CA096CDBFDEBFDF
:10564000DF91CF911F910F9108951092F46A1092FB
:10565000F56A57CF60E1CE0101960E94AA0B298915
:1056600030E0322F22274A89240F311D28173907AD
:1056700011F783E28093966B86E08093976BDBCF84
:10568000CF93DF93CDB7DEB7A097CDBFDEBF88ED58
:1056900021E030E084BF2093620091E084BF9093CA
:1056A00063009DE284BF9093800093E084BF909359
:1056B000600080E090E22091650020FD77C021E04D
:1056C0002093030A9EEF9093260A9093270A8BE07B
:1056D0008093000A85E08093E7051092E80537E0A3
:1056E0003093010B90930C0B10920D0B8093000BD9
:1056F0003093110B90931C0B10921D0B8093100B89
:105700004FEF5FE04093AA0B5093AB0B90E8909360
:10571000820B1092810B4EEF50E04093AE0B5093F2
:10572000AF0B18ED94E114BF9093680091E1909352
:10573000800B1092E905809302069EE09093050687
:1057400090E690930306809300068091B000887FD6
:1057500085608093B0008091B200887F85608093DF
:10576000B2008FED9EE280932C0B90932D0B209333
:10577000250B1092210B83E08093200B789400E29C
:105780000093A10461E089E10E94FA0D0093610495
:1057900060E081E10E94FA0D14BF89E180938000EE
:1057A0008091650084FD08C00000FACF019709F0E0
:1057B00082CF83E00E942D0A88ED84BF83E080932E
:1057C00060000E94E8088EE796E60E944208892B56
:1057D00039F08EE796E60E9420080E948E0AF3CFE9
:1057E0000E94D60E0E94D90E87EE95E60E94570FB2
:1057F0008CEE95E60E94570F83EF95E60E94490FC5
:105800000E94D90E88EF95E60E94570F6091ED6ACD
:105810007091EE6A90E080E040E10E94E10E80919C
:10582000F66A8F5F8A3040F082E096E60E94570F5A
:1058300086EF9AE60E94570F0E94D60E8BE096E6FE
:105840000E94570F80E092E60E94570F84E196E68F
:105850000E94570F81E090E00E941E0F8EE20E948E
:10586000B80890E080E00E941E0F80E296E60E9459
:10587000570F8091EB6A9091EC6A009729F00E9493
:105880001E0F8EE20E94B8088091E96A9091EA6A40
:105890000E941E0F0E94D60E87E296E60E94570FC6
:1058A00082E292E60E94570F81E396E60E94570F2C
:1058B00090E080E00E941E0F8EE20E94B8088FE008
:1058C00090E00E941E0F82E392E60E94570F6091C3
:1058D000F06A7091F16A90E080E040E10E94E10E90
:1058E0008EE20E94B8086091F26A7091F36A90E0CB
:1058F00080E040E10E94E10E0E94D60E8091166B7E
:105900008F5F8A3040F081EC91E60E94570F86E16C
:105910009BE60E94490F8091566B8F5F8A3040F062
:105920008AEE91E60E94570F86E59BE60E94490F9A
:1059300089E096E60E94490F0E940B070E940B0720
:105940000E94BB0C87EE95E60E9469068CEE95E6F8
:105950000E94690683EF95E60E94EA050E94BB0C4F
:105960000E949C0D0E94100D0E94490D0E94E706A6
:105970000E94F9060E94A30C48E150E060E670E046
:10598000CE0101960E944C0560E1CE0101960E9475
:10599000AA0BAC01298930E0322F22279A89290FDE
:1059A000311D81E02417350709F080E08093386CC1
:1059B000ACE3BCE6FE013196BE016F5E7F4F9FEF08
:1059C0002417350709F490819D9331966E177F0750
:1059D000B1F70E94D5040E940B0789E396E60E9466
:1059E00069068091386C882309F45AC087E496E6EA
:1059F0000E94EA0583EC94E60E9469061092986B77
:105A000086EC9DE08093596A90935A6AE091586AB7
:105A1000E63068F481E08E0F8093586AF0E0EE0F74
:105A2000FF1FE65BF5498AED9FE080839183E0915B
:105A3000586AE63068F481E08E0F8093586AF0E08F
:105A4000EE0FFF1FE65BF5498BE090E180839183C9
:105A5000E091586AE63068F481E08E0F8093586ACE
:105A6000F0E0EE0FFF1FE65BF54980E898E18083E8
:105A70009183E091586AE63068F481E08E0F80935C
:105A8000586AF0E0EE0FFF1FE65BF54985E792E10B
:105A9000808391830E945D0F0E949D0FA895FCCF8B
:105AA00085E496E6A5CFEF920F931F93CF93DF93F4
:105AB000E80134E047FD34E1042E000C550B57FF9C
:105AC00003C0519541955109E32E022F242FAE01B9
:105AD000B7D2CE01DF91CF911F910F91EF90089532
:105AE0008F929F92AF92BF92CF92DF92EF92FF92EE
:105AF000CF93DF93EC01688179818A819B81611565
:105B000071058105910521F464E279ED8BE597E05B
:105B10002DE133EF41E050E06BD549015A019B0183
:105B2000AC01A7EAB1E480D56B017C01ACEEB4EF27
:105B3000A501940185D5C60ED71EE81EF91EF7FEF5
:105B400006C081E0C81AD108E10880E8F80AC882D6
:105B5000D982EA82FB82C701B6019F77DF91CF919C
:105B6000FF90EF90DF90CF90BF90AF909F908F907D
:105B700008958F929F92AF92BF92CF92DF92EF9251
:105B8000FF9260910060709101608091026090913D
:105B90000360611571058105910521F464E279EDD9
:105BA0008BE597E02DE133EF41E050E021D549014D
:105BB0005A019B01AC01A7EAB1E436D56B017C0127
:105BC000ACEEB4EFA50194013BD5C60ED71EE81E7E
:105BD000F91EF7FE06C081E0C81AD108E10880E886
:105BE000F80AC0920060D0920160E0920260F092E8
:105BF0000360C701B6019F77FF90EF90DF90CF90D1
:105C0000BF90AF909F908F900895609300607093C5
:105C1000016080930260909303600895DC012D92EF
:105C20003D924D925D926D927D928D929D92AD923C
:105C3000BD92CD92DD92ED92FD920D931D93CD9389
:105C4000DD93FF91EF918DB78D938EB78D938FB7C5
:105C50008D93ED93FD93882799270994DC01CB015F
:105C600081309105811D2D903D904D905D906D90FE
:105C70007D908D909D90AD90BD90CD90DD90ED90FC
:105C8000FD900D911D91CD91DD91ED91FD910D90C6
:105C90000FBEEDBFFEBFED91FD910994FB01DC014C
:105CA00005900D920020E1F70895ABE0B0E0EAE541
:105CB000FEE2CAC47C013B018A01FC011682178204
:105CC000838181FFBAC1CE0101965C01F701938106
:105CD000F30193FD859193FF81913F01882309F49E
:105CE00049C1853239F493FD859193FF81913F013C
:105CF000853221F4B70190E0EDD3E8CF912C212C2F
:105D0000312CFFE1F31538F08B3211F190F4803231
:105D100009F1833229F137FC3CC020ED280F2A30ED
:105D200050F536FE20C08AE0989E200D1124922E58
:105D300006C08D3291F0803371F7689430F8F3012A
:105D400093FD859193FF81913F018111DACF21C0AD
:105D5000689431F8689432F8F2CF689433F8EFCF52
:105D6000689434F8ECCFEAE02E9E200D1124222E08
:105D7000689435F8E4CF8E3229F436FCFBC0689481
:105D800036F8DDCF8C3619F4689437F8D8CF8836DA
:105D9000B1F2982F9F7D95549330D8F0833691F1CE
:105DA0008337B1F1833509F05EC02801F2E04F0E70
:105DB000511CF801C080D180692D70E036FC02C012
:105DC0006FEF7FEFC60170D34C01689437F8820102
:105DD0000AC00C5F1F4FFFE3F98388248394912C42
:105DE0006501E89437F833FE2AC0522C81149104DF
:105DF00059F5552009F46ACFB70180E290E06AD3E3
:105E00005A94F7CFF801808189830E5F1F4FE5CF49
:105E10002801F2E04F0E511CF801C080D180692D9D
:105E200070E036FC02C06FEF7FEFC60148D34C0133
:105E30008201D7CFB70180E290E04CD32A94281496
:105E4000190409F0B8F7D1CFF60137FC859137FE78
:105E500081916F01B70190E03DD351105A94F1E068
:105E60008F1A9108C3CF843619F0893609F073C0B0
:105E7000F80137FE67C060817181828193810C5F78
:105E80001F4FF32DFF763F2E97FF09C09095809509
:105E9000709561957F4F8F4F9F4F689437F82AE038
:105EA00030E0A50147D3C82ECA188C2C432C36FEEF
:105EB0000CC0E89440F8C91440F434FE05C032FC2C
:105EC00003C0F32DFE7E4F2E892C44FE90C0FE01B0
:105ED000EC0DF11D8081803309F082C0242D297ED4
