:1000000011240E94110148E050E060E170E080E0BE
:1000100090E60E947B018111A8C08091046090E06D
:10002000982F882720910560820F911D8093096287
:1000300090930A6280E094E0809307629093086254
:1000400080E090E60E94C80081118FC0F89480E2A1
:100050008093A1048093A60410920262109203621E
:10006000109200621092016266C0A89560910762CA
:100070007091086240E052E080E090E60E947B01CF
:10008000809107629091086288279E7F0E94E0001D
:10009000109205621092066244C0809107629091AE
:1000A00008622050304AF901608170E080FF10C082
:1000B000762F66272091006230910162622B732BAC
:1000C00060930062709301628E7F0E94F10104C010
:1000D0006093006270930162809107629091086260
:1000E00001968093076290930862809102629091DA
:1000F00003620196809302629093036220910962E9
:1001000030910A622817390718F40E94D90013C0E9
:1001100080910562909106620196809305629093AA
:10012000066220910562309106622115F2E03F07D8
:1001300008F4B3CFEACF209102623091036280913C
:10014000096290910A628217930708F08ECF44E00B
:1001500060E170E090E080E00E94BD0188ED84BF26
:1001600082E0809300010000FECF0C94000222E6A2
:10017000A0E0B0E601C01D92AB30B207E1F780E528
:100180000000A8958150E1F708950000A895089512
:10019000FC018081853559F481818A3A41F482815C
:1001A000833C29F483818C3311F480E008958EEE32
:1001B000089580910210837009F40895A895F9CFED
:1001C0000F931F93CF93DF938C010E94D900CDE949
:1001D000D0E0C4BFD093001088E0C4BF809300106B
:1001E00070E060E0C8010E94F1010E94D900C4BF24
:1001F000D093001082E0C4BF80930010DF91CF91B4
:100200001F910F910895CF93DF93C0E6D4E088E06B
:100210008A830E94C50080E18A830000DF91CF912C
:1002200008950E94030184E08093460482E0809355
:1002300066040895CF93DF930E940301C0E6D4E0E3
:1002400080E189830E94C50088E089830000DF91F6
:10025000CF9108951F93CF93DF930000C0E6D4E0C1
:1002600018E01A830E94C5008885198300008295D2
:100270008170DF91CF911F9108951F93CF93DF93EA
:10028000D82FC8E010E1D7FF12C010936204DD0F31
:100290000E942A01C150B9F7C0E1C09362040E94D4
:1002A0002A01C0936104DF91CF911F9108951093AB
:1002B0006104EDCF1F93CF93DF93182F80E18093DC
:1002C0006204D8E0C0E0CC0F0E942A01C82BD150B4
:1002D000D1F780E1112361F0809362040E942A012A
:1002E00080E1809361048C2FDF91CF911F9108955D
:1002F00080936104F3CFCF92DF92FF920F931F930D
:10030000CF93DF93EC01D62EC72E8A010E941A01EB
:1003100088EA0E943D01F82E81112CC08C2D0E948C
:100320003D018D2D0E943D010E941A0189EA0E9423
:100330003D016E0101501109C6018C1B9D0B8017F8
:10034000910788F0C00FD11F81E00E945A01888375
:100350000E9403018F2DDF91CF911F910F91FF908C
:10036000DF90CF90089580E00E945A01F6018193BA
:100370006F01E2CF8EEEF82EEBCFEF92FF920F934C
:100380001F93CF93DF937C01EB01042F0E941A018E
:1003900088EA0E943D01882371F00E940301C4E6AF
:1003A0000E94BF00C150E1F7DF91CF911F910F91E3
:1003B000FF90EF9008958D2F0E943D018C2F0E9499
:1003C0003D01E7010E0D1F2D111DC017D10729F3A7
:1003D00080E0E114F10409F088810E943D0121963A
:0C03E000F4CFFC010B01E89511240895F6
:02000004008278
:090000000000000000D914000208
:00000001FF
