:10000000112488ED84BF8AE0809300010E941B01C7
:1000100048E050E060E170E080E090E60E948501F9
:100020008111A9C08091046090E0982F88272091C9
:100030000560820F911D8093096290930A6280E0AF
:1000400094E0809307629093086280E090E60E94BB
:10005000D200811190C0F89480E28093A104809333
:10006000A604109202621092036210920062109233
:10007000016267C0A895609107627091086240E0D4
:1000800052E080E090E60E948501809107629091A5
:10009000086288279E7F0E94EA00109205621092F3
:1000A000066245C080910762909108622050304AF4
:1000B000F901608170E080FF10C0762F66272091E3
:1000C000006230910162622B732B60930062709327
:1000D00001628E7F0E94FB0104C0609300627093F6
:1000E0000162809107629091086201968093076295
:1000F00090930862809102629091036201968093CE
:100100000262909303622091096230910A6228177B
:10011000390720F40E94E300A89513C0809105627E
:1001200090910662019680930562909306622091F9
:100130000562309106622115F2E03F0708F4B2CF64
:10014000E9CF20910262309103628091096290911F
:100150000A628217930708F08DCF44E060E170E0F7
:1001600090E080E00E94C70188ED84BF82E0809328
:1001700000010000FECF88ED84BF109200010C94B6
:10018000000222E6A0E0B0E601C01D92AB30B2074B
:10019000E1F780E50000A8958150E1F7089500009F
:1001A000A8950895FC018081853559F481818A3AAA
:1001B00041F48281833C29F483818C3311F480E003
:1001C00008958EEE089580910210837009F40895C9
:1001D000A895F9CF0F931F93CF93DF938C010E94C3
:1001E000E300CDE9D0E0C4BFD093001088E0C4BFE5
:1001F0008093001070E060E0C8010E94FB010E9443
:10020000E300C4BFD093001082E0C4BF809300100D
:10021000DF91CF911F910F910895CF93DF93C0E6A7
:10022000D4E088E08A830E94CF0080E18A830000C6
:10023000DF91CF9108950E940D0184E080934604E0
:1002400082E0809366040895CF93DF930E940D01AE
:10025000C0E6D4E080E189830E94CF0088E08983F2
:100260000000DF91CF9108951F93CF93DF9300009B
:10027000C0E6D4E018E01A830E94CF008885198375
:10028000000082958170DF91CF911F9108951F9397
:10029000CF93DF93D82FC8E010E1D7FF12C010939F
:1002A0006204DD0F0E943401C150B9F7C0E1C09370
:1002B00062040E943401C0936104DF91CF911F91C9
:1002C000089510936104EDCF1F93CF93DF93182F00
:1002D00080E180936204D8E0C0E0CC0F0E9434013A
:1002E000C82BD150D1F780E1112361F080936204D3
:1002F0000E94340180E1809361048C2FDF91CF91C3
:100300001F91089580936104F3CFCF92DF92FF9203
:100310000F931F93CF93DF93EC01D62EC72E8A0144
:100320000E94240188EA0E944701F82E81112CC006
:100330008C2D0E9447018D2D0E9447010E942401AF
:1003400089EA0E9447016E0101501109C6018C1B08
:100350009D0B8017910788F0C00FD11F81E00E948C
:10036000640188830E940D018F2DDF91CF911F9131
:100370000F91FF90DF90CF90089580E00E9464017C
:10038000F60181936F01E2CF8EEEF82EEBCFEF9264
:10039000FF920F931F93CF93DF937C01EB01042F08
:1003A0000E94240188EA0E944701882371F00E947C
:1003B0000D01C4E60E94C900C150E1F7DF91CF9161
:1003C0001F910F91FF90EF9008958D2F0E9447018C
:1003D0008C2F0E944701E7010E0D1F2D111DC01724
:1003E000D10729F380E0E114F10409F088810E942B
:1003F00047012196F4CFFC010B01E89511240895E3
:02000004008278
:090000000000000000D90C000210
:00000001FF
