:100400000C9448020C9452020C9452020C94520226
:100410000C9452020C9452020C9452020C9452020C
:100420000C9452020C9452020C9452020C945202FC
:100430000C9452020C9452020C9452020C945202EC
:100440000C9452020C9452020C9452020C945202DC
:100450000C9452020C9452020C9452020C945202CC
:100460000C9452020C9452020C9452020C945202BC
:100470000C9452020C9452020C9452020C945202AC
:100480000C9452020C9452020C9452020C9452029C
:1004900011241FBECFEFCDBFDFE7DEBF0E945402A5
:1004A0000C946D020C94000280E284BB85BB8CB975
:1004B0008DB99DB189278DB990E22FE73AE186E0A9
:1004C000215030408040E1F700C000008DB1892705
:0E04D0008DB985B3892785BBF0CFF894FFCF97
:02000004008278
:090000000000000000D914000208
:0400000300000400F5
:00000001FF
