:1004000051C0000082C0000080C000007EC000001B
:100410007CC000007AC0000078C0000076C00000F8
:1004200074C0000072C0000070C000006EC0000008
:100430006CC000006AC0000068C0000066C0000018
:1004400064C0000062C0000060C000005EC0000028
:100450005CC00000E3C40000DBC40000E5C4000091
:1004600054C0000052C0000050C000004EC0000048
:100470004CC000004AC0000053C5000046C0000048
:1004800044C0000042C0000040C000003EC0000068
:100490000000020104060202FF03101204090B050A
:1004A0000007AC0711241FBECFEFCDBFDFE7DEBFD3
:1004B0008091400080934000811105C098ED21E0BB
:1004C00094BF209341008CBB10E6A0E0B0E6E4E1CD
:1004D000F9E102C005900D92A43EB107D9F722E6DA
:1004E000A4EEB0E601C01D92A131B207E1F712E01F
:1004F000C2E5D2E004C02197FE010E94620CC13522
:10050000D107C9F78DD50C94880C7ACFE0E6F4E0DA
:1005100088E0828388E18A95F1F780E18283000098
:1005200008950000E0E6F4E098E0928388E18A957F
:10053000F1F78085918300008295817008951F9363
:10054000CF93DF93D82FC8E010E1D7FF10C01093EE
:100550006204DD0FE6DFC150C1F7C0E1C093620461
:10056000E0DFC0936104DF91CF911F910895109354
:100570006104EFCFCBDFE0E6F4E080E1818388E146
:100580008A95F1F788E0818300000895EF92FF9249
:100590000F931F93CF93DF937C01062FEBDF84E44F
:1005A000CEDF182F811111C0E7018FEFE80EF11C8B
:1005B0008991882321F0C3DFEC16FD06C9F70023DB
:1005C00021F08DE0BCDF8AE0BADFA0DF812FDF9170
:1005D000CF911F910F91FF90EF9008954F925F92EE
:1005E0006F927F928F929F92AF92BF92CF92DF9243
:1005F000EF92FF920F931F93CF93DF938FB7F894EF
:10060000C090E560D090E660E090E760F090E86030
:100610008FBF860180E1882E8EE0982EA12CB12C10
:100620009CE3492E512C612C712C20910B6230914E
:100630000C62C0910D62D0E08091F9619091FA61F5
:100640000217130709F47BC02F5F3F4FE1EFF1E67C
:1006500070E060E06C177D0774F4419151911416BD
:10066000150634F4DF011297415051094D935C9304
:100670006F5F7F4FEFCF0196883E43E0940700F312
:1006800020930B6230930C628091FF619091006225
:10069000A0910162B09102620196A11DB11D8093EB
:1006A000FF6190930062A0930162B0930262809117
:1006B000FB619091FC61A091FD61B091FE6101969A
:1006C000A11DB11D8038E1E59E07E1E0AE07B1054F
:1006D00068F58093FB619093FC61A093FD61B093FA
:1006E000FE611092F9611092FA61C0910E62D09190
:1006F0000F62209709F499CF6091FB617091FC61C2
:100700008091FD619091FE61A50194010E94400CD1
:10071000A30192010E94400C80911062821709F49B
:1007200084CF20931062FE0109957FCF1092FB6168
:100730001092FC611092FD611092FE61D2CFC092C6
:100740000B62D0920C628093F9619093FA61DF9111
:10075000CF911F910F91FF90EF90DF90CF90BF90BE
:10076000AF909F908F907F906F905F904F90089583
:10077000AF92BF92CF92DF92EF92FF920F931F93AF
:10078000CF93DF936C017B018B01040F151FEB01ED
:100790005E01AE18BF08C017D10759F06991D601A4
:1007A000ED91FC910190F081E02DC6010995892B16
:1007B00079F7C501DF91CF911F910F91FF90EF90D5
:1007C000DF90CF90BF90AF900895FC01518942898E
:1007D000252F30E0842F90E0821B930B541710F0EC
:1007E000CF96089501970895FC0197858089981701
:1007F00061F0A089AE0FBF2FB11D53968C919089E7
:100800009F5F9F73908B90E008958FEF9FEF089507
:10081000FC0197858089981731F08089E80FF11DD8
:10082000838990E008958FEF9FEF0895FC019785ED
:100830002089892F90E0805C9F4F821B91098F73E4
:1008400099270895FC010FB607FE04C0809111019D
:100850008823A1F0A085B18514968C91149785FF0B
:100860000DC091898289981307C015968C911597B0
:100870008F7D15968C930895E894E3C208950F93A5
:100880001F93CF93DF93EC018E8581608E879989CA
:100890008A8998130BC0E885F985848185FF06C095
:1008A0008E8581FD0DC080E4848312C0062F1989D6
:1008B0001F5F1F738A89811315C0CE01C3DFFACF72
:1008C00085818F77806490E49483E885F9858583BA
:1008D000E885F985628381E090E0DF91CF911F91F7
:1008E0000F910895E989EC0FFD2FF11DED5AFF4F8F
:1008F0000083198B8E85E885F98581FF09C0858184
:100900008F77806690E49483E885F9858583E3CFCB
:1009100085818062FBCFCF93DF93EC018E858823A6
:1009200059F0E885F985858185FD03C0848186FDC0
:1009300003C0CE0187DFF5CFDF91CF910895CF932C
:1009400019DE84E4FCDDC82F811102C08EE2F7DDE0
:10095000DDDD8C2FCF910895BF92CF92DF92EF9281
:10096000FF920F931F93CF93DF93CDB7DEB76097BE
:10097000CDBFDEBF182F092FC62EFCDD84E4DFDDDE
:10098000D82E811123C00F931F9382E890E69F9386
:100990008F93CE0101967C019F938F9399D7B82EA8
:1009A0000F900F900F900F900F900F908701802F56
:1009B0008E198B1528F4F80181918F01C0DDF7CFD6
:1009C000CC2021F08DE0BBDD8AE0B9DD9FDD8D2DEF
:1009D0006096CDBFDEBFDF91CF911F910F91FF9049
:1009E000EF90DF90CF90BF9008950F931F93CF9318
:1009F000DF93CDB7DEB76097CDBFDEBF6091FB61FF
:100A00007091FC618091FD619091FE6120E13EE07A
:100A100040E050E035D7122F2CE330E040E050E0CA
:100A20002FD73F932F931F921F9385E890E69F93B4
:100A30008F938E010F5F1F4F1F930F9349D760E075
:100A4000C801A4DDCDBFDEBF6096CDBFDEBFDF91A4
:100A5000CF911F910F910895CF93DF93CDB7DEB75C
:100A6000BDDD1092F061A0EFB1E6EC91ADE0B2E631
:100A70008C91E81740F5F0E0EE0FFF1FED5FFD49A8
:100A800080819181892B91F08DE791E619D4E0EF77
:100A9000F1E6208130E0220F331FF901009769F45D
:100AA000ED5FFD490190F081E02D099597DDA0EF04
:100AB000B1E68C918F5F8C93D6CFEF50FE490197B2
:100AC00080839183F3CFE0EFF1E61082DF91CF9145
:100AD0000895CF93DF93CDB7DEB7E091F061F0E0FA
:100AE000EE0FFF1FEF50FE4980819181892BE9F4C1
:100AF0008DE791E6E5D32091F06130E0009769F44D
:100B00002F5F3F4F47E1429FC001439F900D11244B
:100B100061E070E083589E49F3D3220F331FF9013F
:100B2000EF50FE49019780839183E0EFF1E68081E9
:100B30008F5F808390910D62981708F410824EDDCC
:100B4000DF91CF910895CF93DF93CDB7DEB7E0EF7C
:100B5000F1E6208130E02F5F3F4FF7E1F29FC001C7
:100B6000F39F900D112483589E49AAD3892B29F411
:100B700062E070E08DE791E6C3D380917C618823C9
:100B800031F3815080937C61E2CF0F931F93CF9319
:100B9000DF93482F50E0DA01AC5ABF498C918F3F68
:100BA00009F4A3C08A01085C1F49E801E881D0E28A
:100BB000ED9FF0011124FC5F611132C086839081AA
:100BC00089239A01245E3F49811111C0E90198816E
:100BD000309741F1983030F57096E90FF11D9FB7CD
:100BE000F8948081611121C0877F80839FBFF901C4
:100BF00080818F3F09F479C0E80128818630B8F4FC
:100C00008091E7058770281312C0EC91E53008F059
:100C1000EE0F8091010AE095E823E093010A65C098
:100C20008583CDCFF0E0E0E0DACF8860DECF4050C2
:100C3000504AFA01808186FF42C09091E905977081
:100C4000482F50E04F7B94171506C9F5EC91809121
:100C5000920B9E2FE03110F49295907F892309F436
:100C600044C0D0E22D9F900111243C5FE83008F091
:100C700052C0205F3F4FE20FF32FF11D4FB7F894A2
:100C80009091800B9E7F9093800B90918E0B90FFA4
:100C9000FCCF2091920B90E08095909530E08223DC
:100CA000932328ED24BF8093920B8091800B816069
:100CB0008093800B80818F7780834FBF16C085FF24
:100CC00012C090E1899FF0011124F75F9181977024
:100CD000973059F4EC91853268F4803298F4803181
:100CE00009F494CF02C08111F5CFDF91CF911F910C
:100CF0000F910895803409F4AACF8038B1F710928B
:100D0000A006F3CFC0E18C9FF0011124F75F818131
:100D10008F7E8183EACFF0E0E0E0B0CFCF93DF9326
:100D2000CDB7DEB70CDE60E089E12FDFE0EFF1E662
:100D3000208130E02F5F3F4FF7E1F29FC001F39F2A
:100D4000900D112483589E49BBD2892B29F465EF5D
:100D500071E08DE791E6D4D261E089E116DFE0EF42
:100D6000F1E6208130E02F5F3F4FF7E1F29FC001B5
:100D7000F39F900D112483589E49A2D2892B39F3F9
:100D80008091E4608F5F8093E4608C3358F210921E
:100D9000E46060E081E990E6F9DB60E0EFEFF1E626
:100DA00080819181D9DD61E08CE990E6EFDBBACFFB
:100DB000CF93DF93CDB7DEB72091F06130E02F5FA6
:100DC0003F4F47E1429FC001439F900D112483583C
:100DD0009E4976D265E670E0892B99F0E0EFF1E666
:100DE000208130E02F5F3F4FF7E1F29FC001F39F7A
:100DF000900D112483589E4963D2892B29F46BE806
:100E000072E08DE791E67CD260E089E1BEDEE6CF5C
:100E1000EF93FF93F898E9EEF0E60BC0EF93FF93A2
:100E2000F898E9EEF0E633C0EF93FF93E9EEF0E6D1
:100E30005EC02F932FB72F938F939F93AF93BF9342
:100E40006894CF93DF9320E0C085D8E09289DF01DA
:100E5000A90FB21FAD5ABF4F8C9120E42C838A8317
:100E60009F5F9F738D812189291302C08F7D8D83A0
:100E7000928BDF91CF910EF001CDBF91AF919F91F9
:100E80008F912F912FBF2F91FF91EF9118952F9355
:100E90002FB72F933F938F939F93CF93DF93C0856B
:100EA000D8E02E812F7E2E83898198818674880FC9
:100EB0003685382B82FD0DC0C78581E08C0F8F737E
:100EC0002089281791F0CE0FDF2F20E0D21F9B8BB7
:100ED00087873687DF91CF919F918F913F912F9197
:100EE0002FBF2F91FF91EF9118953064F2CF8F9320
:100EF0008FB78F939F93CF93DF93C085D8E09D8169
:100F000088818C8187FDFCCF9F7B90689D83DF91DA
:100F1000CF919F918F918FBF8F91FF91EF911895F6
:100F2000EF93FF93E5EEF0E68F938FB78F93808179
:100F30008F5F808381818F4F818382818F4F8283F6
:100F400083818F4F838381E08093260B8F918FBFA6
:100F50008F91FF91EF911895E9EEF0E612821382DE
:100F600088EE93E0A0E0B0E084839583A683B78306
:100F700084E790E68083918380E098E08087918782
:100F800080E994E08287938785E0848715861686BA
:100F90001092FF6110920062109201621092026240
:100FA0001092FB611092FC611092FD611092FE6143
:100FB0001092F9611092FA6110920B6210920C6219
:100FC00010920D6210920362109204628EEF9FEFF6
:100FD0008093F1619093F261109205621092066223
:100FE0008093F3619093F46110920762109208620B
:100FF0008093F5619093F6611092096210920A62F3
:101000008093F7619093F86110920E6210920F62D4
:101010007DDA84E08093460482E08093660408953C
:1010200088ED94E284BF9093680021E02093030A46
:101030009EEF9093260A9093270A8BE08093000AF4
:1010400085E08093E7051092E80537E03093010BC7
:1010500090930C0B10920D0B8093000B3093110B9F
:1010600090931C0B10921D0B8093100B4FEF5FE0C1
:101070004093AA0B5093AB0B90E89093820B109285
:10108000810B4BEF53E04093AE0B5093AF0B91E7C6
:101090009093800B1092E905809302069EE0909356
:1010A000050690E690930306809300068091B000B9
:1010B000887F85608093B0008091B200887F8560D2
:1010C0008093B2008FED9EE280932C0B90932D0BBA
:1010D0002093250B1092210B83E08093200B7894B2
:1010E0008091F76080FF13C089EE90E614DCE091F8
:1010F000F160F091F260868116828581158280E42C
:1011000084838091F9608093F8601092F7606FB7E4
:10111000F894E091F160F091F260168233E0378349
:1011200081E493E080879187148680E8858380EC52
:1011300086832091F6607091F5608091F3609091C4
:10114000F460FC01239FE00DF11D112445915491A1
:10115000271708F03EC05C3190F4252F30E0F901EC
:10116000EC5AFF49A081AF3F51F0285C3F49E901AB
:10117000E881D0E2ED9FF0011124FC5FA18321E022
:10118000250F2C3130F530E0F901EC5AFF49C081D0
:10119000CF3FF9F0F901E85CFF49A081E0E2AE9FA2
:1011A000D0011124BC5F245E3F49F901D081F0E0F9
:1011B000E0E0D83030F49D01205F3F4FF901ED0FA2
:1011C000F11D3FB7F8941296CC93208128602083BC
:1011D0003FBFFC0123E0729FE00DF11D1124329608
:1011E000E4918091E205E095E823E42BE093E205A9
:1011F0006FBFC0D984E4A3D9811104C08DE09FD909
:101200008AE09DD983D961E082EA90E6BFD961E0A6
:1012100081EB90E6BBD961E082EA90E6B7D960E065
:1012200080EC90E6B3D960E081E090E095DB87DB6D
:1012300061E090E080E090DB80E28093A104809305
:10124000610461E081E1A1DC85EF94E080930E62AE
:1012500090930F62E0910D62E43068F481E08E0FAC
:1012600080930D62F0E0EE0FFF1FED5FFD498EE809
:1012700096E080839183E0910D62E43068F481E030
:101280008E0F80930D62F0E0EE0FFF1FED5FFD49C2
:1012900088ED96E080839183E0910D62E43068F4FC
:1012A00081E08E0F80930D62F0E0EE0FFF1FED5F87
:1012B000FD4983EA95E080839183CEDB0ADCFECF93
:1012C000DC012D923D924D925D926D927D928D92B8
:1012D0009D92AD92BD92CD92DD92ED92FD920D93D5
:1012E0001D93CD93DD93FF91EF918DB78D938EB7C5
:1012F0008D938FB78D93ED93FD938827992709944C
:10130000DC01CB0181309105811D2D903D904D90E8
:101310005D906D907D908D909D90AD90BD90CD90A5
:10132000DD90ED90FD900D911D91CD91DD91ED91B0
:10133000FD910D900FBEEDBFFEBFED91FD910994A3
:10134000ABE0B0E0E5EAF9E06AC27C013B018A016A
:10135000FC0116821782838181FFBAC1CE010196FA
:101360005C01F7019381F30193FD859193FF8191D6
:101370003F01882309F449C1853239F493FD8591F1
:1013800093FF81913F01853221F4B70190E0B9D1FB
:10139000E8CF912C212C312CFFE1F31538F08B3262
:1013A00011F190F4803209F1833229F137FC3CC00D
:1013B00020ED280F2A3050F536FE20C08AE0989E96
:1013C000200D1124922E06C08D3291F0803371F7DA
:1013D000689430F8F30193FD859193FF81913F016B
:1013E0008111DACF21C0689431F8689432F8F2CFD5
:1013F000689433F8EFCF689434F8ECCFEAE02E9E8F
:10140000200D1124222E689435F8E4CF8E3229F471
:1014100036FCFBC0689436F8DDCF8C3619F468943E
:1014200037F8D8CF8836B1F2982F9F7D95549330F6
:10143000D8F0833691F18337B1F1833509F05EC07E
:101440002801F2E04F0E511CF801C080D180692DB7
:1014500070E036FC02C06FEF7FEFC6013CD14C015B
:10146000689437F882010AC00C5F1F4FFFE3F983CD
:1014700088248394912C6501E89437F833FE2AC0C0
:10148000522C8114910459F5552009F46ACFB70103
:1014900080E290E036D15A94F7CFF80180818983B9
:1014A0000E5F1F4FE5CF2801F2E04F0E511CF801EF
:1014B000C080D180692D70E036FC02C06FEF7FEFF5
:1014C000C60114D14C018201D7CFB70180E290E070
:1014D00018D12A942814190409F0B8F7D1CFF601CD
:1014E00037FC859137FE81916F01B70190E009D1FA
:1014F00051105A94F1E08F1A9108C3CF843619F035
:10150000893609F073C0F80137FE67C060817181C8
:10151000828193810C5F1F4FF32DFF763F2E97FF43
:1015200009C090958095709561957F4F8F4F9F4F23
:10153000689437F82AE030E0A50113D1C82ECA1804
:101540008C2C432C36FE0CC0E89440F8C91440F4AF
:1015500034FE05C032FC03C0F32DFE7E4F2E892CD5
:1015600044FE90C0FE01EC0DF11D8081803309F036
:1015700082C0242D297E422E842D8870582E43FC53
:101580008FC040FE89C09C2C821418F42C0C922C25
:10159000981844FE8BC0B70180E390E0B2D042FEC1
:1015A00008C088E790E041FE02C088E590E0B701FE
:1015B000A8D0C91408F486C0CA94D12C9FEFC91AC8
:1015C000D90ACA0CDB1CF60182916F01B70190E0C9
:1015D00098D0AC14BD04B9F757CF60817181072E44
:1015E000000C880B990B0E5F1F4F96CFD32CE894FD
:1015F000D4F82AE030E0853731F1232D297FD22E2F
:101600008F36F9F040F48835A1F0F7018681978193
:101610002B96E2E11DC1803749F08837B1F7D4FE3F
:1016200002C06894D2F820E130E00DC06894D4F88C
:10163000F6CF34FE03C0822F8660D82E20E132E040
:1016400002C028E030E0F801D7FE0EC06081718151
:10165000828193810C5F1F4FA50183D0C82ECA18C9
:101660003D2CE89437F86CCF6081718190E080E088
:101670000E5F1F4FF1CF42FC02C083947DCF839455
:1016800083947ACF842D867809F476CFF6CFB7018C
:1016900080E290E036D083948214C8F3512C79CF45
:1016A000522C5818821408F474CFF8CF842D867801
:1016B00009F47FCF8BE241FE80E247FC8DE2B70167
:1016C00090E076CFB70180E390E01BD09A9471CF81
:1016D0008FEF9FEF9DCFFC0105906150704001108E
:1016E000D8F7809590958E0F9F1F0895FC0161504B
:1016F000704001900110D8F7809590958E0F9F1F34
:1017000008950F931F93CF93DF93182F092FEB01A9
:101710008B8181FD09C01FEF0FEF812F902FDF918B
:10172000CF911F910F91089582FF14C02E813F81A8
:101730008C819D81281739073CF4E881F981CF011C
:1017400001968883998310838E819F8101968E8371
:101750009F83E3CFE885F985812F0995892BA1F334
:10176000DACFFA01AA27283051F1203181F1E8942B
:101770006F936E7F6E5F7F4F8F4F9F4FAF4FB1E084
:101780003ED0B4E03CD0670F781F891F9A1FA11D7F
:10179000680F791F8A1F911DA11D6A0F711D811D80
:1017A000911DA11D20D009F468943F912AE0269F45
:1017B00011243019305D3193DEF6CF010895462FA4
:1017C0004770405D4193B3E00FD0C9F7F6CF462F85
:1017D0004F70405D4A3318F0495D31FD40524193EE
:1017E00002D0A9F7EACFB4E0A695979587957795AB
:1017F0006795BA95C9F700976105710508959B0132
:10180000AC010A2E06945795479537952795BA95BA
:10181000C9F7620F731F841F951FA01D08952F9293
:101820003F924F925F926F927F928F929F92AF9270
:10183000BF92CF92DF92EF92FF920F931F93CF93BD
:10184000DF93CDB7DEB7CA1BDB0BCDBFDEBF09947C
:101850002A88398848885F846E847D848C849B8440
:10186000AA84B984C884DF80EE80FD800C811B814E
:10187000AA81B981CE0FD11DCDBFDEBFED01089584
:10188000A1E21A2EAA1BBB1BFD010DC0AA1FBB1F84
:10189000EE1FFF1FA217B307E407F50720F0A21BF6
:1018A000B30BE40BF50B661F771F881F991F1A9463
:1018B00069F760957095809590959B01AC01BD018D
:1018C000CF010895EE0FFF1F0590F491E02D0994CC
:1018D000AEE0B0E0EDE6FCE0B0CF0D891E8986E019
:1018E0008C8309831A838FEF9FE78D839E83AE01DC
:1018F000475E5F4F6F89788DCE01019621DD2F8184
:101900003885020F131FF80110822E96E4E0AECF47
:04191000F894FFCF79
:101914000000202140404040220000000000000060
:1019240064748000425262720000000000010203ED
:101934000405060700010203FF010203040506076C
:101944000001020304050607000000000000000077
:10195400020202020303030303030303050505054F
:101964000505050501020408102040800102040851
:10197400FF02040810204080010204081020408067
:10198400000000003F04B803E5038B041604F403CD
:10199400080425640020253032643A25303264205E
:1019A4000020757074696D65203D200020736563A7
:1019B40020003D3D3D3D3D3D3D3D3D3D3D3D3D3DAD
:1019C400003D3D3D2048426E6F6465203D3D3D0035
:1019D40054657374696E6720636F6F7320616E64FE
:1019E40020493243206269742D62616E672C207233
:0419F40065762000F4
:0400000300000400F5
:00000001FF
